{
  "contractName": "EglGenesis",
  "abi": [
    {
      "anonymous": false,
      "inputs": [
        {
          "indexed": false,
          "internalType": "address",
          "name": "contributor",
          "type": "address"
        },
        {
          "indexed": false,
          "internalType": "uint256",
          "name": "amount",
          "type": "uint256"
        },
        {
          "indexed": false,
          "internalType": "uint256",
          "name": "cumulativeBalance",
          "type": "uint256"
        },
        {
          "indexed": false,
          "internalType": "uint256",
          "name": "idx",
          "type": "uint256"
        },
        {
          "indexed": false,
          "internalType": "uint256",
          "name": "date",
          "type": "uint256"
        }
      ],
      "name": "ContributionReceived",
      "type": "event"
    },
    {
      "anonymous": false,
      "inputs": [
        {
          "indexed": false,
          "internalType": "address",
          "name": "contributor",
          "type": "address"
        },
        {
          "indexed": false,
          "internalType": "uint256",
          "name": "amount",
          "type": "uint256"
        },
        {
          "indexed": false,
          "internalType": "uint256",
          "name": "date",
          "type": "uint256"
        }
      ],
      "name": "ContributionWithdrawn",
      "type": "event"
    },
    {
      "anonymous": false,
      "inputs": [
        {
          "indexed": false,
          "internalType": "address",
          "name": "owner",
          "type": "address"
        },
        {
          "indexed": false,
          "internalType": "uint256",
          "name": "cumulativeBalance",
          "type": "uint256"
        },
        {
          "indexed": false,
          "internalType": "uint256",
          "name": "contractBalance",
          "type": "uint256"
        },
        {
          "indexed": false,
          "internalType": "uint256",
          "name": "date",
          "type": "uint256"
        }
      ],
      "name": "GenesisEnded",
      "type": "event"
    },
    {
      "anonymous": false,
      "inputs": [
        {
          "indexed": false,
          "internalType": "address",
          "name": "owner",
          "type": "address"
        },
        {
          "indexed": false,
          "internalType": "bool",
          "name": "canContribute",
          "type": "bool"
        },
        {
          "indexed": false,
          "internalType": "uint256",
          "name": "maxThreshold",
          "type": "uint256"
        }
      ],
      "name": "Initialized",
      "type": "event"
    },
    {
      "anonymous": false,
      "inputs": [
        {
          "indexed": true,
          "internalType": "address",
          "name": "previousOwner",
          "type": "address"
        },
        {
          "indexed": true,
          "internalType": "address",
          "name": "newOwner",
          "type": "address"
        }
      ],
      "name": "OwnershipTransferred",
      "type": "event"
    },
    {
      "anonymous": false,
      "inputs": [
        {
          "indexed": false,
          "internalType": "address",
          "name": "account",
          "type": "address"
        }
      ],
      "name": "Paused",
      "type": "event"
    },
    {
      "anonymous": false,
      "inputs": [
        {
          "indexed": false,
          "internalType": "uint256",
          "name": "contractBalance",
          "type": "uint256"
        },
        {
          "indexed": false,
          "internalType": "uint256",
          "name": "date",
          "type": "uint256"
        }
      ],
      "name": "ThresholdMet",
      "type": "event"
    },
    {
      "anonymous": false,
      "inputs": [
        {
          "indexed": false,
          "internalType": "address",
          "name": "account",
          "type": "address"
        }
      ],
      "name": "Unpaused",
      "type": "event"
    },
    {
      "anonymous": false,
      "inputs": [
        {
          "indexed": false,
          "internalType": "address",
          "name": "owner",
          "type": "address"
        },
        {
          "indexed": false,
          "internalType": "uint256",
          "name": "date",
          "type": "uint256"
        }
      ],
      "name": "WithdAllowed",
      "type": "event"
    },
    {
      "inputs": [],
      "name": "canContribute",
      "outputs": [
        {
          "internalType": "bool",
          "name": "",
          "type": "bool"
        }
      ],
      "stateMutability": "view",
      "type": "function",
      "constant": true
    },
    {
      "inputs": [],
      "name": "canWithdraw",
      "outputs": [
        {
          "internalType": "bool",
          "name": "",
          "type": "bool"
        }
      ],
      "stateMutability": "view",
      "type": "function",
      "constant": true
    },
    {
      "inputs": [
        {
          "internalType": "address",
          "name": "",
          "type": "address"
        }
      ],
      "name": "contributors",
      "outputs": [
        {
          "internalType": "uint256",
          "name": "amount",
          "type": "uint256"
        },
        {
          "internalType": "uint256",
          "name": "cumulativeBalance",
          "type": "uint256"
        },
        {
          "internalType": "uint256",
          "name": "idx",
          "type": "uint256"
        },
        {
          "internalType": "uint256",
          "name": "date",
          "type": "uint256"
        }
      ],
      "stateMutability": "view",
      "type": "function",
      "constant": true
    },
    {
      "inputs": [],
      "name": "contributorsCount",
      "outputs": [
        {
          "internalType": "uint256",
          "name": "",
          "type": "uint256"
        }
      ],
      "stateMutability": "view",
      "type": "function",
      "constant": true
    },
    {
      "inputs": [
        {
          "internalType": "uint256",
          "name": "",
          "type": "uint256"
        }
      ],
      "name": "contributorsList",
      "outputs": [
        {
          "internalType": "address",
          "name": "",
          "type": "address"
        }
      ],
      "stateMutability": "view",
      "type": "function",
      "constant": true
    },
    {
      "inputs": [],
      "name": "cumulativeBalance",
      "outputs": [
        {
          "internalType": "uint256",
          "name": "",
          "type": "uint256"
        }
      ],
      "stateMutability": "view",
      "type": "function",
      "constant": true
    },
    {
      "inputs": [],
      "name": "owner",
      "outputs": [
        {
          "internalType": "address",
          "name": "",
          "type": "address"
        }
      ],
      "stateMutability": "view",
      "type": "function",
      "constant": true
    },
    {
      "inputs": [],
      "name": "paused",
      "outputs": [
        {
          "internalType": "bool",
          "name": "",
          "type": "bool"
        }
      ],
      "stateMutability": "view",
      "type": "function",
      "constant": true
    },
    {
      "inputs": [],
      "name": "renounceOwnership",
      "outputs": [],
      "stateMutability": "nonpayable",
      "type": "function"
    },
    {
      "inputs": [
        {
          "internalType": "address",
          "name": "newOwner",
          "type": "address"
        }
      ],
      "name": "transferOwnership",
      "outputs": [],
      "stateMutability": "nonpayable",
      "type": "function"
    },
    {
      "stateMutability": "payable",
      "type": "receive",
      "payable": true
    },
    {
      "inputs": [
        {
          "internalType": "address",
          "name": "_owner",
          "type": "address"
        },
        {
          "internalType": "uint256",
          "name": "_threshold",
          "type": "uint256"
        }
      ],
      "name": "initialize",
      "outputs": [],
      "stateMutability": "nonpayable",
      "type": "function"
    },
    {
      "inputs": [],
      "name": "withdraw",
      "outputs": [],
      "stateMutability": "nonpayable",
      "type": "function"
    },
    {
      "inputs": [],
      "name": "allowWithdraw",
      "outputs": [],
      "stateMutability": "nonpayable",
      "type": "function"
    },
    {
      "inputs": [],
      "name": "endGenesis",
      "outputs": [],
      "stateMutability": "nonpayable",
      "type": "function"
    },
    {
      "inputs": [],
      "name": "pauseGenesis",
      "outputs": [],
      "stateMutability": "nonpayable",
      "type": "function"
    },
    {
      "inputs": [],
      "name": "unpauseGenesis",
      "outputs": [],
      "stateMutability": "nonpayable",
      "type": "function"
    }
  ],
  "bytecode": "0x608060405234801561001057600080fd5b5061155d806100206000396000f3fe6080604052600436106100f75760003560e01c80638242dd001161008a578063cd6dc68711610059578063cd6dc6871461054a578063d7dc18ee14610583578063f1ead25214610598578063f2fde38b146105ad576103ac565b80638242dd00146104f65780638da5cb5b1461050b578063a2e684b214610520578063b51459fe14610535576103ac565b80634b472d45116100c65780634b472d45146104905780635c975abb146104b7578063715018a6146104cc5780637569b3d7146104e1576103ac565b80630b9f2c4a146103b15780631f6d4942146103f75780633ccfd60b1461045057806340b9825314610467576103ac565b366103ac576101046105e0565b15610149576040805162461bcd60e51b815260206004820152601060248201526f14185d5cd8589b194e881c185d5cd95960821b604482015290519081900360640190fd5b60995460ff166101a0576040805162461bcd60e51b815260206004820152601560248201527f47454e455349533a47454e455349535f454e4445440000000000000000000000604482015290519081900360640190fd5b66038d7ea4c680003410156101fc576040805162461bcd60e51b815260206004820152601660248201527f47454e455349533a494e56414c49445f414d4f554e5400000000000000000000604482015290519081900360640190fd5b336000908152609b60205260409020541561025e576040805162461bcd60e51b815260206004820152601b60248201527f47454e455349533a414c52454144595f434f4e54524942555445440000000000604482015290519081900360640190fd5b609a80546001810182556000919091527f44da158ba27f9252712a74ff6a55c5d531f69609f1f6e7f17c4443a8e2089be40180546001600160a01b031916331790556097546102b3903463ffffffff6105e916565b6097556098546102ca90600163ffffffff6105e916565b6098908155336000908152609b6020526040902034815560978054600183015591546002820155426003820155609c54915490911161034a576099805460ff191690556097546040805191825242602083015280517f7ce15c40debca4890ad237e24f8fa75fb3ec8b914a4bb14902f24f4aea14f5069281900390910190a15b80546001820154600283015460038401546040805133815260208101959095528481019390935260608401919091526080830152517f04ef43f1bc6002874f43fc6578258454300f85327600229e298c99497fa757169181900360a00190a150005b600080fd5b3480156103bd57600080fd5b506103db600480360360208110156103d457600080fd5b503561064a565b604080516001600160a01b039092168252519081900360200190f35b34801561040357600080fd5b5061042a6004803603602081101561041a57600080fd5b50356001600160a01b0316610671565b604080519485526020850193909352838301919091526060830152519081900360800190f35b34801561045c57600080fd5b50610465610698565b005b34801561047357600080fd5b5061047c6108f2565b604080519115158252519081900360200190f35b34801561049c57600080fd5b506104a56108fb565b60408051918252519081900360200190f35b3480156104c357600080fd5b5061047c6105e0565b3480156104d857600080fd5b50610465610901565b3480156104ed57600080fd5b506104a56109bf565b34801561050257600080fd5b506104656109c5565b34801561051757600080fd5b506103db610b7e565b34801561052c57600080fd5b50610465610b8d565b34801561054157600080fd5b5061047c610c58565b34801561055657600080fd5b506104656004803603604081101561056d57600080fd5b506001600160a01b038135169060200135610c66565b34801561058f57600080fd5b50610465610d96565b3480156105a457600080fd5b50610465610e6b565b3480156105b957600080fd5b50610465600480360360208110156105d057600080fd5b50356001600160a01b0316610fd4565b60655460ff1690565b600082820183811015610643576040805162461bcd60e51b815260206004820152601b60248201527f536166654d6174683a206164646974696f6e206f766572666c6f770000000000604482015290519081900360640190fd5b9392505050565b609a818154811061065757fe5b6000918252602090912001546001600160a01b0316905081565b609b6020526000908152604090208054600182015460028301546003909301549192909184565b6106a06105e0565b156106e5576040805162461bcd60e51b815260206004820152601060248201526f14185d5cd8589b194e881c185d5cd95960821b604482015290519081900360640190fd5b609954610100900460ff16610741576040805162461bcd60e51b815260206004820152601c60248201527f47454e455349533a57495448445241575f4e4f545f414c4c4f57454400000000604482015290519081900360640190fd5b336000908152609b60205260409020546107a2576040805162461bcd60e51b815260206004820152601760248201527f47454e455349533a4e4f545f434f4e5452494255544544000000000000000000604482015290519081900360640190fd5b336000908152609b6020526040812080546002820180548484556001840185905590849055600390920192909255609a805460001983019081106107e257fe5b600091825260209091200180546001600160a01b031916905560975461080e908363ffffffff6110e916565b609755604051600090339084908381818185875af1925050503d8060008114610853576040519150601f19603f3d011682016040523d82523d6000602084013e610858565b606091505b50509050806108ae576040805162461bcd60e51b815260206004820152601760248201527f47454e455349533a57495448445241575f4641494c4544000000000000000000604482015290519081900360640190fd5b6040805133815260208101859052428183015290517f59a711b6608d234f8bbce6257dd2dd12154b00cc23503149fd99ddf0d6980ffe9181900360600190a1505050565b60995460ff1681565b60975481565b610909611146565b6001600160a01b031661091a610b7e565b6001600160a01b031614610975576040805162461bcd60e51b815260206004820181905260248201527f4f776e61626c653a2063616c6c6572206973206e6f7420746865206f776e6572604482015290519081900360640190fd5b6033546040516000916001600160a01b0316907f8be0079c531659141344cd1fd0a4f28419497f9722a3daafe3b4186f6b6457e0908390a3603380546001600160a01b0319169055565b60985481565b6109cd611146565b6001600160a01b03166109de610b7e565b6001600160a01b031614610a39576040805162461bcd60e51b815260206004820181905260248201527f4f776e61626c653a2063616c6c6572206973206e6f7420746865206f776e6572604482015290519081900360640190fd5b610a416105e0565b15610a86576040805162461bcd60e51b815260206004820152601060248201526f14185d5cd8589b194e881c185d5cd95960821b604482015290519081900360640190fd5b6099805460ff1916905560975460405160009133918381818185875af1925050503d8060008114610ad3576040519150601f19603f3d011682016040523d82523d6000602084013e610ad8565b606091505b5050905080610b2e576040805162461bcd60e51b815260206004820152601560248201527f47454e455349533a20434c4f53455f4641494c45440000000000000000000000604482015290519081900360640190fd5b6097546040805133815260208101929092524782820152426060830152517f0eee13caf4fa9e8d4b62491e9e253a147338d68c76abc22825cbf471878d32ec9181900360800190a1506000609755565b6033546001600160a01b031690565b610b95611146565b6001600160a01b0316610ba6610b7e565b6001600160a01b031614610c01576040805162461bcd60e51b815260206004820181905260248201527f4f776e61626c653a2063616c6c6572206973206e6f7420746865206f776e6572604482015290519081900360640190fd5b610c096105e0565b15610c4e576040805162461bcd60e51b815260206004820152601060248201526f14185d5cd8589b194e881c185d5cd95960821b604482015290519081900360640190fd5b610c5661114a565b565b609954610100900460ff1681565b600054610100900460ff1680610c7f5750610c7f6111ea565b80610c8d575060005460ff16155b610cc85760405162461bcd60e51b815260040180806020018281038252602e8152602001806114fa602e913960400191505060405180910390fd5b600054610100900460ff16158015610cf3576000805460ff1961ff0019909116610100171660011790555b610cfb6111fb565b610d0361129d565b610d0b611396565b610d1483610fd4565b6099805460ff19166001179055609c8290557fa44f0bac4c215986c877e2cee6adb07fce444f809d4ad025cc89cf9dab130840610d4f610b7e565b609954604080516001600160a01b03909316835260ff90911615156020830152818101859052519081900360600190a18015610d91576000805461ff00191690555b505050565b610d9e611146565b6001600160a01b0316610daf610b7e565b6001600160a01b031614610e0a576040805162461bcd60e51b815260206004820181905260248201527f4f776e61626c653a2063616c6c6572206973206e6f7420746865206f776e6572604482015290519081900360640190fd5b610e126105e0565b610e63576040805162461bcd60e51b815260206004820152601460248201527f5061757361626c653a206e6f7420706175736564000000000000000000000000604482015290519081900360640190fd5b610c56611441565b610e73611146565b6001600160a01b0316610e84610b7e565b6001600160a01b031614610edf576040805162461bcd60e51b815260206004820181905260248201527f4f776e61626c653a2063616c6c6572206973206e6f7420746865206f776e6572604482015290519081900360640190fd5b610ee76105e0565b15610f2c576040805162461bcd60e51b815260206004820152601060248201526f14185d5cd8589b194e881c185d5cd95960821b604482015290519081900360640190fd5b60995460ff16610f83576040805162461bcd60e51b815260206004820152601560248201527f47454e455349533a47454e455349535f454e4445440000000000000000000000604482015290519081900360640190fd5b6099805460ff1961ff0019909116610100171690556040805133815242602082015281517f10c32b660b802a4ebfdab4812976ab7968f0264d1653113bced5f3f21366c327929181900390910190a1565b610fdc611146565b6001600160a01b0316610fed610b7e565b6001600160a01b031614611048576040805162461bcd60e51b815260206004820181905260248201527f4f776e61626c653a2063616c6c6572206973206e6f7420746865206f776e6572604482015290519081900360640190fd5b6001600160a01b03811661108d5760405162461bcd60e51b81526004018080602001828103825260268152602001806114d46026913960400191505060405180910390fd5b6033546040516001600160a01b038084169216907f8be0079c531659141344cd1fd0a4f28419497f9722a3daafe3b4186f6b6457e090600090a3603380546001600160a01b0319166001600160a01b0392909216919091179055565b600082821115611140576040805162461bcd60e51b815260206004820152601e60248201527f536166654d6174683a207375627472616374696f6e206f766572666c6f770000604482015290519081900360640190fd5b50900390565b3390565b6111526105e0565b15611197576040805162461bcd60e51b815260206004820152601060248201526f14185d5cd8589b194e881c185d5cd95960821b604482015290519081900360640190fd5b6065805460ff191660011790557f62e78cea01bee320cd4e420270b5ea74000d11b0c9f74754ebdbfc544b05a2586111cd611146565b604080516001600160a01b039092168252519081900360200190a1565b60006111f5306114cd565b15905090565b600054610100900460ff168061121457506112146111ea565b80611222575060005460ff16155b61125d5760405162461bcd60e51b815260040180806020018281038252602e8152602001806114fa602e913960400191505060405180910390fd5b600054610100900460ff16158015611288576000805460ff1961ff0019909116610100171660011790555b801561129a576000805461ff00191690555b50565b600054610100900460ff16806112b657506112b66111ea565b806112c4575060005460ff16155b6112ff5760405162461bcd60e51b815260040180806020018281038252602e8152602001806114fa602e913960400191505060405180910390fd5b600054610100900460ff1615801561132a576000805460ff1961ff0019909116610100171660011790555b6000611334611146565b603380546001600160a01b0319166001600160a01b038316908117909155604051919250906000907f8be0079c531659141344cd1fd0a4f28419497f9722a3daafe3b4186f6b6457e0908290a350801561129a576000805461ff001916905550565b600054610100900460ff16806113af57506113af6111ea565b806113bd575060005460ff16155b6113f85760405162461bcd60e51b815260040180806020018281038252602e8152602001806114fa602e913960400191505060405180910390fd5b600054610100900460ff16158015611423576000805460ff1961ff0019909116610100171660011790555b6065805460ff19169055801561129a576000805461ff001916905550565b6114496105e0565b61149a576040805162461bcd60e51b815260206004820152601460248201527f5061757361626c653a206e6f7420706175736564000000000000000000000000604482015290519081900360640190fd5b6065805460ff191690557f5db9ee0a495bf2e6ff9c91a7834c1ba4fdd244a5e8aa4e537bd38aeae4b073aa6111cd611146565b3b15159056fe4f776e61626c653a206e6577206f776e657220697320746865207a65726f2061646472657373496e697469616c697a61626c653a20636f6e747261637420697320616c726561647920696e697469616c697a6564a26469706673582212205323e31b421eb52d1e88358a2f60b8b039d5235146741ea658cb7d3cc1054dff64736f6c63430006060033",
  "immutableReferences": {},
  "source": "pragma solidity ^0.6.0;\n\nimport \"@openzeppelin/contracts-upgradeable/access/OwnableUpgradeable.sol\";\nimport \"@openzeppelin/contracts-upgradeable/proxy/Initializable.sol\";\nimport \"@openzeppelin/contracts-upgradeable/utils/PausableUpgradeable.sol\";\nimport \"@openzeppelin/contracts-upgradeable/math/SafeMathUpgradeable.sol\";\n\ncontract EglGenesis is Initializable, OwnableUpgradeable, PausableUpgradeable {\n    using SafeMathUpgradeable for uint;\n\n    uint constant MIN_CONTRIBUTION_AMOUNT = 0.001 ether;\n\n    uint public cumulativeBalance;\n    uint public contributorsCount;\n    bool public canContribute;\n    bool public canWithdraw;\n    address[] public contributorsList;    \n    mapping(address => Contributor) public contributors;\n\n    uint private maxThreshold;\n\n    struct Contributor {\n        uint amount;\n        uint cumulativeBalance;\n        uint idx;\n        uint date;\n    }\n\n    event Initialized(\n        address owner, \n        bool canContribute,\n        uint maxThreshold\n    );\n\n    event ContributionReceived(\n        address contributor, \n        uint amount,\n        uint cumulativeBalance,\n        uint idx,        \n        uint date\n    );\n\n    event ContributionWithdrawn(\n        address contributor, \n        uint amount,\n        uint date\n    );\n\n    event WithdAllowed(\n        address owner, \n        uint date\n    );\n\n    event GenesisEnded(\n        address owner,\n        uint cumulativeBalance, \n        uint contractBalance,\n        uint date\n    );\n\n    event ThresholdMet(\n        uint contractBalance,\n        uint date\n    );\n\n    /**\n     * @dev Receive eth\n     */\n    receive() external payable whenNotPaused {\n        require(canContribute, \"GENESIS:GENESIS_ENDED\");\n        require(msg.value >= MIN_CONTRIBUTION_AMOUNT, \"GENESIS:INVALID_AMOUNT\");\n        require(contributors[msg.sender].amount == 0, \"GENESIS:ALREADY_CONTRIBUTED\");\n\n        contributorsList.push(msg.sender);\n        cumulativeBalance = cumulativeBalance.add(msg.value);\n        contributorsCount = contributorsCount.add(1);\n\n        Contributor storage contributor = contributors[msg.sender];\n        contributor.amount = msg.value;\n        contributor.cumulativeBalance = cumulativeBalance;\n        contributor.idx = contributorsCount;\n        contributor.date = now;        \n\n        if (cumulativeBalance >= maxThreshold) {\n            canContribute = false;\n            emit ThresholdMet(cumulativeBalance, now);\n        }            \n        emit ContributionReceived(\n            msg.sender, \n            contributor.amount, \n            contributor.cumulativeBalance, \n            contributor.idx, \n            contributor.date\n        );\n    }\n\n    /**\n     * @dev Initialize contract variables\n     * \n     * @param _owner Address of wallet that will have administrative priviledges over the contract\n     * @param _threshold Max amount of ETH to collect before automatically stopping collection\n     */\n    function initialize(address _owner, uint _threshold) public initializer {\n        __Context_init_unchained();\n        __Ownable_init_unchained();\n        __Pausable_init_unchained();\n\n        transferOwnership(_owner);\n        canContribute = true;\n        maxThreshold = _threshold;\n        emit Initialized(owner(), canContribute, _threshold);\n    }\n\n    /**\n     * @dev Withdraw ETH contributed only if contributed and withdraw flag is set to 'true'\n     */\n    function withdraw() public whenNotPaused {\n        require(canWithdraw, \"GENESIS:WITHDRAW_NOT_ALLOWED\");\n        require(contributors[msg.sender].amount > 0, \"GENESIS:NOT_CONTRIBUTED\");\n\n        uint amountToWithdraw = contributors[msg.sender].amount;\n        uint contributorIdx = contributors[msg.sender].idx;\n        delete contributors[msg.sender];\n        delete contributorsList[contributorIdx - 1];\n        \n        cumulativeBalance = cumulativeBalance.sub(amountToWithdraw);\n        (bool success, ) = msg.sender.call{ value: amountToWithdraw}(\"\");\n        require(success, \"GENESIS:WITHDRAW_FAILED\");        \n        emit ContributionWithdrawn(msg.sender, amountToWithdraw, now);\n    }\n\n    /**\n     * @dev Owner only function to set the withdraw flag to 'true'\n     */\n    function allowWithdraw() public onlyOwner whenNotPaused {\n        require(canContribute, \"GENESIS:GENESIS_ENDED\");\n        canWithdraw = true;\n        canContribute = false;\n        emit WithdAllowed(msg.sender, now);\n    }\n\n    /** \n     * @dev End genesis period and transfer contract balance to owner wallet\n     */\n    function endGenesis() public onlyOwner whenNotPaused {\n        canContribute = false;\n        (bool success, ) = msg.sender.call{ value: cumulativeBalance}(\"\");\n        require(success, \"GENESIS: CLOSE_FAILED\");\n        emit GenesisEnded(msg.sender, cumulativeBalance, address(this).balance, now);\n        cumulativeBalance = 0;\n    }\n\n    /**\n     * @dev Ower only funciton to pause contract\n     */\n    function pauseGenesis() public onlyOwner whenNotPaused {\n        _pause();\n    }\n\n    /** \n     * @dev Owner only function to unpause contract\n     */\n    function unpauseGenesis() public onlyOwner whenPaused {\n        _unpause();\n    }\n}",
  "sourcePath": "/Users/greg/Documents/egl_genesis/contracts/EglGenesis.sol",
  "compiler": {
    "name": "solc",
    "version": "0.6.6+commit.6c089d02.Emscripten.clang"
  },
  "schemaVersion": "3.3.3",
  "updatedAt": "2021-06-09T22:15:16.298Z",
  "networkType": "ethereum",
  "devdoc": {
    "methods": {
      "allowWithdraw()": {
        "details": "Owner only function to set the withdraw flag to 'true'"
      },
      "endGenesis()": {
        "details": "End genesis period and transfer contract balance to owner wallet"
      },
      "initialize(address,uint256)": {
        "details": "Initialize contract variables ",
        "params": {
          "_owner": "Address of wallet that will have administrative priviledges over the contract",
          "_threshold": "Max amount of ETH to collect before automatically stopping collection"
        }
      },
      "owner()": {
        "details": "Returns the address of the current owner."
      },
      "pauseGenesis()": {
        "details": "Ower only funciton to pause contract"
      },
      "paused()": {
        "details": "Returns true if the contract is paused, and false otherwise."
      },
      "renounceOwnership()": {
        "details": "Leaves the contract without owner. It will not be possible to call `onlyOwner` functions anymore. Can only be called by the current owner.     * NOTE: Renouncing ownership will leave the contract without an owner, thereby removing any functionality that is only available to the owner."
      },
      "transferOwnership(address)": {
        "details": "Transfers ownership of the contract to a new account (`newOwner`). Can only be called by the current owner."
      },
      "unpauseGenesis()": {
        "details": "Owner only function to unpause contract"
      },
      "withdraw()": {
        "details": "Withdraw ETH contributed only if contributed and withdraw flag is set to 'true'"
      }
    }
  },
  "userdoc": {
    "methods": {}
  }
}