{
  "contractName": "EglContract",
  "abi": [
    {
      "anonymous": false,
      "inputs": [
        {
          "indexed": false,
          "internalType": "uint256",
          "name": "blockNumber",
          "type": "uint256"
        },
        {
          "indexed": false,
          "internalType": "uint16",
          "name": "currentEpoch",
          "type": "uint16"
        },
        {
          "indexed": false,
          "internalType": "uint256",
          "name": "remainingPoolReward",
          "type": "uint256"
        },
        {
          "indexed": false,
          "internalType": "int256",
          "name": "blockGasLimit",
          "type": "int256"
        },
        {
          "indexed": false,
          "internalType": "int256",
          "name": "desiredEgl",
          "type": "int256"
        },
        {
          "indexed": false,
          "internalType": "int256",
          "name": "tallyVotesGasLimit",
          "type": "int256"
        },
        {
          "indexed": false,
          "internalType": "uint256",
          "name": "proximityRewardPercent",
          "type": "uint256"
        },
        {
          "indexed": false,
          "internalType": "uint256",
          "name": "totalRewardPercent",
          "type": "uint256"
        },
        {
          "indexed": false,
          "internalType": "uint256",
          "name": "blockReward",
          "type": "uint256"
        }
      ],
      "name": "BlockRewardCalculated",
      "type": "event"
    },
    {
      "anonymous": false,
      "inputs": [
        {
          "indexed": false,
          "internalType": "address",
          "name": "caller",
          "type": "address"
        },
        {
          "indexed": false,
          "internalType": "address",
          "name": "creatorRewardAddress",
          "type": "address"
        },
        {
          "indexed": false,
          "internalType": "uint256",
          "name": "amountClaimed",
          "type": "uint256"
        },
        {
          "indexed": false,
          "internalType": "uint256",
          "name": "lastEpochReward",
          "type": "uint256"
        },
        {
          "indexed": false,
          "internalType": "uint256",
          "name": "remainingCreatorReward",
          "type": "uint256"
        },
        {
          "indexed": false,
          "internalType": "uint16",
          "name": "currentEpoch",
          "type": "uint16"
        },
        {
          "indexed": false,
          "internalType": "uint256",
          "name": "date",
          "type": "uint256"
        }
      ],
      "name": "CreatorRewardsClaimed",
      "type": "event"
    },
    {
      "anonymous": false,
      "inputs": [
        {
          "indexed": false,
          "internalType": "address",
          "name": "sender",
          "type": "address"
        },
        {
          "indexed": false,
          "internalType": "uint256",
          "name": "amount",
          "type": "uint256"
        }
      ],
      "name": "EthReceived",
      "type": "event"
    },
    {
      "anonymous": false,
      "inputs": [
        {
          "indexed": false,
          "internalType": "address",
          "name": "deployer",
          "type": "address"
        },
        {
          "indexed": false,
          "internalType": "address",
          "name": "eglContract",
          "type": "address"
        },
        {
          "indexed": false,
          "internalType": "address",
          "name": "eglToken",
          "type": "address"
        },
        {
          "indexed": false,
          "internalType": "address",
          "name": "genesisContract",
          "type": "address"
        },
        {
          "indexed": false,
          "internalType": "uint256",
          "name": "totalGenesisEth",
          "type": "uint256"
        },
        {
          "indexed": false,
          "internalType": "uint256",
          "name": "ethEglRatio",
          "type": "uint256"
        },
        {
          "indexed": false,
          "internalType": "uint256",
          "name": "ethBptRatio",
          "type": "uint256"
        },
        {
          "indexed": false,
          "internalType": "uint256",
          "name": "minLiquidityTokensLockup",
          "type": "uint256"
        },
        {
          "indexed": false,
          "internalType": "uint256",
          "name": "firstEpochStartDate",
          "type": "uint256"
        },
        {
          "indexed": false,
          "internalType": "uint256",
          "name": "votingPauseSeconds",
          "type": "uint256"
        },
        {
          "indexed": false,
          "internalType": "uint256",
          "name": "epochLength",
          "type": "uint256"
        },
        {
          "indexed": false,
          "internalType": "uint256",
          "name": "date",
          "type": "uint256"
        }
      ],
      "name": "Initialized",
      "type": "event"
    },
    {
      "anonymous": false,
      "inputs": [
        {
          "indexed": true,
          "internalType": "address",
          "name": "previousOwner",
          "type": "address"
        },
        {
          "indexed": true,
          "internalType": "address",
          "name": "newOwner",
          "type": "address"
        }
      ],
      "name": "OwnershipTransferred",
      "type": "event"
    },
    {
      "anonymous": false,
      "inputs": [
        {
          "indexed": false,
          "internalType": "address",
          "name": "account",
          "type": "address"
        }
      ],
      "name": "Paused",
      "type": "event"
    },
    {
      "anonymous": false,
      "inputs": [
        {
          "indexed": false,
          "internalType": "address",
          "name": "caller",
          "type": "address"
        },
        {
          "indexed": false,
          "internalType": "address",
          "name": "coinbaseAddress",
          "type": "address"
        },
        {
          "indexed": false,
          "internalType": "uint256",
          "name": "blockNumber",
          "type": "uint256"
        },
        {
          "indexed": false,
          "internalType": "int256",
          "name": "blockGasLimit",
          "type": "int256"
        },
        {
          "indexed": false,
          "internalType": "uint256",
          "name": "blockReward",
          "type": "uint256"
        },
        {
          "indexed": false,
          "internalType": "uint256",
          "name": "date",
          "type": "uint256"
        }
      ],
      "name": "PoolRewardsSwept",
      "type": "event"
    },
    {
      "anonymous": false,
      "inputs": [
        {
          "indexed": false,
          "internalType": "address",
          "name": "caller",
          "type": "address"
        },
        {
          "indexed": false,
          "internalType": "uint256",
          "name": "currentEglReleased",
          "type": "uint256"
        },
        {
          "indexed": false,
          "internalType": "uint256",
          "name": "poolTokensDue",
          "type": "uint256"
        },
        {
          "indexed": false,
          "internalType": "uint256",
          "name": "poolTokens",
          "type": "uint256"
        },
        {
          "indexed": false,
          "internalType": "uint256",
          "name": "firstEgl",
          "type": "uint256"
        },
        {
          "indexed": false,
          "internalType": "uint256",
          "name": "lastEgl",
          "type": "uint256"
        },
        {
          "indexed": false,
          "internalType": "uint256",
          "name": "date",
          "type": "uint256"
        }
      ],
      "name": "PoolTokensWithdrawn",
      "type": "event"
    },
    {
      "anonymous": false,
      "inputs": [
        {
          "indexed": false,
          "internalType": "address",
          "name": "caller",
          "type": "address"
        },
        {
          "indexed": false,
          "internalType": "uint256",
          "name": "gasTarget",
          "type": "uint256"
        },
        {
          "indexed": false,
          "internalType": "uint256",
          "name": "eglAmount",
          "type": "uint256"
        },
        {
          "indexed": false,
          "internalType": "uint256",
          "name": "date",
          "type": "uint256"
        }
      ],
      "name": "ReVote",
      "type": "event"
    },
    {
      "anonymous": false,
      "inputs": [
        {
          "indexed": false,
          "internalType": "uint256",
          "name": "currentEpoch",
          "type": "uint256"
        },
        {
          "indexed": false,
          "internalType": "uint256",
          "name": "timePassedPercentage",
          "type": "uint256"
        },
        {
          "indexed": false,
          "internalType": "uint256",
          "name": "currentEgl",
          "type": "uint256"
        },
        {
          "indexed": false,
          "internalType": "uint256",
          "name": "maxSupply",
          "type": "uint256"
        }
      ],
      "name": "ReleasedEglCalculated",
      "type": "event"
    },
    {
      "anonymous": false,
      "inputs": [
        {
          "indexed": false,
          "internalType": "address",
          "name": "seedAddress",
          "type": "address"
        },
        {
          "indexed": false,
          "internalType": "uint256",
          "name": "individualSeedAmount",
          "type": "uint256"
        },
        {
          "indexed": false,
          "internalType": "uint256",
          "name": "releaseDate",
          "type": "uint256"
        },
        {
          "indexed": false,
          "internalType": "uint256",
          "name": "date",
          "type": "uint256"
        }
      ],
      "name": "SeedAccountClaimed",
      "type": "event"
    },
    {
      "anonymous": false,
      "inputs": [
        {
          "indexed": false,
          "internalType": "address",
          "name": "caller",
          "type": "address"
        },
        {
          "indexed": false,
          "internalType": "uint256",
          "name": "amountContributed",
          "type": "uint256"
        },
        {
          "indexed": false,
          "internalType": "uint256",
          "name": "gasTarget",
          "type": "uint256"
        },
        {
          "indexed": false,
          "internalType": "uint256",
          "name": "lockDuration",
          "type": "uint256"
        },
        {
          "indexed": false,
          "internalType": "uint256",
          "name": "ethEglRatio",
          "type": "uint256"
        },
        {
          "indexed": false,
          "internalType": "uint256",
          "name": "ethBptRatio",
          "type": "uint256"
        },
        {
          "indexed": false,
          "internalType": "uint256",
          "name": "bonusEglsReceived",
          "type": "uint256"
        },
        {
          "indexed": false,
          "internalType": "uint256",
          "name": "poolTokensReceived",
          "type": "uint256"
        },
        {
          "indexed": false,
          "internalType": "uint256",
          "name": "date",
          "type": "uint256"
        }
      ],
      "name": "SupporterTokensClaimed",
      "type": "event"
    },
    {
      "anonymous": false,
      "inputs": [
        {
          "indexed": false,
          "internalType": "address",
          "name": "account",
          "type": "address"
        }
      ],
      "name": "Unpaused",
      "type": "event"
    },
    {
      "anonymous": false,
      "inputs": [
        {
          "indexed": false,
          "internalType": "address",
          "name": "caller",
          "type": "address"
        },
        {
          "indexed": false,
          "internalType": "uint16",
          "name": "currentEpoch",
          "type": "uint16"
        },
        {
          "indexed": false,
          "internalType": "uint256",
          "name": "gasTarget",
          "type": "uint256"
        },
        {
          "indexed": false,
          "internalType": "uint256",
          "name": "eglAmount",
          "type": "uint256"
        },
        {
          "indexed": false,
          "internalType": "uint8",
          "name": "lockupDuration",
          "type": "uint8"
        },
        {
          "indexed": false,
          "internalType": "uint256",
          "name": "releaseDate",
          "type": "uint256"
        },
        {
          "indexed": false,
          "internalType": "uint256",
          "name": "epochVoteWeightSum",
          "type": "uint256"
        },
        {
          "indexed": false,
          "internalType": "uint256",
          "name": "epochGasTargetSum",
          "type": "uint256"
        },
        {
          "indexed": false,
          "internalType": "uint256",
          "name": "epochVoterRewardSum",
          "type": "uint256"
        },
        {
          "indexed": false,
          "internalType": "uint256",
          "name": "epochTotalVotes",
          "type": "uint256"
        },
        {
          "indexed": false,
          "internalType": "uint256",
          "name": "date",
          "type": "uint256"
        }
      ],
      "name": "Vote",
      "type": "event"
    },
    {
      "anonymous": false,
      "inputs": [
        {
          "indexed": false,
          "internalType": "address",
          "name": "caller",
          "type": "address"
        },
        {
          "indexed": false,
          "internalType": "uint16",
          "name": "currentEpoch",
          "type": "uint16"
        },
        {
          "indexed": false,
          "internalType": "int256",
          "name": "desiredEgl",
          "type": "int256"
        },
        {
          "indexed": false,
          "internalType": "uint256",
          "name": "voteThreshold",
          "type": "uint256"
        },
        {
          "indexed": false,
          "internalType": "uint256",
          "name": "actualVotePercentage",
          "type": "uint256"
        },
        {
          "indexed": false,
          "internalType": "int256",
          "name": "baselineEgl",
          "type": "int256"
        },
        {
          "indexed": false,
          "internalType": "int256",
          "name": "initialEgl",
          "type": "int256"
        },
        {
          "indexed": false,
          "internalType": "uint256",
          "name": "timeSinceFirstEpoch",
          "type": "uint256"
        },
        {
          "indexed": false,
          "internalType": "uint256",
          "name": "gracePeriodSeconds",
          "type": "uint256"
        },
        {
          "indexed": false,
          "internalType": "uint256",
          "name": "date",
          "type": "uint256"
        }
      ],
      "name": "VoteThresholdFailed",
      "type": "event"
    },
    {
      "anonymous": false,
      "inputs": [
        {
          "indexed": false,
          "internalType": "address",
          "name": "caller",
          "type": "address"
        },
        {
          "indexed": false,
          "internalType": "uint16",
          "name": "currentEpoch",
          "type": "uint16"
        },
        {
          "indexed": false,
          "internalType": "int256",
          "name": "desiredEgl",
          "type": "int256"
        },
        {
          "indexed": false,
          "internalType": "uint256",
          "name": "voteThreshold",
          "type": "uint256"
        },
        {
          "indexed": false,
          "internalType": "uint256",
          "name": "actualVotePercentage",
          "type": "uint256"
        },
        {
          "indexed": false,
          "internalType": "int256",
          "name": "gasLimitSum",
          "type": "int256"
        },
        {
          "indexed": false,
          "internalType": "int256",
          "name": "voteCount",
          "type": "int256"
        },
        {
          "indexed": false,
          "internalType": "int256",
          "name": "baselineEgl",
          "type": "int256"
        },
        {
          "indexed": false,
          "internalType": "uint256",
          "name": "date",
          "type": "uint256"
        }
      ],
      "name": "VoteThresholdMet",
      "type": "event"
    },
    {
      "anonymous": false,
      "inputs": [
        {
          "indexed": false,
          "internalType": "address",
          "name": "voter",
          "type": "address"
        },
        {
          "indexed": false,
          "internalType": "uint16",
          "name": "currentEpoch",
          "type": "uint16"
        },
        {
          "indexed": false,
          "internalType": "uint256",
          "name": "voterReward",
          "type": "uint256"
        },
        {
          "indexed": false,
          "internalType": "uint256",
          "name": "epochVoterReward",
          "type": "uint256"
        },
        {
          "indexed": false,
          "internalType": "uint256",
          "name": "voteWeight",
          "type": "uint256"
        },
        {
          "indexed": false,
          "internalType": "uint256",
          "name": "rewardMultiplier",
          "type": "uint256"
        },
        {
          "indexed": false,
          "internalType": "uint256",
          "name": "weeksDiv",
          "type": "uint256"
        },
        {
          "indexed": false,
          "internalType": "uint256",
          "name": "epochVoterRewardSum",
          "type": "uint256"
        },
        {
          "indexed": false,
          "internalType": "uint256",
          "name": "date",
          "type": "uint256"
        }
      ],
      "name": "VoterRewardCalculated",
      "type": "event"
    },
    {
      "anonymous": false,
      "inputs": [
        {
          "indexed": false,
          "internalType": "address",
          "name": "caller",
          "type": "address"
        },
        {
          "indexed": false,
          "internalType": "uint16",
          "name": "currentEpoch",
          "type": "uint16"
        },
        {
          "indexed": false,
          "internalType": "int256",
          "name": "desiredEgl",
          "type": "int256"
        },
        {
          "indexed": false,
          "internalType": "int256",
          "name": "averageGasTarget",
          "type": "int256"
        },
        {
          "indexed": false,
          "internalType": "uint256",
          "name": "votingThreshold",
          "type": "uint256"
        },
        {
          "indexed": false,
          "internalType": "uint256",
          "name": "actualVotePercentage",
          "type": "uint256"
        },
        {
          "indexed": false,
          "internalType": "uint256",
          "name": "tokensInCirculation",
          "type": "uint256"
        },
        {
          "indexed": false,
          "internalType": "uint256",
          "name": "date",
          "type": "uint256"
        }
      ],
      "name": "VotesTallied",
      "type": "event"
    },
    {
      "anonymous": false,
      "inputs": [
        {
          "indexed": false,
          "internalType": "address",
          "name": "caller",
          "type": "address"
        },
        {
          "indexed": false,
          "internalType": "uint16",
          "name": "currentEpoch",
          "type": "uint16"
        },
        {
          "indexed": false,
          "internalType": "uint256",
          "name": "tokensLocked",
          "type": "uint256"
        },
        {
          "indexed": false,
          "internalType": "uint256",
          "name": "rewardTokens",
          "type": "uint256"
        },
        {
          "indexed": false,
          "internalType": "uint256",
          "name": "gasTarget",
          "type": "uint256"
        },
        {
          "indexed": false,
          "internalType": "uint256",
          "name": "epochVoterRewardSum",
          "type": "uint256"
        },
        {
          "indexed": false,
          "internalType": "uint256",
          "name": "epochTotalVotes",
          "type": "uint256"
        },
        {
          "indexed": false,
          "internalType": "uint256",
          "name": "epochVoteWeightSum",
          "type": "uint256"
        },
        {
          "indexed": false,
          "internalType": "uint256",
          "name": "epochGasTargetSum",
          "type": "uint256"
        },
        {
          "indexed": false,
          "internalType": "uint256",
          "name": "date",
          "type": "uint256"
        }
      ],
      "name": "Withdraw",
      "type": "event"
    },
    {
      "inputs": [],
      "name": "baselineEgl",
      "outputs": [
        {
          "internalType": "int256",
          "name": "",
          "type": "int256"
        }
      ],
      "stateMutability": "view",
      "type": "function",
      "constant": true
    },
    {
      "inputs": [],
      "name": "currentEpoch",
      "outputs": [
        {
          "internalType": "uint16",
          "name": "",
          "type": "uint16"
        }
      ],
      "stateMutability": "view",
      "type": "function",
      "constant": true
    },
    {
      "inputs": [],
      "name": "currentEpochStartDate",
      "outputs": [
        {
          "internalType": "uint256",
          "name": "",
          "type": "uint256"
        }
      ],
      "stateMutability": "view",
      "type": "function",
      "constant": true
    },
    {
      "inputs": [],
      "name": "desiredEgl",
      "outputs": [
        {
          "internalType": "int256",
          "name": "",
          "type": "int256"
        }
      ],
      "stateMutability": "view",
      "type": "function",
      "constant": true
    },
    {
      "inputs": [
        {
          "internalType": "uint256",
          "name": "",
          "type": "uint256"
        }
      ],
      "name": "gasTargetSum",
      "outputs": [
        {
          "internalType": "uint256",
          "name": "",
          "type": "uint256"
        }
      ],
      "stateMutability": "view",
      "type": "function",
      "constant": true
    },
    {
      "inputs": [],
      "name": "initialEgl",
      "outputs": [
        {
          "internalType": "int256",
          "name": "",
          "type": "int256"
        }
      ],
      "stateMutability": "view",
      "type": "function",
      "constant": true
    },
    {
      "inputs": [],
      "name": "owner",
      "outputs": [
        {
          "internalType": "address",
          "name": "",
          "type": "address"
        }
      ],
      "stateMutability": "view",
      "type": "function",
      "constant": true
    },
    {
      "inputs": [],
      "name": "paused",
      "outputs": [
        {
          "internalType": "bool",
          "name": "",
          "type": "bool"
        }
      ],
      "stateMutability": "view",
      "type": "function",
      "constant": true
    },
    {
      "inputs": [
        {
          "internalType": "address",
          "name": "",
          "type": "address"
        }
      ],
      "name": "seeders",
      "outputs": [
        {
          "internalType": "uint256",
          "name": "",
          "type": "uint256"
        }
      ],
      "stateMutability": "view",
      "type": "function",
      "constant": true
    },
    {
      "inputs": [
        {
          "internalType": "address",
          "name": "",
          "type": "address"
        }
      ],
      "name": "supporters",
      "outputs": [
        {
          "internalType": "uint32",
          "name": "matches",
          "type": "uint32"
        },
        {
          "internalType": "uint256",
          "name": "poolTokens",
          "type": "uint256"
        },
        {
          "internalType": "uint256",
          "name": "firstEgl",
          "type": "uint256"
        },
        {
          "internalType": "uint256",
          "name": "lastEgl",
          "type": "uint256"
        }
      ],
      "stateMutability": "view",
      "type": "function",
      "constant": true
    },
    {
      "inputs": [],
      "name": "tallyVotesGasLimit",
      "outputs": [
        {
          "internalType": "int256",
          "name": "",
          "type": "int256"
        }
      ],
      "stateMutability": "view",
      "type": "function",
      "constant": true
    },
    {
      "inputs": [],
      "name": "tokensInCirculation",
      "outputs": [
        {
          "internalType": "uint256",
          "name": "",
          "type": "uint256"
        }
      ],
      "stateMutability": "view",
      "type": "function",
      "constant": true
    },
    {
      "inputs": [
        {
          "internalType": "address",
          "name": "newOwner",
          "type": "address"
        }
      ],
      "name": "transferOwnership",
      "outputs": [],
      "stateMutability": "nonpayable",
      "type": "function"
    },
    {
      "inputs": [
        {
          "internalType": "uint256",
          "name": "",
          "type": "uint256"
        }
      ],
      "name": "voteWeightsSum",
      "outputs": [
        {
          "internalType": "uint256",
          "name": "",
          "type": "uint256"
        }
      ],
      "stateMutability": "view",
      "type": "function",
      "constant": true
    },
    {
      "inputs": [
        {
          "internalType": "uint256",
          "name": "",
          "type": "uint256"
        }
      ],
      "name": "voterRewardSums",
      "outputs": [
        {
          "internalType": "uint256",
          "name": "",
          "type": "uint256"
        }
      ],
      "stateMutability": "view",
      "type": "function",
      "constant": true
    },
    {
      "inputs": [
        {
          "internalType": "address",
          "name": "",
          "type": "address"
        }
      ],
      "name": "voters",
      "outputs": [
        {
          "internalType": "uint8",
          "name": "lockupDuration",
          "type": "uint8"
        },
        {
          "internalType": "uint16",
          "name": "voteEpoch",
          "type": "uint16"
        },
        {
          "internalType": "uint256",
          "name": "releaseDate",
          "type": "uint256"
        },
        {
          "internalType": "uint256",
          "name": "tokensLocked",
          "type": "uint256"
        },
        {
          "internalType": "uint256",
          "name": "gasTarget",
          "type": "uint256"
        }
      ],
      "stateMutability": "view",
      "type": "function",
      "constant": true
    },
    {
      "inputs": [
        {
          "internalType": "uint256",
          "name": "",
          "type": "uint256"
        }
      ],
      "name": "votesTotal",
      "outputs": [
        {
          "internalType": "uint256",
          "name": "",
          "type": "uint256"
        }
      ],
      "stateMutability": "view",
      "type": "function",
      "constant": true
    },
    {
      "stateMutability": "payable",
      "type": "receive",
      "payable": true
    },
    {
      "inputs": [
        {
          "internalType": "address",
          "name": "_token",
          "type": "address"
        },
        {
          "internalType": "address",
          "name": "_poolToken",
          "type": "address"
        },
        {
          "internalType": "address",
          "name": "_genesis",
          "type": "address"
        },
        {
          "internalType": "uint256",
          "name": "_currentEpochStartDate",
          "type": "uint256"
        },
        {
          "internalType": "uint24",
          "name": "_votingPauseSeconds",
          "type": "uint24"
        },
        {
          "internalType": "uint32",
          "name": "_epochLength",
          "type": "uint32"
        },
        {
          "internalType": "address[]",
          "name": "_seedAccounts",
          "type": "address[]"
        },
        {
          "internalType": "uint256[]",
          "name": "_seedAmounts",
          "type": "uint256[]"
        },
        {
          "internalType": "address",
          "name": "_creatorRewardsAccount",
          "type": "address"
        }
      ],
      "name": "initialize",
      "outputs": [],
      "stateMutability": "nonpayable",
      "type": "function"
    },
    {
      "inputs": [
        {
          "internalType": "uint256",
          "name": "_gasTarget",
          "type": "uint256"
        },
        {
          "internalType": "uint8",
          "name": "_lockupDuration",
          "type": "uint8"
        }
      ],
      "name": "claimSupporterEgls",
      "outputs": [],
      "stateMutability": "nonpayable",
      "type": "function"
    },
    {
      "inputs": [
        {
          "internalType": "uint256",
          "name": "_gasTarget",
          "type": "uint256"
        },
        {
          "internalType": "uint8",
          "name": "_lockupDuration",
          "type": "uint8"
        }
      ],
      "name": "claimSeederEgls",
      "outputs": [],
      "stateMutability": "nonpayable",
      "type": "function"
    },
    {
      "inputs": [
        {
          "internalType": "uint256",
          "name": "_gasTarget",
          "type": "uint256"
        },
        {
          "internalType": "uint256",
          "name": "_eglAmount",
          "type": "uint256"
        },
        {
          "internalType": "uint8",
          "name": "_lockupDuration",
          "type": "uint8"
        }
      ],
      "name": "vote",
      "outputs": [],
      "stateMutability": "nonpayable",
      "type": "function"
    },
    {
      "inputs": [
        {
          "internalType": "uint256",
          "name": "_gasTarget",
          "type": "uint256"
        },
        {
          "internalType": "uint256",
          "name": "_eglAmount",
          "type": "uint256"
        },
        {
          "internalType": "uint8",
          "name": "_lockupDuration",
          "type": "uint8"
        }
      ],
      "name": "reVote",
      "outputs": [],
      "stateMutability": "nonpayable",
      "type": "function"
    },
    {
      "inputs": [],
      "name": "withdraw",
      "outputs": [],
      "stateMutability": "nonpayable",
      "type": "function"
    },
    {
      "inputs": [],
      "name": "sweepPoolRewards",
      "outputs": [],
      "stateMutability": "nonpayable",
      "type": "function"
    },
    {
      "inputs": [],
      "name": "withdrawPoolTokens",
      "outputs": [],
      "stateMutability": "nonpayable",
      "type": "function"
    },
    {
      "inputs": [],
      "name": "tallyVotes",
      "outputs": [],
      "stateMutability": "nonpayable",
      "type": "function"
    },
    {
      "inputs": [
        {
          "internalType": "address",
          "name": "_seedAccount",
          "type": "address"
        },
        {
          "internalType": "uint256",
          "name": "_seedAmount",
          "type": "uint256"
        }
      ],
      "name": "addSeedAccount",
      "outputs": [],
      "stateMutability": "nonpayable",
      "type": "function"
    },
    {
      "inputs": [],
      "name": "renounceOwnership",
      "outputs": [],
      "stateMutability": "nonpayable",
      "type": "function"
    }
  ],
  "bytecode": "0x608060405234801561001057600080fd5b50614702806100206000396000f3fe6080604052600436106101bb5760003560e01c806376671808116100ec578063bbb2eab91161008a578063d700672211610064578063d7006722146107be578063f2fde38b146107d3578063f5a0d6c014610806578063fe9c1a2e1461081b57610247565b8063bbb2eab9146105dc578063c71fb96c14610615578063ceaf749e1461079457610247565b806390c023f1116100c657806390c023f114610505578063a3ec138d1461051a578063a75cc4001461057f578063b4f34de6146105a957610247565b806376671808146104755780638b04f79c146104a15780638da5cb5b146104d457610247565b8063575ede3a11610159578063676994571161013357806367699457146103f75780637010969b1461040c578063715018a61461043657806373f866471461044b57610247565b8063575ede3a146103355780635c975abb1461036e578063647c75e21461039757610247565b80633716c17f116101955780633716c17f1461029f578063378a2178146102d25780633ccfd60b146102e757806355b1d8f0146102fc57610247565b8063101882431461024c578063112bbd1d1461027357806327aaa7b61461028a57610247565b36610247576040805133815234602082015281517f85177f287940f2f05425a4029951af0e047a7f9c4eaa9a6e6917bcd869f86695929181900390910190a16040805162461bcd60e51b815260206004820152600f60248201527f45474c3a4e4f5f5041594d454e54530000000000000000000000000000000000604482015290519081900360640190fd5b600080fd5b34801561025857600080fd5b50610261610830565b60408051918252519081900360200190f35b34801561027f57600080fd5b50610288610836565b005b34801561029657600080fd5b50610261610a86565b3480156102ab57600080fd5b50610261600480360360208110156102c257600080fd5b50356001600160a01b0316610a8c565b3480156102de57600080fd5b50610288610a9e565b3480156102f357600080fd5b506102886110b9565b34801561030857600080fd5b506102886004803603606081101561031f57600080fd5b508035906020810135906040013560ff16611256565b34801561034157600080fd5b506102886004803603604081101561035857600080fd5b506001600160a01b038135169060200135611631565b34801561037a57600080fd5b50610383611990565b604080519115158252519081900360200190f35b3480156103a357600080fd5b506103ca600480360360208110156103ba57600080fd5b50356001600160a01b0316611999565b6040805163ffffffff90951685526020850193909352838301919091526060830152519081900360800190f35b34801561040357600080fd5b506102616119c7565b34801561041857600080fd5b506102616004803603602081101561042f57600080fd5b50356119cd565b34801561044257600080fd5b506102886119e1565b34801561045757600080fd5b506102616004803603602081101561046e57600080fd5b5035611a98565b34801561048157600080fd5b5061048a611aa5565b6040805161ffff9092168252519081900360200190f35b3480156104ad57600080fd5b50610288600480360360408110156104c457600080fd5b508035906020013560ff16611aaf565b3480156104e057600080fd5b506104e9611c18565b604080516001600160a01b039092168252519081900360200190f35b34801561051157600080fd5b50610261611c27565b34801561052657600080fd5b5061054d6004803603602081101561053d57600080fd5b50356001600160a01b0316611c2d565b6040805160ff909616865261ffff90941660208601528484019290925260608401526080830152519081900360a00190f35b34801561058b57600080fd5b50610261600480360360208110156105a257600080fd5b5035611c61565b3480156105b557600080fd5b50610288600480360360408110156105cc57600080fd5b508035906020013560ff16611c6e565b3480156105e857600080fd5b50610288600480360360608110156105ff57600080fd5b508035906020810135906040013560ff16612103565b34801561062157600080fd5b50610288600480360361012081101561063957600080fd5b6001600160a01b038235811692602081013582169260408201359092169160608201359162ffffff6080820135169163ffffffff60a083013516919081019060e0810160c082013564010000000081111561069357600080fd5b8201836020820111156106a557600080fd5b803590602001918460208302840111640100000000831117156106c757600080fd5b919080806020026020016040519081016040528093929190818152602001838360200280828437600092019190915250929594936020810193503591505064010000000081111561071757600080fd5b82018360208201111561072957600080fd5b8035906020019184602083028401116401000000008311171561074b57600080fd5b919080806020026020016040519081016040528093929190818152602001838360200280828437600092019190915250929550505090356001600160a01b0316915061240e9050565b3480156107a057600080fd5b50610261600480360360208110156107b757600080fd5b5035612a24565b3480156107ca57600080fd5b50610288612a31565b3480156107df57600080fd5b50610288600480360360208110156107f657600080fd5b50356001600160a01b0316612ea1565b34801561081257600080fd5b50610261612fb9565b34801561082757600080fd5b50610261612fbf565b609a5481565b60655460ff1615610881576040805162461bcd60e51b815260206004820152601060248201526f14185d5cd8589b194e881c185d5cd95960821b604482015290519081900360640190fd5b60f55443116108d7576040805162461bcd60e51b815260206004820152601160248201527f45474c3a414c52454144595f5357455054000000000000000000000000000000604482015290519081900360640190fd5b4360f555609754609a5445916000916108f1918491612fc5565b90508015610a2c5760f75461090c908263ffffffff61319f16565b60f755609d54610922908263ffffffff6131ea16565b609d5560ed54604080516370a0823160e01b815230600482015290516001600160a01b039092169163a9059cbb9141916109b09185916370a0823191602480820192602092909190829003018186803b15801561097e57600080fd5b505afa158015610992573d6000803e3d6000fd5b505050506040513d60208110156109a857600080fd5b505185613244565b6040518363ffffffff1660e01b815260040180836001600160a01b03166001600160a01b0316815260200182815260200192505050602060405180830381600087803b1580156109ff57600080fd5b505af1158015610a13573d6000803e3d6000fd5b505050506040513d6020811015610a2957600080fd5b50505b60f554604080513381524160208201528082019290925260608201849052608082018390524260a0830152517f0f6068cc0327366c9f8c4d052cf3e449a720815635c94fd32f6cf7b6af710e479181900360c00190a15050565b60985481565b60ec6020526000908152604090205481565b60655460ff1615610ae9576040805162461bcd60e51b815260206004820152601060248201526f14185d5cd8589b194e881c185d5cd95960821b604482015290519081900360640190fd5b60f354609c54610b099163ffffffff63010000009091048116906131ea16565b4211610b5c576040805162461bcd60e51b815260206004820152601260248201527f45474c3a564f54455f4e4f545f454e4445440000000000000000000000000000604482015290519081900360640190fd5b45609a556000610b7b670de0b6b3a7640000601e63ffffffff61325a16565b609b54909150603461ffff90911610610c2a576000610c11610c04610bbe610bab6034600163ffffffff61319f16565b609b5461ffff169063ffffffff61319f16565b610bf8610bd36034600263ffffffff61325a16565b610bec670de0b6b3a7640000601463ffffffff61325a16565b9063ffffffff6132b316565b9063ffffffff61325a16565b839063ffffffff6131ea16565b9050610c26816802b5e3af16b1880000613244565b9150505b60da54600090610c3b576000610c4a565b60da5460e254610c4a916132b3565b90506000610c5b60d28201546132f5565b9050828110610dea57609a5460f154610c799163ffffffff61332b16565b60f15560f254610c9090600163ffffffff61332b16565b60f281905560f154610ca79163ffffffff61339016565b60988190558212610cf157610cec610cdd620f4240610cd16098548661344890919063ffffffff16565b9063ffffffff6134ad16565b6098549063ffffffff61332b16565b610d1f565b610d1f610d10620f4240610cd18560985461344890919063ffffffff16565b6098549063ffffffff61344816565b609755609a54610d379061271063ffffffff61344816565b60975412158015610d5e5750609a54610d589061271063ffffffff61332b16565b60975413155b15610d6a57609a546097555b609b5460975460f15460f2546098546040805133815261ffff909616602087015285810194909452606085018890526080850186905260a085019290925260c084015260e083015242610100830152517f7f9ed4e6a05937b6f9fcaa91c2fe6f6ba0b0a7dc309b7e15367d08b8b5c044f5918190036101200190a1610f2e565b60f354610e0a9063ffffffff630100000090910481169060079061325a16565b60f454610e1e90429063ffffffff61319f16565b10610e6057610e5c610e4d6064610e416005609a546134bc90919063ffffffff16565b9063ffffffff61339016565b609a549063ffffffff61344816565b6097555b7fd4c520fe18c4d747998b5ff21f876ecb67cc070b489476dfe74fa89675684bb033609b60009054906101000a900461ffff166097548685609854609954610eb360f4544261319f90919063ffffffff16565b60f354610ed39063ffffffff630100000090910481169060069061325a16565b604080516001600160a01b03909a168a5261ffff90981660208a0152888801969096526060880194909452608087019290925260a086015260c085015260e08401526101008301524261012083015251908190036101400190a15b60005b60078160ff161015610fba5760da8160010160ff1660088110610f5057fe5b015460da8260ff1660088110610f6257fe5b015560e260ff600183011660088110610f7757fe5b015460e28260ff1660088110610f8957fe5b015560d260ff600183011660088110610f9e57fe5b015460d28260ff1660088110610fb057fe5b0155600101610f31565b50600060e181905560e981905560d981905560f181905560f255609b54600a61ffff90911610801590610fef5750600060f854115b1561100457609b546110049061ffff16613565565b609b805461ffff8082166001011661ffff1990911617905560f354609c5461103c9163ffffffff63010000009091048116906131ea16565b609c55609b54609754609d546040805133815260001961ffff95861601909416602085015283810192909252606083018590526080830186905260a0830184905260c08301524260e0830152517f965de41675c54ca4ca3f1e8b230d2f5b089784683690a5215032665f966b5588918190036101000190a1505050565b60655460ff1615611104576040805162461bcd60e51b815260206004820152601060248201526f14185d5cd8589b194e881c185d5cd95960821b604482015290519081900360640190fd5b33600090815260ea6020526040902060020154611158576040805162461bcd60e51b815260206004820152600d60248201526c1151d30e9393d517d593d51151609a1b604482015290519081900360640190fd5b33600090815260ea602052604090206001015442116111be576040805162461bcd60e51b815260206004820152601460248201527f45474c3a4e4f545f52454c454153455f44415445000000000000000000000000604482015290519081900360640190fd5b60ed546001600160a01b031663a9059cbb336111d98161372f565b6040518363ffffffff1660e01b815260040180836001600160a01b03166001600160a01b0316815260200182815260200192505050602060405180830381600087803b15801561122857600080fd5b505af115801561123c573d6000803e3d6000fd5b505050506040513d602081101561125257600080fd5b5050565b60655460ff16156112a1576040805162461bcd60e51b815260206004820152601060248201526f14185d5cd8589b194e881c185d5cd95960821b604482015290519081900360640190fd5b33600090815260ea60205260409020600201546112f5576040805162461bcd60e51b815260206004820152600d60248201526c1151d30e9393d517d593d51151609a1b604482015290519081900360640190fd5b811561157957670de0b6b3a7640000821015611358576040805162461bcd60e51b815260206004820152601060248201527f45474c3a414d4e545f544f4f5f4c4f5700000000000000000000000000000000604482015290519081900360640190fd5b60ed54604080516370a0823160e01b815233600482015290516001600160a01b03909216916370a0823191602480820192602092909190829003018186803b1580156113a357600080fd5b505afa1580156113b7573d6000803e3d6000fd5b505050506040513d60208110156113cd57600080fd5b5051821115611423576040805162461bcd60e51b815260206004820152601c60248201527f45474c3a494e53554646494349454e545f45474c5f42414c414e434500000000604482015290519081900360640190fd5b60ed5460408051636eb1769f60e11b8152336004820152306024820152905184926001600160a01b03169163dd62ed3e916044808301926020929190829003018186803b15801561147357600080fd5b505afa158015611487573d6000803e3d6000fd5b505050506040513d602081101561149d57600080fd5b505110156114f2576040805162461bcd60e51b815260206004820152601a60248201527f45474c3a494e53554646494349454e545f414c4c4f57414e4345000000000000604482015290519081900360640190fd5b60ed54604080516323b872dd60e01b81523360048201523060248201526044810185905290516001600160a01b03909216916323b872dd916064808201926020929091908290030181600087803b15801561154c57600080fd5b505af1158015611560573d6000803e3d6000fd5b505050506040513d602081101561157657600080fd5b50505b60f354609c546115999163ffffffff63010000009091048116906131ea16565b4211156115a8576115a8610a9e565b33600081815260ea6020526040902060010154906115d6906115c99061372f565b849063ffffffff6131ea16565b92506115e53385858585613a07565b604080513381526020810186905280820185905242606082015290517f7557e999fc50cf5217e7120750c6e75d826f9facea381db8a7cbe7a2350d061f9181900360800190a150505050565b611639613f01565b6033546001600160a01b0390811691161461169b576040805162461bcd60e51b815260206004820181905260248201527f4f776e61626c653a2063616c6c6572206973206e6f7420746865206f776e6572604482015290519081900360640190fd5b6001600160a01b038216600090815260ec602052604090205415611706576040805162461bcd60e51b815260206004820152601260248201527f45474c3a414c52454144595f5345454445520000000000000000000000000000604482015290519081900360640190fd5b6001600160a01b038216600090815260ea602052604090206002015415611774576040805162461bcd60e51b815260206004820152601460248201527f45474c3a414c52454144595f4841535f564f5445000000000000000000000000604482015290519081900360640190fd5b60ed54604080516370a0823160e01b81526001600160a01b038581166004830152915191909216916370a08231916024808301926020929190829003018186803b1580156117c157600080fd5b505afa1580156117d5573d6000803e3d6000fd5b505050506040513d60208110156117eb57600080fd5b50511561183f576040805162461bcd60e51b815260206004820152601460248201527f45474c3a414c52454144595f4841535f45474c53000000000000000000000000604482015290519081900360640190fd5b60f65460f4546118549163ffffffff6131ea16565b42106118a7576040805162461bcd60e51b815260206004820152601660248201527f45474c3a534545445f504552494f445f50415353454400000000000000000000604482015290519081900360640190fd5b60ef5460408051630fb6a4a160e11b815233600482015290516000926001600160a01b031691631f6d4942916024808301926080929190829003018186803b1580156118f257600080fd5b505afa158015611906573d6000803e3d6000fd5b505050506040513d608081101561191c57600080fd5b505190508015611973576040805162461bcd60e51b815260206004820152601260248201527f45474c3a49535f434f4e5452494255544f520000000000000000000000000000604482015290519081900360640190fd5b506001600160a01b03909116600090815260ec6020526040902055565b60655460ff1690565b60eb60205260009081526040902080546001820154600283015460039093015463ffffffff90921692909184565b609c5481565b60da81600881106119da57fe5b0154905081565b6119e9613f01565b6033546001600160a01b03908116911614611a4b576040805162461bcd60e51b815260206004820181905260248201527f4f776e61626c653a2063616c6c6572206973206e6f7420746865206f776e6572604482015290519081900360640190fd5b6040805162461bcd60e51b815260206004820152601960248201527f45474c3a4e4f5f52454e4f554e43455f4f574e45525348495000000000000000604482015290519081900360640190fd5b609e81603481106119da57fe5b609b5461ffff1681565b60655460ff1615611afa576040805162461bcd60e51b815260206004820152601060248201526f14185d5cd8589b194e881c185d5cd95960821b604482015290519081900360640190fd5b33600090815260ec6020526040902054611b5b576040805162461bcd60e51b815260206004820152600e60248201527f45474c3a4e4f545f534545444552000000000000000000000000000000000000604482015290519081900360640190fd5b33600090815260ec602052604081208054919055609d54611b82908263ffffffff6131ea16565b609d5560f45460f354600091611bbb91611baf9060349063ffffffff630100000090910481169061325a16565b9063ffffffff6131ea16565b604080513381526020810185905280820183905242606082015290519192507f5356d501c5681bc11ad4a79b7bdf2821e62fbf883e09cd63546edef197d10a12919081900360800190a1611c123385848685613a07565b50505050565b6033546001600160a01b031690565b60975481565b60ea60205260009081526040902080546001820154600283015460039093015460ff83169361010090930461ffff16929085565b60e281600881106119da57fe5b60655460ff1615611cb9576040805162461bcd60e51b815260206004820152601060248201526f14185d5cd8589b194e881c185d5cd95960821b604482015290519081900360640190fd5b60ef60009054906101000a90046001600160a01b03166001600160a01b03166340b982536040518163ffffffff1660e01b815260040160206040518083038186803b158015611d0757600080fd5b505afa158015611d1b573d6000803e3d6000fd5b505050506040513d6020811015611d3157600080fd5b5051158015611db7575060ef60009054906101000a90046001600160a01b03166001600160a01b031663b51459fe6040518163ffffffff1660e01b815260040160206040518083038186803b158015611d8957600080fd5b505afa158015611d9d573d6000803e3d6000fd5b505050506040513d6020811015611db357600080fd5b5051155b611e08576040805162461bcd60e51b815260206004820152601260248201527f45474c3a47454e455349535f4c4f434b45440000000000000000000000000000604482015290519081900360640190fd5b33600090815260eb602052604090205463ffffffff1615611e70576040805162461bcd60e51b815260206004820152601360248201527f45474c3a414c52454144595f434c41494d454400000000000000000000000000604482015290519081900360640190fd5b60ef5460408051630fb6a4a160e11b8152336004820152905160009283926001600160a01b0390911691631f6d494291602480820192608092909190829003018186803b158015611ec057600080fd5b505afa158015611ed4573d6000803e3d6000fd5b505050506040513d6080811015611eea57600080fd5b508051602090910151909250905081611f4a576040805162461bcd60e51b815260206004820152601360248201527f45474c3a4e4f545f434f4e545249425554454400000000000000000000000000604482015290519081900360640190fd5b6000611f6d670de0b6b3a7640000610bec60fc548661325a90919063ffffffff16565b90506000611f92670de0b6b3a7640000610bec60fd548761325a90919063ffffffff16565b90506000611fbb670de0b6b3a7640000610bec60fc54610bf8898961319f90919063ffffffff16565b90506000611fcf828563ffffffff6131ea16565b90506000611fdd8383613f05565b33600090815260eb60205260409020805463ffffffff1916600190811782558101869055600281018590556003810184905560fa549192509061202090836131ea565b60fa55609d54612036908363ffffffff6131ea16565b609d5560fc5460fd5460408051338152602081018c90528082018e905260ff8d166060820152608081019390935260a083019190915260c0820184905260e0820187905242610100830152517f27b23b2a7364e907ba19610e73d1a11ff47e714246d1192f15ccbffa74a8f7c0918190036101200190a16120f7338b848c6120f26120e3603460f360039054906101000a900463ffffffff1663ffffffff1661325a90919063ffffffff16565b609c549063ffffffff6131ea16565b613a07565b50505050505050505050565b60655460ff161561214e576040805162461bcd60e51b815260206004820152601060248201526f14185d5cd8589b194e881c185d5cd95960821b604482015290519081900360640190fd5b670de0b6b3a76400008210156121ab576040805162461bcd60e51b815260206004820152601060248201527f45474c3a414d4e545f544f4f5f4c4f5700000000000000000000000000000000604482015290519081900360640190fd5b60ed54604080516370a0823160e01b815233600482015290516001600160a01b03909216916370a0823191602480820192602092909190829003018186803b1580156121f657600080fd5b505afa15801561220a573d6000803e3d6000fd5b505050506040513d602081101561222057600080fd5b5051821115612276576040805162461bcd60e51b815260206004820152601c60248201527f45474c3a494e53554646494349454e545f45474c5f42414c414e434500000000604482015290519081900360640190fd5b60ed5460408051636eb1769f60e11b8152336004820152306024820152905184926001600160a01b03169163dd62ed3e916044808301926020929190829003018186803b1580156122c657600080fd5b505afa1580156122da573d6000803e3d6000fd5b505050506040513d60208110156122f057600080fd5b50511015612345576040805162461bcd60e51b815260206004820152601a60248201527f45474c3a494e53554646494349454e545f414c4c4f57414e4345000000000000604482015290519081900360640190fd5b60f354609c546123659163ffffffff63010000009091048116906131ea16565b42111561237457612374610a9e565b60ed54604080516323b872dd60e01b81523360048201523060248201526044810185905290516001600160a01b03909216916323b872dd916064808201926020929091908290030181600087803b1580156123ce57600080fd5b505af11580156123e2573d6000803e3d6000fd5b505050506040513d60208110156123f857600080fd5b506124099050338484846000613a07565b505050565b600054610100900460ff16806124275750612427613f60565b80612435575060005460ff16155b6124705760405162461bcd60e51b815260040180806020018281038252602e815260200180614612602e913960400191505060405180910390fd5b600054610100900460ff1615801561249b576000805460ff1961ff0019909116610100171660011790555b6001600160a01b038a166124f6576040805162461bcd60e51b815260206004820152601a60248201527f45474c3a494e56414c49445f45474c5f544f4b454e5f41444452000000000000604482015290519081900360640190fd5b6001600160a01b038916612551576040805162461bcd60e51b815260206004820152601960248201527f45474c3a494e56414c49445f42505f544f4b454e5f4144445200000000000000604482015290519081900360640190fd5b6001600160a01b0388166125ac576040805162461bcd60e51b815260206004820152601860248201527f45474c3a494e56414c49445f47454e455349535f414444520000000000000000604482015290519081900360640190fd5b6125b4613f66565b6125bc614008565b6125c461410e565b60ed80546001600160a01b03808d1673ffffffffffffffffffffffffffffffffffffffff199283161790925560ee80548c841690831617905560ef80548b841692169190911790819055604080517f4b472d4500000000000000000000000000000000000000000000000000000000815290516000939290921691634b472d4591600480820192602092909190829003018186803b15801561266557600080fd5b505afa158015612679573d6000803e3d6000fd5b505050506040513d602081101561268f57600080fd5b50519050806126e5576040805162461bcd60e51b815260206004820152601660248201527f45474c3a4e4f5f47454e455349535f42414c414e434500000000000000000000604482015290519081900360640190fd5b60ee5460ef54604080517f8da5cb5b00000000000000000000000000000000000000000000000000000000815290516000936001600160a01b03908116936370a0823193911691638da5cb5b91600480820192602092909190829003018186803b15801561275257600080fd5b505afa158015612766573d6000803e3d6000fd5b505050506040513d602081101561277c57600080fd5b5051604080517fffffffff0000000000000000000000000000000000000000000000000000000060e085901b1681526001600160a01b039092166004830152516024808301926020929190829003018186803b1580156127db57600080fd5b505afa1580156127ef573d6000803e3d6000fd5b505050506040513d602081101561280557600080fd5b5051905061283182610bec6b026c62ad77dc602dae000000670de0b6b3a764000063ffffffff61325a16565b60fc5561285082610bec83670de0b6b3a764000063ffffffff61325a16565b60fd5561286863ffffffff80891690600a9061325a16565b60f65560f4899055609c89905560f3805462ffffff191662ffffff8a161766ffffffff0000001916630100000063ffffffff8a160217905560f0805473ffffffffffffffffffffffffffffffffffffffff19166001600160a01b0386161790556b026c62ad77dc602dae000000609d81905545609a819055609881905560998190556097556b0409f9cbc7c4a04c2200000060f75560f8558551156129565760005b86518160ff1610156129545761294c878260ff168151811061292857fe5b6020026020010151878360ff168151811061293f57fe5b6020026020010151611631565b60010161290a565b505b60ed5460ef5460fc5460fd5460f65460f45460f354604080513381523060208201526001600160a01b03988916818301529790961660608801526080870189905260a087019490945260c086019290925260e085015261010084015262ffffff81166101208401526301000000900463ffffffff1661014083015242610160830152517f162f0f0749685a830e63f558485ce790587625c4206d0489cf7e42b44b4c785691610180908290030190a1505080156120f7576000805461ff001916905550505050505050505050565b60d281600881106119da57fe5b60655460ff1615612a7c576040805162461bcd60e51b815260206004820152601060248201526f14185d5cd8589b194e881c185d5cd95960821b604482015290519081900360640190fd5b33600090815260eb602052604090205463ffffffff16612ae3576040805162461bcd60e51b815260206004820152601260248201527f45474c3a4e4f5f504f4f4c5f544f4b454e530000000000000000000000000000604482015290519081900360640190fd5b60f65460f454612afa90429063ffffffff61319f16565b11612b4c576040805162461bcd60e51b815260206004820152601560248201527f45474c3a414c4c5f544f4b454e535f4c4f434b45440000000000000000000000604482015290519081900360640190fd5b6000612b7b612b6660f4544261319f90919063ffffffff16565b6b026c62ad77dc602dae00000060f6546141b9565b33600090815260eb60205260409020600281015491925090821015612be7576040805162461bcd60e51b815260206004820152601660248201527f45474c3a414444525f544f4b454e535f4c4f434b454400000000000000000000604482015290519081900360640190fd5b600081600301548310612d25575060018101805460009182905533825260ea60205260408220805491929091612c2f9061ffff6101008204169060ff1663ffffffff6131ea16565b609b5490915061ffff168111612c455742612c82565b60f354609b54612c8291612c7591630100000090910463ffffffff90811691610bf891869161ffff169061319f16565b429063ffffffff6131ea16565b6001808401919091558401546002850154600386015460408051338152602081018a90528082018890526060810194909452608084019290925260a08301524260c0830152517f08c3711e2841c8ace4a6507d655277b6ea25bd017f0597be2b4365cd28e39f3b9181900360e00190a1505033600090815260eb60205260408120805463ffffffff19168155600181018290556002810182905560030155612dc8565b612d3d838360020154846003015485600101546142fc565b6001830154909150612d55908263ffffffff61319f16565b600183018190556002830154600384015460408051338152602081018890528082018690526060810194909452608084019290925260a08301524260c0830152517f08c3711e2841c8ace4a6507d655277b6ea25bd017f0597be2b4365cd28e39f3b9181900360e00190a1600282018390555b60ee54604080516370a0823160e01b815230600482015290516001600160a01b039092169163a9059cbb913391612e219185916370a0823191602480820192602092909190829003018186803b15801561097e57600080fd5b6040518363ffffffff1660e01b815260040180836001600160a01b03166001600160a01b0316815260200182815260200192505050602060405180830381600087803b158015612e7057600080fd5b505af1158015612e84573d6000803e3d6000fd5b505050506040513d6020811015612e9a57600080fd5b5050505050565b612ea9613f01565b6033546001600160a01b03908116911614612f0b576040805162461bcd60e51b815260206004820181905260248201527f4f776e61626c653a2063616c6c6572206973206e6f7420746865206f776e6572604482015290519081900360640190fd5b6001600160a01b038116612f505760405162461bcd60e51b81526004018080602001828103825260268152602001806145cb6026913960400191505060405180910390fd5b6033546040516001600160a01b038084169216907f8be0079c531659141344cd1fd0a4f28419497f9722a3daafe3b4186f6b6457e090600090a36033805473ffffffffffffffffffffffffffffffffffffffff19166001600160a01b0392909216919091179055565b609d5481565b60995481565b600080600080612fd58587614342565b90506000612fe38689614342565b90506000612ff98861271063ffffffff61332b16565b9050600061300f8961271063ffffffff61344816565b9050808a121580156130215750818a13155b156130465761303f670de0b6b3a7640000606463ffffffff61325a16565b95506130df565b60008413801561308b5750878913801561305f5750878a135b801561306b5750818a13155b8061308b5750878912801561307f5750878a125b801561308b5750808a12155b156130df576130b1604b610bf886610e4187670de0b6b3a764000063ffffffff6134bc16565b94506130dc6130cf670de0b6b3a7640000601963ffffffff61325a16565b869063ffffffff6131ea16565b95505b6131186064610bec670de0b6b3a7640000610bec61310b624c4b4060f7546132b390919063ffffffff16565b8b9063ffffffff61325a16565b609b5460f7546040805143815261ffff909316602084015282810191909152606082018d9052608082018c905260a082018b905260c0820188905260e082018990526101008201839052519198507f0a6c8f54ddfdd3699de4aba00b3be787310337c69fabd5b346859d86aafa911091908190036101200190a15050505050509392505050565b60006131e183836040518060400160405280601e81526020017f536166654d6174683a207375627472616374696f6e206f766572666c6f770000815250614359565b90505b92915050565b6000828201838110156131e1576040805162461bcd60e51b815260206004820152601b60248201527f536166654d6174683a206164646974696f6e206f766572666c6f770000000000604482015290519081900360640190fd5b600081831061325357816131e1565b5090919050565b600082613269575060006131e4565b8282028284828161327657fe5b04146131e15760405162461bcd60e51b81526004018080602001828103825260218152602001806146616021913960400191505060405180910390fd5b60006131e183836040518060400160405280601a81526020017f536166654d6174683a206469766973696f6e206279207a65726f0000000000008152506143f0565b600080609d54116133075760006131e4565b609d546131e490610bec6064610bf886670de0b6b3a764000063ffffffff61325a16565b60008282018183128015906133405750838112155b80613355575060008312801561335557508381125b6131e15760405162461bcd60e51b81526004018080602001828103825260218152602001806145f16021913960400191505060405180910390fd5b6000816133e4576040805162461bcd60e51b815260206004820181905260248201527f5369676e6564536166654d6174683a206469766973696f6e206279207a65726f604482015290519081900360640190fd5b816000191480156133f85750600160ff1b83145b156134345760405162461bcd60e51b81526004018080602001828103825260218152602001806146406021913960400191505060405180910390fd5b600082848161343f57fe5b05949350505050565b600081830381831280159061345d5750838113155b80613472575060008312801561347257508381135b6131e15760405162461bcd60e51b81526004018080602001828103825260248152602001806146a96024913960400191505060405180910390fd5b600081831261325357816131e1565b6000826134cb575060006131e4565b826000191480156134df5750600160ff1b82145b1561351b5760405162461bcd60e51b81526004018080602001828103825260278152602001806146826027913960400191505060405180910390fd5b8282028284828161352857fe5b05146131e15760405162461bcd60e51b81526004018080602001828103825260278152602001806146826027913960400191505060405180910390fd5b60f3546000906135be9061358b90849063ffffffff630100000090910481169061325a16565b60f3546b026c62ad77dc602dae000000906135b990600a9063ffffffff630100000090910481169061325a16565b6141b9565b905060006135e960f8546135dd60f9548561319f90919063ffffffff16565b9063ffffffff61324416565b60ed5460f054604080517fa9059cbb0000000000000000000000000000000000000000000000000000000081526001600160a01b03928316600482015260248101859052905193945091169163a9059cbb916044808201926020929091908290030181600087803b15801561365d57600080fd5b505af1158015613671573d6000803e3d6000fd5b505050506040513d602081101561368757600080fd5b505060f85461369c908263ffffffff61319f16565b60f855609d546136b2908263ffffffff6131ea16565b609d5560f05460f95460f854609b54604080513381526001600160a01b0390951660208601528481018690526060850193909352608084019190915261ffff1660a08301524260c0830152517fb8eb1858344dfad27243fc861330eea15630cddc1d8c5c4eb9a72bb059aae54b9181900360e00190a15060f95550565b6001600160a01b038116600090815260ea60205260408120805460028201805460038401805462ffffff1985168655600186018790559286905585905561ffff61010084041692909160ff909116908561378f848463ffffffff61325a16565b609b549091506000906137aa908a9061ffff16888786614455565b905060006137c561ffff881660ff871663ffffffff6131ea16565b609b5490915060009061ffff1682116137df5760006137f7565b609b546137f790839061ffff1663ffffffff61319f16565b905060005b818160ff161015613918576138298560da8360ff166008811061381b57fe5b01549063ffffffff61319f16565b60da8260ff166008811061383957fe5b015561385e61384e868863ffffffff61325a16565b60e28360ff166008811061381b57fe5b60e28260ff166008811061386e57fe5b0155609b5460349061388d9061ffff1660ff841663ffffffff6131ea16565b10156138ea57609b546138c0908690609e906138b69061ffff1660ff861663ffffffff6131ea16565b6034811061381b57fe5b609b54609e906138dd9061ffff1660ff851663ffffffff6131ea16565b603481106138e757fe5b01555b6138fe8860d28360ff166008811061381b57fe5b60d28260ff166008811061390e57fe5b01556001016137fc565b50609d5461392c908463ffffffff6131ea16565b609d55609b547fe0b45c9063ac79a1ba771cbe0d96ebb606253f393afdf9bd0bb9b2bc7eb16487908c9061ffff168986896034841061396c576000613983565b609b54609e9061ffff166034811061398057fe5b01545b60d25460da5460e254604080516001600160a01b039a909a168a5261ffff9890981660208a0152888801969096526060880194909452608087019290925260a086015260c085015260e08401526101008301524261012083015251908190036101400190a16139f8878463ffffffff6131ea16565b9b9a5050505050505050505050565b6001600160a01b038516600090815260ea602052604090206002015415613a75576040805162461bcd60e51b815260206004820152601160248201527f45474c3a414c52454144595f564f544544000000000000000000000000000000604482015290519081900360640190fd5b623d0900613a8385456145a9565b10613ad5576040805162461bcd60e51b815260206004820152601660248201527f45474c3a494e56414c49445f4741535f54415247455400000000000000000000604482015290519081900360640190fd5b60018260ff1610158015613aed575060088260ff1611155b613b3e576040805162461bcd60e51b815260206004820152601260248201527f45474c3a494e56414c49445f4c4f434b55500000000000000000000000000000604482015290519081900360640190fd5b60f354609c54613b5e9163ffffffff63010000009091048116906131ea16565b4210613bb1576040805162461bcd60e51b815260206004820152601060248201527f45474c3a564f54455f544f4f5f46415200000000000000000000000000000000604482015290519081900360640190fd5b60f354609c54613be89162ffffff811691613bdc9163ffffffff63010000009091048116906131ea16565b9063ffffffff61319f16565b4210613c3b576040805162461bcd60e51b815260206004820152601260248201527f45474c3a564f54455f544f4f5f434c4f53450000000000000000000000000000604482015290519081900360640190fd5b60f154613c4e904563ffffffff61332b16565b60f15560f254613c6590600163ffffffff61332b16565b60f25560f354600090613ca3908390613c9790612c759060ff88169063ffffffff630100000090910481169061325a16565b9063ffffffff6145ba16565b6001600160a01b038716600090815260ea60205260408120609b54815462ffff00191661010061ffff909216919091021760ff191660ff8716908117825560018201849055600282018890556003820189905592935091613d0590879061325a565b905060005b8560ff168160ff161015613e2957613d3a8260da8360ff1660088110613d2c57fe5b01549063ffffffff6131ea16565b60da8260ff1660088110613d4a57fe5b0155613d6f613d5f898463ffffffff61325a16565b60e28360ff1660088110613d2c57fe5b60e28260ff1660088110613d7f57fe5b0155609b54603490613d9e9061ffff1660ff841663ffffffff6131ea16565b1015613dfb57609b54613dd1908390609e90613dc79061ffff1660ff861663ffffffff6131ea16565b60348110613d2c57fe5b609b54609e90613dee9061ffff1660ff851663ffffffff6131ea16565b60348110613df857fe5b01555b613e0f8760d28360ff1660088110613d2c57fe5b60d28260ff1660088110613e1f57fe5b0155600101613d0a565b50609b5460da5460e2547f58d3ad4d526c4b6a438a40b7d49daf638c30beaf79f1bea88df8dded09356181928b9261ffff909116918b918b918b918a9160348710613e75576000613e8c565b609b54609e9061ffff1660348110613e8957fe5b01545b60d260000154604080516001600160a01b03909b168b5261ffff90991660208b015289890197909752606089019590955260ff909316608088015260a087019190915260c086015260e08501526101008401526101208301524261014083015251908190036101600190a15050505050505050565b3390565b60006131e16b020b73425d21f1268ad00000610bec670de0b6b3a7640000610bf86004613f38898463ffffffff6132b316565b0a6004613f5389670de0b6b3a764000063ffffffff6132b316565b0a9063ffffffff61319f16565b303b1590565b600054610100900460ff1680613f7f5750613f7f613f60565b80613f8d575060005460ff16155b613fc85760405162461bcd60e51b815260040180806020018281038252602e815260200180614612602e913960400191505060405180910390fd5b600054610100900460ff16158015613ff3576000805460ff1961ff0019909116610100171660011790555b8015614005576000805461ff00191690555b50565b600054610100900460ff16806140215750614021613f60565b8061402f575060005460ff16155b61406a5760405162461bcd60e51b815260040180806020018281038252602e815260200180614612602e913960400191505060405180910390fd5b600054610100900460ff16158015614095576000805460ff1961ff0019909116610100171660011790555b600061409f613f01565b6033805473ffffffffffffffffffffffffffffffffffffffff19166001600160a01b038316908117909155604051919250906000907f8be0079c531659141344cd1fd0a4f28419497f9722a3daafe3b4186f6b6457e0908290a3508015614005576000805461ff001916905550565b600054610100900460ff16806141275750614127613f60565b80614135575060005460ff16155b6141705760405162461bcd60e51b815260040180806020018281038252602e815260200180614612602e913960400191505060405180910390fd5b600054610100900460ff1615801561419b576000805460ff1961ff0019909116610100171660011790555b6065805460ff191690558015614005576000805461ff001916905550565b60f3546000906141dc9063ffffffff630100000090910481169060349061325a16565b84106141e95750816142f5565b60f35460009061423290614216908590613bdc9063ffffffff630100000090910481169060349061325a16565b610bec670de0b6b3a7640000610bf8898863ffffffff61319f16565b905061428b6c0c9f2c9cd04674edea40000000610bec6305f5e100610bf861426889670de0b6b3a764000063ffffffff6132b316565b600461427e886305f5e10063ffffffff6132b316565b0a9063ffffffff61325a16565b609b549092507fd674ec717f393e2cff4f3c2e92d6d823c262c12261e038db6ea1d41e3a40267c9061ffff166142c883606463ffffffff61325a16565b6040805161ffff9093168352602083019190915281810185905260608201879052519081900360800190a1505b9392505050565b60008061431385613bdc888763ffffffff61324416565b9050614338614328858763ffffffff61319f16565b610bec858463ffffffff61325a16565b9695505050505050565b6000818313614353578282036131e1565b50900390565b600081848411156143e85760405162461bcd60e51b81526004018080602001828103825283818151815260200191508051906020019080838360005b838110156143ad578181015183820152602001614395565b50505050905090810190601f1680156143da5780820380516001836020036101000a031916815260200191505b509250505060405180910390fd5b505050900390565b6000818361443f5760405162461bcd60e51b81526020600482018181528351602484015283519092839260449091019190850190808383600083156143ad578181015183820152602001614395565b50600083858161444b57fe5b0495945050505050565b60008061447a60346135dd61ffff808a169082908a1660ff8a1663ffffffff6131ea16565b9050845b818161ffff16101561459e5760006144d4609e8361ffff16603481106144a057fe5b0154610bec6144ba603461ffff871663ffffffff61319f16565b610bf889694cd5d9c0f8633ab6000063ffffffff61325a16565b90506144e6848263ffffffff6131ea16565b93507f8e7cb6eb982fc3985d01b0511802c5a4c6d9bf419ed5adbe39eaa4da9750474b8989868489694cd5d9c0f8633ab6000061452e603461ffff8b1663ffffffff61319f16565b609e8a61ffff166034811061453f57fe5b0154604080516001600160a01b03909916895261ffff9097166020890152878701959095526060870193909352608086019190915260a085015260c084015260e08301524261010083015251908190036101200190a15060010161447e565b505095945050505050565b6000818311614353578282036131e1565b60008183101561325357816131e156fe4f776e61626c653a206e6577206f776e657220697320746865207a65726f20616464726573735369676e6564536166654d6174683a206164646974696f6e206f766572666c6f77496e697469616c697a61626c653a20636f6e747261637420697320616c726561647920696e697469616c697a65645369676e6564536166654d6174683a206469766973696f6e206f766572666c6f77536166654d6174683a206d756c7469706c69636174696f6e206f766572666c6f775369676e6564536166654d6174683a206d756c7469706c69636174696f6e206f766572666c6f775369676e6564536166654d6174683a207375627472616374696f6e206f766572666c6f77a2646970667358221220f554810b8ab099f03e7bcf3af9223f93cc0c1e6298d9e47906d2ecae567e50b464736f6c63430006060033",
  "immutableReferences": {},
  "source": "pragma solidity 0.6.6;\n\nimport \"./EglToken.sol\";\nimport \"./interfaces/IEglGenesis.sol\";\nimport \"./libraries/Math.sol\";\n\nimport \"@openzeppelin/contracts-upgradeable/access/OwnableUpgradeable.sol\";\nimport \"@openzeppelin/contracts-upgradeable/math/SafeMathUpgradeable.sol\";\nimport \"@openzeppelin/contracts-upgradeable/math/SignedSafeMathUpgradeable.sol\";\nimport \"@openzeppelin/contracts-upgradeable/proxy/Initializable.sol\";\nimport \"@openzeppelin/contracts-upgradeable/token/ERC20/IERC20Upgradeable.sol\";\nimport \"@openzeppelin/contracts-upgradeable/utils/PausableUpgradeable.sol\";\n\ncontract EglContract is Initializable, OwnableUpgradeable, PausableUpgradeable {\n    /********************************** LIBRARIES ***********************************/\n    using Math for *;\n    using SafeMathUpgradeable for *;\n    using SignedSafeMathUpgradeable for int;\n\n    /********************************** CONSTANTS ***********************************/\n    int constant GAS_LIMIT_CHANGE = 1000000;\n    uint8 constant WEEKS_IN_YEAR = 52;\n    uint8 constant CREATOR_REWARD_FIRST_EPOCH = 10;\n    uint constant GAS_TARGET_TOLERANCE = 4000000;\n    uint constant DECIMAL_PRECISION = 10**18;\n    uint constant VOTER_REWARD_MULTIPLIER = 362844.70 ether;    \n    uint constant LAUNCH_EGLS = 750000000 ether;\n    uint constant TOTAL_CREATOR_EGLS = 750000000 ether;\n\n    /**************************** PUBLIC STATE VARIABLES ****************************/\n    int public desiredEgl;\n    int public baselineEgl;\n    int public initialEgl;\n    int public tallyVotesGasLimit;\n\n    uint16 public currentEpoch;\n    uint public currentEpochStartDate;\n    uint public tokensInCirculation;\n\n    uint[52] public voterRewardSums;\n    uint[8] public votesTotal;\n    uint[8] public voteWeightsSum;\n    uint[8] public gasTargetSum;\n\n    mapping(address => Voter) public voters;\n    mapping(address => Supporter) public supporters;\n    mapping(address => uint) public seeders;\n\n    struct Voter {\n        uint8 lockupDuration;\n        uint16 voteEpoch;\n        uint releaseDate;\n        uint tokensLocked;\n        uint gasTarget;\n    }\n\n    struct Supporter {\n        uint32 matches;\n        uint poolTokens;\n        uint firstEgl;\n        uint lastEgl;\n    }\n\n    /**************************** PRIVATE STATE VARIABLES ****************************/\n    EglToken private eglToken;\n    IERC20Upgradeable private balancerPoolToken;\n    IEglGenesis private eglGenesis;\n\n    address private creatorRewardsAddress;\n\n    int private epochGasLimitSum;\n    int private epochVoteCount;\n\n    uint24 private votingPauseSeconds;\n    uint32 private epochLength;\n    uint private firstEpochStartDate;\n    uint private latestRewardSwept;\n    uint private minLiquidityTokensLockup;\n    uint private remainingPoolReward;\n    uint private remainingCreatorReward;\n    uint private lastCreatorRewardAmount;\n    uint private supporterEglsTotal;\n    uint private poolTokensHeld;  \n    uint private ethEglRatio;\n    uint private ethBptRatio;\n\n    /************************************ EVENTS ************************************/\n    event Initialized(\n        address deployer,\n        address eglContract,\n        address eglToken,\n        address genesisContract,\n        uint totalGenesisEth,\n        uint ethEglRatio,\n        uint ethBptRatio,\n        uint minLiquidityTokensLockup,\n        uint firstEpochStartDate,\n        uint votingPauseSeconds,\n        uint epochLength,\n        uint date\n    );\n    event Vote(\n        address caller,\n        uint16 currentEpoch,\n        uint gasTarget,\n        uint eglAmount,\n        uint8 lockupDuration,\n        uint releaseDate,\n        uint epochVoteWeightSum,\n        uint epochGasTargetSum,\n        uint epochVoterRewardSum,\n        uint epochTotalVotes,\n        uint date\n    );\n    event ReVote(\n        address caller, \n        uint gasTarget, \n        uint eglAmount, \n        uint date\n    );\n    event Withdraw(\n        address caller,\n        uint16 currentEpoch,\n        uint tokensLocked,\n        uint rewardTokens,\n        uint gasTarget,\n        uint epochVoterRewardSum,\n        uint epochTotalVotes,\n        uint epochVoteWeightSum,\n        uint epochGasTargetSum,\n        uint date\n    );\n    event VotesTallied(\n        address caller,\n        uint16 currentEpoch,\n        int desiredEgl,\n        int averageGasTarget,\n        uint votingThreshold,\n        uint actualVotePercentage,\n        uint tokensInCirculation,\n        uint date\n    );\n    event CreatorRewardsClaimed(\n        address caller,\n        address creatorRewardAddress,\n        uint amountClaimed,\n        uint lastEpochReward,\n        uint remainingCreatorReward,\n        uint16 currentEpoch,\n        uint date\n    );\n    event VoteThresholdMet(\n        address caller,\n        uint16 currentEpoch,\n        int desiredEgl,\n        uint voteThreshold,\n        uint actualVotePercentage,\n        int gasLimitSum,\n        int voteCount,\n        int baselineEgl,\n        uint date\n    );\n    event VoteThresholdFailed(\n        address caller,\n        uint16 currentEpoch,\n        int desiredEgl,\n        uint voteThreshold,\n        uint actualVotePercentage,\n        int baselineEgl,\n        int initialEgl,\n        uint timeSinceFirstEpoch,\n        uint gracePeriodSeconds,\n        uint date\n    );\n    event PoolRewardsSwept(\n        address caller, \n        address coinbaseAddress,\n        uint blockNumber, \n        int blockGasLimit, \n        uint blockReward, \n        uint date\n    );\n    event BlockRewardCalculated(\n        uint blockNumber, \n        uint16 currentEpoch,\n        uint remainingPoolReward,\n        int blockGasLimit, \n        int desiredEgl,\n        int tallyVotesGasLimit,\n        uint proximityRewardPercent,\n        uint totalRewardPercent,\n        uint blockReward\n    );\n    event SeedAccountClaimed(\n        address seedAddress, \n        uint individualSeedAmount, \n        uint releaseDate,\n        uint date\n    );\n    event VoterRewardCalculated(\n        address voter,\n        uint16 currentEpoch,\n        uint voterReward,\n        uint epochVoterReward,\n        uint voteWeight,\n        uint rewardMultiplier,\n        uint weeksDiv,\n        uint epochVoterRewardSum,\n        uint date\n    );\n    event EthReceived(\n        address sender, \n        uint amount\n    );\n    event SupporterTokensClaimed(\n        address caller,\n        uint amountContributed,\n        uint gasTarget,\n        uint lockDuration,\n        uint ethEglRatio,\n        uint ethBptRatio,\n        uint bonusEglsReceived,\n        uint poolTokensReceived,\n        uint date\n    );\n    event PoolTokensWithdrawn(\n        address caller, \n        uint currentEglReleased, \n        uint poolTokensDue, \n        uint poolTokens, \n        uint firstEgl, \n        uint lastEgl, \n        uint date\n    );  \n\n    event ReleasedEglCalculated(\n        uint currentEpoch, \n        uint timePassedPercentage, \n        uint currentEgl,\n        uint maxSupply\n    );\n\n    /***************************** RECEIVE FUNCTION *****************************/\n    /**\n     * @dev Revert any transactions that attempt to send ETH to the contract directly\n     */\n    receive() external payable {\n        emit EthReceived(msg.sender, msg.value);\n        revert(\"EGL:NO_PAYMENTS\");\n    }\n\n    /**************************** EXTERNAL FUNCTIONS ****************************/\n    /**\n     * @dev Initialized contract variables\n     *\n     * @param _token Address of the EGL token     \n     * @param _poolToken Address of the Balance Pool Token (BPT)\n     * @param _genesis Address of the EGL Genesis contract\n     * @param _currentEpochStartDate Start date for the first epoch\n     * @param _votingPauseSeconds Number of seconds to pause voting before votes are tallied\n     * @param _epochLength The length of each epoch in seconds\n     * @param _seedAccounts List of accounts to seed with EGL's\n     * @param _seedAmounts Amount of EGLS's to seeds accounts with\n     * @param _creatorRewardsAccount Address that creator rewards get sent to\n     */\n    function initialize(\n        address _token,\n        address _poolToken,\n        address _genesis,\n        uint _currentEpochStartDate,\n        uint24 _votingPauseSeconds,\n        uint32 _epochLength,\n        address[] memory _seedAccounts,\n        uint[] memory _seedAmounts,\n        address _creatorRewardsAccount\n    ) \n        public \n        initializer \n    {\n        require(_token != address(0), \"EGL:INVALID_EGL_TOKEN_ADDR\");\n        require(_poolToken != address(0), \"EGL:INVALID_BP_TOKEN_ADDR\");\n        require(_genesis != address(0), \"EGL:INVALID_GENESIS_ADDR\");\n\n        __Context_init_unchained();\n        __Ownable_init_unchained();\n        __Pausable_init_unchained();\n\n        eglToken = EglToken(_token);\n        balancerPoolToken = IERC20Upgradeable(_poolToken);\n        eglGenesis = IEglGenesis(_genesis);        \n\n        uint totalGenesisEth = eglGenesis.cumulativeBalance();\n        require(totalGenesisEth > 0, \"EGL:NO_GENESIS_BALANCE\");\n\n        uint totalBpts = balancerPoolToken.balanceOf(eglGenesis.owner());\n        ethEglRatio = LAUNCH_EGLS.mul(DECIMAL_PRECISION).div(totalGenesisEth);\n        ethBptRatio = totalBpts.mul(DECIMAL_PRECISION).div(totalGenesisEth);\n\n        minLiquidityTokensLockup = _epochLength.mul(10);\n\n        firstEpochStartDate = _currentEpochStartDate;\n        currentEpochStartDate = _currentEpochStartDate;\n        votingPauseSeconds = _votingPauseSeconds;\n        epochLength = _epochLength;\n        creatorRewardsAddress = _creatorRewardsAccount;\n        tokensInCirculation = LAUNCH_EGLS;\n        tallyVotesGasLimit = int(block.gaslimit);\n        \n        baselineEgl = int(block.gaslimit);\n        initialEgl = baselineEgl;\n        desiredEgl = baselineEgl;\n\n        remainingPoolReward = 1250000000 ether;\n        remainingCreatorReward = TOTAL_CREATOR_EGLS;\n\n        if (_seedAccounts.length > 0)\n            for (uint8 i = 0; i < _seedAccounts.length; i++) {\n                addSeedAccount(_seedAccounts[i], _seedAmounts[i]);\n            }\n        \n        emit Initialized(\n            msg.sender,\n            address(this),\n            address(eglToken),\n            address(eglGenesis), \n            totalGenesisEth,\n            ethEglRatio,\n            ethBptRatio,\n            minLiquidityTokensLockup,\n            firstEpochStartDate,\n            votingPauseSeconds,\n            epochLength,\n            now\n        );\n    }\n\n    /**\n    * @dev Allows EGL Genesis contributors to claim their \"bonus\" EGL's that get entered into initial vote\n    *\n    * @param _gasTarget desired gas target for initial vote when claiming tokens\n    * @param _lockupDuration duration to lock tokens for initial vote\n    */\n    function claimSupporterEgls(uint _gasTarget, uint8 _lockupDuration) external whenNotPaused {\n        require(\n            eglGenesis.canContribute() == false && eglGenesis.canWithdraw() == false, \n            \"EGL:GENESIS_LOCKED\"\n        );\n        require(supporters[msg.sender].matches == 0, \"EGL:ALREADY_CLAIMED\");\n\n        (uint amount, uint cumulativeBalance, ,) = eglGenesis.contributors(msg.sender);\n        require(amount > 0, \"EGL:NOT_CONTRIBUTED\");\n\n        uint contributorSerializedEgls = amount.mul(ethEglRatio).div(DECIMAL_PRECISION);\n        uint poolTokensDue = amount.mul(ethBptRatio).div(DECIMAL_PRECISION);\n\n        uint supporterFirstEgl = cumulativeBalance.sub(amount)\n            .mul(ethEglRatio)\n            .div(DECIMAL_PRECISION);\n        uint supporterLastEgl = supporterFirstEgl.add(contributorSerializedEgls);\n        uint bonusEglsDue = _calculateBonusEglsDue(supporterFirstEgl, supporterLastEgl);\n        // TODO: Check that we don't go over the total bonus EGL's amount\n\n        Supporter storage _supporter = supporters[msg.sender];        \n        _supporter.matches = 1;\n        _supporter.poolTokens = poolTokensDue;\n        _supporter.firstEgl = supporterFirstEgl;\n        _supporter.lastEgl = supporterLastEgl;        \n        \n        supporterEglsTotal = supporterEglsTotal.add(bonusEglsDue);\n        tokensInCirculation = tokensInCirculation.add(bonusEglsDue);\n\n        emit SupporterTokensClaimed(\n            msg.sender,\n            amount,\n            _gasTarget,\n            _lockupDuration,\n            ethEglRatio,\n            ethBptRatio,\n            bonusEglsDue,\n            poolTokensDue,\n            now\n        );\n\n        _internalVote(\n            msg.sender,\n            _gasTarget,\n            bonusEglsDue,\n            _lockupDuration,\n            currentEpochStartDate.add(epochLength.mul(52))\n        );\n    }\n\n    /**\n     * @dev Function for seed accounts to claim their EGL's and enter initial vote with locked tokens\n     *\n     * @param _gasTarget desired gas target for initial vote when claiming tokens\n     * @param _lockupDuration duration to lock tokens for initial vote\n     */\n    function claimSeederEgls(uint _gasTarget, uint8 _lockupDuration) external whenNotPaused {\n        require(seeders[msg.sender] > 0, \"EGL:NOT_SEEDER\");\n        uint seedAmount = seeders[msg.sender];\n        delete seeders[msg.sender];\n\n        tokensInCirculation = tokensInCirculation.add(seedAmount);\n\n        uint releaseDate = WEEKS_IN_YEAR.mul(epochLength)\n            .add(firstEpochStartDate);\n        emit SeedAccountClaimed(msg.sender, seedAmount, releaseDate, now);\n\n        _internalVote(\n            msg.sender,\n            _gasTarget,\n            seedAmount,\n            _lockupDuration,\n            releaseDate\n        );\n    }\n\n    /**\n     * @dev Vote for desired gas limit and upgrade\n     *\n     * @param _gasTarget The desired gas limit\n     * @param _eglAmount Amount of EGL's to vote with\n     * @param _lockupDuration Duration to lock the EGL's\n     */\n    function vote(\n        uint _gasTarget,\n        uint _eglAmount,\n        uint8 _lockupDuration\n    ) \n        external \n        whenNotPaused \n    {\n        require(_eglAmount >= 1 ether, \"EGL:AMNT_TOO_LOW\");\n        require(_eglAmount <= eglToken.balanceOf(msg.sender), \"EGL:INSUFFICIENT_EGL_BALANCE\");\n        require(eglToken.allowance(msg.sender, address(this)) >= _eglAmount, \"EGL:INSUFFICIENT_ALLOWANCE\");\n        if (block.timestamp > currentEpochStartDate.add(epochLength))\n            tallyVotes();\n\n        eglToken.transferFrom(msg.sender, address(this), _eglAmount);\n        _internalVote(\n            msg.sender,\n            _gasTarget,\n            _eglAmount,\n            _lockupDuration,\n            0\n        );\n    }\n\n    /**\n     * @dev Re-Vote to change parameters of an existing vote\n     *\n     * @param _gasTarget The desired gas limit\n     * @param _eglAmount Amount of EGL's to vote with\n     * @param _lockupDuration Duration to lock the EGL's\n     */\n    function reVote(\n        uint _gasTarget,\n        uint _eglAmount,\n        uint8 _lockupDuration\n    ) \n        external \n        whenNotPaused \n    {\n        require(voters[msg.sender].tokensLocked > 0, \"EGL:NOT_VOTED\");\n        if (_eglAmount > 0) {\n            require(_eglAmount >= 1 ether, \"EGL:AMNT_TOO_LOW\");\n            require(_eglAmount <= eglToken.balanceOf(msg.sender), \"EGL:INSUFFICIENT_EGL_BALANCE\");\n            require(eglToken.allowance(msg.sender, address(this)) >= _eglAmount, \"EGL:INSUFFICIENT_ALLOWANCE\");\n            eglToken.transferFrom(msg.sender, address(this), _eglAmount);\n        }\n        if (block.timestamp > currentEpochStartDate.add(epochLength))\n            tallyVotes();\n\n        uint originalReleaseDate = voters[msg.sender].releaseDate;\n        _eglAmount = _eglAmount.add(_internalWithdraw(msg.sender));\n        _internalVote(\n            msg.sender,\n            _gasTarget,\n            _eglAmount,\n            _lockupDuration,\n            originalReleaseDate\n        );\n        emit ReVote(msg.sender, _gasTarget, _eglAmount, now);\n    }\n\n    /**\n     * @dev Withdraw EGL's once they have matured\n     */\n    function withdraw() external whenNotPaused {\n        require(voters[msg.sender].tokensLocked > 0, \"EGL:NOT_VOTED\");\n        require(block.timestamp > voters[msg.sender].releaseDate, \"EGL:NOT_RELEASE_DATE\");\n        eglToken.transfer(msg.sender, _internalWithdraw(msg.sender));\n    }\n\n    /**\n     * @dev Send EGL reward to miner of the block. Reward caclulated based on how close the block gas limit\n     * is to the desired EGL. The closer it is, the higher the reward\n     */\n    function sweepPoolRewards() external whenNotPaused {\n        require(block.number > latestRewardSwept, \"EGL:ALREADY_SWEPT\");\n        latestRewardSwept = block.number;\n        int blockGasLimit = int(block.gaslimit);\n        uint blockReward = _calculateBlockReward(blockGasLimit, desiredEgl, tallyVotesGasLimit);\n        if (blockReward > 0) {\n            remainingPoolReward = remainingPoolReward.sub(blockReward);\n            tokensInCirculation = tokensInCirculation.add(blockReward);\n            eglToken.transfer(block.coinbase, Math.umin(eglToken.balanceOf(address(this)), blockReward));\n        }\n\n        emit PoolRewardsSwept(\n            msg.sender, \n            block.coinbase,\n            latestRewardSwept, \n            blockGasLimit, \n            blockReward,\n            now\n        );\n    }\n\n    /**\n     * @dev Allows for the withdrawal of liquidity pool tokens once they have matured\n     */\n    function withdrawPoolTokens() external whenNotPaused {\n        require(supporters[msg.sender].matches > 0, \"EGL:NO_POOL_TOKENS\");\n        require(now.sub(firstEpochStartDate) > minLiquidityTokensLockup, \"EGL:ALL_TOKENS_LOCKED\");\n\n        uint currentEgl = _calculateReleasedEgl(\n            block.timestamp.sub(firstEpochStartDate), \n            LAUNCH_EGLS, \n            minLiquidityTokensLockup\n        );\n\n        Supporter storage _supporter = supporters[msg.sender];\n        require(_supporter.firstEgl <= currentEgl, \"EGL:ADDR_TOKENS_LOCKED\");\n\n        uint poolTokensDue;\n        if (currentEgl >= _supporter.lastEgl) {\n            poolTokensDue = _supporter.poolTokens;\n            _supporter.poolTokens = 0;\n\n            Voter storage _voter = voters[msg.sender];\n            uint releaseEpoch = _voter.voteEpoch.add(_voter.lockupDuration);\n            _voter.releaseDate = releaseEpoch > currentEpoch\n                ? block.timestamp.add(releaseEpoch.sub(currentEpoch).mul(epochLength))\n                : block.timestamp;\n\n            emit PoolTokensWithdrawn(\n                msg.sender, \n                currentEgl, \n                poolTokensDue, \n                _supporter.poolTokens,\n                _supporter.firstEgl, \n                _supporter.lastEgl, \n                now\n            );\n            delete supporters[msg.sender];\n        } else {\n            poolTokensDue = _calculateCurrentPoolTokensDue(\n                currentEgl, \n                _supporter.firstEgl, \n                _supporter.lastEgl, \n                _supporter.poolTokens\n            );\n            _supporter.poolTokens = _supporter.poolTokens.sub(poolTokensDue);\n            emit PoolTokensWithdrawn(\n                msg.sender,\n                currentEgl,\n                poolTokensDue,\n                _supporter.poolTokens,\n                _supporter.firstEgl,\n                _supporter.lastEgl,\n                now\n            );\n            _supporter.firstEgl = currentEgl;\n        }        \n\n        balancerPoolToken.transfer(\n            msg.sender, \n            Math.umin(balancerPoolToken.balanceOf(address(this)), poolTokensDue)\n        );        \n    }\n\n    /***************************** PUBLIC FUNCTIONS *****************************/\n    /**\n     * @dev Tally Votes for the most recent epoch and calculate the new desired EGL amount\n     */\n    function tallyVotes() public whenNotPaused {\n        require(block.timestamp > currentEpochStartDate.add(epochLength), \"EGL:VOTE_NOT_ENDED\");\n        tallyVotesGasLimit = int(block.gaslimit);\n\n        uint votingThreshold = DECIMAL_PRECISION.mul(30);\n\t    if (currentEpoch >= WEEKS_IN_YEAR) {\n            uint actualThreshold = votingThreshold.add(\n                (DECIMAL_PRECISION.mul(20).div(WEEKS_IN_YEAR.mul(2)))\n                .mul(currentEpoch.sub(WEEKS_IN_YEAR.sub(1)))\n            );\n            votingThreshold = Math.umin(actualThreshold, 50 * DECIMAL_PRECISION);\n        }\n\n        int averageGasTarget = voteWeightsSum[0] > 0\n            ? int(gasTargetSum[0].div(voteWeightsSum[0]))\n            : 0;\n        uint votePercentage = _calculatePercentageOfTokensInCirculation(votesTotal[0]);\n        if (votePercentage >= votingThreshold) {\n            epochGasLimitSum = epochGasLimitSum.add(int(tallyVotesGasLimit));\n            epochVoteCount = epochVoteCount.add(1);\n            baselineEgl = epochGasLimitSum.div(epochVoteCount);\n\n            desiredEgl = baselineEgl > averageGasTarget\n                ? baselineEgl.sub(baselineEgl.sub(averageGasTarget).min(GAS_LIMIT_CHANGE))\n                : baselineEgl.add(averageGasTarget.sub(baselineEgl).min(GAS_LIMIT_CHANGE));\n\n            if (\n                desiredEgl >= tallyVotesGasLimit.sub(10000) &&\n                desiredEgl <= tallyVotesGasLimit.add(10000)\n            ) \n                desiredEgl = tallyVotesGasLimit;\n\n            emit VoteThresholdMet(\n                msg.sender,\n                currentEpoch,\n                desiredEgl,\n                votingThreshold,\n                votePercentage,\n                epochGasLimitSum,\n                epochVoteCount,\n                baselineEgl,\n                now\n            );\n        } else {\n            if (block.timestamp.sub(firstEpochStartDate) >= epochLength.mul(7))\n                desiredEgl = tallyVotesGasLimit.sub(tallyVotesGasLimit.mul(5).div(100));\n\n            emit VoteThresholdFailed(\n                msg.sender,\n                currentEpoch,\n                desiredEgl,\n                votingThreshold,\n                votePercentage,\n                baselineEgl,\n                initialEgl,\n                block.timestamp.sub(firstEpochStartDate),\n                epochLength.mul(6),\n                now\n            );\n        }\n\n        // move values 1 slot earlier and put a '0' at the last slot\n        for (uint8 i = 0; i < 7; i++) {\n            voteWeightsSum[i] = voteWeightsSum[i + 1];\n            gasTargetSum[i] = gasTargetSum[i + 1];\n            votesTotal[i] = votesTotal[i + 1];\n        }\n        voteWeightsSum[7] = 0;\n        gasTargetSum[7] = 0;\n        votesTotal[7] = 0;\n\n        epochGasLimitSum = 0;\n        epochVoteCount = 0;\n\n        if (currentEpoch >= CREATOR_REWARD_FIRST_EPOCH && remainingCreatorReward > 0)\n            _issueCreatorRewards(currentEpoch);\n\n        currentEpoch += 1;\n        currentEpochStartDate = currentEpochStartDate.add(epochLength);\n\n        emit VotesTallied(\n            msg.sender,\n            currentEpoch - 1,\n            desiredEgl,\n            averageGasTarget,\n            votingThreshold,\n            votePercentage,\n            tokensInCirculation,\n            now\n        );\n    }\n\n    /**\n     * @dev Owner only function to add a seeder account with specified number of EGL's\n     *\n     * @param _seedAccount Wallet address of seeder\n     * @param _seedAmount Amount to seed\n     */\n    function addSeedAccount(address _seedAccount, uint _seedAmount) public onlyOwner {\n        require(seeders[_seedAccount] == 0, \"EGL:ALREADY_SEEDER\");\n        require(voters[_seedAccount].tokensLocked == 0, \"EGL:ALREADY_HAS_VOTE\");\n        require(eglToken.balanceOf(_seedAccount) == 0, \"EGL:ALREADY_HAS_EGLS\");\n        require(now < firstEpochStartDate.add(minLiquidityTokensLockup), \"EGL:SEED_PERIOD_PASSED\");\n        (uint contributorAmount,,,) = eglGenesis.contributors(msg.sender);\n        require(contributorAmount == 0, \"EGL:IS_CONTRIBUTOR\");\n        seeders[_seedAccount] = _seedAmount;\n    }\n\n    /**\n     * @dev Do not allow owner to renounce ownership, only transferOwnership\n     */\n    function renounceOwnership() public override onlyOwner {\n        revert(\"EGL:NO_RENOUNCE_OWNERSHIP\");\n    }\n\n    /**************************** INTERNAL FUNCTIONS ****************************/\n    /**\n     * @dev Internal function that adds a users vote\n     *\n     * @param _voter Address the vote should to assigned to\n     * @param _gasTarget The desired gas limit\n     * @param _eglAmount Amount of EGL's to vote with\n     * @param _lockupDuration Duration to lock the EGL's\n     * @param _releaseTime Date the EGL's are available to withdraw\n     */\n    function _internalVote(\n        address _voter,\n        uint _gasTarget,\n        uint _eglAmount,\n        uint8 _lockupDuration,\n        uint _releaseTime\n    ) internal {\n        require(voters[_voter].tokensLocked == 0, \"EGL:ALREADY_VOTED\");\n        require(\n            Math.udelta(_gasTarget, block.gaslimit) < GAS_TARGET_TOLERANCE,\n            \"EGL:INVALID_GAS_TARGET\"\n        );\n\n        require(_lockupDuration >= 1 && _lockupDuration <= 8, \"EGL:INVALID_LOCKUP\");\n        require(block.timestamp < currentEpochStartDate.add(epochLength), \"EGL:VOTE_TOO_FAR\");\n        require(block.timestamp < currentEpochStartDate.add(epochLength).sub(votingPauseSeconds), \"EGL:VOTE_TOO_CLOSE\");\n\n        epochGasLimitSum = epochGasLimitSum.add(int(block.gaslimit));\n        epochVoteCount = epochVoteCount.add(1);\n\n        uint updatedReleaseDate = block.timestamp.add(_lockupDuration.mul(epochLength)).umax(_releaseTime);\n\n        Voter storage voter = voters[_voter];\n        voter.voteEpoch = currentEpoch;\n        voter.lockupDuration = _lockupDuration;\n        voter.releaseDate = updatedReleaseDate;\n        voter.tokensLocked = _eglAmount;\n        voter.gasTarget = _gasTarget;\n\n        // Add the vote\n        uint voteWeight = _eglAmount.mul(_lockupDuration);\n        for (uint8 i = 0; i < _lockupDuration; i++) {\n            voteWeightsSum[i] = voteWeightsSum[i].add(voteWeight);\n            gasTargetSum[i] = gasTargetSum[i].add(_gasTarget.mul(voteWeight));\n            if (currentEpoch.add(i) < WEEKS_IN_YEAR)\n                voterRewardSums[currentEpoch.add(i)] = voterRewardSums[currentEpoch.add(i)].add(voteWeight);\n            votesTotal[i] = votesTotal[i].add(_eglAmount);\n        }\n\n        emit Vote(\n            _voter,\n            currentEpoch,\n            _gasTarget,\n            _eglAmount,\n            _lockupDuration,\n            updatedReleaseDate,\n            voteWeightsSum[0],\n            gasTargetSum[0],\n            currentEpoch < WEEKS_IN_YEAR ? voterRewardSums[currentEpoch]: 0,\n            votesTotal[0],\n            now\n        );\n    }\n\n    /**\n     * @dev Internal function that calculates the rewards due and removes the vote\n     *\n     * @param _voter Address the voter for be withdrawn for\n     */\n    function _internalWithdraw(address _voter) internal returns (uint totalWithdrawn) {\n        Voter storage voter = voters[_voter];\n        uint16 voterEpoch = voter.voteEpoch;\n        uint originalEglAmount = voter.tokensLocked;\n        uint8 lockupDuration = voter.lockupDuration;\n        uint gasTarget = voter.gasTarget;\n        delete voters[_voter];\n\n        uint voteWeight = originalEglAmount.mul(lockupDuration);\n        uint voterReward = _calculateVoterReward(_voter, currentEpoch, voterEpoch, lockupDuration, voteWeight);        \n\n        // Remove the gas target vote\n        uint voterInterval = voterEpoch.add(lockupDuration);\n        uint affectedEpochs = currentEpoch < voterInterval ? voterInterval.sub(currentEpoch) : 0;\n        for (uint8 i = 0; i < affectedEpochs; i++) {\n            voteWeightsSum[i] = voteWeightsSum[i].sub(voteWeight);\n            gasTargetSum[i] = gasTargetSum[i].sub(voteWeight.mul(gasTarget));\n            if (currentEpoch.add(i) < WEEKS_IN_YEAR) {\n                voterRewardSums[currentEpoch.add(i)] = voterRewardSums[currentEpoch.add(i)].sub(voteWeight);\n            }\n            votesTotal[i] = votesTotal[i].sub(originalEglAmount);\n        }\n        \n        tokensInCirculation = tokensInCirculation.add(voterReward);\n\n        emit Withdraw(\n            _voter,\n            currentEpoch,\n            originalEglAmount,\n            voterReward,\n            gasTarget,\n            currentEpoch < WEEKS_IN_YEAR ? voterRewardSums[currentEpoch]: 0,\n            votesTotal[0],\n            voteWeightsSum[0],\n            gasTargetSum[0],\n            now\n        );\n        totalWithdrawn = originalEglAmount.add(voterReward);\n    }\n\n    /**\n     * @dev Issues creator reward EGLs' based on the release schedule\n     */\n    function _issueCreatorRewards(uint _rewardEpoch) internal {\n        uint releasedEgl = _calculateReleasedEgl(\n            _rewardEpoch.mul(epochLength), \n            TOTAL_CREATOR_EGLS,\n            CREATOR_REWARD_FIRST_EPOCH.mul(epochLength)\n        );\n        uint creatorRewardForEpoch = releasedEgl.sub(lastCreatorRewardAmount).umin(remainingCreatorReward);\n                \n        eglToken.transfer(creatorRewardsAddress, creatorRewardForEpoch);\n        remainingCreatorReward = remainingCreatorReward.sub(creatorRewardForEpoch);\n        tokensInCirculation = tokensInCirculation.add(creatorRewardForEpoch);\n\n        emit CreatorRewardsClaimed(\n            msg.sender,\n            creatorRewardsAddress,\n            creatorRewardForEpoch,\n            lastCreatorRewardAmount,\n            remainingCreatorReward,\n            currentEpoch,\n            now\n        );\n        lastCreatorRewardAmount = releasedEgl;\n    }\n\n    /**\n     * @dev Calulates the block reward depending on the blocks gas limit\n     *\n     * @param _blockGasLimit gas limit of the currently mined block\n     * @param _desiredEgl current desired EGL value\n     * @param _tallyVotesGasLimit gas limit of the block that contained the tally votes tx\n     */\n    function _calculateBlockReward(\n        int _blockGasLimit, \n        int _desiredEgl, \n        int _tallyVotesGasLimit\n    ) \n        internal \n        returns (uint blockReward) \n    {\n        uint totalRewardPercent;\n        uint proximityRewardPercent;\n        int eglDelta = Math.delta(_tallyVotesGasLimit, _desiredEgl);\n        int actualDelta = Math.delta(_tallyVotesGasLimit, _blockGasLimit);\n        int ceiling = _desiredEgl.add(10000);\n        int floor = _desiredEgl.sub(10000);\n\n        if (_blockGasLimit >= floor && _blockGasLimit <= ceiling) {\n            totalRewardPercent = DECIMAL_PRECISION.mul(100);\n        } else if (eglDelta > 0 && (\n                (\n                    _desiredEgl > _tallyVotesGasLimit \n                    && _blockGasLimit > _tallyVotesGasLimit \n                    && _blockGasLimit <= ceiling\n                ) || (\n                    _desiredEgl < _tallyVotesGasLimit \n                    && _blockGasLimit < _tallyVotesGasLimit \n                    && _blockGasLimit >= floor\n                )\n            )            \n        ) {\n            proximityRewardPercent = uint(actualDelta.mul(int(DECIMAL_PRECISION))\n                .div(eglDelta))\n                .mul(75);                \n            totalRewardPercent = proximityRewardPercent.add(DECIMAL_PRECISION.mul(25));\n        }\n\n        blockReward = totalRewardPercent.mul(remainingPoolReward.div(5000000))\n            .div(DECIMAL_PRECISION)\n            .div(100);\n\n        emit BlockRewardCalculated(\n            block.number,\n            currentEpoch,\n            remainingPoolReward,\n            _blockGasLimit,\n            _desiredEgl,\n            _tallyVotesGasLimit,\n            proximityRewardPercent,\n            totalRewardPercent, \n            blockReward\n        );\n    }\n\n    /**\n     * @dev Calculates the current EGL released\n     */\n    function _calculateReleasedEgl(uint _timeSinceOrigin, uint _maxEglSupply, uint _timeLocked) \n        internal                  \n        returns (uint currentEgl) \n    {\n        if (_timeSinceOrigin >= epochLength.mul(WEEKS_IN_YEAR))\n            return _maxEglSupply;\n\n        uint timePassedPercentage = _timeSinceOrigin\n            .sub(_timeLocked)\n            .mul(DECIMAL_PRECISION)\n            .div(\n                epochLength.mul(WEEKS_IN_YEAR).sub(_timeLocked)\n            );\n\n        // Reduced precision so that we don't overflow the uin256 when we raise to 4th power\n        currentEgl = ((timePassedPercentage.div(10**8))**4)\n            .mul(_maxEglSupply.div(DECIMAL_PRECISION))\n            .mul(10**8)\n            .div((10**10)**3);\n\n        emit ReleasedEglCalculated(\n            currentEpoch, \n            timePassedPercentage.mul(100), \n            currentEgl, \n            _maxEglSupply\n        );\n    }\n\n    /**\n     * @dev Calculates the pool tokens due at time of calling\n     */\n    function _calculateCurrentPoolTokensDue(\n        uint _currentEgl, \n        uint _firstEgl, \n        uint _lastEgl, \n        uint _totalPoolTokens\n    ) \n        internal \n        pure\n        returns (uint poolTokensDue) \n    {\n        uint eglsReleased = (_currentEgl.umin(_lastEgl)).sub(_firstEgl);\n        poolTokensDue = _totalPoolTokens\n            .mul(eglsReleased)\n            .div(\n                _lastEgl.sub(_firstEgl)\n            );\n    }\n\n    /**\n     * @dev Calculates bonus EGLs due\n     */\n    function _calculateBonusEglsDue(\n        uint _firstEgl, \n        uint _lastEgl\n    )\n        internal\n        pure \n        returns (uint bonusEglsDue)  \n    {\n        bonusEglsDue = (_lastEgl.div(DECIMAL_PRECISION)**4)\n            .sub(_firstEgl.div(DECIMAL_PRECISION)**4)\n            .mul(DECIMAL_PRECISION)\n            .div(\n                (81/128)*(10**27)\n            );\n    }\n\n    /**\n     * @dev Calculates voter reward at time of withdrawal\n     */\n    function _calculateVoterReward(\n        address _voter,\n        uint16 _currentEpoch,\n        uint16 _voterEpoch,\n        uint8 _lockupDuration,\n        uint _voteWeight\n    ) \n        internal         \n        returns(uint rewardsDue) \n    {\n        uint rewardEpochs = _voterEpoch.add(_lockupDuration).umin(_currentEpoch).umin(WEEKS_IN_YEAR);\n        for (uint16 i = _voterEpoch; i < rewardEpochs; i++) {\n            uint epochReward = _voteWeight.mul(VOTER_REWARD_MULTIPLIER)\n                .mul(WEEKS_IN_YEAR.sub(i))\n                .div(voterRewardSums[i]);\n            rewardsDue = rewardsDue.add(epochReward);\n            emit VoterRewardCalculated(\n                _voter,\n                _currentEpoch,\n                rewardsDue,\n                epochReward,\n                _voteWeight,\n                VOTER_REWARD_MULTIPLIER,\n                WEEKS_IN_YEAR.sub(i),\n                voterRewardSums[i],\n                now\n            );\n        }\n    }\n\n    /**\n     * @dev Calculates the percentage of tokens in circulation for a given total\n     *\n     * @param _total The total to calculate the percentage of\n     * @return votePercentage The percentage of the total\n     */\n    function _calculatePercentageOfTokensInCirculation(uint _total) \n        internal \n        view \n        returns (uint votePercentage) \n    {\n        votePercentage = tokensInCirculation > 0\n            ? _total.mul(DECIMAL_PRECISION).mul(100).div(tokensInCirculation)\n            : 0;\n    }\n}\n",
  "sourcePath": "/Users/svancoller/Development/bloXroute/egl/contracts/EglContract.sol",
  "compiler": {
    "name": "solc",
    "version": "0.6.6+commit.6c089d02.Emscripten.clang"
  },
  "schemaVersion": "3.2.5",
  "updatedAt": "2021-06-17T03:28:03.576Z",
  "networkType": "ethereum",
  "devdoc": {
    "methods": {
      "addSeedAccount(address,uint256)": {
        "details": "Owner only function to add a seeder account with specified number of EGL's",
        "params": {
          "_seedAccount": "Wallet address of seeder",
          "_seedAmount": "Amount to seed"
        }
      },
      "claimSeederEgls(uint256,uint8)": {
        "details": "Function for seed accounts to claim their EGL's and enter initial vote with locked tokens",
        "params": {
          "_gasTarget": "desired gas target for initial vote when claiming tokens",
          "_lockupDuration": "duration to lock tokens for initial vote"
        }
      },
      "claimSupporterEgls(uint256,uint8)": {
        "details": "Allows EGL Genesis contributors to claim their \"bonus\" EGL's that get entered into initial vote",
        "params": {
          "_gasTarget": "desired gas target for initial vote when claiming tokens",
          "_lockupDuration": "duration to lock tokens for initial vote"
        }
      },
      "initialize(address,address,address,uint256,uint24,uint32,address[],uint256[],address)": {
        "details": "Initialized contract variables",
        "params": {
          "_creatorRewardsAccount": "Address that creator rewards get sent to",
          "_currentEpochStartDate": "Start date for the first epoch",
          "_epochLength": "The length of each epoch in seconds",
          "_genesis": "Address of the EGL Genesis contract",
          "_poolToken": "Address of the Balance Pool Token (BPT)",
          "_seedAccounts": "List of accounts to seed with EGL's",
          "_seedAmounts": "Amount of EGLS's to seeds accounts with",
          "_token": "Address of the EGL token     ",
          "_votingPauseSeconds": "Number of seconds to pause voting before votes are tallied"
        }
      },
      "owner()": {
        "details": "Returns the address of the current owner."
      },
      "paused()": {
        "details": "Returns true if the contract is paused, and false otherwise."
      },
      "reVote(uint256,uint256,uint8)": {
        "details": "Re-Vote to change parameters of an existing vote",
        "params": {
          "_eglAmount": "Amount of EGL's to vote with",
          "_gasTarget": "The desired gas limit",
          "_lockupDuration": "Duration to lock the EGL's"
        }
      },
      "renounceOwnership()": {
        "details": "Do not allow owner to renounce ownership, only transferOwnership"
      },
      "sweepPoolRewards()": {
        "details": "Send EGL reward to miner of the block. Reward caclulated based on how close the block gas limit is to the desired EGL. The closer it is, the higher the reward"
      },
      "tallyVotes()": {
        "details": "Tally Votes for the most recent epoch and calculate the new desired EGL amount"
      },
      "transferOwnership(address)": {
        "details": "Transfers ownership of the contract to a new account (`newOwner`). Can only be called by the current owner."
      },
      "vote(uint256,uint256,uint8)": {
        "details": "Vote for desired gas limit and upgrade",
        "params": {
          "_eglAmount": "Amount of EGL's to vote with",
          "_gasTarget": "The desired gas limit",
          "_lockupDuration": "Duration to lock the EGL's"
        }
      },
      "withdraw()": {
        "details": "Withdraw EGL's once they have matured"
      },
      "withdrawPoolTokens()": {
        "details": "Allows for the withdrawal of liquidity pool tokens once they have matured"
      }
    }
  },
  "userdoc": {
    "methods": {}
  }
}