{
  "contractName": "EglToken",
  "abi": [
    {
      "anonymous": false,
      "inputs": [
        {
          "indexed": true,
          "internalType": "address",
          "name": "owner",
          "type": "address"
        },
        {
          "indexed": true,
          "internalType": "address",
          "name": "spender",
          "type": "address"
        },
        {
          "indexed": false,
          "internalType": "uint256",
          "name": "value",
          "type": "uint256"
        }
      ],
      "name": "Approval",
      "type": "event"
    },
    {
      "anonymous": false,
      "inputs": [
        {
          "indexed": true,
          "internalType": "address",
          "name": "from",
          "type": "address"
        },
        {
          "indexed": true,
          "internalType": "address",
          "name": "to",
          "type": "address"
        },
        {
          "indexed": false,
          "internalType": "uint256",
          "name": "value",
          "type": "uint256"
        }
      ],
      "name": "Transfer",
      "type": "event"
    },
    {
      "inputs": [
        {
          "internalType": "address",
          "name": "owner",
          "type": "address"
        },
        {
          "internalType": "address",
          "name": "spender",
          "type": "address"
        }
      ],
      "name": "allowance",
      "outputs": [
        {
          "internalType": "uint256",
          "name": "",
          "type": "uint256"
        }
      ],
      "stateMutability": "view",
      "type": "function"
    },
    {
      "inputs": [
        {
          "internalType": "address",
          "name": "spender",
          "type": "address"
        },
        {
          "internalType": "uint256",
          "name": "amount",
          "type": "uint256"
        }
      ],
      "name": "approve",
      "outputs": [
        {
          "internalType": "bool",
          "name": "",
          "type": "bool"
        }
      ],
      "stateMutability": "nonpayable",
      "type": "function"
    },
    {
      "inputs": [
        {
          "internalType": "address",
          "name": "account",
          "type": "address"
        }
      ],
      "name": "balanceOf",
      "outputs": [
        {
          "internalType": "uint256",
          "name": "",
          "type": "uint256"
        }
      ],
      "stateMutability": "view",
      "type": "function"
    },
    {
      "inputs": [],
      "name": "cap",
      "outputs": [
        {
          "internalType": "uint256",
          "name": "",
          "type": "uint256"
        }
      ],
      "stateMutability": "view",
      "type": "function"
    },
    {
      "inputs": [],
      "name": "decimals",
      "outputs": [
        {
          "internalType": "uint8",
          "name": "",
          "type": "uint8"
        }
      ],
      "stateMutability": "view",
      "type": "function"
    },
    {
      "inputs": [
        {
          "internalType": "address",
          "name": "spender",
          "type": "address"
        },
        {
          "internalType": "uint256",
          "name": "subtractedValue",
          "type": "uint256"
        }
      ],
      "name": "decreaseAllowance",
      "outputs": [
        {
          "internalType": "bool",
          "name": "",
          "type": "bool"
        }
      ],
      "stateMutability": "nonpayable",
      "type": "function"
    },
    {
      "inputs": [
        {
          "internalType": "address",
          "name": "spender",
          "type": "address"
        },
        {
          "internalType": "uint256",
          "name": "addedValue",
          "type": "uint256"
        }
      ],
      "name": "increaseAllowance",
      "outputs": [
        {
          "internalType": "bool",
          "name": "",
          "type": "bool"
        }
      ],
      "stateMutability": "nonpayable",
      "type": "function"
    },
    {
      "inputs": [],
      "name": "name",
      "outputs": [
        {
          "internalType": "string",
          "name": "",
          "type": "string"
        }
      ],
      "stateMutability": "view",
      "type": "function"
    },
    {
      "inputs": [],
      "name": "symbol",
      "outputs": [
        {
          "internalType": "string",
          "name": "",
          "type": "string"
        }
      ],
      "stateMutability": "view",
      "type": "function"
    },
    {
      "inputs": [],
      "name": "totalSupply",
      "outputs": [
        {
          "internalType": "uint256",
          "name": "",
          "type": "uint256"
        }
      ],
      "stateMutability": "view",
      "type": "function"
    },
    {
      "inputs": [
        {
          "internalType": "address",
          "name": "recipient",
          "type": "address"
        },
        {
          "internalType": "uint256",
          "name": "amount",
          "type": "uint256"
        }
      ],
      "name": "transfer",
      "outputs": [
        {
          "internalType": "bool",
          "name": "",
          "type": "bool"
        }
      ],
      "stateMutability": "nonpayable",
      "type": "function"
    },
    {
      "inputs": [
        {
          "internalType": "address",
          "name": "sender",
          "type": "address"
        },
        {
          "internalType": "address",
          "name": "recipient",
          "type": "address"
        },
        {
          "internalType": "uint256",
          "name": "amount",
          "type": "uint256"
        }
      ],
      "name": "transferFrom",
      "outputs": [
        {
          "internalType": "bool",
          "name": "",
          "type": "bool"
        }
      ],
      "stateMutability": "nonpayable",
      "type": "function"
    },
    {
      "inputs": [
        {
          "internalType": "string",
          "name": "name",
          "type": "string"
        },
        {
          "internalType": "string",
          "name": "symbol",
          "type": "string"
        },
        {
          "internalType": "uint256",
          "name": "initialSupply",
          "type": "uint256"
        }
      ],
      "name": "initialize",
      "outputs": [],
      "stateMutability": "nonpayable",
      "type": "function"
    }
  ],
  "bytecode": "0x608060405234801561001057600080fd5b506111c3806100206000396000f3fe608060405234801561001057600080fd5b50600436106100df5760003560e01c8063395093511161008c578063a457c2d711610066578063a457c2d714610271578063a9059cbb1461029d578063b119490e146102c9578063dd62ed3e146103fa576100df565b8063395093511461021757806370a082311461024357806395d89b4114610269576100df565b806323b872dd116100bd57806323b872dd146101bb578063313ce567146101f1578063355274ea1461020f576100df565b806306fdde03146100e4578063095ea7b31461016157806318160ddd146101a1575b600080fd5b6100ec610428565b6040805160208082528351818301528351919283929083019185019080838360005b8381101561012657818101518382015260200161010e565b50505050905090810190601f1680156101535780820380516001836020036101000a031916815260200191505b509250505060405180910390f35b61018d6004803603604081101561017757600080fd5b506001600160a01b0381351690602001356104bf565b604080519115158252519081900360200190f35b6101a96104dc565b60408051918252519081900360200190f35b61018d600480360360608110156101d157600080fd5b506001600160a01b038135811691602081013590911690604001356104e2565b6101f961056f565b6040805160ff9092168252519081900360200190f35b6101a9610578565b61018d6004803603604081101561022d57600080fd5b506001600160a01b03813516906020013561057e565b6101a96004803603602081101561025957600080fd5b50356001600160a01b03166105d2565b6100ec6105ed565b61018d6004803603604081101561028757600080fd5b506001600160a01b03813516906020013561064e565b61018d600480360360408110156102b357600080fd5b506001600160a01b0381351690602001356106bc565b6103f8600480360360608110156102df57600080fd5b8101906020810181356401000000008111156102fa57600080fd5b82018360208201111561030c57600080fd5b8035906020019184600183028401116401000000008311171561032e57600080fd5b91908080601f016020809104026020016040519081016040528093929190818152602001838380828437600092019190915250929594936020810193503591505064010000000081111561038157600080fd5b82018360208201111561039357600080fd5b803590602001918460018302840111640100000000831117156103b557600080fd5b91908080601f01602080910402602001604051908101604052809392919081815260200183838082843760009201919091525092955050913592506106d0915050565b005b6101a96004803603604081101561041057600080fd5b506001600160a01b0381358116916020013516610792565b60368054604080516020601f60026000196101006001881615020190951694909404938401819004810282018101909252828152606093909290918301828280156104b45780601f10610489576101008083540402835291602001916104b4565b820191906000526020600020905b81548152906001019060200180831161049757829003601f168201915b505050505090505b90565b60006104d36104cc6107bd565b84846107c1565b50600192915050565b60355490565b60006104ef8484846108ad565b610565846104fb6107bd565b610560856040518060600160405280602881526020016110f8602891396001600160a01b038a166000908152603460205260408120906105396107bd565b6001600160a01b03168152602081019190915260400160002054919063ffffffff610a1616565b6107c1565b5060019392505050565b60385460ff1690565b60655490565b60006104d361058b6107bd565b84610560856034600061059c6107bd565b6001600160a01b03908116825260208083019390935260409182016000908120918c16815292529020549063ffffffff610aad16565b6001600160a01b031660009081526033602052604090205490565b60378054604080516020601f60026000196101006001881615020190951694909404938401819004810282018101909252828152606093909290918301828280156104b45780601f10610489576101008083540402835291602001916104b4565b60006104d361065b6107bd565b846105608560405180606001604052806025815260200161116960259139603460006106856107bd565b6001600160a01b03908116825260208083019390935260409182016000908120918d1681529252902054919063ffffffff610a1616565b60006104d36106c96107bd565b84846108ad565b600054610100900460ff16806106e957506106e9610b0e565b806106f7575060005460ff16155b6107325760405162461bcd60e51b815260040180806020018281038252602e8152602001806110ca602e913960400191505060405180910390fd5b600054610100900460ff1615801561075d576000805460ff1961ff0019909116610100171660011790555b6107678484610b14565b61077082610bca565b61077a3383610cc7565b801561078c576000805461ff00191690555b50505050565b6001600160a01b03918216600090815260346020908152604080832093909416825291909152205490565b3390565b6001600160a01b0383166108065760405162461bcd60e51b81526004018080602001828103825260248152602001806111456024913960400191505060405180910390fd5b6001600160a01b03821661084b5760405162461bcd60e51b81526004018080602001828103825260228152602001806110826022913960400191505060405180910390fd5b6001600160a01b03808416600081815260346020908152604080832094871680845294825291829020859055815185815291517f8c5be1e5ebec7d5bd14f71427d1e84f3dd0314c0f7b2291e5b200ac8c7c3b9259281900390910190a3505050565b6001600160a01b0383166108f25760405162461bcd60e51b81526004018080602001828103825260258152602001806111206025913960400191505060405180910390fd5b6001600160a01b0382166109375760405162461bcd60e51b815260040180806020018281038252602381526020018061105f6023913960400191505060405180910390fd5b610942838383610dc5565b610985816040518060600160405280602681526020016110a4602691396001600160a01b038616600090815260336020526040902054919063ffffffff610a1616565b6001600160a01b0380851660009081526033602052604080822093909355908416815220546109ba908263ffffffff610aad16565b6001600160a01b0380841660008181526033602090815260409182902094909455805185815290519193928716927fddf252ad1be2c89b69c2b068fc378daa952ba7f163c4a11628f55a4df523b3ef92918290030190a3505050565b60008184841115610aa55760405162461bcd60e51b81526004018080602001828103825283818151815260200191508051906020019080838360005b83811015610a6a578181015183820152602001610a52565b50505050905090810190601f168015610a975780820380516001836020036101000a031916815260200191505b509250505060405180910390fd5b505050900390565b600082820183811015610b07576040805162461bcd60e51b815260206004820152601b60248201527f536166654d6174683a206164646974696f6e206f766572666c6f770000000000604482015290519081900360640190fd5b9392505050565b303b1590565b600054610100900460ff1680610b2d5750610b2d610b0e565b80610b3b575060005460ff16155b610b765760405162461bcd60e51b815260040180806020018281038252602e8152602001806110ca602e913960400191505060405180910390fd5b600054610100900460ff16158015610ba1576000805460ff1961ff0019909116610100171660011790555b610ba9610e4c565b610bb38383610eee565b8015610bc5576000805461ff00191690555b505050565b600054610100900460ff1680610be35750610be3610b0e565b80610bf1575060005460ff16155b610c2c5760405162461bcd60e51b815260040180806020018281038252602e8152602001806110ca602e913960400191505060405180910390fd5b600054610100900460ff16158015610c57576000805460ff1961ff0019909116610100171660011790555b60008211610cac576040805162461bcd60e51b815260206004820152601560248201527f45524332304361707065643a2063617020697320300000000000000000000000604482015290519081900360640190fd5b60658290558015610cc3576000805461ff00191690555b5050565b6001600160a01b038216610d22576040805162461bcd60e51b815260206004820152601f60248201527f45524332303a206d696e7420746f20746865207a65726f206164647265737300604482015290519081900360640190fd5b610d2e60008383610dc5565b603554610d41908263ffffffff610aad16565b6035556001600160a01b038216600090815260336020526040902054610d6d908263ffffffff610aad16565b6001600160a01b03831660008181526033602090815260408083209490945583518581529351929391927fddf252ad1be2c89b69c2b068fc378daa952ba7f163c4a11628f55a4df523b3ef9281900390910190a35050565b610dd0838383610bc5565b6001600160a01b038316610bc557606554610df982610ded6104dc565b9063ffffffff610aad16565b1115610bc5576040805162461bcd60e51b815260206004820152601960248201527f45524332304361707065643a2063617020657863656564656400000000000000604482015290519081900360640190fd5b600054610100900460ff1680610e655750610e65610b0e565b80610e73575060005460ff16155b610eae5760405162461bcd60e51b815260040180806020018281038252602e8152602001806110ca602e913960400191505060405180910390fd5b600054610100900460ff16158015610ed9576000805460ff1961ff0019909116610100171660011790555b8015610eeb576000805461ff00191690555b50565b600054610100900460ff1680610f075750610f07610b0e565b80610f15575060005460ff16155b610f505760405162461bcd60e51b815260040180806020018281038252602e8152602001806110ca602e913960400191505060405180910390fd5b600054610100900460ff16158015610f7b576000805460ff1961ff0019909116610100171660011790555b8251610f8e906036906020860190610fc6565b508151610fa2906037906020850190610fc6565b506038805460ff191660121790558015610bc5576000805461ff0019169055505050565b828054600181600116156101000203166002900490600052602060002090601f016020900481019282601f1061100757805160ff1916838001178555611034565b82800160010185558215611034579182015b82811115611034578251825591602001919060010190611019565b50611040929150611044565b5090565b6104bc91905b80821115611040576000815560010161104a56fe45524332303a207472616e7366657220746f20746865207a65726f206164647265737345524332303a20617070726f766520746f20746865207a65726f206164647265737345524332303a207472616e7366657220616d6f756e7420657863656564732062616c616e6365496e697469616c697a61626c653a20636f6e747261637420697320616c726561647920696e697469616c697a656445524332303a207472616e7366657220616d6f756e74206578636565647320616c6c6f77616e636545524332303a207472616e736665722066726f6d20746865207a65726f206164647265737345524332303a20617070726f76652066726f6d20746865207a65726f206164647265737345524332303a2064656372656173656420616c6c6f77616e63652062656c6f77207a65726fa2646970667358221220e05a22572fa03e0504f26f9a830772b07fd39be03ebc065b61cb63250abe571d64736f6c63430006060033",
  "immutableReferences": {},
  "source": "pragma solidity 0.6.6;\n\nimport \"@openzeppelin/contracts-upgradeable/token/ERC20/ERC20CappedUpgradeable.sol\";\n\ncontract EglToken is Initializable, ContextUpgradeable, ERC20CappedUpgradeable {\n    function initialize(string memory name, string memory symbol, uint256 initialSupply) public initializer {\n        __ERC20_init(name, symbol);\n        __ERC20Capped_init_unchained(initialSupply);\n\n        _mint(msg.sender, initialSupply);\n    }\n}\n",
  "sourcePath": "/Users/svancoller/Development/bloXroute/egl/contracts/EglToken.sol",
  "compiler": {
    "name": "solc",
    "version": "0.6.6+commit.6c089d02.Emscripten.clang"
  },
  "schemaVersion": "3.2.5",
  "updatedAt": "2021-06-25T19:40:12.729Z",
  "devdoc": {
    "methods": {
      "allowance(address,address)": {
        "details": "See {IERC20-allowance}."
      },
      "approve(address,uint256)": {
        "details": "See {IERC20-approve}.     * Requirements:     * - `spender` cannot be the zero address."
      },
      "balanceOf(address)": {
        "details": "See {IERC20-balanceOf}."
      },
      "cap()": {
        "details": "Returns the cap on the token's total supply."
      },
      "decimals()": {
        "details": "Returns the number of decimals used to get its user representation. For example, if `decimals` equals `2`, a balance of `505` tokens should be displayed to a user as `5,05` (`505 / 10 ** 2`).     * Tokens usually opt for a value of 18, imitating the relationship between Ether and Wei. This is the value {ERC20} uses, unless {_setupDecimals} is called.     * NOTE: This information is only used for _display_ purposes: it in no way affects any of the arithmetic of the contract, including {IERC20-balanceOf} and {IERC20-transfer}."
      },
      "decreaseAllowance(address,uint256)": {
        "details": "Atomically decreases the allowance granted to `spender` by the caller.     * This is an alternative to {approve} that can be used as a mitigation for problems described in {IERC20-approve}.     * Emits an {Approval} event indicating the updated allowance.     * Requirements:     * - `spender` cannot be the zero address. - `spender` must have allowance for the caller of at least `subtractedValue`."
      },
      "increaseAllowance(address,uint256)": {
        "details": "Atomically increases the allowance granted to `spender` by the caller.     * This is an alternative to {approve} that can be used as a mitigation for problems described in {IERC20-approve}.     * Emits an {Approval} event indicating the updated allowance.     * Requirements:     * - `spender` cannot be the zero address."
      },
      "name()": {
        "details": "Returns the name of the token."
      },
      "symbol()": {
        "details": "Returns the symbol of the token, usually a shorter version of the name."
      },
      "totalSupply()": {
        "details": "See {IERC20-totalSupply}."
      },
      "transfer(address,uint256)": {
        "details": "See {IERC20-transfer}.     * Requirements:     * - `recipient` cannot be the zero address. - the caller must have a balance of at least `amount`."
      },
      "transferFrom(address,address,uint256)": {
        "details": "See {IERC20-transferFrom}.     * Emits an {Approval} event indicating the updated allowance. This is not required by the EIP. See the note at the beginning of {ERC20}.     * Requirements:     * - `sender` and `recipient` cannot be the zero address. - `sender` must have a balance of at least `amount`. - the caller must have allowance for ``sender``'s tokens of at least `amount`."
      }
    }
  },
  "userdoc": {
    "methods": {}
  }
}