{
  "contractName": "MockEglGenesis",
  "abi": [
    {
      "inputs": [
        {
          "internalType": "address",
          "name": "_owner",
          "type": "address"
        }
      ],
      "stateMutability": "nonpayable",
      "type": "constructor"
    },
    {
      "inputs": [],
      "name": "canContribute",
      "outputs": [
        {
          "internalType": "bool",
          "name": "",
          "type": "bool"
        }
      ],
      "stateMutability": "view",
      "type": "function"
    },
    {
      "inputs": [],
      "name": "canWithdraw",
      "outputs": [
        {
          "internalType": "bool",
          "name": "",
          "type": "bool"
        }
      ],
      "stateMutability": "view",
      "type": "function"
    },
    {
      "inputs": [
        {
          "internalType": "address",
          "name": "",
          "type": "address"
        }
      ],
      "name": "contributors",
      "outputs": [
        {
          "internalType": "uint256",
          "name": "amount",
          "type": "uint256"
        },
        {
          "internalType": "uint256",
          "name": "cumulativeBalance",
          "type": "uint256"
        },
        {
          "internalType": "uint256",
          "name": "idx",
          "type": "uint256"
        },
        {
          "internalType": "uint256",
          "name": "date",
          "type": "uint256"
        }
      ],
      "stateMutability": "view",
      "type": "function"
    },
    {
      "inputs": [
        {
          "internalType": "uint256",
          "name": "",
          "type": "uint256"
        }
      ],
      "name": "contributorsList",
      "outputs": [
        {
          "internalType": "address",
          "name": "",
          "type": "address"
        }
      ],
      "stateMutability": "view",
      "type": "function"
    },
    {
      "inputs": [],
      "name": "cumulativeBalance",
      "outputs": [
        {
          "internalType": "uint256",
          "name": "",
          "type": "uint256"
        }
      ],
      "stateMutability": "view",
      "type": "function"
    },
    {
      "inputs": [],
      "name": "owner",
      "outputs": [
        {
          "internalType": "address",
          "name": "",
          "type": "address"
        }
      ],
      "stateMutability": "view",
      "type": "function"
    },
    {
      "stateMutability": "payable",
      "type": "receive"
    },
    {
      "inputs": [
        {
          "internalType": "bool",
          "name": "_canContribute",
          "type": "bool"
        }
      ],
      "name": "setCanContribute",
      "outputs": [],
      "stateMutability": "nonpayable",
      "type": "function"
    },
    {
      "inputs": [
        {
          "internalType": "bool",
          "name": "_canWithdraw",
          "type": "bool"
        }
      ],
      "name": "setCanWithdraw",
      "outputs": [],
      "stateMutability": "nonpayable",
      "type": "function"
    }
  ],
  "bytecode": "0x608060405234801561001057600080fd5b506040516104073803806104078339818101604052602081101561003357600080fd5b5051600180546001600160a01b03909216620100000262010000600160b01b031990921691909117905561039b8061006c6000396000f3fe60806040526004361061007f5760003560e01c80634b472d451161004e5780634b472d451461021f5780638da5cb5b14610246578063b51459fe1461025b578063cc295fe6146102705761010a565b80630b9f2c4a1461010f5780631f6d494214610162578063326e5540146101c857806340b98253146101f65761010a565b3661010a576000805434908101825560028054600181810183557f405787fa12a823e0f2b7631cc41b3ba8828b3321ca811111fa75cd3aa3bb5ace90910180547fffffffffffffffffffffffff000000000000000000000000000000000000000016339081179091558452600360208190526040852093845593549083015580549082015542910155005b600080fd5b34801561011b57600080fd5b506101396004803603602081101561013257600080fd5b503561029c565b6040805173ffffffffffffffffffffffffffffffffffffffff9092168252519081900360200190f35b34801561016e57600080fd5b506101a26004803603602081101561018557600080fd5b503573ffffffffffffffffffffffffffffffffffffffff166102d0565b604080519485526020850193909352838301919091526060830152519081900360800190f35b3480156101d457600080fd5b506101f4600480360360208110156101eb57600080fd5b503515156102f9565b005b34801561020257600080fd5b5061020b610313565b604080519115158252519081900360200190f35b34801561022b57600080fd5b5061023461031c565b60408051918252519081900360200190f35b34801561025257600080fd5b50610139610322565b34801561026757600080fd5b5061020b610344565b34801561027c57600080fd5b506101f46004803603602081101561029357600080fd5b50351515610352565b600281815481106102a957fe5b60009182526020909120015473ffffffffffffffffffffffffffffffffffffffff16905081565b600360208190526000918252604090912080546001820154600283015492909301549092919084565b600180549115156101000261ff0019909216919091179055565b60015460ff1681565b60005481565b60015462010000900473ffffffffffffffffffffffffffffffffffffffff1681565b600154610100900460ff1681565b6001805460ff191691151591909117905556fea264697066735822122017f4d26ac208aa2631c729f5b1445006fc0cbf01e2b80531e66251610e226c7b64736f6c63430006060033",
  "immutableReferences": {},
  "source": "pragma solidity 0.6.6;\n\ncontract MockEglGenesis {\n    uint public cumulativeBalance;\n    bool public canContribute;\n    bool public canWithdraw;\n    address public owner;\n    address[] public contributorsList;    \n    mapping(address => Contributor) public contributors;\n\n    struct Contributor {\n        uint amount;\n        uint cumulativeBalance;\n        uint idx;\n        uint date;\n    }\n\n    constructor(address _owner) public {\n        owner = _owner;\n    }\n\n    receive() external payable {\n        cumulativeBalance = cumulativeBalance + msg.value;\n        contributorsList.push(msg.sender);\n\n        Contributor storage contributor = contributors[msg.sender];\n        contributor.amount = msg.value;\n        contributor.cumulativeBalance = cumulativeBalance;\n        contributor.idx = contributorsList.length;\n        contributor.date = now;\n    }\n\n    function setCanContribute(bool _canContribute) external {\n        canContribute = _canContribute;\n    }\n\n    function setCanWithdraw(bool _canWithdraw) external {\n        canWithdraw = _canWithdraw;\n    }\n}",
  "sourcePath": "/Users/svancoller/Development/bloXroute/egl/contracts/helpers/MockEglGenesis.sol",
  "compiler": {
    "name": "solc",
    "version": "0.6.6+commit.6c089d02.Emscripten.clang"
  },
  "schemaVersion": "3.2.5",
  "updatedAt": "2021-06-25T05:51:22.084Z",
  "devdoc": {
    "methods": {}
  },
  "userdoc": {
    "methods": {}
  }
}