{
  "contractName": "MockEglGenesis",
  "abi": [
    {
      "inputs": [
        {
          "internalType": "address",
          "name": "_owner",
          "type": "address"
        }
      ],
      "stateMutability": "nonpayable",
      "type": "constructor"
    },
    {
      "inputs": [],
      "name": "canContribute",
      "outputs": [
        {
          "internalType": "bool",
          "name": "",
          "type": "bool"
        }
      ],
      "stateMutability": "view",
      "type": "function",
      "constant": true
    },
    {
      "inputs": [],
      "name": "canWithdraw",
      "outputs": [
        {
          "internalType": "bool",
          "name": "",
          "type": "bool"
        }
      ],
      "stateMutability": "view",
      "type": "function",
      "constant": true
    },
    {
      "inputs": [
        {
          "internalType": "address",
          "name": "",
          "type": "address"
        }
      ],
      "name": "contributors",
      "outputs": [
        {
          "internalType": "uint256",
          "name": "amount",
          "type": "uint256"
        },
        {
          "internalType": "uint256",
          "name": "cumulativeBalance",
          "type": "uint256"
        },
        {
          "internalType": "uint256",
          "name": "idx",
          "type": "uint256"
        },
        {
          "internalType": "uint256",
          "name": "date",
          "type": "uint256"
        }
      ],
      "stateMutability": "view",
      "type": "function",
      "constant": true
    },
    {
      "inputs": [
        {
          "internalType": "uint256",
          "name": "",
          "type": "uint256"
        }
      ],
      "name": "contributorsList",
      "outputs": [
        {
          "internalType": "address",
          "name": "",
          "type": "address"
        }
      ],
      "stateMutability": "view",
      "type": "function",
      "constant": true
    },
    {
      "inputs": [],
      "name": "cumulativeBalance",
      "outputs": [
        {
          "internalType": "uint256",
          "name": "",
          "type": "uint256"
        }
      ],
      "stateMutability": "view",
      "type": "function",
      "constant": true
    },
    {
      "inputs": [],
      "name": "owner",
      "outputs": [
        {
          "internalType": "address",
          "name": "",
          "type": "address"
        }
      ],
      "stateMutability": "view",
      "type": "function",
      "constant": true
    },
    {
      "stateMutability": "payable",
      "type": "receive",
      "payable": true
    }
  ],
  "bytecode": "0x608060405234801561001057600080fd5b5060405161036a38038061036a8339818101604052602081101561003357600080fd5b5051600180546001600160a01b03909216620100000262010000600160b01b03199092169190911790556102fe8061006c6000396000f3fe6080604052600436106100695760003560e01c80634b472d45116100435780634b472d45146101db5780638da5cb5b14610202578063b51459fe14610217576100f4565b80630b9f2c4a146100f95780631f6d49421461014c57806340b98253146101b2576100f4565b366100f4576000805434908101825560028054600181810183557f405787fa12a823e0f2b7631cc41b3ba8828b3321ca811111fa75cd3aa3bb5ace90910180547fffffffffffffffffffffffff000000000000000000000000000000000000000016339081179091558452600360208190526040852093845593549083015580549082015542910155005b600080fd5b34801561010557600080fd5b506101236004803603602081101561011c57600080fd5b503561022c565b6040805173ffffffffffffffffffffffffffffffffffffffff9092168252519081900360200190f35b34801561015857600080fd5b5061018c6004803603602081101561016f57600080fd5b503573ffffffffffffffffffffffffffffffffffffffff16610260565b604080519485526020850193909352838301919091526060830152519081900360800190f35b3480156101be57600080fd5b506101c7610289565b604080519115158252519081900360200190f35b3480156101e757600080fd5b506101f0610292565b60408051918252519081900360200190f35b34801561020e57600080fd5b50610123610298565b34801561022357600080fd5b506101c76102ba565b6002818154811061023957fe5b60009182526020909120015473ffffffffffffffffffffffffffffffffffffffff16905081565b600360208190526000918252604090912080546001820154600283015492909301549092919084565b60015460ff1681565b60005481565b60015462010000900473ffffffffffffffffffffffffffffffffffffffff1681565b600154610100900460ff168156fea2646970667358221220122ac158c37d12ee6182743ee7c8da0f4ed705603e8bf948b3cfb496b4de9cb564736f6c63430006060033",
  "immutableReferences": {},
  "source": "pragma solidity 0.6.6;\n\ncontract MockEglGenesis {\n    uint public cumulativeBalance;\n    bool public canContribute;\n    bool public canWithdraw;\n    address public owner;\n    address[] public contributorsList;    \n    mapping(address => Contributor) public contributors;\n\n    struct Contributor {\n        uint amount;\n        uint cumulativeBalance;\n        uint idx;\n        uint date;\n    }\n\n    constructor(address _owner) public {\n        owner = _owner;\n    }\n\n    receive() external payable {\n        cumulativeBalance = cumulativeBalance + msg.value;\n        contributorsList.push(msg.sender);\n\n        Contributor storage contributor = contributors[msg.sender];\n        contributor.amount = msg.value;\n        contributor.cumulativeBalance = cumulativeBalance;\n        contributor.idx = contributorsList.length;\n        contributor.date = now;\n    }\n}",
  "sourcePath": "/Users/svancoller/Development/bloXroute/egl/contracts/helpers/MockEglGenesis.sol",
  "compiler": {
    "name": "solc",
    "version": "0.6.6+commit.6c089d02.Emscripten.clang"
  },
  "schemaVersion": "3.2.5",
  "updatedAt": "2021-06-17T03:28:03.600Z",
  "networkType": "ethereum",
  "devdoc": {
    "methods": {}
  },
  "userdoc": {
    "methods": {}
  }
}