{
  "contractName": "TestableEglContract",
  "abi": [
    {
      "anonymous": false,
      "inputs": [
        {
          "indexed": false,
          "internalType": "uint256",
          "name": "blockNumber",
          "type": "uint256"
        },
        {
          "indexed": false,
          "internalType": "uint16",
          "name": "currentEpoch",
          "type": "uint16"
        },
        {
          "indexed": false,
          "internalType": "uint256",
          "name": "remainingPoolReward",
          "type": "uint256"
        },
        {
          "indexed": false,
          "internalType": "int256",
          "name": "blockGasLimit",
          "type": "int256"
        },
        {
          "indexed": false,
          "internalType": "int256",
          "name": "desiredEgl",
          "type": "int256"
        },
        {
          "indexed": false,
          "internalType": "int256",
          "name": "tallyVotesGasLimit",
          "type": "int256"
        },
        {
          "indexed": false,
          "internalType": "uint256",
          "name": "proximityRewardPercent",
          "type": "uint256"
        },
        {
          "indexed": false,
          "internalType": "uint256",
          "name": "totalRewardPercent",
          "type": "uint256"
        },
        {
          "indexed": false,
          "internalType": "uint256",
          "name": "blockReward",
          "type": "uint256"
        },
        {
          "indexed": false,
          "internalType": "uint256",
          "name": "date",
          "type": "uint256"
        }
      ],
      "name": "BlockRewardCalculated",
      "type": "event"
    },
    {
      "anonymous": false,
      "inputs": [
        {
          "indexed": false,
          "internalType": "uint256",
          "name": "bonusEglsDue",
          "type": "uint256"
        }
      ],
      "name": "BonusEglsDueCalculated",
      "type": "event"
    },
    {
      "anonymous": false,
      "inputs": [
        {
          "indexed": false,
          "internalType": "address",
          "name": "caller",
          "type": "address"
        },
        {
          "indexed": false,
          "internalType": "address",
          "name": "creatorRewardAddress",
          "type": "address"
        },
        {
          "indexed": false,
          "internalType": "uint256",
          "name": "amountClaimed",
          "type": "uint256"
        },
        {
          "indexed": false,
          "internalType": "uint256",
          "name": "lastSerializedEgl",
          "type": "uint256"
        },
        {
          "indexed": false,
          "internalType": "uint256",
          "name": "remainingCreatorReward",
          "type": "uint256"
        },
        {
          "indexed": false,
          "internalType": "uint16",
          "name": "currentEpoch",
          "type": "uint16"
        },
        {
          "indexed": false,
          "internalType": "uint256",
          "name": "date",
          "type": "uint256"
        }
      ],
      "name": "CreatorRewardsClaimed",
      "type": "event"
    },
    {
      "anonymous": false,
      "inputs": [
        {
          "indexed": false,
          "internalType": "address",
          "name": "deployer",
          "type": "address"
        },
        {
          "indexed": false,
          "internalType": "address",
          "name": "eglContract",
          "type": "address"
        },
        {
          "indexed": false,
          "internalType": "address",
          "name": "eglToken",
          "type": "address"
        },
        {
          "indexed": false,
          "internalType": "address",
          "name": "genesisContract",
          "type": "address"
        },
        {
          "indexed": false,
          "internalType": "address",
          "name": "balancerToken",
          "type": "address"
        },
        {
          "indexed": false,
          "internalType": "uint256",
          "name": "totalGenesisEth",
          "type": "uint256"
        },
        {
          "indexed": false,
          "internalType": "uint256",
          "name": "ethEglRatio",
          "type": "uint256"
        },
        {
          "indexed": false,
          "internalType": "uint256",
          "name": "ethBptRatio",
          "type": "uint256"
        },
        {
          "indexed": false,
          "internalType": "uint256",
          "name": "minLiquidityTokensLockup",
          "type": "uint256"
        },
        {
          "indexed": false,
          "internalType": "uint256",
          "name": "firstEpochStartDate",
          "type": "uint256"
        },
        {
          "indexed": false,
          "internalType": "uint256",
          "name": "votingPauseSeconds",
          "type": "uint256"
        },
        {
          "indexed": false,
          "internalType": "uint256",
          "name": "epochLength",
          "type": "uint256"
        },
        {
          "indexed": false,
          "internalType": "uint256",
          "name": "date",
          "type": "uint256"
        }
      ],
      "name": "Initialized",
      "type": "event"
    },
    {
      "anonymous": false,
      "inputs": [
        {
          "indexed": true,
          "internalType": "address",
          "name": "previousOwner",
          "type": "address"
        },
        {
          "indexed": true,
          "internalType": "address",
          "name": "newOwner",
          "type": "address"
        }
      ],
      "name": "OwnershipTransferred",
      "type": "event"
    },
    {
      "anonymous": false,
      "inputs": [
        {
          "indexed": false,
          "internalType": "address",
          "name": "account",
          "type": "address"
        }
      ],
      "name": "Paused",
      "type": "event"
    },
    {
      "anonymous": false,
      "inputs": [
        {
          "indexed": false,
          "internalType": "uint256",
          "name": "percentage",
          "type": "uint256"
        }
      ],
      "name": "PercentageCalculated",
      "type": "event"
    },
    {
      "anonymous": false,
      "inputs": [
        {
          "indexed": false,
          "internalType": "address",
          "name": "caller",
          "type": "address"
        },
        {
          "indexed": false,
          "internalType": "address",
          "name": "coinbaseAddress",
          "type": "address"
        },
        {
          "indexed": false,
          "internalType": "uint256",
          "name": "blockNumber",
          "type": "uint256"
        },
        {
          "indexed": false,
          "internalType": "int256",
          "name": "blockGasLimit",
          "type": "int256"
        },
        {
          "indexed": false,
          "internalType": "uint256",
          "name": "blockReward",
          "type": "uint256"
        },
        {
          "indexed": false,
          "internalType": "uint256",
          "name": "date",
          "type": "uint256"
        }
      ],
      "name": "PoolRewardsSwept",
      "type": "event"
    },
    {
      "anonymous": false,
      "inputs": [
        {
          "indexed": false,
          "internalType": "uint256",
          "name": "poolTokensDue",
          "type": "uint256"
        }
      ],
      "name": "PoolTokensDueCalculated",
      "type": "event"
    },
    {
      "anonymous": false,
      "inputs": [
        {
          "indexed": false,
          "internalType": "address",
          "name": "caller",
          "type": "address"
        },
        {
          "indexed": false,
          "internalType": "uint256",
          "name": "currentSerializedEgl",
          "type": "uint256"
        },
        {
          "indexed": false,
          "internalType": "uint256",
          "name": "poolTokensDue",
          "type": "uint256"
        },
        {
          "indexed": false,
          "internalType": "uint256",
          "name": "poolTokens",
          "type": "uint256"
        },
        {
          "indexed": false,
          "internalType": "uint256",
          "name": "firstEgl",
          "type": "uint256"
        },
        {
          "indexed": false,
          "internalType": "uint256",
          "name": "lastEgl",
          "type": "uint256"
        },
        {
          "indexed": false,
          "internalType": "uint256",
          "name": "eglReleaseDate",
          "type": "uint256"
        },
        {
          "indexed": false,
          "internalType": "uint256",
          "name": "date",
          "type": "uint256"
        }
      ],
      "name": "PoolTokensWithdrawn",
      "type": "event"
    },
    {
      "anonymous": false,
      "inputs": [
        {
          "indexed": false,
          "internalType": "address",
          "name": "caller",
          "type": "address"
        },
        {
          "indexed": false,
          "internalType": "uint256",
          "name": "gasTarget",
          "type": "uint256"
        },
        {
          "indexed": false,
          "internalType": "uint256",
          "name": "eglAmount",
          "type": "uint256"
        },
        {
          "indexed": false,
          "internalType": "uint256",
          "name": "date",
          "type": "uint256"
        }
      ],
      "name": "ReVote",
      "type": "event"
    },
    {
      "anonymous": false,
      "inputs": [
        {
          "indexed": false,
          "internalType": "address",
          "name": "seedAccount",
          "type": "address"
        },
        {
          "indexed": false,
          "internalType": "uint256",
          "name": "seedAmount",
          "type": "uint256"
        },
        {
          "indexed": false,
          "internalType": "uint256",
          "name": "remainingSeederBalance",
          "type": "uint256"
        },
        {
          "indexed": false,
          "internalType": "uint256",
          "name": "date",
          "type": "uint256"
        }
      ],
      "name": "SeedAccountAdded",
      "type": "event"
    },
    {
      "anonymous": false,
      "inputs": [
        {
          "indexed": false,
          "internalType": "address",
          "name": "seedAddress",
          "type": "address"
        },
        {
          "indexed": false,
          "internalType": "uint256",
          "name": "individualSeedAmount",
          "type": "uint256"
        },
        {
          "indexed": false,
          "internalType": "uint256",
          "name": "releaseDate",
          "type": "uint256"
        },
        {
          "indexed": false,
          "internalType": "uint256",
          "name": "date",
          "type": "uint256"
        }
      ],
      "name": "SeedAccountClaimed",
      "type": "event"
    },
    {
      "anonymous": false,
      "inputs": [
        {
          "indexed": false,
          "internalType": "uint256",
          "name": "serializedEgl",
          "type": "uint256"
        }
      ],
      "name": "SerializedEglCalculated",
      "type": "event"
    },
    {
      "anonymous": false,
      "inputs": [
        {
          "indexed": false,
          "internalType": "uint256",
          "name": "currentEpoch",
          "type": "uint256"
        },
        {
          "indexed": false,
          "internalType": "uint256",
          "name": "secondsSinceEglStart",
          "type": "uint256"
        },
        {
          "indexed": false,
          "internalType": "uint256",
          "name": "timePassedPercentage",
          "type": "uint256"
        },
        {
          "indexed": false,
          "internalType": "uint256",
          "name": "serializedEgl",
          "type": "uint256"
        },
        {
          "indexed": false,
          "internalType": "uint256",
          "name": "maxSupply",
          "type": "uint256"
        },
        {
          "indexed": false,
          "internalType": "uint256",
          "name": "date",
          "type": "uint256"
        }
      ],
      "name": "SerializedEglCalculated",
      "type": "event"
    },
    {
      "anonymous": false,
      "inputs": [
        {
          "indexed": false,
          "internalType": "address",
          "name": "caller",
          "type": "address"
        },
        {
          "indexed": false,
          "internalType": "uint256",
          "name": "amountContributed",
          "type": "uint256"
        },
        {
          "indexed": false,
          "internalType": "uint256",
          "name": "gasTarget",
          "type": "uint256"
        },
        {
          "indexed": false,
          "internalType": "uint256",
          "name": "lockDuration",
          "type": "uint256"
        },
        {
          "indexed": false,
          "internalType": "uint256",
          "name": "ethEglRatio",
          "type": "uint256"
        },
        {
          "indexed": false,
          "internalType": "uint256",
          "name": "ethBptRatio",
          "type": "uint256"
        },
        {
          "indexed": false,
          "internalType": "uint256",
          "name": "bonusEglsReceived",
          "type": "uint256"
        },
        {
          "indexed": false,
          "internalType": "uint256",
          "name": "poolTokensReceived",
          "type": "uint256"
        },
        {
          "indexed": false,
          "internalType": "uint256",
          "name": "remainingSupporterBalance",
          "type": "uint256"
        },
        {
          "indexed": false,
          "internalType": "uint256",
          "name": "remainingBptBalance",
          "type": "uint256"
        },
        {
          "indexed": false,
          "internalType": "uint256",
          "name": "date",
          "type": "uint256"
        }
      ],
      "name": "SupporterTokensClaimed",
      "type": "event"
    },
    {
      "anonymous": false,
      "inputs": [
        {
          "indexed": false,
          "internalType": "address",
          "name": "account",
          "type": "address"
        }
      ],
      "name": "Unpaused",
      "type": "event"
    },
    {
      "anonymous": false,
      "inputs": [
        {
          "indexed": false,
          "internalType": "address",
          "name": "caller",
          "type": "address"
        },
        {
          "indexed": false,
          "internalType": "uint16",
          "name": "currentEpoch",
          "type": "uint16"
        },
        {
          "indexed": false,
          "internalType": "uint256",
          "name": "gasTarget",
          "type": "uint256"
        },
        {
          "indexed": false,
          "internalType": "uint256",
          "name": "eglAmount",
          "type": "uint256"
        },
        {
          "indexed": false,
          "internalType": "uint8",
          "name": "lockupDuration",
          "type": "uint8"
        },
        {
          "indexed": false,
          "internalType": "uint256",
          "name": "releaseDate",
          "type": "uint256"
        },
        {
          "indexed": false,
          "internalType": "uint256",
          "name": "epochVoteWeightSum",
          "type": "uint256"
        },
        {
          "indexed": false,
          "internalType": "uint256",
          "name": "epochGasTargetSum",
          "type": "uint256"
        },
        {
          "indexed": false,
          "internalType": "uint256",
          "name": "epochVoterRewardSum",
          "type": "uint256"
        },
        {
          "indexed": false,
          "internalType": "uint256",
          "name": "epochTotalVotes",
          "type": "uint256"
        },
        {
          "indexed": false,
          "internalType": "uint256",
          "name": "date",
          "type": "uint256"
        }
      ],
      "name": "Vote",
      "type": "event"
    },
    {
      "anonymous": false,
      "inputs": [
        {
          "indexed": false,
          "internalType": "address",
          "name": "caller",
          "type": "address"
        },
        {
          "indexed": false,
          "internalType": "uint16",
          "name": "currentEpoch",
          "type": "uint16"
        },
        {
          "indexed": false,
          "internalType": "int256",
          "name": "desiredEgl",
          "type": "int256"
        },
        {
          "indexed": false,
          "internalType": "uint256",
          "name": "voteThreshold",
          "type": "uint256"
        },
        {
          "indexed": false,
          "internalType": "uint256",
          "name": "actualVotePercentage",
          "type": "uint256"
        },
        {
          "indexed": false,
          "internalType": "int256",
          "name": "baselineEgl",
          "type": "int256"
        },
        {
          "indexed": false,
          "internalType": "int256",
          "name": "initialEgl",
          "type": "int256"
        },
        {
          "indexed": false,
          "internalType": "uint256",
          "name": "timeSinceFirstEpoch",
          "type": "uint256"
        },
        {
          "indexed": false,
          "internalType": "uint256",
          "name": "gracePeriodSeconds",
          "type": "uint256"
        },
        {
          "indexed": false,
          "internalType": "uint256",
          "name": "date",
          "type": "uint256"
        }
      ],
      "name": "VoteThresholdFailed",
      "type": "event"
    },
    {
      "anonymous": false,
      "inputs": [
        {
          "indexed": false,
          "internalType": "address",
          "name": "caller",
          "type": "address"
        },
        {
          "indexed": false,
          "internalType": "uint16",
          "name": "currentEpoch",
          "type": "uint16"
        },
        {
          "indexed": false,
          "internalType": "int256",
          "name": "desiredEgl",
          "type": "int256"
        },
        {
          "indexed": false,
          "internalType": "uint256",
          "name": "voteThreshold",
          "type": "uint256"
        },
        {
          "indexed": false,
          "internalType": "uint256",
          "name": "actualVotePercentage",
          "type": "uint256"
        },
        {
          "indexed": false,
          "internalType": "int256",
          "name": "gasLimitSum",
          "type": "int256"
        },
        {
          "indexed": false,
          "internalType": "int256",
          "name": "voteCount",
          "type": "int256"
        },
        {
          "indexed": false,
          "internalType": "int256",
          "name": "baselineEgl",
          "type": "int256"
        },
        {
          "indexed": false,
          "internalType": "uint256",
          "name": "date",
          "type": "uint256"
        }
      ],
      "name": "VoteThresholdMet",
      "type": "event"
    },
    {
      "anonymous": false,
      "inputs": [
        {
          "indexed": false,
          "internalType": "address",
          "name": "voter",
          "type": "address"
        },
        {
          "indexed": false,
          "internalType": "uint16",
          "name": "currentEpoch",
          "type": "uint16"
        },
        {
          "indexed": false,
          "internalType": "uint256",
          "name": "voterReward",
          "type": "uint256"
        },
        {
          "indexed": false,
          "internalType": "uint256",
          "name": "epochVoterReward",
          "type": "uint256"
        },
        {
          "indexed": false,
          "internalType": "uint256",
          "name": "voteWeight",
          "type": "uint256"
        },
        {
          "indexed": false,
          "internalType": "uint256",
          "name": "rewardMultiplier",
          "type": "uint256"
        },
        {
          "indexed": false,
          "internalType": "uint256",
          "name": "weeksDiv",
          "type": "uint256"
        },
        {
          "indexed": false,
          "internalType": "uint256",
          "name": "epochVoterRewardSum",
          "type": "uint256"
        },
        {
          "indexed": false,
          "internalType": "uint256",
          "name": "remainingVoterRewards",
          "type": "uint256"
        },
        {
          "indexed": false,
          "internalType": "uint256",
          "name": "date",
          "type": "uint256"
        }
      ],
      "name": "VoterRewardCalculated",
      "type": "event"
    },
    {
      "anonymous": false,
      "inputs": [
        {
          "indexed": false,
          "internalType": "address",
          "name": "caller",
          "type": "address"
        },
        {
          "indexed": false,
          "internalType": "uint16",
          "name": "currentEpoch",
          "type": "uint16"
        },
        {
          "indexed": false,
          "internalType": "int256",
          "name": "desiredEgl",
          "type": "int256"
        },
        {
          "indexed": false,
          "internalType": "int256",
          "name": "averageGasTarget",
          "type": "int256"
        },
        {
          "indexed": false,
          "internalType": "uint256",
          "name": "votingThreshold",
          "type": "uint256"
        },
        {
          "indexed": false,
          "internalType": "uint256",
          "name": "actualVotePercentage",
          "type": "uint256"
        },
        {
          "indexed": false,
          "internalType": "int256",
          "name": "baselineEgl",
          "type": "int256"
        },
        {
          "indexed": false,
          "internalType": "uint256",
          "name": "tokensInCirculation",
          "type": "uint256"
        },
        {
          "indexed": false,
          "internalType": "uint256",
          "name": "date",
          "type": "uint256"
        }
      ],
      "name": "VotesTallied",
      "type": "event"
    },
    {
      "anonymous": false,
      "inputs": [
        {
          "indexed": false,
          "internalType": "address",
          "name": "caller",
          "type": "address"
        },
        {
          "indexed": false,
          "internalType": "uint16",
          "name": "currentEpoch",
          "type": "uint16"
        },
        {
          "indexed": false,
          "internalType": "uint256",
          "name": "tokensLocked",
          "type": "uint256"
        },
        {
          "indexed": false,
          "internalType": "uint256",
          "name": "rewardTokens",
          "type": "uint256"
        },
        {
          "indexed": false,
          "internalType": "uint256",
          "name": "gasTarget",
          "type": "uint256"
        },
        {
          "indexed": false,
          "internalType": "uint256",
          "name": "epochVoterRewardSum",
          "type": "uint256"
        },
        {
          "indexed": false,
          "internalType": "uint256",
          "name": "epochTotalVotes",
          "type": "uint256"
        },
        {
          "indexed": false,
          "internalType": "uint256",
          "name": "epochVoteWeightSum",
          "type": "uint256"
        },
        {
          "indexed": false,
          "internalType": "uint256",
          "name": "epochGasTargetSum",
          "type": "uint256"
        },
        {
          "indexed": false,
          "internalType": "uint256",
          "name": "date",
          "type": "uint256"
        }
      ],
      "name": "Withdraw",
      "type": "event"
    },
    {
      "inputs": [
        {
          "internalType": "address",
          "name": "_seedAccount",
          "type": "address"
        },
        {
          "internalType": "uint256",
          "name": "_seedAmount",
          "type": "uint256"
        }
      ],
      "name": "addSeedAccount",
      "outputs": [],
      "stateMutability": "nonpayable",
      "type": "function"
    },
    {
      "inputs": [],
      "name": "baselineEgl",
      "outputs": [
        {
          "internalType": "int256",
          "name": "",
          "type": "int256"
        }
      ],
      "stateMutability": "view",
      "type": "function"
    },
    {
      "inputs": [
        {
          "internalType": "uint256",
          "name": "_gasTarget",
          "type": "uint256"
        },
        {
          "internalType": "uint8",
          "name": "_lockupDuration",
          "type": "uint8"
        }
      ],
      "name": "claimSeederEgls",
      "outputs": [],
      "stateMutability": "nonpayable",
      "type": "function"
    },
    {
      "inputs": [
        {
          "internalType": "uint256",
          "name": "_gasTarget",
          "type": "uint256"
        },
        {
          "internalType": "uint8",
          "name": "_lockupDuration",
          "type": "uint8"
        }
      ],
      "name": "claimSupporterEgls",
      "outputs": [],
      "stateMutability": "nonpayable",
      "type": "function"
    },
    {
      "inputs": [],
      "name": "creatorEglsTotal",
      "outputs": [
        {
          "internalType": "uint256",
          "name": "",
          "type": "uint256"
        }
      ],
      "stateMutability": "view",
      "type": "function"
    },
    {
      "inputs": [],
      "name": "currentEpoch",
      "outputs": [
        {
          "internalType": "uint16",
          "name": "",
          "type": "uint16"
        }
      ],
      "stateMutability": "view",
      "type": "function"
    },
    {
      "inputs": [],
      "name": "currentEpochStartDate",
      "outputs": [
        {
          "internalType": "uint256",
          "name": "",
          "type": "uint256"
        }
      ],
      "stateMutability": "view",
      "type": "function"
    },
    {
      "inputs": [],
      "name": "desiredEgl",
      "outputs": [
        {
          "internalType": "int256",
          "name": "",
          "type": "int256"
        }
      ],
      "stateMutability": "view",
      "type": "function"
    },
    {
      "inputs": [
        {
          "internalType": "uint256",
          "name": "",
          "type": "uint256"
        }
      ],
      "name": "gasTargetSum",
      "outputs": [
        {
          "internalType": "uint256",
          "name": "",
          "type": "uint256"
        }
      ],
      "stateMutability": "view",
      "type": "function"
    },
    {
      "inputs": [],
      "name": "initialEgl",
      "outputs": [
        {
          "internalType": "int256",
          "name": "",
          "type": "int256"
        }
      ],
      "stateMutability": "view",
      "type": "function"
    },
    {
      "inputs": [
        {
          "internalType": "address",
          "name": "_token",
          "type": "address"
        },
        {
          "internalType": "address",
          "name": "_poolToken",
          "type": "address"
        },
        {
          "internalType": "address",
          "name": "_genesis",
          "type": "address"
        },
        {
          "internalType": "uint256",
          "name": "_currentEpochStartDate",
          "type": "uint256"
        },
        {
          "internalType": "uint24",
          "name": "_votingPauseSeconds",
          "type": "uint24"
        },
        {
          "internalType": "uint32",
          "name": "_epochLength",
          "type": "uint32"
        },
        {
          "internalType": "address[]",
          "name": "_seedAccounts",
          "type": "address[]"
        },
        {
          "internalType": "uint256[]",
          "name": "_seedAmounts",
          "type": "uint256[]"
        },
        {
          "internalType": "address",
          "name": "_creatorRewardsAccount",
          "type": "address"
        }
      ],
      "name": "initialize",
      "outputs": [],
      "stateMutability": "nonpayable",
      "type": "function"
    },
    {
      "inputs": [],
      "name": "liquidityEglMatchingTotal",
      "outputs": [
        {
          "internalType": "uint256",
          "name": "",
          "type": "uint256"
        }
      ],
      "stateMutability": "view",
      "type": "function"
    },
    {
      "inputs": [],
      "name": "owner",
      "outputs": [
        {
          "internalType": "address",
          "name": "",
          "type": "address"
        }
      ],
      "stateMutability": "view",
      "type": "function"
    },
    {
      "inputs": [],
      "name": "pauseEgl",
      "outputs": [],
      "stateMutability": "nonpayable",
      "type": "function"
    },
    {
      "inputs": [],
      "name": "paused",
      "outputs": [
        {
          "internalType": "bool",
          "name": "",
          "type": "bool"
        }
      ],
      "stateMutability": "view",
      "type": "function"
    },
    {
      "inputs": [
        {
          "internalType": "uint256",
          "name": "_gasTarget",
          "type": "uint256"
        },
        {
          "internalType": "uint256",
          "name": "_eglAmount",
          "type": "uint256"
        },
        {
          "internalType": "uint8",
          "name": "_lockupDuration",
          "type": "uint8"
        }
      ],
      "name": "reVote",
      "outputs": [],
      "stateMutability": "nonpayable",
      "type": "function"
    },
    {
      "inputs": [],
      "name": "renounceOwnership",
      "outputs": [],
      "stateMutability": "nonpayable",
      "type": "function"
    },
    {
      "inputs": [
        {
          "internalType": "address",
          "name": "",
          "type": "address"
        }
      ],
      "name": "seeders",
      "outputs": [
        {
          "internalType": "uint256",
          "name": "",
          "type": "uint256"
        }
      ],
      "stateMutability": "view",
      "type": "function"
    },
    {
      "inputs": [
        {
          "internalType": "address",
          "name": "",
          "type": "address"
        }
      ],
      "name": "supporters",
      "outputs": [
        {
          "internalType": "uint32",
          "name": "matches",
          "type": "uint32"
        },
        {
          "internalType": "uint256",
          "name": "poolTokens",
          "type": "uint256"
        },
        {
          "internalType": "uint256",
          "name": "firstEgl",
          "type": "uint256"
        },
        {
          "internalType": "uint256",
          "name": "lastEgl",
          "type": "uint256"
        }
      ],
      "stateMutability": "view",
      "type": "function"
    },
    {
      "inputs": [],
      "name": "sweepPoolRewards",
      "outputs": [],
      "stateMutability": "nonpayable",
      "type": "function"
    },
    {
      "inputs": [],
      "name": "tallyVotes",
      "outputs": [],
      "stateMutability": "nonpayable",
      "type": "function"
    },
    {
      "inputs": [],
      "name": "tallyVotesGasLimit",
      "outputs": [
        {
          "internalType": "int256",
          "name": "",
          "type": "int256"
        }
      ],
      "stateMutability": "view",
      "type": "function"
    },
    {
      "inputs": [],
      "name": "tokensInCirculation",
      "outputs": [
        {
          "internalType": "uint256",
          "name": "",
          "type": "uint256"
        }
      ],
      "stateMutability": "view",
      "type": "function"
    },
    {
      "inputs": [
        {
          "internalType": "address",
          "name": "newOwner",
          "type": "address"
        }
      ],
      "name": "transferOwnership",
      "outputs": [],
      "stateMutability": "nonpayable",
      "type": "function"
    },
    {
      "inputs": [],
      "name": "unpauseEgl",
      "outputs": [],
      "stateMutability": "nonpayable",
      "type": "function"
    },
    {
      "inputs": [
        {
          "internalType": "uint256",
          "name": "_gasTarget",
          "type": "uint256"
        },
        {
          "internalType": "uint256",
          "name": "_eglAmount",
          "type": "uint256"
        },
        {
          "internalType": "uint8",
          "name": "_lockupDuration",
          "type": "uint8"
        }
      ],
      "name": "vote",
      "outputs": [],
      "stateMutability": "nonpayable",
      "type": "function"
    },
    {
      "inputs": [
        {
          "internalType": "uint256",
          "name": "",
          "type": "uint256"
        }
      ],
      "name": "voteWeightsSum",
      "outputs": [
        {
          "internalType": "uint256",
          "name": "",
          "type": "uint256"
        }
      ],
      "stateMutability": "view",
      "type": "function"
    },
    {
      "inputs": [
        {
          "internalType": "uint256",
          "name": "",
          "type": "uint256"
        }
      ],
      "name": "voterRewardSums",
      "outputs": [
        {
          "internalType": "uint256",
          "name": "",
          "type": "uint256"
        }
      ],
      "stateMutability": "view",
      "type": "function"
    },
    {
      "inputs": [
        {
          "internalType": "address",
          "name": "",
          "type": "address"
        }
      ],
      "name": "voters",
      "outputs": [
        {
          "internalType": "uint8",
          "name": "lockupDuration",
          "type": "uint8"
        },
        {
          "internalType": "uint16",
          "name": "voteEpoch",
          "type": "uint16"
        },
        {
          "internalType": "uint256",
          "name": "releaseDate",
          "type": "uint256"
        },
        {
          "internalType": "uint256",
          "name": "tokensLocked",
          "type": "uint256"
        },
        {
          "internalType": "uint256",
          "name": "gasTarget",
          "type": "uint256"
        }
      ],
      "stateMutability": "view",
      "type": "function"
    },
    {
      "inputs": [
        {
          "internalType": "uint256",
          "name": "",
          "type": "uint256"
        }
      ],
      "name": "votesTotal",
      "outputs": [
        {
          "internalType": "uint256",
          "name": "",
          "type": "uint256"
        }
      ],
      "stateMutability": "view",
      "type": "function"
    },
    {
      "inputs": [],
      "name": "withdraw",
      "outputs": [],
      "stateMutability": "nonpayable",
      "type": "function"
    },
    {
      "inputs": [],
      "name": "withdrawPoolTokens",
      "outputs": [],
      "stateMutability": "nonpayable",
      "type": "function"
    },
    {
      "stateMutability": "payable",
      "type": "receive"
    },
    {
      "inputs": [
        {
          "internalType": "address",
          "name": "_voter",
          "type": "address"
        },
        {
          "internalType": "uint256",
          "name": "_gasTarget",
          "type": "uint256"
        },
        {
          "internalType": "uint256",
          "name": "_eglAmount",
          "type": "uint256"
        },
        {
          "internalType": "uint8",
          "name": "_lockupDuration",
          "type": "uint8"
        },
        {
          "internalType": "uint256",
          "name": "_releaseTime",
          "type": "uint256"
        }
      ],
      "name": "internalVote",
      "outputs": [],
      "stateMutability": "nonpayable",
      "type": "function"
    },
    {
      "inputs": [
        {
          "internalType": "address",
          "name": "_voter",
          "type": "address"
        }
      ],
      "name": "internalWithdraw",
      "outputs": [],
      "stateMutability": "nonpayable",
      "type": "function"
    },
    {
      "inputs": [
        {
          "internalType": "uint256",
          "name": "_timePassedSinceOrigin",
          "type": "uint256"
        }
      ],
      "name": "issueCreatorRewards",
      "outputs": [],
      "stateMutability": "nonpayable",
      "type": "function"
    },
    {
      "inputs": [
        {
          "internalType": "int256",
          "name": "_blockGasLimit",
          "type": "int256"
        },
        {
          "internalType": "int256",
          "name": "_desiredEgl",
          "type": "int256"
        },
        {
          "internalType": "int256",
          "name": "_tallyVoteGasLimit",
          "type": "int256"
        }
      ],
      "name": "calculateBlockReward",
      "outputs": [],
      "stateMutability": "nonpayable",
      "type": "function"
    },
    {
      "inputs": [
        {
          "internalType": "uint256",
          "name": "_timePassedSinceOrigin",
          "type": "uint256"
        },
        {
          "internalType": "uint256",
          "name": "_maxSupply",
          "type": "uint256"
        },
        {
          "internalType": "uint256",
          "name": "_timeLocked",
          "type": "uint256"
        }
      ],
      "name": "calculateSerializedEgl",
      "outputs": [],
      "stateMutability": "nonpayable",
      "type": "function"
    },
    {
      "inputs": [
        {
          "internalType": "uint256",
          "name": "_currentEgl",
          "type": "uint256"
        },
        {
          "internalType": "uint256",
          "name": "_firstEgl",
          "type": "uint256"
        },
        {
          "internalType": "uint256",
          "name": "_lastEgl",
          "type": "uint256"
        },
        {
          "internalType": "uint256",
          "name": "_totalPoolTokens",
          "type": "uint256"
        }
      ],
      "name": "calculateCurrentPoolTokensDue",
      "outputs": [],
      "stateMutability": "nonpayable",
      "type": "function"
    },
    {
      "inputs": [
        {
          "internalType": "uint256",
          "name": "_firstEgl",
          "type": "uint256"
        },
        {
          "internalType": "uint256",
          "name": "_lastEgl",
          "type": "uint256"
        }
      ],
      "name": "calculateBonusEglsDue",
      "outputs": [],
      "stateMutability": "nonpayable",
      "type": "function"
    },
    {
      "inputs": [
        {
          "internalType": "address",
          "name": "_voter",
          "type": "address"
        },
        {
          "internalType": "uint16",
          "name": "_currentEpoch",
          "type": "uint16"
        },
        {
          "internalType": "uint16",
          "name": "_voterEpoch",
          "type": "uint16"
        },
        {
          "internalType": "uint8",
          "name": "_lockupDuration",
          "type": "uint8"
        },
        {
          "internalType": "uint256",
          "name": "_voteWeight",
          "type": "uint256"
        }
      ],
      "name": "calculateVoterReward",
      "outputs": [],
      "stateMutability": "nonpayable",
      "type": "function"
    },
    {
      "inputs": [
        {
          "internalType": "uint256",
          "name": "_itemTotal",
          "type": "uint256"
        },
        {
          "internalType": "uint256",
          "name": "_tokensInCirculation",
          "type": "uint256"
        }
      ],
      "name": "calculatePercentageOfTokensInCirculation",
      "outputs": [],
      "stateMutability": "nonpayable",
      "type": "function"
    }
  ],
  "bytecode": "0x608060405234801561001057600080fd5b50615293806100206000396000f3fe6080604052600436106102ca5760003560e01c806378d3e9f311610179578063a75cc400116100d6578063cf89489e1161008a578063f2fde38b11610064578063f2fde38b14610b05578063f5a0d6c014610b38578063fe9c1a2e14610b4d5761031c565b8063cf89489e14610a9f578063d700672214610adb578063eabfa9e514610af05761031c565b8063bbb2eab9116100bb578063bbb2eab9146108bd578063c71fb96c146108f6578063ceaf749e14610a755761031c565b8063a75cc40014610860578063b4f34de61461088a5761031c565b806390c023f11161012d5780639759634a116101125780639759634a146107bc578063a20cf2c4146107e6578063a3ec138d146107fb5761031c565b806390c023f11461077157806393818fc6146107865761031c565b806384000e9c1161015e57806384000e9c146106d75780638b04f79c1461070d5780638da5cb5b146107405761031c565b806378d3e9f31461065657806379a1745f146106895761031c565b8063575ede3a1161022757806367699457116101db578063715018a6116101c0578063715018a6146105eb57806373f8664714610600578063766718081461062a5761031c565b806367699457146105ac5780637010969b146105c15761031c565b80635c3728ad1161020c5780635c3728ad146104f35780635c975abb14610523578063647c75e21461054c5761031c565b8063575ede3a146104a55780635b873d33146104de5761031c565b8063378a21781161027e5780634a0eeb5f116102635780634a0eeb5f1461042757806352ce41b41461045757806355b1d8f01461046c5761031c565b8063378a2178146103fd5780633ccfd60b146104125761031c565b806327aaa7b6116102af57806327aaa7b61461035f57806335fc9b8f146103745780633716c17f146103ca5761031c565b80631018824314610321578063112bbd1d146103485761031c565b3661031c576040805162461bcd60e51b815260206004820152600f60248201527f45474c3a4e4f5f5041594d454e54530000000000000000000000000000000000604482015290519081900360640190fd5b600080fd5b34801561032d57600080fd5b50610336610b62565b60408051918252519081900360200190f35b34801561035457600080fd5b5061035d610b68565b005b34801561036b57600080fd5b50610336610db8565b34801561038057600080fd5b5061035d600480360360a081101561039757600080fd5b506001600160a01b038135169061ffff602082013581169160408101359091169060ff6060820135169060800135610dbe565b3480156103d657600080fd5b50610336600480360360208110156103ed57600080fd5b50356001600160a01b0316610dd3565b34801561040957600080fd5b5061035d610de5565b34801561041e57600080fd5b5061035d611432565b34801561043357600080fd5b5061035d6004803603604081101561044a57600080fd5b50803590602001356115cf565b34801561046357600080fd5b5061033661161b565b34801561047857600080fd5b5061035d6004803603606081101561048f57600080fd5b508035906020810135906040013560ff16611621565b3480156104b157600080fd5b5061035d600480360360408110156104c857600080fd5b506001600160a01b0381351690602001356119fc565b3480156104ea57600080fd5b5061035d611e2e565b3480156104ff57600080fd5b5061035d6004803603604081101561051657600080fd5b5080359060200135611ef9565b34801561052f57600080fd5b50610538611f41565b604080519115158252519081900360200190f35b34801561055857600080fd5b5061057f6004803603602081101561056f57600080fd5b50356001600160a01b0316611f4a565b6040805163ffffffff90951685526020850193909352838301919091526060830152519081900360800190f35b3480156105b857600080fd5b50610336611f78565b3480156105cd57600080fd5b50610336600480360360208110156105e457600080fd5b5035611f7e565b3480156105f757600080fd5b5061035d611f92565b34801561060c57600080fd5b506103366004803603602081101561062357600080fd5b5035612049565b34801561063657600080fd5b5061063f612056565b6040805161ffff9092168252519081900360200190f35b34801561066257600080fd5b5061035d6004803603602081101561067957600080fd5b50356001600160a01b0316612060565b34801561069557600080fd5b5061035d600480360360a08110156106ac57600080fd5b506001600160a01b038135169060208101359060408101359060ff6060820135169060800135612069565b3480156106e357600080fd5b5061035d600480360360608110156106fa57600080fd5b508035906020810135906040013561207d565b34801561071957600080fd5b5061035d6004803603604081101561073057600080fd5b508035906020013560ff166120c7565b34801561074c57600080fd5b5061075561225f565b604080516001600160a01b039092168252519081900360200190f35b34801561077d57600080fd5b5061033661226e565b34801561079257600080fd5b5061035d600480360360608110156107a957600080fd5b5080359060208101359060400135612274565b3480156107c857600080fd5b5061035d600480360360208110156107df57600080fd5b503561227f565b3480156107f257600080fd5b5061035d61228b565b34801561080757600080fd5b5061082e6004803603602081101561081e57600080fd5b50356001600160a01b0316612348565b6040805160ff909616865261ffff90941660208601528484019290925260608401526080830152519081900360a00190f35b34801561086c57600080fd5b506103366004803603602081101561088357600080fd5b503561237c565b34801561089657600080fd5b5061035d600480360360408110156108ad57600080fd5b508035906020013560ff16612389565b3480156108c957600080fd5b5061035d600480360360608110156108e057600080fd5b508035906020810135906040013560ff1661298a565b34801561090257600080fd5b5061035d600480360361012081101561091a57600080fd5b6001600160a01b038235811692602081013582169260408201359092169160608201359162ffffff6080820135169163ffffffff60a083013516919081019060e0810160c082013564010000000081111561097457600080fd5b82018360208201111561098657600080fd5b803590602001918460208302840111640100000000831117156109a857600080fd5b91908080602002602001604051908101604052809392919081815260200183836020028082843760009201919091525092959493602081019350359150506401000000008111156109f857600080fd5b820183602082011115610a0a57600080fd5b80359060200191846020830284011164010000000083111715610a2c57600080fd5b919080806020026020016040519081016040528093929190818152602001838360200280828437600092019190915250929550505090356001600160a01b03169150612c959050565b348015610a8157600080fd5b5061033660048036036020811015610a9857600080fd5b503561337c565b348015610aab57600080fd5b5061035d60048036036080811015610ac257600080fd5b5080359060208101359060408101359060600135613389565b348015610ae757600080fd5b5061035d6133d5565b348015610afc57600080fd5b5061033661384c565b348015610b1157600080fd5b5061035d60048036036020811015610b2857600080fd5b50356001600160a01b0316613852565b348015610b4457600080fd5b5061033661396a565b348015610b5957600080fd5b50610336613970565b609a5481565b60655460ff1615610bb3576040805162461bcd60e51b815260206004820152601060248201526f14185d5cd8589b194e881c185d5cd95960821b604482015290519081900360640190fd5b60f8544311610c09576040805162461bcd60e51b815260206004820152601160248201527f45474c3a414c52454144595f5357455054000000000000000000000000000000604482015290519081900360640190fd5b4360f855609754609a544591600091610c23918491613976565b90508015610d5e5760fb54610c3e908263ffffffff613b5716565b60fb55609f54610c54908263ffffffff613ba216565b609f5560ef54604080516370a0823160e01b815230600482015290516001600160a01b039092169163a9059cbb914191610ce29185916370a0823191602480820192602092909190829003018186803b158015610cb057600080fd5b505afa158015610cc4573d6000803e3d6000fd5b505050506040513d6020811015610cda57600080fd5b505185613bfc565b6040518363ffffffff1660e01b815260040180836001600160a01b03166001600160a01b0316815260200182815260200192505050602060405180830381600087803b158015610d3157600080fd5b505af1158015610d45573d6000803e3d6000fd5b505050506040513d6020811015610d5b57600080fd5b50505b60f854604080513381524160208201528082019290925260608201849052608082018390524260a0830152517f0f6068cc0327366c9f8c4d052cf3e449a720815635c94fd32f6cf7b6af710e479181900360c00190a15050565b60985481565b610dcb8585858585613c12565b505050505050565b60ee6020526000908152604090205481565b60655460ff1615610e30576040805162461bcd60e51b815260206004820152601060248201526f14185d5cd8589b194e881c185d5cd95960821b604482015290519081900360640190fd5b60f654609e54610e509163ffffffff6301000000909104811690613ba216565b4211610ea3576040805162461bcd60e51b815260206004820152601260248201527f45474c3a564f54455f4e4f545f454e4445440000000000000000000000000000604482015290519081900360640190fd5b45609a5561010954609d5460009161ffff90811691161115610edd57610ed8670de0b6b3a7640000601e63ffffffff613dcc16565b610ef6565b610ef6670de0b6b3a7640000600a63ffffffff613dcc16565b609d54909150603461ffff90911610610fa5576000610f8c610f7f610f39610f266034600163ffffffff613b5716565b609d5461ffff169063ffffffff613b5716565b610f73610f4e6034600263ffffffff613dcc16565b610f67670de0b6b3a7640000601463ffffffff613dcc16565b9063ffffffff613e2516565b9063ffffffff613dcc16565b839063ffffffff613ba216565b9050610fa1816802b5e3af16b1880000613bfc565b9150505b60dc54600090610fb6576000610fc5565b60dc5460e454610fc591613e25565b90506000610fd660d4820154613e67565b905082811061116357609a5460f354610ff49163ffffffff613e9d16565b60f35560f45461100b90600163ffffffff613e9d16565b60f481905560f3546110229163ffffffff613f0216565b6098819055821261106b5761106661105760f55461104b60985486613fba90919063ffffffff16565b9063ffffffff61401f16565b6098549063ffffffff613e9d16565b611098565b61109861108960f55461104b85609854613fba90919063ffffffff16565b6098549063ffffffff613fba16565b609755609a546110b09061271063ffffffff613fba16565b609754121580156110d75750609a546110d19061271063ffffffff613e9d16565b60975413155b156110e357609a546097555b609d5460975460f35460f4546098546040805133815261ffff909616602087015285810194909452606085018890526080850186905260a085019290925260c084015260e083015242610100830152517f7f9ed4e6a05937b6f9fcaa91c2fe6f6ba0b0a7dc309b7e15367d08b8b5c044f5918190036101200190a161129c565b6101095460f65461118a91630100000090910463ffffffff9081169161ffff1690613dcc16565b60f75461119e90429063ffffffff613b5716565b106111ce576111ca60646111be605f609a5461402e90919063ffffffff16565b9063ffffffff613f0216565b6097555b7fd4c520fe18c4d747998b5ff21f876ecb67cc070b489476dfe74fa89675684bb033609d60009054906101000a900461ffff16609754868560985460995461122160f75442613b5790919063ffffffff16565b60f6546112419063ffffffff6301000000909104811690600690613dcc16565b604080516001600160a01b03909a168a5261ffff90981660208a0152888801969096526060880194909452608087019290925260a086015260c085015260e08401526101008301524261012083015251908190036101400190a15b60005b60078160ff1610156113285760dc8160010160ff16600881106112be57fe5b015460dc8260ff16600881106112d057fe5b015560e460ff6001830116600881106112e557fe5b015460e48260ff16600881106112f757fe5b015560d460ff60018301166008811061130c57fe5b015460d48260ff166008811061131e57fe5b015560010161129f565b50600060e381905560eb81905560db81905560f381905560f45560fa54609d5461ffff161080159061135c5750600060fc54115b1561137157609d546113719061ffff166140d7565b609d805461ffff8082166001011661ffff1990911617905560f654609e546113a99163ffffffff6301000000909104811690613ba216565b609e55609d54609754609854609f546040805133815260001961ffff96871601909516602086015284810193909352606084018690526080840187905260a0840185905260c084019190915260e083015242610100830152517fa71bedc4f3aa50ccced26d41681c0b9a0a257cff099beda501702ef03d0f5fb8918190036101200190a1505050565b60655460ff161561147d576040805162461bcd60e51b815260206004820152601060248201526f14185d5cd8589b194e881c185d5cd95960821b604482015290519081900360640190fd5b33600090815260ec60205260409020600201546114d1576040805162461bcd60e51b815260206004820152600d60248201526c1151d30e9393d517d593d51151609a1b604482015290519081900360640190fd5b33600090815260ec60205260409020600101544211611537576040805162461bcd60e51b815260206004820152601460248201527f45474c3a4e4f545f52454c454153455f44415445000000000000000000000000604482015290519081900360640190fd5b60ef546001600160a01b031663a9059cbb336115528161429b565b6040518363ffffffff1660e01b815260040180836001600160a01b03166001600160a01b0316815260200182815260200192505050602060405180830381600087803b1580156115a157600080fd5b505af11580156115b5573d6000803e3d6000fd5b505050506040513d60208110156115cb57600080fd5b5050565b609f81905560006115df83613e67565b6040805182815290519192507f7e7e5f44ddc2776c4ccd52d44b8a7a4f55503c4ae54907bb06a31c38efe71ff8919081900360200190a1505050565b609c5481565b60655460ff161561166c576040805162461bcd60e51b815260206004820152601060248201526f14185d5cd8589b194e881c185d5cd95960821b604482015290519081900360640190fd5b33600090815260ec60205260409020600201546116c0576040805162461bcd60e51b815260206004820152600d60248201526c1151d30e9393d517d593d51151609a1b604482015290519081900360640190fd5b811561194457670de0b6b3a7640000821015611723576040805162461bcd60e51b815260206004820152601060248201527f45474c3a414d4e545f544f4f5f4c4f5700000000000000000000000000000000604482015290519081900360640190fd5b60ef54604080516370a0823160e01b815233600482015290516001600160a01b03909216916370a0823191602480820192602092909190829003018186803b15801561176e57600080fd5b505afa158015611782573d6000803e3d6000fd5b505050506040513d602081101561179857600080fd5b50518211156117ee576040805162461bcd60e51b815260206004820152601c60248201527f45474c3a494e53554646494349454e545f45474c5f42414c414e434500000000604482015290519081900360640190fd5b60ef5460408051636eb1769f60e11b8152336004820152306024820152905184926001600160a01b03169163dd62ed3e916044808301926020929190829003018186803b15801561183e57600080fd5b505afa158015611852573d6000803e3d6000fd5b505050506040513d602081101561186857600080fd5b505110156118bd576040805162461bcd60e51b815260206004820152601a60248201527f45474c3a494e53554646494349454e545f414c4c4f57414e4345000000000000604482015290519081900360640190fd5b60ef54604080516323b872dd60e01b81523360048201523060248201526044810185905290516001600160a01b03909216916323b872dd916064808201926020929091908290030181600087803b15801561191757600080fd5b505af115801561192b573d6000803e3d6000fd5b505050506040513d602081101561194157600080fd5b50505b60f654609e546119649163ffffffff6301000000909104811690613ba216565b42111561197357611973610de5565b33600081815260ec6020526040902060010154906119a1906119949061429b565b849063ffffffff613ba216565b92506119b03385858585614584565b604080513381526020810186905280820185905242606082015290517f7557e999fc50cf5217e7120750c6e75d826f9facea381db8a7cbe7a2350d061f9181900360800190a150505050565b611a04614a8e565b6033546001600160a01b03908116911614611a66576040805162461bcd60e51b815260206004820181905260248201527f4f776e61626c653a2063616c6c6572206973206e6f7420746865206f776e6572604482015290519081900360640190fd5b60fe54811115611abd576040805162461bcd60e51b815260206004820152601d60248201527f45474c3a494e53554646494349454e545f534545445f42414c414e4345000000604482015290519081900360640190fd5b6001600160a01b038216600090815260ee602052604090205415611b28576040805162461bcd60e51b815260206004820152601260248201527f45474c3a414c52454144595f5345454445520000000000000000000000000000604482015290519081900360640190fd5b6001600160a01b038216600090815260ec602052604090206002015415611b96576040805162461bcd60e51b815260206004820152601460248201527f45474c3a414c52454144595f4841535f564f5445000000000000000000000000604482015290519081900360640190fd5b60ef54604080516370a0823160e01b81526001600160a01b038581166004830152915191909216916370a08231916024808301926020929190829003018186803b158015611be357600080fd5b505afa158015611bf7573d6000803e3d6000fd5b505050506040513d6020811015611c0d57600080fd5b505115611c61576040805162461bcd60e51b815260206004820152601460248201527f45474c3a414c52454144595f4841535f45474c53000000000000000000000000604482015290519081900360640190fd5b60f95460f754611c769163ffffffff613ba216565b4210611cc9576040805162461bcd60e51b815260206004820152601660248201527f45474c3a534545445f504552494f445f50415353454400000000000000000000604482015290519081900360640190fd5b60f15460408051630fb6a4a160e11b81526001600160a01b03858116600483015291516000939290921691631f6d494291602480820192608092909190829003018186803b158015611d1a57600080fd5b505afa158015611d2e573d6000803e3d6000fd5b505050506040513d6080811015611d4457600080fd5b505190508015611d9b576040805162461bcd60e51b815260206004820152601260248201527f45474c3a49535f434f4e5452494255544f520000000000000000000000000000604482015290519081900360640190fd5b60fe54611dae908363ffffffff613b5716565b60fe5560fd54611dc4908363ffffffff613b5716565b60fd556001600160a01b038316600081815260ee602090815260409182902085905560fe54825193845290830185905282820152426060830152517f9b861f4745a65efa4f8e7442d37a07edf7decd32b164b4af64ab50370a7bd28d9181900360800190a1505050565b611e36614a8e565b6033546001600160a01b03908116911614611e98576040805162461bcd60e51b815260206004820181905260248201527f4f776e61626c653a2063616c6c6572206973206e6f7420746865206f776e6572604482015290519081900360640190fd5b60655460ff16611eef576040805162461bcd60e51b815260206004820152601460248201527f5061757361626c653a206e6f7420706175736564000000000000000000000000604482015290519081900360640190fd5b611ef7614a92565b565b6000611f058383614b39565b6040805182815290519192507fa15a35c9dd45af4fd008fbe269d5e5ed70b110228a45c2f074d793211f6cab13919081900360200190a1505050565b60655460ff1690565b60ed60205260009081526040902080546001820154600283015460039093015463ffffffff90921692909184565b609e5481565b60dc8160088110611f8b57fe5b0154905081565b611f9a614a8e565b6033546001600160a01b03908116911614611ffc576040805162461bcd60e51b815260206004820181905260248201527f4f776e61626c653a2063616c6c6572206973206e6f7420746865206f776e6572604482015290519081900360640190fd5b6040805162461bcd60e51b815260206004820152601960248201527f45474c3a4e4f5f52454e4f554e43455f4f574e45525348495000000000000000604482015290519081900360640190fd5b60a08160348110611f8b57fe5b609d5461ffff1681565b6115cb8161429b565b6120768585858585614584565b5050505050565b600061208a848484614b9d565b6040805182815290519192507f37073877a1e36a85046b3dbc7466845ed97b7faae7a45d81183357155c563dae919081900360200190a150505050565b60655460ff1615612112576040805162461bcd60e51b815260206004820152601060248201526f14185d5cd8589b194e881c185d5cd95960821b604482015290519081900360640190fd5b33600090815260ee6020526040902054612173576040805162461bcd60e51b815260206004820152600e60248201527f45474c3a4e4f545f534545444552000000000000000000000000000000000000604482015290519081900360640190fd5b60f654609e546121939163ffffffff6301000000909104811690613ba216565b4211156121a2576121a2610de5565b33600090815260ee602052604081208054919055609f546121c9908263ffffffff613ba216565b609f5560f654600090612202906121f39063ffffffff6301000000909104811690603490613dcc16565b60f7549063ffffffff613ba216565b604080513381526020810185905280820183905242606082015290519192507f5356d501c5681bc11ad4a79b7bdf2821e62fbf883e09cd63546edef197d10a12919081900360800190a16122593385848685614584565b50505050565b6033546001600160a01b031690565b60975481565b612259838383613976565b612288816140d7565b50565b612293614a8e565b6033546001600160a01b039081169116146122f5576040805162461bcd60e51b815260206004820181905260248201527f4f776e61626c653a2063616c6c6572206973206e6f7420746865206f776e6572604482015290519081900360640190fd5b60655460ff1615612340576040805162461bcd60e51b815260206004820152601060248201526f14185d5cd8589b194e881c185d5cd95960821b604482015290519081900360640190fd5b611ef7614cec565b60ec60205260009081526040902080546001820154600283015460039093015460ff83169361010090930461ffff16929085565b60e48160088110611f8b57fe5b60655460ff16156123d4576040805162461bcd60e51b815260206004820152601060248201526f14185d5cd8589b194e881c185d5cd95960821b604482015290519081900360640190fd5b600060ff541161242b576040805162461bcd60e51b815260206004820152601b60248201527f45474c3a535550504f525445525f45474c535f4445504c455445440000000000604482015290519081900360640190fd5b60006101005411612483576040805162461bcd60e51b815260206004820152601860248201527f45474c3a4250545f42414c414e43455f4445504c455445440000000000000000604482015290519081900360640190fd5b60f160009054906101000a90046001600160a01b03166001600160a01b03166340b982536040518163ffffffff1660e01b815260040160206040518083038186803b1580156124d157600080fd5b505afa1580156124e5573d6000803e3d6000fd5b505050506040513d60208110156124fb57600080fd5b5051158015612581575060f160009054906101000a90046001600160a01b03166001600160a01b031663b51459fe6040518163ffffffff1660e01b815260040160206040518083038186803b15801561255357600080fd5b505afa158015612567573d6000803e3d6000fd5b505050506040513d602081101561257d57600080fd5b5051155b6125d2576040805162461bcd60e51b815260206004820152601260248201527f45474c3a47454e455349535f4c4f434b45440000000000000000000000000000604482015290519081900360640190fd5b33600090815260ed602052604090205463ffffffff161561263a576040805162461bcd60e51b815260206004820152601360248201527f45474c3a414c52454144595f434c41494d454400000000000000000000000000604482015290519081900360640190fd5b60f15460408051630fb6a4a160e11b8152336004820152905160009283926001600160a01b0390911691631f6d494291602480820192608092909190829003018186803b15801561268a57600080fd5b505afa15801561269e573d6000803e3d6000fd5b505050506040513d60808110156126b457600080fd5b508051602090910151909250905081612714576040805162461bcd60e51b815260206004820152601360248201527f45474c3a4e4f545f434f4e545249425554454400000000000000000000000000604482015290519081900360640190fd5b60f654609e546127349163ffffffff6301000000909104811690613ba216565b42111561274357612743610de5565b6000612767670de0b6b3a7640000610f676101055486613dcc90919063ffffffff16565b90506000612791670de0b6b3a7640000610f6761010554610f738888613b5790919063ffffffff16565b905060006127a5828463ffffffff613ba216565b905060006127be6127b68484614b39565b60ff54613bfc565b905060006127f06127e7670de0b6b3a7640000610f67610106548b613dcc90919063ffffffff16565b61010054613bfc565b60ff54909150612806908363ffffffff613b5716565b60ff556101005461281d908263ffffffff613b5716565b61010055609f54612834908363ffffffff613ba216565b609f81905550600060ed6000336001600160a01b03166001600160a01b03168152602001908152602001600020905060018160000160006101000a81548163ffffffff021916908363ffffffff1602179055508181600101819055508481600201819055508381600301819055507f549881d5c1efb822f02dcb03f7b2f19e5a1b9cd8676fee72c4669c205ac95a7533898c8c6101055461010654898960ff546101005442604051808c6001600160a01b03166001600160a01b031681526020018b81526020018a81526020018960ff1681526020018881526020018781526020018681526020018581526020018481526020018381526020018281526020019b50505050505050505050505060405180910390a160f65461297e9033908c9086908d90612979906121f39063ffffffff6301000000909104811690603490613dcc16565b614584565b50505050505050505050565b60655460ff16156129d5576040805162461bcd60e51b815260206004820152601060248201526f14185d5cd8589b194e881c185d5cd95960821b604482015290519081900360640190fd5b670de0b6b3a7640000821015612a32576040805162461bcd60e51b815260206004820152601060248201527f45474c3a414d4e545f544f4f5f4c4f5700000000000000000000000000000000604482015290519081900360640190fd5b60ef54604080516370a0823160e01b815233600482015290516001600160a01b03909216916370a0823191602480820192602092909190829003018186803b158015612a7d57600080fd5b505afa158015612a91573d6000803e3d6000fd5b505050506040513d6020811015612aa757600080fd5b5051821115612afd576040805162461bcd60e51b815260206004820152601c60248201527f45474c3a494e53554646494349454e545f45474c5f42414c414e434500000000604482015290519081900360640190fd5b60ef5460408051636eb1769f60e11b8152336004820152306024820152905184926001600160a01b03169163dd62ed3e916044808301926020929190829003018186803b158015612b4d57600080fd5b505afa158015612b61573d6000803e3d6000fd5b505050506040513d6020811015612b7757600080fd5b50511015612bcc576040805162461bcd60e51b815260206004820152601a60248201527f45474c3a494e53554646494349454e545f414c4c4f57414e4345000000000000604482015290519081900360640190fd5b60f654609e54612bec9163ffffffff6301000000909104811690613ba216565b421115612bfb57612bfb610de5565b60ef54604080516323b872dd60e01b81523360048201523060248201526044810185905290516001600160a01b03909216916323b872dd916064808201926020929091908290030181600087803b158015612c5557600080fd5b505af1158015612c69573d6000803e3d6000fd5b505050506040513d6020811015612c7f57600080fd5b50612c909050338484846000614584565b505050565b600054610100900460ff1680612cae5750612cae614d6d565b80612cbc575060005460ff16155b612cf75760405162461bcd60e51b815260040180806020018281038252602e8152602001806151a3602e913960400191505060405180910390fd5b600054610100900460ff16158015612d22576000805460ff1961ff0019909116610100171660011790555b6001600160a01b038a16612d7d576040805162461bcd60e51b815260206004820152601a60248201527f45474c3a494e56414c49445f45474c5f544f4b454e5f41444452000000000000604482015290519081900360640190fd5b6001600160a01b038916612dd8576040805162461bcd60e51b815260206004820152601960248201527f45474c3a494e56414c49445f42505f544f4b454e5f4144445200000000000000604482015290519081900360640190fd5b6001600160a01b038816612e33576040805162461bcd60e51b815260206004820152601860248201527f45474c3a494e56414c49445f47454e455349535f414444520000000000000000604482015290519081900360640190fd5b612e3b614d73565b612e43614e14565b612e4b614f1a565b60ef80546001600160a01b03808d1673ffffffffffffffffffffffffffffffffffffffff199283161790925560f080548c841690831617905560f180548b8416921691909117908190556b026c62ad77dc602dae000000609b81905560fc819055609c556b0409f9cbc7c4a04c2200000060fb556acecb8f27f4200f3a00000060fd556a295be96e6406697200000060fe556b019d971e4fe8401e7400000060ff81905561010155694cd5d9c0f8633ab6000061010755604080517f4b472d4500000000000000000000000000000000000000000000000000000000815290516000939290921691634b472d4591600480820192602092909190829003018186803b158015612f5957600080fd5b505afa158015612f6d573d6000803e3d6000fd5b505050506040513d6020811015612f8357600080fd5b5051905080612fd9576040805162461bcd60e51b815260206004820152601660248201527f45474c3a4e4f5f47454e455349535f42414c414e434500000000000000000000604482015290519081900360640190fd5b60f05460f154604080517f8da5cb5b00000000000000000000000000000000000000000000000000000000815290516001600160a01b03938416936370a08231931691638da5cb5b916004808301926020929190829003018186803b15801561304157600080fd5b505afa158015613055573d6000803e3d6000fd5b505050506040513d602081101561306b57600080fd5b5051604080517fffffffff0000000000000000000000000000000000000000000000000000000060e085901b1681526001600160a01b039092166004830152516024808301926020929190829003018186803b1580156130ca57600080fd5b505afa1580156130de573d6000803e3d6000fd5b505050506040513d60208110156130f457600080fd5b505161010081905561314d576040805162461bcd60e51b815260206004820152601260248201527f45474c3a4e4f5f4250545f42414c414e43450000000000000000000000000000604482015290519081900360640190fd5b61316e81610f67670de0b6b3a7640000609c54613dcc90919063ffffffff16565b6101055561010054613194908290610f6790670de0b6b3a764000063ffffffff613dcc16565b61010655600a60fa8190556131b39063ffffffff8089169190613dcc16565b60f95560f7889055609e88905560f6805462ffffff191662ffffff89161766ffffffff0000001916630100000063ffffffff89160217905560f2805473ffffffffffffffffffffffffffffffffffffffff19166001600160a01b038516179055609c54609f5545609a81905560988190556099819055609755623d090061010855620f424060f555610109805461ffff191660071790558451156132a05760005b85518160ff16101561329e57613296868260ff168151811061327257fe5b6020026020010151868360ff168151811061328957fe5b60200260200101516119fc565b600101613254565b505b60ef5460f15460f054610105546101065460f95460f75460f654604080513381523060208201526001600160a01b03998a1681830152978916606089015297909516608087015260a0860188905260c086019390935260e085019190915261010084015261012083015262ffffff81166101408301526301000000900463ffffffff166101608201524261018082015290517f401428870815f31693733424c16dc30342fbc7bdfea981e09c5dd9762612aec5916101a0908290030190a150801561297e576000805461ff001916905550505050505050505050565b60d48160088110611f8b57fe5b600061339785858585614fc5565b6040805182815290519192507f4559bb1fd8d38ac4225e2e69ac3391fa694f480b89635e5e4d729f3e89794112919081900360200190a15050505050565b60655460ff1615613420576040805162461bcd60e51b815260206004820152601060248201526f14185d5cd8589b194e881c185d5cd95960821b604482015290519081900360640190fd5b33600090815260ed602052604090205463ffffffff16613487576040805162461bcd60e51b815260206004820152601260248201527f45474c3a4e4f5f504f4f4c5f544f4b454e530000000000000000000000000000604482015290519081900360640190fd5b60f95460f75461349e90429063ffffffff613b5716565b116134f0576040805162461bcd60e51b815260206004820152601560248201527f45474c3a414c4c5f544f4b454e535f4c4f434b45440000000000000000000000604482015290519081900360640190fd5b600061351561350a60f75442613b5790919063ffffffff16565b609c5460f954614b9d565b33600090815260ec6020908152604080832060ed9092529091206002810154929350909183101561358d576040805162461bcd60e51b815260206004820152601660248201527f45474c3a414444525f544f4b454e535f4c4f434b454400000000000000000000604482015290519081900360640190fd5b6000816003015484106136c6575060018101805460009182905583549091906135c89061ffff6101008204169060ff1663ffffffff613ba216565b609d5490915061ffff1681116135de574261361b565b60f654609d5461361b9161360e91630100000090910463ffffffff90811691610f7391869161ffff1690613b5716565b429063ffffffff613ba216565b60018086018290558401546002850154600386015460408051338152602081018b90528082018890526060810194909452608084019290925260a083015260c08201929092524260e082015290517fac4593ed445180692482b7c9eaf84f6aca0944f23272e84eed00ab30ba39214a918190036101000190a15033600090815260ed60205260408120805463ffffffff1916815560018101829055600281018290556003015561377a565b6136de84836002015484600301548560010154614fc5565b60018301549091506136f6908263ffffffff613b5716565b6001808401829055600284015460038501549186015460408051338152602081018a90528082018790526060810195909552608085019290925260a084019290925260c08301919091524260e0830152517fac4593ed445180692482b7c9eaf84f6aca0944f23272e84eed00ab30ba39214a918190036101000190a1600282018490555b60f054604080516370a0823160e01b815230600482015290516001600160a01b039092169163a9059cbb9133916137d39185916370a0823191602480820192602092909190829003018186803b158015610cb057600080fd5b6040518363ffffffff1660e01b815260040180836001600160a01b03166001600160a01b0316815260200182815260200192505050602060405180830381600087803b15801561382257600080fd5b505af1158015613836573d6000803e3d6000fd5b505050506040513d6020811015610dcb57600080fd5b609b5481565b61385a614a8e565b6033546001600160a01b039081169116146138bc576040805162461bcd60e51b815260206004820181905260248201527f4f776e61626c653a2063616c6c6572206973206e6f7420746865206f776e6572604482015290519081900360640190fd5b6001600160a01b0381166139015760405162461bcd60e51b815260040180806020018281038252602681526020018061515c6026913960400191505060405180910390fd5b6033546040516001600160a01b038084169216907f8be0079c531659141344cd1fd0a4f28419497f9722a3daafe3b4186f6b6457e090600090a36033805473ffffffffffffffffffffffffffffffffffffffff19166001600160a01b0392909216919091179055565b609f5481565b60995481565b6000806000806139868587615027565b905060006139948689615027565b905060006139aa8861271063ffffffff613e9d16565b905060006139c08961271063ffffffff613fba16565b9050808a121580156139d25750818a13155b156139f7576139f0670de0b6b3a7640000606463ffffffff613dcc16565b9550613a90565b600084138015613a3c57508789138015613a105750878a135b8015613a1c5750818a13155b80613a3c57508789128015613a305750878a125b8015613a3c5750808a12155b15613a9057613a62604b610f73866111be87670de0b6b3a764000063ffffffff61402e16565b9450613a8d613a80670de0b6b3a7640000601963ffffffff613dcc16565b869063ffffffff613ba216565b95505b613ac96064610f67670de0b6b3a7640000610f67613abc624c4b4060fb54613e2590919063ffffffff16565b8b9063ffffffff613dcc16565b609d5460fb546040805143815261ffff909316602084015282810191909152606082018d9052608082018c905260a082018b905260c0820188905260e08201899052610100820183905242610120830152519198507f7b567a10ebda9fc8530b066718cc2fa3c6fd42d5df71f9f8bc176ff6673972c391908190036101400190a15050505050509392505050565b6000613b9983836040518060400160405280601e81526020017f536166654d6174683a207375627472616374696f6e206f766572666c6f77000081525061503e565b90505b92915050565b600082820183811015613b99576040805162461bcd60e51b815260206004820152601b60248201527f536166654d6174683a206164646974696f6e206f766572666c6f770000000000604482015290519081900360640190fd5b6000818310613c0b5781613b99565b5090919050565b60006001600160a01b038616613c2457fe5b6000613c546034613c4861ffff808a169082908a1660ff8a1663ffffffff613ba216565b9063ffffffff613bfc16565b9050845b818161ffff161015613dc15760008060a08361ffff1660348110613c7857fe5b015411613c86576000613cd5565b613cd5613ccc60a08461ffff1660348110613c9d57fe5b0154610f67613cb7603461ffff881663ffffffff613b5716565b61010754610f73908b9063ffffffff613dcc16565b61010154613bfc565b9050613ce7848263ffffffff613ba216565b61010154909450613cfe908263ffffffff613b5716565b61010155610107547fbaca11360eaa23c73342d15d8db586271a7c9d9ee0a0c7ae8eda2e3f9c4add0a908a908a90879085908a90613d47603461ffff8b1663ffffffff613b5716565b60a08a61ffff1660348110613d5857fe5b015461010154604080516001600160a01b03909a168a5261ffff90981660208a0152888801969096526060880194909452608087019290925260a086015260c085015260e08401526101008301524261012083015251908190036101400190a150600101613c58565b505095945050505050565b600082613ddb57506000613b9c565b82820282848281613de857fe5b0414613b995760405162461bcd60e51b81526004018080602001828103825260218152602001806151f26021913960400191505060405180910390fd5b6000613b9983836040518060400160405280601a81526020017f536166654d6174683a206469766973696f6e206279207a65726f0000000000008152506150d5565b600080609f5411613e79576000613b9c565b609f54613b9c90610f676064610f7386670de0b6b3a764000063ffffffff613dcc16565b6000828201818312801590613eb25750838112155b80613ec75750600083128015613ec757508381125b613b995760405162461bcd60e51b81526004018080602001828103825260218152602001806151826021913960400191505060405180910390fd5b600081613f56576040805162461bcd60e51b815260206004820181905260248201527f5369676e6564536166654d6174683a206469766973696f6e206279207a65726f604482015290519081900360640190fd5b81600019148015613f6a5750600160ff1b83145b15613fa65760405162461bcd60e51b81526004018080602001828103825260218152602001806151d16021913960400191505060405180910390fd5b6000828481613fb157fe5b05949350505050565b6000818303818312801590613fcf5750838113155b80613fe45750600083128015613fe457508381135b613b995760405162461bcd60e51b815260040180806020018281038252602481526020018061523a6024913960400191505060405180910390fd5b6000818312613c0b5781613b99565b60008261403d57506000613b9c565b826000191480156140515750600160ff1b82145b1561408d5760405162461bcd60e51b81526004018080602001828103825260278152602001806152136027913960400191505060405180910390fd5b8282028284828161409a57fe5b0514613b995760405162461bcd60e51b81526004018080602001828103825260278152602001806152136027913960400191505060405180910390fd5b60f654600090614125906140fd90849063ffffffff6301000000909104811690613dcc16565b609b5460f65460fa546141209163ffffffff6301000000909104811690613dcc16565b614b9d565b90506000808211614137576000614153565b61415360fc54613c486101025485613b5790919063ffffffff16565b60ef5460f254604080517fa9059cbb0000000000000000000000000000000000000000000000000000000081526001600160a01b03928316600482015260248101859052905193945091169163a9059cbb916044808201926020929091908290030181600087803b1580156141c757600080fd5b505af11580156141db573d6000803e3d6000fd5b505050506040513d60208110156141f157600080fd5b505060fc54614206908263ffffffff613b5716565b60fc55609f5461421c908263ffffffff613ba216565b609f5560f2546101025460fc54609d54604080513381526001600160a01b0390951660208601528481018690526060850193909352608084019190915261ffff1660a08301524260c0830152517fb8eb1858344dfad27243fc861330eea15630cddc1d8c5c4eb9a72bb059aae54b9181900360e00190a1506101025550565b60006001600160a01b0382166142ad57fe5b6001600160a01b038216600090815260ec60205260408120805460028201805460038401805462ffffff19851686556001860187905592869055859055929361ffff610100840416939260ff16919061430c848463ffffffff613dcc16565b609d54909150600090614327908a9061ffff16888786613c12565b9050600061434261ffff881660ff871663ffffffff613ba216565b609d5490915060009061ffff16821161435c576000614374565b609d5461437490839061ffff1663ffffffff613b5716565b905060005b818160ff161015614495576143a68560dc8360ff166008811061439857fe5b01549063ffffffff613b5716565b60dc8260ff16600881106143b657fe5b01556143db6143cb868863ffffffff613dcc16565b60e48360ff166008811061439857fe5b60e48260ff16600881106143eb57fe5b0155609d5460349061440a9061ffff1660ff841663ffffffff613ba216565b101561446757609d5461443d90869060a0906144339061ffff1660ff861663ffffffff613ba216565b6034811061439857fe5b609d5460a09061445a9061ffff1660ff851663ffffffff613ba216565b6034811061446457fe5b01555b61447b8860d48360ff166008811061439857fe5b60d48260ff166008811061448b57fe5b0155600101614379565b50609f546144a9908463ffffffff613ba216565b609f55609d547fe0b45c9063ac79a1ba771cbe0d96ebb606253f393afdf9bd0bb9b2bc7eb16487908c9061ffff16898689603484106144e9576000614500565b609d5460a09061ffff16603481106144fd57fe5b01545b60d45460dc5460e454604080516001600160a01b039a909a168a5261ffff9890981660208a0152888801969096526060880194909452608087019290925260a086015260c085015260e08401526101008301524261012083015251908190036101400190a1614575878463ffffffff613ba216565b9b9a5050505050505050505050565b6001600160a01b03851661459457fe5b6001600160a01b038516600090815260ec602052604090206002015415614602576040805162461bcd60e51b815260206004820152601160248201527f45474c3a414c52454144595f564f544544000000000000000000000000000000604482015290519081900360640190fd5b61010854614610854561513a565b10614662576040805162461bcd60e51b815260206004820152601660248201527f45474c3a494e56414c49445f4741535f54415247455400000000000000000000604482015290519081900360640190fd5b60018260ff161015801561467a575060088260ff1611155b6146cb576040805162461bcd60e51b815260206004820152601260248201527f45474c3a494e56414c49445f4c4f434b55500000000000000000000000000000604482015290519081900360640190fd5b60f654609e546146eb9163ffffffff6301000000909104811690613ba216565b421061473e576040805162461bcd60e51b815260206004820152601060248201527f45474c3a564f54455f544f4f5f46415200000000000000000000000000000000604482015290519081900360640190fd5b60f654609e546147759162ffffff8116916147699163ffffffff6301000000909104811690613ba216565b9063ffffffff613b5716565b42106147c8576040805162461bcd60e51b815260206004820152601260248201527f45474c3a564f54455f544f4f5f434c4f53450000000000000000000000000000604482015290519081900360640190fd5b60f3546147db904563ffffffff613e9d16565b60f35560f4546147f290600163ffffffff613e9d16565b60f45560f6546000906148309083906148249061360e9060ff88169063ffffffff6301000000909104811690613dcc16565b9063ffffffff61514b16565b6001600160a01b038716600090815260ec60205260408120609d54815462ffff00191661010061ffff909216919091021760ff191660ff8716908117825560018201849055600282018890556003820189905592935091614892908790613dcc565b905060005b8560ff168160ff1610156149b6576148c78260dc8360ff16600881106148b957fe5b01549063ffffffff613ba216565b60dc8260ff16600881106148d757fe5b01556148fc6148ec898463ffffffff613dcc16565b60e48360ff16600881106148b957fe5b60e48260ff166008811061490c57fe5b0155609d5460349061492b9061ffff1660ff841663ffffffff613ba216565b101561498857609d5461495e90839060a0906149549061ffff1660ff861663ffffffff613ba216565b603481106148b957fe5b609d5460a09061497b9061ffff1660ff851663ffffffff613ba216565b6034811061498557fe5b01555b61499c8760d48360ff16600881106148b957fe5b60d48260ff16600881106149ac57fe5b0155600101614897565b50609d5460dc5460e4547f58d3ad4d526c4b6a438a40b7d49daf638c30beaf79f1bea88df8dded09356181928b9261ffff909116918b918b918b918a9160348710614a02576000614a19565b609d5460a09061ffff1660348110614a1657fe5b01545b60d460000154604080516001600160a01b03909b168b5261ffff90991660208b015289890197909752606089019590955260ff909316608088015260a087019190915260c086015260e08501526101008401526101208301524261014083015251908190036101600190a15050505050505050565b3390565b60655460ff16614ae9576040805162461bcd60e51b815260206004820152601460248201527f5061757361626c653a206e6f7420706175736564000000000000000000000000604482015290519081900360640190fd5b6065805460ff191690557f5db9ee0a495bf2e6ff9c91a7834c1ba4fdd244a5e8aa4e537bd38aeae4b073aa614b1c614a8e565b604080516001600160a01b039092168252519081900360200190a1565b6000818310614b4457fe5b613b996b020b73425d21f1268ad00000610f67670de0b6b3a7640000610f736004614b75898463ffffffff613e2516565b0a6004614b9089670de0b6b3a764000063ffffffff613e2516565b0a9063ffffffff613b5716565b60f654600090614bc09063ffffffff6301000000909104811690603490613dcc16565b8410614bcd575081614ce5565b60f654600090614c1690614bfa9085906147699063ffffffff6301000000909104811690603490613dcc16565b610f67670de0b6b3a7640000610f73898863ffffffff613b5716565b9050614c6f6c0c9f2c9cd04674edea40000000610f676305f5e100610f73614c4c89670de0b6b3a764000063ffffffff613e2516565b6004614c62886305f5e10063ffffffff613e2516565b0a9063ffffffff613dcc16565b609d549092507f912dc0458edd7b6cdb520961a3eacab8d19587dc0cd0d14f25a27a5097a212b99061ffff1686614cad84606463ffffffff613dcc16565b6040805161ffff909416845260208401929092528282015260608201859052608082018790524260a0830152519081900360c00190a1505b9392505050565b60655460ff1615614d37576040805162461bcd60e51b815260206004820152601060248201526f14185d5cd8589b194e881c185d5cd95960821b604482015290519081900360640190fd5b6065805460ff191660011790557f62e78cea01bee320cd4e420270b5ea74000d11b0c9f74754ebdbfc544b05a258614b1c614a8e565b303b1590565b600054610100900460ff1680614d8c5750614d8c614d6d565b80614d9a575060005460ff16155b614dd55760405162461bcd60e51b815260040180806020018281038252602e8152602001806151a3602e913960400191505060405180910390fd5b600054610100900460ff16158015614e00576000805460ff1961ff0019909116610100171660011790555b8015612288576000805461ff001916905550565b600054610100900460ff1680614e2d5750614e2d614d6d565b80614e3b575060005460ff16155b614e765760405162461bcd60e51b815260040180806020018281038252602e8152602001806151a3602e913960400191505060405180910390fd5b600054610100900460ff16158015614ea1576000805460ff1961ff0019909116610100171660011790555b6000614eab614a8e565b6033805473ffffffffffffffffffffffffffffffffffffffff19166001600160a01b038316908117909155604051919250906000907f8be0079c531659141344cd1fd0a4f28419497f9722a3daafe3b4186f6b6457e0908290a3508015612288576000805461ff001916905550565b600054610100900460ff1680614f335750614f33614d6d565b80614f41575060005460ff16155b614f7c5760405162461bcd60e51b815260040180806020018281038252602e8152602001806151a3602e913960400191505060405180910390fd5b600054610100900460ff16158015614fa7576000805460ff1961ff0019909116610100171660011790555b6065805460ff191690558015612288576000805461ff001916905550565b6000828410614fd057fe5b83851015614fe05750600061501f565b6000614ff685614769888763ffffffff613bfc16565b905061501b61500b858763ffffffff613b5716565b610f67858463ffffffff613dcc16565b9150505b949350505050565b600081831361503857828203613b99565b50900390565b600081848411156150cd5760405162461bcd60e51b81526004018080602001828103825283818151815260200191508051906020019080838360005b8381101561509257818101518382015260200161507a565b50505050905090810190601f1680156150bf5780820380516001836020036101000a031916815260200191505b509250505060405180910390fd5b505050900390565b600081836151245760405162461bcd60e51b815260206004820181815283516024840152835190928392604490910191908501908083836000831561509257818101518382015260200161507a565b50600083858161513057fe5b0495945050505050565b600081831161503857828203613b99565b600081831015613c0b5781613b9956fe4f776e61626c653a206e6577206f776e657220697320746865207a65726f20616464726573735369676e6564536166654d6174683a206164646974696f6e206f766572666c6f77496e697469616c697a61626c653a20636f6e747261637420697320616c726561647920696e697469616c697a65645369676e6564536166654d6174683a206469766973696f6e206f766572666c6f77536166654d6174683a206d756c7469706c69636174696f6e206f766572666c6f775369676e6564536166654d6174683a206d756c7469706c69636174696f6e206f766572666c6f775369676e6564536166654d6174683a207375627472616374696f6e206f766572666c6f77a26469706673582212203c9268453b58e391fee083039c3ee885ecbe21badcb69c07dac0b67197c2211964736f6c63430006060033",
  "immutableReferences": {},
  "source": "pragma solidity 0.6.6;\n\nimport \"../EglContract.sol\";\n\ncontract TestableEglContract is EglContract {\n    event PercentageCalculated(uint percentage);\n    event SerializedEglCalculated(uint serializedEgl);\n    event PoolTokensDueCalculated(uint poolTokensDue);\n    event BonusEglsDueCalculated(uint bonusEglsDue);\n\n    function internalVote(\n        address _voter,\n        uint _gasTarget,\n        uint _eglAmount,\n        uint8 _lockupDuration,\n        uint _releaseTime\n    ) external {\n        _internalVote(\n            _voter,\n            _gasTarget,\n            _eglAmount,\n            _lockupDuration,\n            _releaseTime\n        );\n    }\n\n    function internalWithdraw(address _voter) external {\n        _internalWithdraw(_voter);\n    }\n\n    function issueCreatorRewards(uint _timePassedSinceOrigin) external {\n        _issueCreatorRewards(_timePassedSinceOrigin);\n    }\n\n    function calculateBlockReward(int _blockGasLimit, int _desiredEgl, int _tallyVoteGasLimit) external {\n        _calculateBlockReward(_blockGasLimit, _desiredEgl, _tallyVoteGasLimit);\n    }\n\n    function calculateSerializedEgl(uint _timePassedSinceOrigin, uint _maxSupply, uint _timeLocked) external {\n        uint releasedEgl = _calculateSerializedEgl(_timePassedSinceOrigin, _maxSupply, _timeLocked);\n        emit SerializedEglCalculated(releasedEgl);\n    }\n    \n    function calculateCurrentPoolTokensDue(\n        uint _currentEgl, \n        uint _firstEgl, \n        uint _lastEgl, \n        uint _totalPoolTokens\n    ) external {\n        uint poolTokensDue = _calculateCurrentPoolTokensDue(_currentEgl, _firstEgl, _lastEgl, _totalPoolTokens);\n        emit PoolTokensDueCalculated(poolTokensDue);\n    }\n\n    function calculateBonusEglsDue(uint _firstEgl, uint _lastEgl) external {\n        uint bonusEglsDue = _calculateBonusEglsDue(_firstEgl, _lastEgl);\n        emit BonusEglsDueCalculated(bonusEglsDue);\n    }\n\n    function calculateVoterReward(\n        address _voter,\n        uint16 _currentEpoch,\n        uint16 _voterEpoch,\n        uint8 _lockupDuration,\n        uint _voteWeight\n    ) external {\n        _calculateVoterReward(_voter, _currentEpoch, _voterEpoch, _lockupDuration, _voteWeight);\n    }\n\n    function calculatePercentageOfTokensInCirculation(uint _itemTotal, uint _tokensInCirculation) external {\n        tokensInCirculation = _tokensInCirculation;\n        uint percentage = _calculatePercentageOfTokensInCirculation(_itemTotal);\n        emit PercentageCalculated(percentage);\n    }\n}",
  "sourcePath": "/Users/svancoller/Development/bloXroute/egl/contracts/helpers/TestableEglContract.sol",
  "compiler": {
    "name": "solc",
    "version": "0.6.6+commit.6c089d02.Emscripten.clang"
  },
  "schemaVersion": "3.2.5",
  "updatedAt": "2021-06-25T00:22:53.997Z",
  "devdoc": {
    "methods": {
      "addSeedAccount(address,uint256)": {
        "params": {
          "_seedAccount": "Wallet address of seeder",
          "_seedAmount": "Amount of EGL's to seed"
        }
      },
      "claimSeederEgls(uint256,uint8)": {
        "params": {
          "_gasTarget": "desired gas target for initial vote",
          "_lockupDuration": "duration to lock tokens for - determines vote multiplier"
        }
      },
      "claimSupporterEgls(uint256,uint8)": {
        "params": {
          "_gasTarget": "desired gas target for initial vote",
          "_lockupDuration": "duration to lock tokens for - determines vote multiplier"
        }
      },
      "initialize(address,address,address,uint256,uint24,uint32,address[],uint256[],address)": {
        "params": {
          "_creatorRewardsAccount": "Address that creator rewards get sent to",
          "_currentEpochStartDate": "Start date for the first epoch",
          "_epochLength": "The length of each epoch in seconds",
          "_genesis": "Address of the EGL Genesis contract",
          "_poolToken": "Address of the Balance Pool Token (BPT)",
          "_seedAccounts": "List of accounts to seed with EGL's",
          "_seedAmounts": "Amount of EGLS's to seed accounts with",
          "_token": "Address of the EGL token     ",
          "_votingPauseSeconds": "Number of seconds to pause voting before votes are tallied"
        }
      },
      "owner()": {
        "details": "Returns the address of the current owner."
      },
      "paused()": {
        "details": "Returns true if the contract is paused, and false otherwise."
      },
      "reVote(uint256,uint256,uint8)": {
        "params": {
          "_eglAmount": "Amount of EGL's to vote with",
          "_gasTarget": "The votes target gas limit",
          "_lockupDuration": "Duration to lock the EGL's"
        }
      },
      "transferOwnership(address)": {
        "details": "Transfers ownership of the contract to a new account (`newOwner`). Can only be called by the current owner."
      },
      "vote(uint256,uint256,uint8)": {
        "params": {
          "_eglAmount": "Amount of EGL's to vote with",
          "_gasTarget": "The votes target gas limit",
          "_lockupDuration": "Duration to lock the EGL's"
        }
      }
    }
  },
  "userdoc": {
    "methods": {
      "addSeedAccount(address,uint256)": {
        "notice": "Owner only function to add a seeder account with specified number of EGL's. Amount cannot exceed balance allocated for seed/signal accounts"
      },
      "claimSeederEgls(uint256,uint8)": {
        "notice": "Function for seed/signal accounts to claim their EGL's. EGL's get locked up in a vote right away and can  only be withdrawn after the seeder/signal lockup period"
      },
      "claimSupporterEgls(uint256,uint8)": {
        "notice": "Allows EGL Genesis contributors to claim their \"bonus\" EGL's from contributing in Genesis. Bonus EGL's get locked up in a vote right away and can only be withdrawn once all BPT's are available"
      },
      "initialize(address,address,address,uint256,uint24,uint32,address[],uint256[],address)": {
        "notice": "Initialized contract variables and sets up token bucket sizes"
      },
      "pauseEgl()": {
        "notice": "Ower only funciton to pause contract"
      },
      "reVote(uint256,uint256,uint8)": {
        "notice": "Re-Vote to change parameters of an existing vote. Will not shorten the time the tokens are  locked up from the original vote "
      },
      "renounceOwnership()": {
        "notice": "Do not allow owner to renounce ownership, only transferOwnership"
      },
      "sweepPoolRewards()": {
        "notice": "Send EGL reward to miner of the block. Reward caclulated based on how close the block gas limit is to the desired EGL. The closer it is, the higher the reward"
      },
      "tallyVotes()": {
        "notice": "Tally Votes for the most recent epoch and calculate the new desired EGL amount"
      },
      "unpauseEgl()": {
        "notice": "Owner only function to unpause contract"
      },
      "vote(uint256,uint256,uint8)": {
        "notice": "Submit vote to either increase or decrease the desired gas limit"
      },
      "withdraw()": {
        "notice": "Withdraw EGL's once they have matured"
      },
      "withdrawPoolTokens()": {
        "notice": "Allows for the withdrawal of liquidity pool tokens once they have matured"
      }
    }
  }
}