{
  "contractName": "TestableEglContract",
  "abi": [
    {
      "anonymous": false,
      "inputs": [
        {
          "indexed": false,
          "internalType": "uint256",
          "name": "blockNumber",
          "type": "uint256"
        },
        {
          "indexed": false,
          "internalType": "uint16",
          "name": "currentEpoch",
          "type": "uint16"
        },
        {
          "indexed": false,
          "internalType": "uint256",
          "name": "remainingPoolReward",
          "type": "uint256"
        },
        {
          "indexed": false,
          "internalType": "int256",
          "name": "blockGasLimit",
          "type": "int256"
        },
        {
          "indexed": false,
          "internalType": "int256",
          "name": "desiredEgl",
          "type": "int256"
        },
        {
          "indexed": false,
          "internalType": "int256",
          "name": "tallyVotesGasLimit",
          "type": "int256"
        },
        {
          "indexed": false,
          "internalType": "uint256",
          "name": "proximityRewardPercent",
          "type": "uint256"
        },
        {
          "indexed": false,
          "internalType": "uint256",
          "name": "totalRewardPercent",
          "type": "uint256"
        },
        {
          "indexed": false,
          "internalType": "uint256",
          "name": "blockReward",
          "type": "uint256"
        },
        {
          "indexed": false,
          "internalType": "uint256",
          "name": "date",
          "type": "uint256"
        }
      ],
      "name": "BlockRewardCalculated",
      "type": "event"
    },
    {
      "anonymous": false,
      "inputs": [
        {
          "indexed": false,
          "internalType": "uint256",
          "name": "bonusEglsDue",
          "type": "uint256"
        }
      ],
      "name": "BonusEglsDueCalculated",
      "type": "event"
    },
    {
      "anonymous": false,
      "inputs": [
        {
          "indexed": false,
          "internalType": "address",
          "name": "caller",
          "type": "address"
        },
        {
          "indexed": false,
          "internalType": "address",
          "name": "creatorRewardAddress",
          "type": "address"
        },
        {
          "indexed": false,
          "internalType": "uint256",
          "name": "amountClaimed",
          "type": "uint256"
        },
        {
          "indexed": false,
          "internalType": "uint256",
          "name": "lastSerializedEgl",
          "type": "uint256"
        },
        {
          "indexed": false,
          "internalType": "uint256",
          "name": "remainingCreatorReward",
          "type": "uint256"
        },
        {
          "indexed": false,
          "internalType": "uint16",
          "name": "currentEpoch",
          "type": "uint16"
        },
        {
          "indexed": false,
          "internalType": "uint256",
          "name": "date",
          "type": "uint256"
        }
      ],
      "name": "CreatorRewardsClaimed",
      "type": "event"
    },
    {
      "anonymous": false,
      "inputs": [
        {
          "indexed": false,
          "internalType": "address",
          "name": "deployer",
          "type": "address"
        },
        {
          "indexed": false,
          "internalType": "address",
          "name": "eglContract",
          "type": "address"
        },
        {
          "indexed": false,
          "internalType": "address",
          "name": "eglToken",
          "type": "address"
        },
        {
          "indexed": false,
          "internalType": "address",
          "name": "genesisContract",
          "type": "address"
        },
        {
          "indexed": false,
          "internalType": "address",
          "name": "balancerToken",
          "type": "address"
        },
        {
          "indexed": false,
          "internalType": "uint256",
          "name": "totalGenesisEth",
          "type": "uint256"
        },
        {
          "indexed": false,
          "internalType": "uint256",
          "name": "ethEglRatio",
          "type": "uint256"
        },
        {
          "indexed": false,
          "internalType": "uint256",
          "name": "ethBptRatio",
          "type": "uint256"
        },
        {
          "indexed": false,
          "internalType": "uint256",
          "name": "minLiquidityTokensLockup",
          "type": "uint256"
        },
        {
          "indexed": false,
          "internalType": "uint256",
          "name": "firstEpochStartDate",
          "type": "uint256"
        },
        {
          "indexed": false,
          "internalType": "uint256",
          "name": "votingPauseSeconds",
          "type": "uint256"
        },
        {
          "indexed": false,
          "internalType": "uint256",
          "name": "epochLength",
          "type": "uint256"
        },
        {
          "indexed": false,
          "internalType": "uint256",
          "name": "date",
          "type": "uint256"
        }
      ],
      "name": "Initialized",
      "type": "event"
    },
    {
      "anonymous": false,
      "inputs": [
        {
          "indexed": true,
          "internalType": "address",
          "name": "previousOwner",
          "type": "address"
        },
        {
          "indexed": true,
          "internalType": "address",
          "name": "newOwner",
          "type": "address"
        }
      ],
      "name": "OwnershipTransferred",
      "type": "event"
    },
    {
      "anonymous": false,
      "inputs": [
        {
          "indexed": false,
          "internalType": "address",
          "name": "account",
          "type": "address"
        }
      ],
      "name": "Paused",
      "type": "event"
    },
    {
      "anonymous": false,
      "inputs": [
        {
          "indexed": false,
          "internalType": "uint256",
          "name": "percentage",
          "type": "uint256"
        }
      ],
      "name": "PercentageCalculated",
      "type": "event"
    },
    {
      "anonymous": false,
      "inputs": [
        {
          "indexed": false,
          "internalType": "address",
          "name": "caller",
          "type": "address"
        },
        {
          "indexed": false,
          "internalType": "address",
          "name": "coinbaseAddress",
          "type": "address"
        },
        {
          "indexed": false,
          "internalType": "uint256",
          "name": "blockNumber",
          "type": "uint256"
        },
        {
          "indexed": false,
          "internalType": "int256",
          "name": "blockGasLimit",
          "type": "int256"
        },
        {
          "indexed": false,
          "internalType": "uint256",
          "name": "blockReward",
          "type": "uint256"
        },
        {
          "indexed": false,
          "internalType": "uint256",
          "name": "date",
          "type": "uint256"
        }
      ],
      "name": "PoolRewardsSwept",
      "type": "event"
    },
    {
      "anonymous": false,
      "inputs": [
        {
          "indexed": false,
          "internalType": "uint256",
          "name": "poolTokensDue",
          "type": "uint256"
        }
      ],
      "name": "PoolTokensDueCalculated",
      "type": "event"
    },
    {
      "anonymous": false,
      "inputs": [
        {
          "indexed": false,
          "internalType": "address",
          "name": "caller",
          "type": "address"
        },
        {
          "indexed": false,
          "internalType": "uint256",
          "name": "currentSerializedEgl",
          "type": "uint256"
        },
        {
          "indexed": false,
          "internalType": "uint256",
          "name": "poolTokensDue",
          "type": "uint256"
        },
        {
          "indexed": false,
          "internalType": "uint256",
          "name": "poolTokens",
          "type": "uint256"
        },
        {
          "indexed": false,
          "internalType": "uint256",
          "name": "firstEgl",
          "type": "uint256"
        },
        {
          "indexed": false,
          "internalType": "uint256",
          "name": "lastEgl",
          "type": "uint256"
        },
        {
          "indexed": false,
          "internalType": "uint256",
          "name": "eglReleaseDate",
          "type": "uint256"
        },
        {
          "indexed": false,
          "internalType": "uint256",
          "name": "date",
          "type": "uint256"
        }
      ],
      "name": "PoolTokensWithdrawn",
      "type": "event"
    },
    {
      "anonymous": false,
      "inputs": [
        {
          "indexed": false,
          "internalType": "address",
          "name": "caller",
          "type": "address"
        },
        {
          "indexed": false,
          "internalType": "uint256",
          "name": "gasTarget",
          "type": "uint256"
        },
        {
          "indexed": false,
          "internalType": "uint256",
          "name": "eglAmount",
          "type": "uint256"
        },
        {
          "indexed": false,
          "internalType": "uint256",
          "name": "date",
          "type": "uint256"
        }
      ],
      "name": "ReVote",
      "type": "event"
    },
    {
      "anonymous": false,
      "inputs": [
        {
          "indexed": false,
          "internalType": "address",
          "name": "seedAccount",
          "type": "address"
        },
        {
          "indexed": false,
          "internalType": "uint256",
          "name": "seedAmount",
          "type": "uint256"
        },
        {
          "indexed": false,
          "internalType": "uint256",
          "name": "remainingSeederBalance",
          "type": "uint256"
        },
        {
          "indexed": false,
          "internalType": "uint256",
          "name": "date",
          "type": "uint256"
        }
      ],
      "name": "SeedAccountAdded",
      "type": "event"
    },
    {
      "anonymous": false,
      "inputs": [
        {
          "indexed": false,
          "internalType": "address",
          "name": "seedAddress",
          "type": "address"
        },
        {
          "indexed": false,
          "internalType": "uint256",
          "name": "individualSeedAmount",
          "type": "uint256"
        },
        {
          "indexed": false,
          "internalType": "uint256",
          "name": "releaseDate",
          "type": "uint256"
        },
        {
          "indexed": false,
          "internalType": "uint256",
          "name": "date",
          "type": "uint256"
        }
      ],
      "name": "SeedAccountClaimed",
      "type": "event"
    },
    {
      "anonymous": false,
      "inputs": [
        {
          "indexed": false,
          "internalType": "uint256",
          "name": "serializedEgl",
          "type": "uint256"
        }
      ],
      "name": "SerializedEglCalculated",
      "type": "event"
    },
    {
      "anonymous": false,
      "inputs": [
        {
          "indexed": false,
          "internalType": "uint256",
          "name": "currentEpoch",
          "type": "uint256"
        },
        {
          "indexed": false,
          "internalType": "uint256",
          "name": "secondsSinceEglStart",
          "type": "uint256"
        },
        {
          "indexed": false,
          "internalType": "uint256",
          "name": "timePassedPercentage",
          "type": "uint256"
        },
        {
          "indexed": false,
          "internalType": "uint256",
          "name": "serializedEgl",
          "type": "uint256"
        },
        {
          "indexed": false,
          "internalType": "uint256",
          "name": "maxSupply",
          "type": "uint256"
        },
        {
          "indexed": false,
          "internalType": "uint256",
          "name": "date",
          "type": "uint256"
        }
      ],
      "name": "SerializedEglCalculated",
      "type": "event"
    },
    {
      "anonymous": false,
      "inputs": [
        {
          "indexed": false,
          "internalType": "address",
          "name": "caller",
          "type": "address"
        },
        {
          "indexed": false,
          "internalType": "uint256",
          "name": "amountContributed",
          "type": "uint256"
        },
        {
          "indexed": false,
          "internalType": "uint256",
          "name": "gasTarget",
          "type": "uint256"
        },
        {
          "indexed": false,
          "internalType": "uint256",
          "name": "lockDuration",
          "type": "uint256"
        },
        {
          "indexed": false,
          "internalType": "uint256",
          "name": "ethEglRatio",
          "type": "uint256"
        },
        {
          "indexed": false,
          "internalType": "uint256",
          "name": "ethBptRatio",
          "type": "uint256"
        },
        {
          "indexed": false,
          "internalType": "uint256",
          "name": "bonusEglsReceived",
          "type": "uint256"
        },
        {
          "indexed": false,
          "internalType": "uint256",
          "name": "poolTokensReceived",
          "type": "uint256"
        },
        {
          "indexed": false,
          "internalType": "uint256",
          "name": "remainingSupporterBalance",
          "type": "uint256"
        },
        {
          "indexed": false,
          "internalType": "uint256",
          "name": "remainingBptBalance",
          "type": "uint256"
        },
        {
          "indexed": false,
          "internalType": "uint256",
          "name": "date",
          "type": "uint256"
        }
      ],
      "name": "SupporterTokensClaimed",
      "type": "event"
    },
    {
      "anonymous": false,
      "inputs": [
        {
          "indexed": false,
          "internalType": "address",
          "name": "account",
          "type": "address"
        }
      ],
      "name": "Unpaused",
      "type": "event"
    },
    {
      "anonymous": false,
      "inputs": [
        {
          "indexed": false,
          "internalType": "address",
          "name": "caller",
          "type": "address"
        },
        {
          "indexed": false,
          "internalType": "uint16",
          "name": "currentEpoch",
          "type": "uint16"
        },
        {
          "indexed": false,
          "internalType": "uint256",
          "name": "gasTarget",
          "type": "uint256"
        },
        {
          "indexed": false,
          "internalType": "uint256",
          "name": "eglAmount",
          "type": "uint256"
        },
        {
          "indexed": false,
          "internalType": "uint8",
          "name": "lockupDuration",
          "type": "uint8"
        },
        {
          "indexed": false,
          "internalType": "uint256",
          "name": "releaseDate",
          "type": "uint256"
        },
        {
          "indexed": false,
          "internalType": "uint256",
          "name": "epochVoteWeightSum",
          "type": "uint256"
        },
        {
          "indexed": false,
          "internalType": "uint256",
          "name": "epochGasTargetSum",
          "type": "uint256"
        },
        {
          "indexed": false,
          "internalType": "uint256",
          "name": "epochVoterRewardSum",
          "type": "uint256"
        },
        {
          "indexed": false,
          "internalType": "uint256",
          "name": "epochTotalVotes",
          "type": "uint256"
        },
        {
          "indexed": false,
          "internalType": "uint256",
          "name": "date",
          "type": "uint256"
        }
      ],
      "name": "Vote",
      "type": "event"
    },
    {
      "anonymous": false,
      "inputs": [
        {
          "indexed": false,
          "internalType": "address",
          "name": "caller",
          "type": "address"
        },
        {
          "indexed": false,
          "internalType": "uint16",
          "name": "currentEpoch",
          "type": "uint16"
        },
        {
          "indexed": false,
          "internalType": "int256",
          "name": "desiredEgl",
          "type": "int256"
        },
        {
          "indexed": false,
          "internalType": "uint256",
          "name": "voteThreshold",
          "type": "uint256"
        },
        {
          "indexed": false,
          "internalType": "uint256",
          "name": "actualVotePercentage",
          "type": "uint256"
        },
        {
          "indexed": false,
          "internalType": "int256",
          "name": "baselineEgl",
          "type": "int256"
        },
        {
          "indexed": false,
          "internalType": "int256",
          "name": "initialEgl",
          "type": "int256"
        },
        {
          "indexed": false,
          "internalType": "uint256",
          "name": "timeSinceFirstEpoch",
          "type": "uint256"
        },
        {
          "indexed": false,
          "internalType": "uint256",
          "name": "gracePeriodSeconds",
          "type": "uint256"
        },
        {
          "indexed": false,
          "internalType": "uint256",
          "name": "date",
          "type": "uint256"
        }
      ],
      "name": "VoteThresholdFailed",
      "type": "event"
    },
    {
      "anonymous": false,
      "inputs": [
        {
          "indexed": false,
          "internalType": "address",
          "name": "caller",
          "type": "address"
        },
        {
          "indexed": false,
          "internalType": "uint16",
          "name": "currentEpoch",
          "type": "uint16"
        },
        {
          "indexed": false,
          "internalType": "int256",
          "name": "desiredEgl",
          "type": "int256"
        },
        {
          "indexed": false,
          "internalType": "uint256",
          "name": "voteThreshold",
          "type": "uint256"
        },
        {
          "indexed": false,
          "internalType": "uint256",
          "name": "actualVotePercentage",
          "type": "uint256"
        },
        {
          "indexed": false,
          "internalType": "int256",
          "name": "gasLimitSum",
          "type": "int256"
        },
        {
          "indexed": false,
          "internalType": "int256",
          "name": "voteCount",
          "type": "int256"
        },
        {
          "indexed": false,
          "internalType": "int256",
          "name": "baselineEgl",
          "type": "int256"
        },
        {
          "indexed": false,
          "internalType": "uint256",
          "name": "date",
          "type": "uint256"
        }
      ],
      "name": "VoteThresholdMet",
      "type": "event"
    },
    {
      "anonymous": false,
      "inputs": [
        {
          "indexed": false,
          "internalType": "address",
          "name": "voter",
          "type": "address"
        },
        {
          "indexed": false,
          "internalType": "uint16",
          "name": "currentEpoch",
          "type": "uint16"
        },
        {
          "indexed": false,
          "internalType": "uint256",
          "name": "voterReward",
          "type": "uint256"
        },
        {
          "indexed": false,
          "internalType": "uint256",
          "name": "epochVoterReward",
          "type": "uint256"
        },
        {
          "indexed": false,
          "internalType": "uint256",
          "name": "voteWeight",
          "type": "uint256"
        },
        {
          "indexed": false,
          "internalType": "uint256",
          "name": "rewardMultiplier",
          "type": "uint256"
        },
        {
          "indexed": false,
          "internalType": "uint256",
          "name": "weeksDiv",
          "type": "uint256"
        },
        {
          "indexed": false,
          "internalType": "uint256",
          "name": "epochVoterRewardSum",
          "type": "uint256"
        },
        {
          "indexed": false,
          "internalType": "uint256",
          "name": "remainingVoterRewards",
          "type": "uint256"
        },
        {
          "indexed": false,
          "internalType": "uint256",
          "name": "date",
          "type": "uint256"
        }
      ],
      "name": "VoterRewardCalculated",
      "type": "event"
    },
    {
      "anonymous": false,
      "inputs": [
        {
          "indexed": false,
          "internalType": "address",
          "name": "caller",
          "type": "address"
        },
        {
          "indexed": false,
          "internalType": "uint16",
          "name": "currentEpoch",
          "type": "uint16"
        },
        {
          "indexed": false,
          "internalType": "int256",
          "name": "desiredEgl",
          "type": "int256"
        },
        {
          "indexed": false,
          "internalType": "int256",
          "name": "averageGasTarget",
          "type": "int256"
        },
        {
          "indexed": false,
          "internalType": "uint256",
          "name": "votingThreshold",
          "type": "uint256"
        },
        {
          "indexed": false,
          "internalType": "uint256",
          "name": "actualVotePercentage",
          "type": "uint256"
        },
        {
          "indexed": false,
          "internalType": "int256",
          "name": "baselineEgl",
          "type": "int256"
        },
        {
          "indexed": false,
          "internalType": "uint256",
          "name": "tokensInCirculation",
          "type": "uint256"
        },
        {
          "indexed": false,
          "internalType": "uint256",
          "name": "date",
          "type": "uint256"
        }
      ],
      "name": "VotesTallied",
      "type": "event"
    },
    {
      "anonymous": false,
      "inputs": [
        {
          "indexed": false,
          "internalType": "address",
          "name": "caller",
          "type": "address"
        },
        {
          "indexed": false,
          "internalType": "uint16",
          "name": "currentEpoch",
          "type": "uint16"
        },
        {
          "indexed": false,
          "internalType": "uint256",
          "name": "tokensLocked",
          "type": "uint256"
        },
        {
          "indexed": false,
          "internalType": "uint256",
          "name": "rewardTokens",
          "type": "uint256"
        },
        {
          "indexed": false,
          "internalType": "uint256",
          "name": "gasTarget",
          "type": "uint256"
        },
        {
          "indexed": false,
          "internalType": "uint256",
          "name": "epochVoterRewardSum",
          "type": "uint256"
        },
        {
          "indexed": false,
          "internalType": "uint256",
          "name": "epochTotalVotes",
          "type": "uint256"
        },
        {
          "indexed": false,
          "internalType": "uint256",
          "name": "epochVoteWeightSum",
          "type": "uint256"
        },
        {
          "indexed": false,
          "internalType": "uint256",
          "name": "epochGasTargetSum",
          "type": "uint256"
        },
        {
          "indexed": false,
          "internalType": "uint256",
          "name": "date",
          "type": "uint256"
        }
      ],
      "name": "Withdraw",
      "type": "event"
    },
    {
      "inputs": [
        {
          "internalType": "address",
          "name": "_seedAccount",
          "type": "address"
        },
        {
          "internalType": "uint256",
          "name": "_seedAmount",
          "type": "uint256"
        }
      ],
      "name": "addSeedAccount",
      "outputs": [],
      "stateMutability": "nonpayable",
      "type": "function"
    },
    {
      "inputs": [],
      "name": "baselineEgl",
      "outputs": [
        {
          "internalType": "int256",
          "name": "",
          "type": "int256"
        }
      ],
      "stateMutability": "view",
      "type": "function"
    },
    {
      "inputs": [
        {
          "internalType": "uint256",
          "name": "_gasTarget",
          "type": "uint256"
        },
        {
          "internalType": "uint8",
          "name": "_lockupDuration",
          "type": "uint8"
        }
      ],
      "name": "claimSeederEgls",
      "outputs": [],
      "stateMutability": "nonpayable",
      "type": "function"
    },
    {
      "inputs": [
        {
          "internalType": "uint256",
          "name": "_gasTarget",
          "type": "uint256"
        },
        {
          "internalType": "uint8",
          "name": "_lockupDuration",
          "type": "uint8"
        }
      ],
      "name": "claimSupporterEgls",
      "outputs": [],
      "stateMutability": "nonpayable",
      "type": "function"
    },
    {
      "inputs": [],
      "name": "creatorEglsTotal",
      "outputs": [
        {
          "internalType": "uint256",
          "name": "",
          "type": "uint256"
        }
      ],
      "stateMutability": "view",
      "type": "function"
    },
    {
      "inputs": [],
      "name": "currentEpoch",
      "outputs": [
        {
          "internalType": "uint16",
          "name": "",
          "type": "uint16"
        }
      ],
      "stateMutability": "view",
      "type": "function"
    },
    {
      "inputs": [],
      "name": "currentEpochStartDate",
      "outputs": [
        {
          "internalType": "uint256",
          "name": "",
          "type": "uint256"
        }
      ],
      "stateMutability": "view",
      "type": "function"
    },
    {
      "inputs": [],
      "name": "desiredEgl",
      "outputs": [
        {
          "internalType": "int256",
          "name": "",
          "type": "int256"
        }
      ],
      "stateMutability": "view",
      "type": "function"
    },
    {
      "inputs": [
        {
          "internalType": "uint256",
          "name": "",
          "type": "uint256"
        }
      ],
      "name": "gasTargetSum",
      "outputs": [
        {
          "internalType": "uint256",
          "name": "",
          "type": "uint256"
        }
      ],
      "stateMutability": "view",
      "type": "function"
    },
    {
      "inputs": [],
      "name": "initialEgl",
      "outputs": [
        {
          "internalType": "int256",
          "name": "",
          "type": "int256"
        }
      ],
      "stateMutability": "view",
      "type": "function"
    },
    {
      "inputs": [
        {
          "internalType": "address",
          "name": "_token",
          "type": "address"
        },
        {
          "internalType": "address",
          "name": "_poolToken",
          "type": "address"
        },
        {
          "internalType": "address",
          "name": "_genesis",
          "type": "address"
        },
        {
          "internalType": "uint256",
          "name": "_currentEpochStartDate",
          "type": "uint256"
        },
        {
          "internalType": "uint24",
          "name": "_votingPauseSeconds",
          "type": "uint24"
        },
        {
          "internalType": "uint32",
          "name": "_epochLength",
          "type": "uint32"
        },
        {
          "internalType": "address[]",
          "name": "_seedAccounts",
          "type": "address[]"
        },
        {
          "internalType": "uint256[]",
          "name": "_seedAmounts",
          "type": "uint256[]"
        },
        {
          "internalType": "address",
          "name": "_creatorRewardsAccount",
          "type": "address"
        }
      ],
      "name": "initialize",
      "outputs": [],
      "stateMutability": "nonpayable",
      "type": "function"
    },
    {
      "inputs": [],
      "name": "liquidityEglMatchingTotal",
      "outputs": [
        {
          "internalType": "uint256",
          "name": "",
          "type": "uint256"
        }
      ],
      "stateMutability": "view",
      "type": "function"
    },
    {
      "inputs": [],
      "name": "owner",
      "outputs": [
        {
          "internalType": "address",
          "name": "",
          "type": "address"
        }
      ],
      "stateMutability": "view",
      "type": "function"
    },
    {
      "inputs": [],
      "name": "pauseEgl",
      "outputs": [],
      "stateMutability": "nonpayable",
      "type": "function"
    },
    {
      "inputs": [],
      "name": "paused",
      "outputs": [
        {
          "internalType": "bool",
          "name": "",
          "type": "bool"
        }
      ],
      "stateMutability": "view",
      "type": "function"
    },
    {
      "inputs": [
        {
          "internalType": "uint256",
          "name": "_gasTarget",
          "type": "uint256"
        },
        {
          "internalType": "uint256",
          "name": "_eglAmount",
          "type": "uint256"
        },
        {
          "internalType": "uint8",
          "name": "_lockupDuration",
          "type": "uint8"
        }
      ],
      "name": "reVote",
      "outputs": [],
      "stateMutability": "nonpayable",
      "type": "function"
    },
    {
      "inputs": [],
      "name": "renounceOwnership",
      "outputs": [],
      "stateMutability": "nonpayable",
      "type": "function"
    },
    {
      "inputs": [
        {
          "internalType": "address",
          "name": "",
          "type": "address"
        }
      ],
      "name": "seeders",
      "outputs": [
        {
          "internalType": "uint256",
          "name": "",
          "type": "uint256"
        }
      ],
      "stateMutability": "view",
      "type": "function"
    },
    {
      "inputs": [
        {
          "internalType": "address",
          "name": "",
          "type": "address"
        }
      ],
      "name": "supporters",
      "outputs": [
        {
          "internalType": "uint32",
          "name": "claimed",
          "type": "uint32"
        },
        {
          "internalType": "uint256",
          "name": "poolTokens",
          "type": "uint256"
        },
        {
          "internalType": "uint256",
          "name": "firstEgl",
          "type": "uint256"
        },
        {
          "internalType": "uint256",
          "name": "lastEgl",
          "type": "uint256"
        }
      ],
      "stateMutability": "view",
      "type": "function"
    },
    {
      "inputs": [],
      "name": "sweepPoolRewards",
      "outputs": [],
      "stateMutability": "nonpayable",
      "type": "function"
    },
    {
      "inputs": [],
      "name": "tallyVotes",
      "outputs": [],
      "stateMutability": "nonpayable",
      "type": "function"
    },
    {
      "inputs": [],
      "name": "tallyVotesGasLimit",
      "outputs": [
        {
          "internalType": "int256",
          "name": "",
          "type": "int256"
        }
      ],
      "stateMutability": "view",
      "type": "function"
    },
    {
      "inputs": [],
      "name": "tokensInCirculation",
      "outputs": [
        {
          "internalType": "uint256",
          "name": "",
          "type": "uint256"
        }
      ],
      "stateMutability": "view",
      "type": "function"
    },
    {
      "inputs": [
        {
          "internalType": "address",
          "name": "newOwner",
          "type": "address"
        }
      ],
      "name": "transferOwnership",
      "outputs": [],
      "stateMutability": "nonpayable",
      "type": "function"
    },
    {
      "inputs": [],
      "name": "unpauseEgl",
      "outputs": [],
      "stateMutability": "nonpayable",
      "type": "function"
    },
    {
      "inputs": [
        {
          "internalType": "uint256",
          "name": "_gasTarget",
          "type": "uint256"
        },
        {
          "internalType": "uint256",
          "name": "_eglAmount",
          "type": "uint256"
        },
        {
          "internalType": "uint8",
          "name": "_lockupDuration",
          "type": "uint8"
        }
      ],
      "name": "vote",
      "outputs": [],
      "stateMutability": "nonpayable",
      "type": "function"
    },
    {
      "inputs": [
        {
          "internalType": "uint256",
          "name": "",
          "type": "uint256"
        }
      ],
      "name": "voteWeightsSum",
      "outputs": [
        {
          "internalType": "uint256",
          "name": "",
          "type": "uint256"
        }
      ],
      "stateMutability": "view",
      "type": "function"
    },
    {
      "inputs": [
        {
          "internalType": "uint256",
          "name": "",
          "type": "uint256"
        }
      ],
      "name": "voterRewardSums",
      "outputs": [
        {
          "internalType": "uint256",
          "name": "",
          "type": "uint256"
        }
      ],
      "stateMutability": "view",
      "type": "function"
    },
    {
      "inputs": [
        {
          "internalType": "address",
          "name": "",
          "type": "address"
        }
      ],
      "name": "voters",
      "outputs": [
        {
          "internalType": "uint8",
          "name": "lockupDuration",
          "type": "uint8"
        },
        {
          "internalType": "uint16",
          "name": "voteEpoch",
          "type": "uint16"
        },
        {
          "internalType": "uint256",
          "name": "releaseDate",
          "type": "uint256"
        },
        {
          "internalType": "uint256",
          "name": "tokensLocked",
          "type": "uint256"
        },
        {
          "internalType": "uint256",
          "name": "gasTarget",
          "type": "uint256"
        }
      ],
      "stateMutability": "view",
      "type": "function"
    },
    {
      "inputs": [
        {
          "internalType": "uint256",
          "name": "",
          "type": "uint256"
        }
      ],
      "name": "votesTotal",
      "outputs": [
        {
          "internalType": "uint256",
          "name": "",
          "type": "uint256"
        }
      ],
      "stateMutability": "view",
      "type": "function"
    },
    {
      "inputs": [],
      "name": "withdraw",
      "outputs": [],
      "stateMutability": "nonpayable",
      "type": "function"
    },
    {
      "inputs": [],
      "name": "withdrawPoolTokens",
      "outputs": [],
      "stateMutability": "nonpayable",
      "type": "function"
    },
    {
      "stateMutability": "payable",
      "type": "receive"
    },
    {
      "inputs": [
        {
          "internalType": "address",
          "name": "_voter",
          "type": "address"
        },
        {
          "internalType": "uint256",
          "name": "_gasTarget",
          "type": "uint256"
        },
        {
          "internalType": "uint256",
          "name": "_eglAmount",
          "type": "uint256"
        },
        {
          "internalType": "uint8",
          "name": "_lockupDuration",
          "type": "uint8"
        },
        {
          "internalType": "uint256",
          "name": "_releaseTime",
          "type": "uint256"
        }
      ],
      "name": "internalVote",
      "outputs": [],
      "stateMutability": "nonpayable",
      "type": "function"
    },
    {
      "inputs": [
        {
          "internalType": "address",
          "name": "_voter",
          "type": "address"
        }
      ],
      "name": "internalWithdraw",
      "outputs": [],
      "stateMutability": "nonpayable",
      "type": "function"
    },
    {
      "inputs": [
        {
          "internalType": "uint256",
          "name": "_timePassedSinceOrigin",
          "type": "uint256"
        }
      ],
      "name": "issueCreatorRewards",
      "outputs": [],
      "stateMutability": "nonpayable",
      "type": "function"
    },
    {
      "inputs": [
        {
          "internalType": "int256",
          "name": "_blockGasLimit",
          "type": "int256"
        },
        {
          "internalType": "int256",
          "name": "_desiredEgl",
          "type": "int256"
        },
        {
          "internalType": "int256",
          "name": "_tallyVoteGasLimit",
          "type": "int256"
        }
      ],
      "name": "calculateBlockReward",
      "outputs": [],
      "stateMutability": "nonpayable",
      "type": "function"
    },
    {
      "inputs": [
        {
          "internalType": "uint256",
          "name": "_timePassedSinceOrigin",
          "type": "uint256"
        },
        {
          "internalType": "uint256",
          "name": "_maxSupply",
          "type": "uint256"
        },
        {
          "internalType": "uint256",
          "name": "_timeLocked",
          "type": "uint256"
        }
      ],
      "name": "calculateSerializedEgl",
      "outputs": [],
      "stateMutability": "nonpayable",
      "type": "function"
    },
    {
      "inputs": [
        {
          "internalType": "uint256",
          "name": "_currentEgl",
          "type": "uint256"
        },
        {
          "internalType": "uint256",
          "name": "_firstEgl",
          "type": "uint256"
        },
        {
          "internalType": "uint256",
          "name": "_lastEgl",
          "type": "uint256"
        },
        {
          "internalType": "uint256",
          "name": "_totalPoolTokens",
          "type": "uint256"
        }
      ],
      "name": "calculateCurrentPoolTokensDue",
      "outputs": [],
      "stateMutability": "nonpayable",
      "type": "function"
    },
    {
      "inputs": [
        {
          "internalType": "uint256",
          "name": "_firstEgl",
          "type": "uint256"
        },
        {
          "internalType": "uint256",
          "name": "_lastEgl",
          "type": "uint256"
        }
      ],
      "name": "calculateBonusEglsDue",
      "outputs": [],
      "stateMutability": "nonpayable",
      "type": "function"
    },
    {
      "inputs": [
        {
          "internalType": "address",
          "name": "_voter",
          "type": "address"
        },
        {
          "internalType": "uint16",
          "name": "_currentEpoch",
          "type": "uint16"
        },
        {
          "internalType": "uint16",
          "name": "_voterEpoch",
          "type": "uint16"
        },
        {
          "internalType": "uint8",
          "name": "_lockupDuration",
          "type": "uint8"
        },
        {
          "internalType": "uint256",
          "name": "_voteWeight",
          "type": "uint256"
        }
      ],
      "name": "calculateVoterReward",
      "outputs": [],
      "stateMutability": "nonpayable",
      "type": "function"
    },
    {
      "inputs": [
        {
          "internalType": "uint256",
          "name": "_itemTotal",
          "type": "uint256"
        },
        {
          "internalType": "uint256",
          "name": "_tokensInCirculation",
          "type": "uint256"
        }
      ],
      "name": "calculatePercentageOfTokensInCirculation",
      "outputs": [],
      "stateMutability": "nonpayable",
      "type": "function"
    }
  ],
  "bytecode": "0x608060405234801561001057600080fd5b5061584880620000216000396000f3fe6080604052600436106102ca5760003560e01c806378d3e9f311610179578063a75cc400116100d6578063cf89489e1161008a578063f2fde38b11610064578063f2fde38b14610b05578063f5a0d6c014610b38578063fe9c1a2e14610b4d5761031c565b8063cf89489e14610a9f578063d700672214610adb578063eabfa9e514610af05761031c565b8063bbb2eab9116100bb578063bbb2eab9146108bd578063c71fb96c146108f6578063ceaf749e14610a755761031c565b8063a75cc40014610860578063b4f34de61461088a5761031c565b806390c023f11161012d5780639759634a116101125780639759634a146107bc578063a20cf2c4146107e6578063a3ec138d146107fb5761031c565b806390c023f11461077157806393818fc6146107865761031c565b806384000e9c1161015e57806384000e9c146106d75780638b04f79c1461070d5780638da5cb5b146107405761031c565b806378d3e9f31461065657806379a1745f146106895761031c565b8063575ede3a1161022757806367699457116101db578063715018a6116101c0578063715018a6146105eb57806373f8664714610600578063766718081461062a5761031c565b806367699457146105ac5780637010969b146105c15761031c565b80635c3728ad1161020c5780635c3728ad146104f35780635c975abb14610523578063647c75e21461054c5761031c565b8063575ede3a146104a55780635b873d33146104de5761031c565b8063378a21781161027e5780634a0eeb5f116102635780634a0eeb5f1461042757806352ce41b41461045757806355b1d8f01461046c5761031c565b8063378a2178146103fd5780633ccfd60b146104125761031c565b806327aaa7b6116102af57806327aaa7b61461035f57806335fc9b8f146103745780633716c17f146103ca5761031c565b80631018824314610321578063112bbd1d146103485761031c565b3661031c576040805162461bcd60e51b815260206004820152600f60248201527f45474c3a4e4f5f5041594d454e54530000000000000000000000000000000000604482015290519081900360640190fd5b600080fd5b34801561032d57600080fd5b50610336610b62565b60408051918252519081900360200190f35b34801561035457600080fd5b5061035d610b68565b005b34801561036b57600080fd5b50610336610e13565b34801561038057600080fd5b5061035d600480360360a081101561039757600080fd5b506001600160a01b038135169061ffff602082013581169160408101359091169060ff6060820135169060800135610e19565b3480156103d657600080fd5b50610336600480360360208110156103ed57600080fd5b50356001600160a01b0316610e2e565b34801561040957600080fd5b5061035d610e41565b34801561041e57600080fd5b5061035d6114ae565b34801561043357600080fd5b5061035d6004803603604081101561044a57600080fd5b50803590602001356116a6565b34801561046357600080fd5b506103366116f2565b34801561047857600080fd5b5061035d6004803603606081101561048f57600080fd5b508035906020810135906040013560ff166116f8565b3480156104b157600080fd5b5061035d600480360360408110156104c857600080fd5b506001600160a01b038135169060200135611b8f565b3480156104ea57600080fd5b5061035d611fce565b3480156104ff57600080fd5b5061035d6004803603604081101561051657600080fd5b5080359060200135612099565b34801561052f57600080fd5b506105386120e1565b604080519115158252519081900360200190f35b34801561055857600080fd5b5061057f6004803603602081101561056f57600080fd5b50356001600160a01b03166120ea565b6040805163ffffffff90951685526020850193909352838301919091526060830152519081900360800190f35b3480156105b857600080fd5b50610336612119565b3480156105cd57600080fd5b50610336600480360360208110156105e457600080fd5b503561211f565b3480156105f757600080fd5b5061035d612134565b34801561060c57600080fd5b506103366004803603602081101561062357600080fd5b50356121eb565b34801561063657600080fd5b5061063f6121f8565b6040805161ffff9092168252519081900360200190f35b34801561066257600080fd5b5061035d6004803603602081101561067957600080fd5b50356001600160a01b0316612202565b34801561069557600080fd5b5061035d600480360360a08110156106ac57600080fd5b506001600160a01b038135169060208101359060408101359060ff606082013516906080013561220f565b3480156106e357600080fd5b5061035d600480360360608110156106fa57600080fd5b5080359060208101359060400135612223565b34801561071957600080fd5b5061035d6004803603604081101561073057600080fd5b508035906020013560ff1661226d565b34801561074c57600080fd5b5061075561240a565b604080516001600160a01b039092168252519081900360200190f35b34801561077d57600080fd5b50610336612419565b34801561079257600080fd5b5061035d600480360360608110156107a957600080fd5b508035906020810135906040013561241f565b3480156107c857600080fd5b5061035d600480360360208110156107df57600080fd5b503561242a565b3480156107f257600080fd5b5061035d612433565b34801561080757600080fd5b5061082e6004803603602081101561081e57600080fd5b50356001600160a01b03166124f0565b6040805160ff909616865261ffff90941660208601528484019290925260608401526080830152519081900360a00190f35b34801561086c57600080fd5b506103366004803603602081101561088357600080fd5b5035612525565b34801561089657600080fd5b5061035d600480360360408110156108ad57600080fd5b508035906020013560ff16612533565b3480156108c957600080fd5b5061035d600480360360608110156108e057600080fd5b508035906020810135906040013560ff16612b40565b34801561090257600080fd5b5061035d600480360361012081101561091a57600080fd5b6001600160a01b038235811692602081013582169260408201359092169160608201359162ffffff6080820135169163ffffffff60a083013516919081019060e0810160c082013564010000000081111561097457600080fd5b82018360208201111561098657600080fd5b803590602001918460208302840111640100000000831117156109a857600080fd5b91908080602002602001604051908101604052809392919081815260200183836020028082843760009201919091525092959493602081019350359150506401000000008111156109f857600080fd5b820183602082011115610a0a57600080fd5b80359060200191846020830284011164010000000083111715610a2c57600080fd5b919080806020026020016040519081016040528093929190818152602001838360200280828437600092019190915250929550505090356001600160a01b03169150612f049050565b348015610a8157600080fd5b5061033660048036036020811015610a9857600080fd5b5035613609565b348015610aab57600080fd5b5061035d60048036036080811015610ac257600080fd5b5080359060208101359060408101359060600135613617565b348015610ae757600080fd5b5061035d613663565b348015610afc57600080fd5b50610336613b0a565b348015610b1157600080fd5b5061035d60048036036020811015610b2857600080fd5b50356001600160a01b0316613b10565b348015610b4457600080fd5b50610336613c28565b348015610b5957600080fd5b50610336613c2e565b60cc5481565b60655460ff1615610bb3576040805162461bcd60e51b815260206004820152601060248201526f14185d5cd8589b194e881c185d5cd95960821b604482015290519081900360640190fd5b61012a544311610c0a576040805162461bcd60e51b815260206004820152601160248201527f45474c3a414c52454144595f5357455054000000000000000000000000000000604482015290519081900360640190fd5b4361012a5560c95460cc544591600091610c25918491613c34565b90508015610db85761012d54610c41908263ffffffff613e1716565b61012d5560d154610c58908263ffffffff613e6216565b60d15561012154604080516370a0823160e01b815230600482015290516000926001600160a01b03169163a9059cbb914191610ce79185916370a08231916024808301926020929190829003018186803b158015610cb557600080fd5b505afa158015610cc9573d6000803e3d6000fd5b505050506040513d6020811015610cdf57600080fd5b505186613ebc565b6040518363ffffffff1660e01b815260040180836001600160a01b03166001600160a01b0316815260200182815260200192505050602060405180830381600087803b158015610d3657600080fd5b505af1158015610d4a573d6000803e3d6000fd5b505050506040513d6020811015610d6057600080fd5b5051905080610db6576040805162461bcd60e51b815260206004820152601960248201527f45474c3a544f4b454e5f5452414e534645525f4641494c454400000000000000604482015290519081900360640190fd5b505b61012a54604080513381524160208201528082019290925260608201849052608082018390524260a0830152517f0f6068cc0327366c9f8c4d052cf3e449a720815635c94fd32f6cf7b6af710e479181900360c00190a15050565b60ca5481565b610e268585858585613ed2565b505050505050565b6101206020526000908152604090205481565b60655460ff1615610e8c576040805162461bcd60e51b815260206004820152601060248201526f14185d5cd8589b194e881c185d5cd95960821b604482015290519081900360640190fd5b6101285460d054610ead9163ffffffff6301000000909104811690613e6216565b4211610f00576040805162461bcd60e51b815260206004820152601260248201527f45474c3a564f54455f4e4f545f454e4445440000000000000000000000000000604482015290519081900360640190fd5b4560cc556101395460cf5460009161ffff90811691161115610f3a57610f35670de0b6b3a7640000601e63ffffffff6140d716565b610f53565b610f53670de0b6b3a7640000600a63ffffffff6140d716565b60cf54909150603461ffff90911610611002576000610fe9610fdc610f96610f836034600163ffffffff613e1716565b60cf5461ffff169063ffffffff613e1716565b610fd0610fab6034600263ffffffff6140d716565b610fc4670de0b6b3a7640000601463ffffffff6140d716565b9063ffffffff61413016565b9063ffffffff6140d716565b839063ffffffff613e6216565b9050610ffe816802b5e3af16b1880000613ebc565b9150505b61010e54600090611014576000611025565b61010e546101165461102591614130565b90506000611037610106820154614172565b90508281106111cd5760cc54610125546110569163ffffffff6141a816565b610125556101265461106f90600163ffffffff6141a816565b610126819055610125546110889163ffffffff61420d16565b60ca81905582126110d2576110cd6110be610127546110b260ca54866142c590919063ffffffff16565b9063ffffffff61432a16565b60ca549063ffffffff6141a816565b611100565b6111006110f1610127546110b28560ca546142c590919063ffffffff16565b60ca549063ffffffff6142c516565b60c95560cc546111189061271063ffffffff6142c516565b60c9541215801561113f575060cc546111399061271063ffffffff6141a816565b60c95413155b1561114b5760cc5460c9555b60cf5460c954610125546101265460ca546040805133815261ffff909616602087015285810194909452606085018890526080850186905260a085019290925260c084015260e083015242610100830152517f7f9ed4e6a05937b6f9fcaa91c2fe6f6ba0b0a7dc309b7e15367d08b8b5c044f5918190036101200190a161130a565b61013954610128546111f591630100000090910463ffffffff9081169161ffff16906140d716565b6101295461120a90429063ffffffff613e1716565b1061123a57611236606461122a605f60cc5461433990919063ffffffff16565b9063ffffffff61420d16565b60c9555b7fd4c520fe18c4d747998b5ff21f876ecb67cc070b489476dfe74fa89675684bb03360cf60009054906101000a900461ffff1660c954868560ca5460cb5461128e6101295442613e1790919063ffffffff16565b610128546112af9063ffffffff63010000009091048116906006906140d716565b604080516001600160a01b03909a168a5261ffff90981660208a0152888801969096526060880194909452608087019290925260a086015260c085015260e08401526101008301524261012083015251908190036101400190a15b60005b60078160ff16101561139c5761010e8160010160ff166008811061132d57fe5b015461010e8260ff166008811061134057fe5b015561011660ff60018301166008811061135657fe5b01546101168260ff166008811061136957fe5b015561010660ff60018301166008811061137f57fe5b01546101068260ff166008811061139257fe5b015560010161130d565b50600061011581905561011d81905561010d8190556101258190556101265561012c5460cf5461ffff16108015906113d75750600061012e54115b156113ec5760cf546113ec9061ffff166143e2565b60cf805461ffff8082166001011661ffff199091161790556101285460d0546114259163ffffffff6301000000909104811690613e6216565b60d05560cf5460c95460ca5460d1546040805133815260001961ffff96871601909516602086015284810193909352606084018690526080840187905260a0840185905260c084019190915260e083015242610100830152517fa71bedc4f3aa50ccced26d41681c0b9a0a257cff099beda501702ef03d0f5fb8918190036101200190a1505050565b60655460ff16156114f9576040805162461bcd60e51b815260206004820152601060248201526f14185d5cd8589b194e881c185d5cd95960821b604482015290519081900360640190fd5b33600090815261011e602052604090206002015461154e576040805162461bcd60e51b815260206004820152600d60248201526c1151d30e9393d517d593d51151609a1b604482015290519081900360640190fd5b33600090815261011e602052604090206001015442116115b5576040805162461bcd60e51b815260206004820152601460248201527f45474c3a4e4f545f52454c454153455f44415445000000000000000000000000604482015290519081900360640190fd5b610121546000906001600160a01b031663a9059cbb336115d481614608565b6040518363ffffffff1660e01b815260040180836001600160a01b03166001600160a01b0316815260200182815260200192505050602060405180830381600087803b15801561162357600080fd5b505af1158015611637573d6000803e3d6000fd5b505050506040513d602081101561164d57600080fd5b50519050806116a3576040805162461bcd60e51b815260206004820152601960248201527f45474c3a544f4b454e5f5452414e534645525f4641494c454400000000000000604482015290519081900360640190fd5b50565b60d181905560006116b683614172565b6040805182815290519192507f7e7e5f44ddc2776c4ccd52d44b8a7a4f55503c4ae54907bb06a31c38efe71ff8919081900360200190a1505050565b60ce5481565b60655460ff1615611743576040805162461bcd60e51b815260206004820152601060248201526f14185d5cd8589b194e881c185d5cd95960821b604482015290519081900360640190fd5b6002609754141561179b576040805162461bcd60e51b815260206004820152601f60248201527f5265656e7472616e637947756172643a207265656e7472616e742063616c6c00604482015290519081900360640190fd5b6002609781905533600090815261011e6020526040902001546117f5576040805162461bcd60e51b815260206004820152600d60248201526c1151d30e9393d517d593d51151609a1b604482015290519081900360640190fd5b8115611ad057670de0b6b3a7640000821015611858576040805162461bcd60e51b815260206004820152601060248201527f45474c3a414d4e545f544f4f5f4c4f5700000000000000000000000000000000604482015290519081900360640190fd5b61012154604080516370a0823160e01b815233600482015290516001600160a01b03909216916370a0823191602480820192602092909190829003018186803b1580156118a457600080fd5b505afa1580156118b8573d6000803e3d6000fd5b505050506040513d60208110156118ce57600080fd5b5051821115611924576040805162461bcd60e51b815260206004820152601c60248201527f45474c3a494e53554646494349454e545f45474c5f42414c414e434500000000604482015290519081900360640190fd5b6101215460408051636eb1769f60e11b8152336004820152306024820152905184926001600160a01b03169163dd62ed3e916044808301926020929190829003018186803b15801561197557600080fd5b505afa158015611989573d6000803e3d6000fd5b505050506040513d602081101561199f57600080fd5b505110156119f4576040805162461bcd60e51b815260206004820152601a60248201527f45474c3a494e53554646494349454e545f414c4c4f57414e4345000000000000604482015290519081900360640190fd5b61012154604080516323b872dd60e01b81523360048201523060248201526044810185905290516000926001600160a01b0316916323b872dd91606480830192602092919082900301818787803b158015611a4e57600080fd5b505af1158015611a62573d6000803e3d6000fd5b505050506040513d6020811015611a7857600080fd5b5051905080611ace576040805162461bcd60e51b815260206004820152601960248201527f45474c3a544f4b454e5f5452414e534645525f4641494c454400000000000000604482015290519081900360640190fd5b505b6101285460d054611af19163ffffffff6301000000909104811690613e6216565b421115611b0057611b00610e41565b33600081815261011e602052604090206001015490611b2f90611b2290614608565b849063ffffffff613e6216565b9250611b3e3385858585614946565b604080513381526020810186905280820185905242606082015290517f7557e999fc50cf5217e7120750c6e75d826f9facea381db8a7cbe7a2350d061f9181900360800190a1505060016097555050565b611b97614f05565b6033546001600160a01b03908116911614611bf9576040805162461bcd60e51b815260206004820181905260248201527f4f776e61626c653a2063616c6c6572206973206e6f7420746865206f776e6572604482015290519081900360640190fd5b61013054811115611c51576040805162461bcd60e51b815260206004820152601d60248201527f45474c3a494e53554646494349454e545f534545445f42414c414e4345000000604482015290519081900360640190fd5b6001600160a01b0382166000908152610120602052604090205415611cbd576040805162461bcd60e51b815260206004820152601260248201527f45474c3a414c52454144595f5345454445520000000000000000000000000000604482015290519081900360640190fd5b6001600160a01b038216600090815261011e602052604090206002015415611d2c576040805162461bcd60e51b815260206004820152601460248201527f45474c3a414c52454144595f4841535f564f5445000000000000000000000000604482015290519081900360640190fd5b61012154604080516370a0823160e01b81526001600160a01b038581166004830152915191909216916370a08231916024808301926020929190829003018186803b158015611d7a57600080fd5b505afa158015611d8e573d6000803e3d6000fd5b505050506040513d6020811015611da457600080fd5b505115611df8576040805162461bcd60e51b815260206004820152601460248201527f45474c3a414c52454144595f4841535f45474c53000000000000000000000000604482015290519081900360640190fd5b61012b5461012954611e0f9163ffffffff613e6216565b4210611e62576040805162461bcd60e51b815260206004820152601660248201527f45474c3a534545445f504552494f445f50415353454400000000000000000000604482015290519081900360640190fd5b6101235460408051630fb6a4a160e11b81526001600160a01b03858116600483015291516000939290921691631f6d494291602480820192608092909190829003018186803b158015611eb457600080fd5b505afa158015611ec8573d6000803e3d6000fd5b505050506040513d6080811015611ede57600080fd5b505190508015611f35576040805162461bcd60e51b815260206004820152601260248201527f45474c3a49535f434f4e5452494255544f520000000000000000000000000000604482015290519081900360640190fd5b61013054611f49908363ffffffff613e1716565b6101305561012f54611f61908363ffffffff613e1716565b61012f556001600160a01b0383166000818152610120602090815260409182902085905561013054825193845290830185905282820152426060830152517f9b861f4745a65efa4f8e7442d37a07edf7decd32b164b4af64ab50370a7bd28d9181900360800190a1505050565b611fd6614f05565b6033546001600160a01b03908116911614612038576040805162461bcd60e51b815260206004820181905260248201527f4f776e61626c653a2063616c6c6572206973206e6f7420746865206f776e6572604482015290519081900360640190fd5b60655460ff1661208f576040805162461bcd60e51b815260206004820152601460248201527f5061757361626c653a206e6f7420706175736564000000000000000000000000604482015290519081900360640190fd5b612097614f09565b565b60006120a58383614fb0565b6040805182815290519192507fa15a35c9dd45af4fd008fbe269d5e5ed70b110228a45c2f074d793211f6cab13919081900360200190a1505050565b60655460ff1690565b61011f60205260009081526040902080546001820154600283015460039093015463ffffffff90921692909184565b60d05481565b61010e816008811061212d57fe5b0154905081565b61213c614f05565b6033546001600160a01b0390811691161461219e576040805162461bcd60e51b815260206004820181905260248201527f4f776e61626c653a2063616c6c6572206973206e6f7420746865206f776e6572604482015290519081900360640190fd5b6040805162461bcd60e51b815260206004820152601960248201527f45474c3a4e4f5f52454e4f554e43455f4f574e45525348495000000000000000604482015290519081900360640190fd5b60d2816034811061212d57fe5b60cf5461ffff1681565b61220b81614608565b5050565b61221c8585858585614946565b5050505050565b600061223084848461505f565b6040805182815290519192507f37073877a1e36a85046b3dbc7466845ed97b7faae7a45d81183357155c563dae919081900360200190a150505050565b60655460ff16156122b8576040805162461bcd60e51b815260206004820152601060248201526f14185d5cd8589b194e881c185d5cd95960821b604482015290519081900360640190fd5b336000908152610120602052604090205461231a576040805162461bcd60e51b815260206004820152600e60248201527f45474c3a4e4f545f534545444552000000000000000000000000000000000000604482015290519081900360640190fd5b6101285460d05461233b9163ffffffff6301000000909104811690613e6216565b42111561234a5761234a610e41565b33600090815261012060205260408120805491905560d154612372908263ffffffff613e6216565b60d155610128546000906123ad9061239d9063ffffffff63010000009091048116906034906140d716565b610129549063ffffffff613e6216565b604080513381526020810185905280820183905242606082015290519192507f5356d501c5681bc11ad4a79b7bdf2821e62fbf883e09cd63546edef197d10a12919081900360800190a16124043385848685614946565b50505050565b6033546001600160a01b031690565b60c95481565b612404838383613c34565b6116a3816143e2565b61243b614f05565b6033546001600160a01b0390811691161461249d576040805162461bcd60e51b815260206004820181905260248201527f4f776e61626c653a2063616c6c6572206973206e6f7420746865206f776e6572604482015290519081900360640190fd5b60655460ff16156124e8576040805162461bcd60e51b815260206004820152601060248201526f14185d5cd8589b194e881c185d5cd95960821b604482015290519081900360640190fd5b6120976151b0565b61011e60205260009081526040902080546001820154600283015460039093015460ff83169361010090930461ffff16929085565b610116816008811061212d57fe5b60655460ff161561257e576040805162461bcd60e51b815260206004820152601060248201526f14185d5cd8589b194e881c185d5cd95960821b604482015290519081900360640190fd5b600061013154116125d6576040805162461bcd60e51b815260206004820152601b60248201527f45474c3a535550504f525445525f45474c535f4445504c455445440000000000604482015290519081900360640190fd5b6000610132541161262e576040805162461bcd60e51b815260206004820152601860248201527f45474c3a4250545f42414c414e43455f4445504c455445440000000000000000604482015290519081900360640190fd5b61012360009054906101000a90046001600160a01b03166001600160a01b03166340b982536040518163ffffffff1660e01b815260040160206040518083038186803b15801561267d57600080fd5b505afa158015612691573d6000803e3d6000fd5b505050506040513d60208110156126a757600080fd5b505115801561272e575061012360009054906101000a90046001600160a01b03166001600160a01b031663b51459fe6040518163ffffffff1660e01b815260040160206040518083038186803b15801561270057600080fd5b505afa158015612714573d6000803e3d6000fd5b505050506040513d602081101561272a57600080fd5b5051155b61277f576040805162461bcd60e51b815260206004820152601260248201527f45474c3a47454e455349535f4c4f434b45440000000000000000000000000000604482015290519081900360640190fd5b33600090815261011f602052604090205463ffffffff16156127e8576040805162461bcd60e51b815260206004820152601360248201527f45474c3a414c52454144595f434c41494d454400000000000000000000000000604482015290519081900360640190fd5b6101235460408051630fb6a4a160e11b8152336004820152905160009283926001600160a01b0390911691631f6d494291602480820192608092909190829003018186803b15801561283957600080fd5b505afa15801561284d573d6000803e3d6000fd5b505050506040513d608081101561286357600080fd5b5080516020909101519092509050816128c3576040805162461bcd60e51b815260206004820152601360248201527f45474c3a4e4f545f434f4e545249425554454400000000000000000000000000604482015290519081900360640190fd5b6101285460d0546128e49163ffffffff6301000000909104811690613e6216565b4211156128f3576128f3610e41565b6000612917670de0b6b3a7640000610fc461013554866140d790919063ffffffff16565b90506000612941670de0b6b3a7640000610fc461013554610fd08888613e1790919063ffffffff16565b90506000612955828463ffffffff613e6216565b9050600061296f6129668484614fb0565b61013154613ebc565b905060006129a1612998670de0b6b3a7640000610fc4610136548b6140d790919063ffffffff16565b61013254613ebc565b610131549091506129b8908363ffffffff613e1716565b61013155610132546129d0908263ffffffff613e1716565b6101325560d1546129e7908363ffffffff613e6216565b60d181905550600061011f6000336001600160a01b03166001600160a01b03168152602001908152602001600020905060018160000160006101000a81548163ffffffff021916908363ffffffff1602179055508181600101819055508481600201819055508381600301819055507f549881d5c1efb822f02dcb03f7b2f19e5a1b9cd8676fee72c4669c205ac95a7533898c8c61013554610136548989610131546101325442604051808c6001600160a01b03166001600160a01b031681526020018b81526020018a81526020018960ff1681526020018881526020018781526020018681526020018581526020018481526020018381526020018281526020019b50505050505050505050505060405180910390a161012854612b349033908c9086908d90612b2f9061239d9063ffffffff63010000009091048116906034906140d716565b614946565b50505050505050505050565b60655460ff1615612b8b576040805162461bcd60e51b815260206004820152601060248201526f14185d5cd8589b194e881c185d5cd95960821b604482015290519081900360640190fd5b60026097541415612be3576040805162461bcd60e51b815260206004820152601f60248201527f5265656e7472616e637947756172643a207265656e7472616e742063616c6c00604482015290519081900360640190fd5b6002609755670de0b6b3a7640000821015612c45576040805162461bcd60e51b815260206004820152601060248201527f45474c3a414d4e545f544f4f5f4c4f5700000000000000000000000000000000604482015290519081900360640190fd5b61012154604080516370a0823160e01b815233600482015290516001600160a01b03909216916370a0823191602480820192602092909190829003018186803b158015612c9157600080fd5b505afa158015612ca5573d6000803e3d6000fd5b505050506040513d6020811015612cbb57600080fd5b5051821115612d11576040805162461bcd60e51b815260206004820152601c60248201527f45474c3a494e53554646494349454e545f45474c5f42414c414e434500000000604482015290519081900360640190fd5b6101215460408051636eb1769f60e11b8152336004820152306024820152905184926001600160a01b03169163dd62ed3e916044808301926020929190829003018186803b158015612d6257600080fd5b505afa158015612d76573d6000803e3d6000fd5b505050506040513d6020811015612d8c57600080fd5b50511015612de1576040805162461bcd60e51b815260206004820152601a60248201527f45474c3a494e53554646494349454e545f414c4c4f57414e4345000000000000604482015290519081900360640190fd5b6101285460d054612e029163ffffffff6301000000909104811690613e6216565b421115612e1157612e11610e41565b61012154604080516323b872dd60e01b81523360048201523060248201526044810185905290516000926001600160a01b0316916323b872dd91606480830192602092919082900301818787803b158015612e6b57600080fd5b505af1158015612e7f573d6000803e3d6000fd5b505050506040513d6020811015612e9557600080fd5b5051905080612eeb576040805162461bcd60e51b815260206004820152601960248201527f45474c3a544f4b454e5f5452414e534645525f4641494c454400000000000000604482015290519081900360640190fd5b612ef9338585856000614946565b505060016097555050565b600054610100900460ff1680612f1d5750612f1d615231565b80612f2b575060005460ff16155b612f665760405162461bcd60e51b815260040180806020018281038252602e815260200180615758602e913960400191505060405180910390fd5b600054610100900460ff16158015612f91576000805460ff1961ff0019909116610100171660011790555b6001600160a01b038a16612fec576040805162461bcd60e51b815260206004820152601a60248201527f45474c3a494e56414c49445f45474c5f544f4b454e5f41444452000000000000604482015290519081900360640190fd5b6001600160a01b038916613047576040805162461bcd60e51b815260206004820152601960248201527f45474c3a494e56414c49445f42505f544f4b454e5f4144445200000000000000604482015290519081900360640190fd5b6001600160a01b0388166130a2576040805162461bcd60e51b815260206004820152601860248201527f45474c3a494e56414c49445f47454e455349535f414444520000000000000000604482015290519081900360640190fd5b6130aa615237565b6130b26152d8565b6130ba6153de565b6130c2615489565b61012180546001600160a01b03808d1673ffffffffffffffffffffffffffffffffffffffff199283161790925561012280548c841690831617905561012380548b8416921691909117908190556b026c62ad77dc602dae00000060cd81905561012e81905560ce556b0409f9cbc7c4a04c2200000061012d556acecb8f27f4200f3a00000061012f556a295be96e64066972000000610130556b019d971e4fe8401e7400000061013181905561013355694cd5d9c0f8633ab6000061013755604080517f4b472d4500000000000000000000000000000000000000000000000000000000815290516000939290921691634b472d4591600480820192602092909190829003018186803b1580156131d857600080fd5b505afa1580156131ec573d6000803e3d6000fd5b505050506040513d602081101561320257600080fd5b5051905080613258576040805162461bcd60e51b815260206004820152601660248201527f45474c3a4e4f5f47454e455349535f42414c414e434500000000000000000000604482015290519081900360640190fd5b6101225461012354604080517f8da5cb5b00000000000000000000000000000000000000000000000000000000815290516001600160a01b03938416936370a08231931691638da5cb5b916004808301926020929190829003018186803b1580156132c257600080fd5b505afa1580156132d6573d6000803e3d6000fd5b505050506040513d60208110156132ec57600080fd5b5051604080517fffffffff0000000000000000000000000000000000000000000000000000000060e085901b1681526001600160a01b039092166004830152516024808301926020929190829003018186803b15801561334b57600080fd5b505afa15801561335f573d6000803e3d6000fd5b505050506040513d602081101561337557600080fd5b50516101328190556133ce576040805162461bcd60e51b815260206004820152601260248201527f45474c3a4e4f5f4250545f42414c414e43450000000000000000000000000000604482015290519081900360640190fd5b6133ef81610fc4670de0b6b3a764000060ce546140d790919063ffffffff16565b6101355561013254613415908290610fc490670de0b6b3a764000063ffffffff6140d716565b61013655600a61012c8190556134359063ffffffff80891691906140d716565b61012b5561012988905560d0889055610128805462ffffff191662ffffff89161766ffffffff0000001916630100000063ffffffff891602179055610124805473ffffffffffffffffffffffffffffffffffffffff19166001600160a01b03851617905560ce5460d1554560cc81905560ca81905560cb81905560c955623d090061013855620f424061012755610139805461ffff191660071790558451156135275760005b85518160ff1610156135255761351d868260ff16815181106134f957fe5b6020026020010151868360ff168151811061351057fe5b6020026020010151611b8f565b6001016134db565b505b610121546101235461012254610135546101365461012b546101295461012854604080513381523060208201526001600160a01b03998a1681830152978916606089015297909516608087015260a0860188905260c086019390935260e085019190915261010084015261012083015262ffffff81166101408301526301000000900463ffffffff166101608201524261018082015290517f401428870815f31693733424c16dc30342fbc7bdfea981e09c5dd9762612aec5916101a0908290030190a1508015612b34576000805461ff001916905550505050505050505050565b610106816008811061212d57fe5b60006136258585858561552f565b6040805182815290519192507f4559bb1fd8d38ac4225e2e69ac3391fa694f480b89635e5e4d729f3e89794112919081900360200190a15050505050565b60655460ff16156136ae576040805162461bcd60e51b815260206004820152601060248201526f14185d5cd8589b194e881c185d5cd95960821b604482015290519081900360640190fd5b33600090815261011f6020526040902060010154613713576040805162461bcd60e51b815260206004820152601260248201527f45474c3a4e4f5f504f4f4c5f544f4b454e530000000000000000000000000000604482015290519081900360640190fd5b61012b546101295461372c90429063ffffffff613e1716565b1161377e576040805162461bcd60e51b815260206004820152601560248201527f45474c3a414c4c5f544f4b454e535f4c4f434b45440000000000000000000000604482015290519081900360640190fd5b60006137a56137996101295442613e1790919063ffffffff16565b60ce5461012b5461505f565b33600090815261011e6020908152604080832061011f9092529091206002810154929350909183101561381f576040805162461bcd60e51b815260206004820152601660248201527f45474c3a414444525f544f4b454e535f4c4f434b454400000000000000000000604482015290519081900360640190fd5b60008160030154841061392d5750600181018054600091829055835490919061385a9061ffff6101008204169060ff1663ffffffff613e6216565b60cf5490915061ffff16811161387057426138ae565b6101285460cf546138ae916138a191630100000090910463ffffffff90811691610fd091869161ffff1690613e1716565b429063ffffffff613e6216565b60018086018290558401546002850154600386015460408051338152602081018b90528082018890526060810194909452608084019290925260a083015260c08201929092524260e082015290517fac4593ed445180692482b7c9eaf84f6aca0944f23272e84eed00ab30ba39214a918190036101000190a1506139e1565b6139458483600201548460030154856001015461552f565b600183015490915061395d908263ffffffff613e1716565b6001808401829055600284015460038501549186015460408051338152602081018a90528082018790526060810195909552608085019290925260a084019290925260c08301919091524260e0830152517fac4593ed445180692482b7c9eaf84f6aca0944f23272e84eed00ab30ba39214a918190036101000190a1600282018490555b61012254604080516370a0823160e01b815230600482015290516000926001600160a01b03169163a9059cbb913391613a3b9185916370a08231916024808301926020929190829003018186803b158015610cb557600080fd5b6040518363ffffffff1660e01b815260040180836001600160a01b03166001600160a01b0316815260200182815260200192505050602060405180830381600087803b158015613a8a57600080fd5b505af1158015613a9e573d6000803e3d6000fd5b505050506040513d6020811015613ab457600080fd5b505190508061221c576040805162461bcd60e51b815260206004820152601960248201527f45474c3a544f4b454e5f5452414e534645525f4641494c454400000000000000604482015290519081900360640190fd5b60cd5481565b613b18614f05565b6033546001600160a01b03908116911614613b7a576040805162461bcd60e51b815260206004820181905260248201527f4f776e61626c653a2063616c6c6572206973206e6f7420746865206f776e6572604482015290519081900360640190fd5b6001600160a01b038116613bbf5760405162461bcd60e51b81526004018080602001828103825260268152602001806157116026913960400191505060405180910390fd5b6033546040516001600160a01b038084169216907f8be0079c531659141344cd1fd0a4f28419497f9722a3daafe3b4186f6b6457e090600090a36033805473ffffffffffffffffffffffffffffffffffffffff19166001600160a01b0392909216919091179055565b60d15481565b60cb5481565b600080600080613c4485876155dc565b90506000613c5286896155dc565b90506000613c688861271063ffffffff6141a816565b90506000613c7e8961271063ffffffff6142c516565b9050808a12158015613c905750818a13155b15613cb557613cae670de0b6b3a7640000606463ffffffff6140d716565b9550613d4e565b600084138015613cfa57508789138015613cce5750878a135b8015613cda5750818a13155b80613cfa57508789128015613cee5750878a125b8015613cfa5750808a12155b15613d4e57613d20604b610fd08661122a87670de0b6b3a764000063ffffffff61433916565b9450613d4b613d3e670de0b6b3a7640000601963ffffffff6140d716565b869063ffffffff613e6216565b95505b613d886064610fc4670de0b6b3a7640000610fc4613d7b622625a061012d5461413090919063ffffffff16565b8b9063ffffffff6140d716565b60cf5461012d546040805143815261ffff909316602084015282810191909152606082018d9052608082018c905260a082018b905260c0820188905260e08201899052610100820183905242610120830152519198507f7b567a10ebda9fc8530b066718cc2fa3c6fd42d5df71f9f8bc176ff6673972c391908190036101400190a15050505050509392505050565b6000613e5983836040518060400160405280601e81526020017f536166654d6174683a207375627472616374696f6e206f766572666c6f7700008152506155f3565b90505b92915050565b600082820183811015613e59576040805162461bcd60e51b815260206004820152601b60248201527f536166654d6174683a206164646974696f6e206f766572666c6f770000000000604482015290519081900360640190fd5b6000818310613ecb5781613e59565b5090919050565b60006001600160a01b038616613f2f576040805162461bcd60e51b815260206004820152601360248201527f45474c3a564f5445525f414444524553535f3000000000000000000000000000604482015290519081900360640190fd5b6000613f5f6034613f5361ffff808a169082908a1660ff8a1663ffffffff613e6216565b9063ffffffff613ebc16565b9050845b818161ffff1610156140cc5760008060d28361ffff1660348110613f8357fe5b015411613f91576000613fe0565b613fe0613fd760d28461ffff1660348110613fa857fe5b0154610fc4613fc2603461ffff881663ffffffff613e1716565b61013754610fd0908b9063ffffffff6140d716565b61013354613ebc565b9050613ff2848263ffffffff613e6216565b61013354909450614009908263ffffffff613e1716565b61013355610137547fbaca11360eaa23c73342d15d8db586271a7c9d9ee0a0c7ae8eda2e3f9c4add0a908a908a90879085908a90614052603461ffff8b1663ffffffff613e1716565b60d28a61ffff166034811061406357fe5b015461013354604080516001600160a01b03909a168a5261ffff90981660208a0152888801969096526060880194909452608087019290925260a086015260c085015260e08401526101008301524261012083015251908190036101400190a150600101613f63565b505095945050505050565b6000826140e657506000613e5c565b828202828482816140f357fe5b0414613e595760405162461bcd60e51b81526004018080602001828103825260218152602001806157a76021913960400191505060405180910390fd5b6000613e5983836040518060400160405280601a81526020017f536166654d6174683a206469766973696f6e206279207a65726f00000000000081525061568a565b60008060d15411614184576000613e5c565b60d154613e5c90610fc46064610fd086670de0b6b3a764000063ffffffff6140d716565b60008282018183128015906141bd5750838112155b806141d257506000831280156141d257508381125b613e595760405162461bcd60e51b81526004018080602001828103825260218152602001806157376021913960400191505060405180910390fd5b600081614261576040805162461bcd60e51b815260206004820181905260248201527f5369676e6564536166654d6174683a206469766973696f6e206279207a65726f604482015290519081900360640190fd5b816000191480156142755750600160ff1b83145b156142b15760405162461bcd60e51b81526004018080602001828103825260218152602001806157866021913960400191505060405180910390fd5b60008284816142bc57fe5b05949350505050565b60008183038183128015906142da5750838113155b806142ef57506000831280156142ef57508381135b613e595760405162461bcd60e51b81526004018080602001828103825260248152602001806157ef6024913960400191505060405180910390fd5b6000818312613ecb5781613e59565b60008261434857506000613e5c565b8260001914801561435c5750600160ff1b82145b156143985760405162461bcd60e51b81526004018080602001828103825260278152602001806157c86027913960400191505060405180910390fd5b828202828482816143a557fe5b0514613e595760405162461bcd60e51b81526004018080602001828103825260278152602001806157c86027913960400191505060405180910390fd5b610128546000906144339061440990849063ffffffff63010000009091048116906140d716565b60cd546101285461012c5461442e9163ffffffff63010000009091048116906140d716565b61505f565b90506000808211614445576000614462565b61446261012e54613f536101345485613e1790919063ffffffff16565b6101215461012454604080517fa9059cbb0000000000000000000000000000000000000000000000000000000081526001600160a01b039283166004820152602481018590529051939450600093919092169163a9059cbb91604480830192602092919082900301818787803b1580156144db57600080fd5b505af11580156144ef573d6000803e3d6000fd5b505050506040513d602081101561450557600080fd5b505190508061455b576040805162461bcd60e51b815260206004820152601960248201527f45474c3a544f4b454e5f5452414e534645525f4641494c454400000000000000604482015290519081900360640190fd5b61012e5461456f908363ffffffff613e1716565b61012e5560d154614586908363ffffffff613e6216565b60d155610124546101345461012e5460cf54604080513381526001600160a01b0390951660208601528481018790526060850193909352608084019190915261ffff1660a08301524260c0830152517fb8eb1858344dfad27243fc861330eea15630cddc1d8c5c4eb9a72bb059aae54b9181900360e00190a150506101345550565b60006001600160a01b038216614665576040805162461bcd60e51b815260206004820152601360248201527f45474c3a564f5445525f414444524553535f3000000000000000000000000000604482015290519081900360640190fd5b6001600160a01b038216600090815261011e60205260408120805460028201805460038401805462ffffff19851686556001860187905592869055859055929361ffff610100840416939260ff1691906146c5848463ffffffff6140d716565b60cf549091506000906146e0908a9061ffff16888786613ed2565b905060006146fb61ffff881660ff871663ffffffff613e6216565b60cf5490915060009061ffff16821161471557600061472d565b60cf5461472d90839061ffff1663ffffffff613e1716565b905060005b818160ff161015614854576147608561010e8360ff166008811061475257fe5b01549063ffffffff613e1716565b61010e8260ff166008811061477157fe5b0155614797614786868863ffffffff6140d716565b6101168360ff166008811061475257fe5b6101168260ff16600881106147a857fe5b015560cf546034906147c79061ffff1660ff841663ffffffff613e6216565b10156148245760cf546147fa90869060d2906147f09061ffff1660ff861663ffffffff613e6216565b6034811061475257fe5b60cf5460d2906148179061ffff1660ff851663ffffffff613e6216565b6034811061482157fe5b01555b614839886101068360ff166008811061475257fe5b6101068260ff166008811061484a57fe5b0155600101614732565b5060d154614868908463ffffffff613e6216565b60d15560cf547fe0b45c9063ac79a1ba771cbe0d96ebb606253f393afdf9bd0bb9b2bc7eb16487908c9061ffff16898689603484106148a85760006148bf565b60cf5460d29061ffff16603481106148bc57fe5b01545b6101065461010e5461011654604080516001600160a01b039a909a168a5261ffff9890981660208a0152888801969096526060880194909452608087019290925260a086015260c085015260e08401526101008301524261012083015251908190036101400190a1614937878463ffffffff613e6216565b9b9a5050505050505050505050565b6001600160a01b0385166149a1576040805162461bcd60e51b815260206004820152601360248201527f45474c3a564f5445525f414444524553535f3000000000000000000000000000604482015290519081900360640190fd5b610129544210156149f9576040805162461bcd60e51b815260206004820152601660248201527f45474c3a564f54494e475f4e4f545f5354415254454400000000000000000000604482015290519081900360640190fd5b6001600160a01b038516600090815261011e602052604090206002015415614a68576040805162461bcd60e51b815260206004820152601160248201527f45474c3a414c52454144595f564f544544000000000000000000000000000000604482015290519081900360640190fd5b61013854614a7685456156ef565b10614ac8576040805162461bcd60e51b815260206004820152601660248201527f45474c3a494e56414c49445f4741535f54415247455400000000000000000000604482015290519081900360640190fd5b60018260ff1610158015614ae0575060088260ff1611155b614b31576040805162461bcd60e51b815260206004820152601260248201527f45474c3a494e56414c49445f4c4f434b55500000000000000000000000000000604482015290519081900360640190fd5b6101285460d054614b529163ffffffff6301000000909104811690613e6216565b4210614ba5576040805162461bcd60e51b815260206004820152601060248201527f45474c3a564f54455f544f4f5f46415200000000000000000000000000000000604482015290519081900360640190fd5b6101285460d054614bdd9162ffffff811691614bd19163ffffffff6301000000909104811690613e6216565b9063ffffffff613e1716565b4210614c30576040805162461bcd60e51b815260206004820152601260248201527f45474c3a564f54455f544f4f5f434c4f53450000000000000000000000000000604482015290519081900360640190fd5b61012554614c44904563ffffffff6141a816565b6101255561012654614c5d90600163ffffffff6141a816565b6101265561012854600090614c9d908390614c91906138a19060ff88169063ffffffff63010000009091048116906140d716565b9063ffffffff61570016565b6001600160a01b038716600090815261011e6020526040812060cf54815462ffff00191661010061ffff909216919091021760ff191660ff8716908117825560018201849055600282018890556003820189905592935091614d009087906140d7565b905060005b8560ff168160ff161015614e2a57614d368261010e8360ff1660088110614d2857fe5b01549063ffffffff613e6216565b61010e8260ff1660088110614d4757fe5b0155614d6d614d5c898463ffffffff6140d716565b6101168360ff1660088110614d2857fe5b6101168260ff1660088110614d7e57fe5b015560cf54603490614d9d9061ffff1660ff841663ffffffff613e6216565b1015614dfa5760cf54614dd090839060d290614dc69061ffff1660ff861663ffffffff613e6216565b60348110614d2857fe5b60cf5460d290614ded9061ffff1660ff851663ffffffff613e6216565b60348110614df757fe5b01555b614e0f876101068360ff1660088110614d2857fe5b6101068260ff1660088110614e2057fe5b0155600101614d05565b5060cf5461010e54610116547f58d3ad4d526c4b6a438a40b7d49daf638c30beaf79f1bea88df8dded09356181928b9261ffff909116918b918b918b918a9160348710614e78576000614e8f565b60cf5460d29061ffff1660348110614e8c57fe5b01545b61010660000154604080516001600160a01b03909b168b5261ffff90991660208b015289890197909752606089019590955260ff909316608088015260a087019190915260c086015260e08501526101008401526101208301524261014083015251908190036101600190a15050505050505050565b3390565b60655460ff16614f60576040805162461bcd60e51b815260206004820152601460248201527f5061757361626c653a206e6f7420706175736564000000000000000000000000604482015290519081900360640190fd5b6065805460ff191690557f5db9ee0a495bf2e6ff9c91a7834c1ba4fdd244a5e8aa4e537bd38aeae4b073aa614f93614f05565b604080516001600160a01b039092168252519081900360200190a1565b6000818310615006576040805162461bcd60e51b815260206004820152601b60248201527f45474c3a494e56414c49445f53455249414c495a45445f45474c530000000000604482015290519081900360640190fd5b613e596b020b73425d21f1268ad00000610fc4670de0b6b3a7640000610fd06004615037898463ffffffff61413016565b0a600461505289670de0b6b3a764000063ffffffff61413016565b0a9063ffffffff613e1716565b610128546000906150839063ffffffff63010000009091048116906034906140d716565b84106150905750816151a9565b610128546000906150da906150be908590614bd19063ffffffff63010000009091048116906034906140d716565b610fc4670de0b6b3a7640000610fd0898863ffffffff613e1716565b90506151336c0c9f2c9cd04674edea40000000610fc46305f5e100610fd061511089670de0b6b3a764000063ffffffff61413016565b6004615126886305f5e10063ffffffff61413016565b0a9063ffffffff6140d716565b60cf549092507f912dc0458edd7b6cdb520961a3eacab8d19587dc0cd0d14f25a27a5097a212b99061ffff168661517184606463ffffffff6140d716565b6040805161ffff909416845260208401929092528282015260608201859052608082018790524260a0830152519081900360c00190a1505b9392505050565b60655460ff16156151fb576040805162461bcd60e51b815260206004820152601060248201526f14185d5cd8589b194e881c185d5cd95960821b604482015290519081900360640190fd5b6065805460ff191660011790557f62e78cea01bee320cd4e420270b5ea74000d11b0c9f74754ebdbfc544b05a258614f93614f05565b303b1590565b600054610100900460ff16806152505750615250615231565b8061525e575060005460ff16155b6152995760405162461bcd60e51b815260040180806020018281038252602e815260200180615758602e913960400191505060405180910390fd5b600054610100900460ff161580156152c4576000805460ff1961ff0019909116610100171660011790555b80156116a3576000805461ff001916905550565b600054610100900460ff16806152f157506152f1615231565b806152ff575060005460ff16155b61533a5760405162461bcd60e51b815260040180806020018281038252602e815260200180615758602e913960400191505060405180910390fd5b600054610100900460ff16158015615365576000805460ff1961ff0019909116610100171660011790555b600061536f614f05565b6033805473ffffffffffffffffffffffffffffffffffffffff19166001600160a01b038316908117909155604051919250906000907f8be0079c531659141344cd1fd0a4f28419497f9722a3daafe3b4186f6b6457e0908290a35080156116a3576000805461ff001916905550565b600054610100900460ff16806153f757506153f7615231565b80615405575060005460ff16155b6154405760405162461bcd60e51b815260040180806020018281038252602e815260200180615758602e913960400191505060405180910390fd5b600054610100900460ff1615801561546b576000805460ff1961ff0019909116610100171660011790555b6065805460ff1916905580156116a3576000805461ff001916905550565b600054610100900460ff16806154a257506154a2615231565b806154b0575060005460ff16155b6154eb5760405162461bcd60e51b815260040180806020018281038252602e815260200180615758602e913960400191505060405180910390fd5b600054610100900460ff16158015615516576000805460ff1961ff0019909116610100171660011790555b600160975580156116a3576000805461ff001916905550565b6000828410615585576040805162461bcd60e51b815260206004820152601b60248201527f45474c3a494e56414c49445f53455249414c495a45445f45474c530000000000604482015290519081900360640190fd5b83851015615595575060006155d4565b60006155ab85614bd1888763ffffffff613ebc16565b90506155d06155c0858763ffffffff613e1716565b610fc4858463ffffffff6140d716565b9150505b949350505050565b60008183136155ed57828203613e59565b50900390565b600081848411156156825760405162461bcd60e51b81526004018080602001828103825283818151815260200191508051906020019080838360005b8381101561564757818101518382015260200161562f565b50505050905090810190601f1680156156745780820380516001836020036101000a031916815260200191505b509250505060405180910390fd5b505050900390565b600081836156d95760405162461bcd60e51b815260206004820181815283516024840152835190928392604490910191908501908083836000831561564757818101518382015260200161562f565b5060008385816156e557fe5b0495945050505050565b60008183116155ed57828203613e59565b600081831015613ecb5781613e5956fe4f776e61626c653a206e6577206f776e657220697320746865207a65726f20616464726573735369676e6564536166654d6174683a206164646974696f6e206f766572666c6f77496e697469616c697a61626c653a20636f6e747261637420697320616c726561647920696e697469616c697a65645369676e6564536166654d6174683a206469766973696f6e206f766572666c6f77536166654d6174683a206d756c7469706c69636174696f6e206f766572666c6f775369676e6564536166654d6174683a206d756c7469706c69636174696f6e206f766572666c6f775369676e6564536166654d6174683a207375627472616374696f6e206f766572666c6f77a26469706673582212209812dc88e90dcdc9809c6e7c06b7df2b07390eb6eb0dbc158fb6bd146e9ee8b064736f6c63430006060033",
  "immutableReferences": {},
  "source": "pragma solidity 0.6.6;\n\nimport \"../EglContract.sol\";\n\ncontract TestableEglContract is EglContract {\n    event PercentageCalculated(uint percentage);\n    event SerializedEglCalculated(uint serializedEgl);\n    event PoolTokensDueCalculated(uint poolTokensDue);\n    event BonusEglsDueCalculated(uint bonusEglsDue);\n\n    function internalVote(\n        address _voter,\n        uint _gasTarget,\n        uint _eglAmount,\n        uint8 _lockupDuration,\n        uint _releaseTime\n    ) external {\n        _internalVote(\n            _voter,\n            _gasTarget,\n            _eglAmount,\n            _lockupDuration,\n            _releaseTime\n        );\n    }\n\n    function internalWithdraw(address _voter) external {\n        _internalWithdraw(_voter);\n    }\n\n    function issueCreatorRewards(uint _timePassedSinceOrigin) external {\n        _issueCreatorRewards(_timePassedSinceOrigin);\n    }\n\n    function calculateBlockReward(int _blockGasLimit, int _desiredEgl, int _tallyVoteGasLimit) external {\n        _calculateBlockReward(_blockGasLimit, _desiredEgl, _tallyVoteGasLimit);\n    }\n\n    function calculateSerializedEgl(uint _timePassedSinceOrigin, uint _maxSupply, uint _timeLocked) external {\n        uint releasedEgl = _calculateSerializedEgl(_timePassedSinceOrigin, _maxSupply, _timeLocked);\n        emit SerializedEglCalculated(releasedEgl);\n    }\n    \n    function calculateCurrentPoolTokensDue(\n        uint _currentEgl, \n        uint _firstEgl, \n        uint _lastEgl, \n        uint _totalPoolTokens\n    ) external {\n        uint poolTokensDue = _calculateCurrentPoolTokensDue(_currentEgl, _firstEgl, _lastEgl, _totalPoolTokens);\n        emit PoolTokensDueCalculated(poolTokensDue);\n    }\n\n    function calculateBonusEglsDue(uint _firstEgl, uint _lastEgl) external {\n        uint bonusEglsDue = _calculateBonusEglsDue(_firstEgl, _lastEgl);\n        emit BonusEglsDueCalculated(bonusEglsDue);\n    }\n\n    function calculateVoterReward(\n        address _voter,\n        uint16 _currentEpoch,\n        uint16 _voterEpoch,\n        uint8 _lockupDuration,\n        uint _voteWeight\n    ) external {\n        _calculateVoterReward(_voter, _currentEpoch, _voterEpoch, _lockupDuration, _voteWeight);\n    }\n\n    function calculatePercentageOfTokensInCirculation(uint _itemTotal, uint _tokensInCirculation) external {\n        tokensInCirculation = _tokensInCirculation;\n        uint percentage = _calculatePercentageOfTokensInCirculation(_itemTotal);\n        emit PercentageCalculated(percentage);\n    }\n}",
  "sourcePath": "/Users/svancoller/Development/bloXroute/egl/contracts/helpers/TestableEglContract.sol",
  "compiler": {
    "name": "solc",
    "version": "0.6.6+commit.6c089d02.Emscripten.clang"
  },
  "schemaVersion": "3.2.5",
  "updatedAt": "2021-08-13T02:06:36.354Z",
  "devdoc": {
    "methods": {
      "addSeedAccount(address,uint256)": {
        "params": {
          "_seedAccount": "Wallet address of seeder",
          "_seedAmount": "Amount of EGL's to seed"
        }
      },
      "claimSeederEgls(uint256,uint8)": {
        "params": {
          "_gasTarget": "desired gas target for initial vote",
          "_lockupDuration": "duration to lock tokens for - determines vote multiplier"
        }
      },
      "claimSupporterEgls(uint256,uint8)": {
        "params": {
          "_gasTarget": "desired gas target for initial vote",
          "_lockupDuration": "duration to lock tokens for - determines vote multiplier"
        }
      },
      "initialize(address,address,address,uint256,uint24,uint32,address[],uint256[],address)": {
        "params": {
          "_creatorRewardsAccount": "Address that creator rewards get sent to",
          "_currentEpochStartDate": "Start date for the first epoch",
          "_epochLength": "The length of each epoch in seconds",
          "_genesis": "Address of the EGL Genesis contract",
          "_poolToken": "Address of the Balance Pool Token (BPT)",
          "_seedAccounts": "List of accounts to seed with EGL's",
          "_seedAmounts": "Amount of EGLS's to seed accounts with",
          "_token": "Address of the EGL token     ",
          "_votingPauseSeconds": "Number of seconds to pause voting before votes are tallied"
        }
      },
      "owner()": {
        "details": "Returns the address of the current owner."
      },
      "paused()": {
        "details": "Returns true if the contract is paused, and false otherwise."
      },
      "reVote(uint256,uint256,uint8)": {
        "params": {
          "_eglAmount": "Amount of EGL's to vote with",
          "_gasTarget": "The votes target gas limit",
          "_lockupDuration": "Duration to lock the EGL's"
        }
      },
      "transferOwnership(address)": {
        "details": "Transfers ownership of the contract to a new account (`newOwner`). Can only be called by the current owner."
      },
      "vote(uint256,uint256,uint8)": {
        "params": {
          "_eglAmount": "Amount of EGL's to vote with",
          "_gasTarget": "The votes target gas limit",
          "_lockupDuration": "Duration to lock the EGL's"
        }
      }
    }
  },
  "userdoc": {
    "methods": {
      "addSeedAccount(address,uint256)": {
        "notice": "Owner only function to add a seeder account with specified number of EGL's. Amount cannot exceed balance allocated for seed/signal accounts"
      },
      "claimSeederEgls(uint256,uint8)": {
        "notice": "Function for seed/signal accounts to claim their EGL's. EGL's get locked up in a vote right away and can  only be withdrawn after the seeder/signal lockup period"
      },
      "claimSupporterEgls(uint256,uint8)": {
        "notice": "Allows EGL Genesis contributors to claim their \"bonus\" EGL's from contributing in Genesis. Bonus EGL's get locked up in a vote right away and can only be withdrawn once all BPT's are available"
      },
      "initialize(address,address,address,uint256,uint24,uint32,address[],uint256[],address)": {
        "notice": "Initialized contract variables and sets up token bucket sizes"
      },
      "pauseEgl()": {
        "notice": "Ower only funciton to pause contract"
      },
      "reVote(uint256,uint256,uint8)": {
        "notice": "Re-Vote to change parameters of an existing vote. Will not shorten the time the tokens are  locked up from the original vote "
      },
      "renounceOwnership()": {
        "notice": "Do not allow owner to renounce ownership, only transferOwnership"
      },
      "sweepPoolRewards()": {
        "notice": "Send EGL reward to miner of the block. Reward caclulated based on how close the block gas limit is to the desired EGL. The closer it is, the higher the reward"
      },
      "tallyVotes()": {
        "notice": "Tally Votes for the most recent epoch and calculate the new desired EGL amount"
      },
      "unpauseEgl()": {
        "notice": "Owner only function to unpause contract"
      },
      "vote(uint256,uint256,uint8)": {
        "notice": "Submit vote to either increase or decrease the desired gas limit"
      },
      "withdraw()": {
        "notice": "Withdraw EGL's once they have matured"
      },
      "withdrawPoolTokens()": {
        "notice": "Allows for the withdrawal of liquidity pool tokens once they have matured"
      }
    }
  }
}