{
  "contractName": "TestableEglContract",
  "abi": [
    {
      "anonymous": false,
      "inputs": [
        {
          "indexed": false,
          "internalType": "uint256",
          "name": "blockNumber",
          "type": "uint256"
        },
        {
          "indexed": false,
          "internalType": "uint16",
          "name": "currentEpoch",
          "type": "uint16"
        },
        {
          "indexed": false,
          "internalType": "uint256",
          "name": "remainingPoolReward",
          "type": "uint256"
        },
        {
          "indexed": false,
          "internalType": "int256",
          "name": "blockGasLimit",
          "type": "int256"
        },
        {
          "indexed": false,
          "internalType": "int256",
          "name": "desiredEgl",
          "type": "int256"
        },
        {
          "indexed": false,
          "internalType": "int256",
          "name": "tallyVotesGasLimit",
          "type": "int256"
        },
        {
          "indexed": false,
          "internalType": "uint256",
          "name": "proximityRewardPercent",
          "type": "uint256"
        },
        {
          "indexed": false,
          "internalType": "uint256",
          "name": "totalRewardPercent",
          "type": "uint256"
        },
        {
          "indexed": false,
          "internalType": "uint256",
          "name": "blockReward",
          "type": "uint256"
        }
      ],
      "name": "BlockRewardCalculated",
      "type": "event"
    },
    {
      "anonymous": false,
      "inputs": [
        {
          "indexed": false,
          "internalType": "uint256",
          "name": "bonusEglsDue",
          "type": "uint256"
        }
      ],
      "name": "BonusEglsDueCalculated",
      "type": "event"
    },
    {
      "anonymous": false,
      "inputs": [
        {
          "indexed": false,
          "internalType": "address",
          "name": "caller",
          "type": "address"
        },
        {
          "indexed": false,
          "internalType": "address",
          "name": "creatorRewardAddress",
          "type": "address"
        },
        {
          "indexed": false,
          "internalType": "uint256",
          "name": "amountClaimed",
          "type": "uint256"
        },
        {
          "indexed": false,
          "internalType": "uint256",
          "name": "lastEpochReward",
          "type": "uint256"
        },
        {
          "indexed": false,
          "internalType": "uint256",
          "name": "remainingCreatorReward",
          "type": "uint256"
        },
        {
          "indexed": false,
          "internalType": "uint16",
          "name": "currentEpoch",
          "type": "uint16"
        },
        {
          "indexed": false,
          "internalType": "uint256",
          "name": "date",
          "type": "uint256"
        }
      ],
      "name": "CreatorRewardsClaimed",
      "type": "event"
    },
    {
      "anonymous": false,
      "inputs": [
        {
          "indexed": false,
          "internalType": "address",
          "name": "sender",
          "type": "address"
        },
        {
          "indexed": false,
          "internalType": "uint256",
          "name": "amount",
          "type": "uint256"
        }
      ],
      "name": "EthReceived",
      "type": "event"
    },
    {
      "anonymous": false,
      "inputs": [
        {
          "indexed": false,
          "internalType": "address",
          "name": "deployer",
          "type": "address"
        },
        {
          "indexed": false,
          "internalType": "address",
          "name": "eglContract",
          "type": "address"
        },
        {
          "indexed": false,
          "internalType": "address",
          "name": "eglToken",
          "type": "address"
        },
        {
          "indexed": false,
          "internalType": "address",
          "name": "genesisContract",
          "type": "address"
        },
        {
          "indexed": false,
          "internalType": "uint256",
          "name": "totalGenesisEth",
          "type": "uint256"
        },
        {
          "indexed": false,
          "internalType": "uint256",
          "name": "ethEglRatio",
          "type": "uint256"
        },
        {
          "indexed": false,
          "internalType": "uint256",
          "name": "ethBptRatio",
          "type": "uint256"
        },
        {
          "indexed": false,
          "internalType": "uint256",
          "name": "minLiquidityTokensLockup",
          "type": "uint256"
        },
        {
          "indexed": false,
          "internalType": "uint256",
          "name": "firstEpochStartDate",
          "type": "uint256"
        },
        {
          "indexed": false,
          "internalType": "uint256",
          "name": "votingPauseSeconds",
          "type": "uint256"
        },
        {
          "indexed": false,
          "internalType": "uint256",
          "name": "epochLength",
          "type": "uint256"
        },
        {
          "indexed": false,
          "internalType": "uint256",
          "name": "date",
          "type": "uint256"
        }
      ],
      "name": "Initialized",
      "type": "event"
    },
    {
      "anonymous": false,
      "inputs": [
        {
          "indexed": true,
          "internalType": "address",
          "name": "previousOwner",
          "type": "address"
        },
        {
          "indexed": true,
          "internalType": "address",
          "name": "newOwner",
          "type": "address"
        }
      ],
      "name": "OwnershipTransferred",
      "type": "event"
    },
    {
      "anonymous": false,
      "inputs": [
        {
          "indexed": false,
          "internalType": "address",
          "name": "account",
          "type": "address"
        }
      ],
      "name": "Paused",
      "type": "event"
    },
    {
      "anonymous": false,
      "inputs": [
        {
          "indexed": false,
          "internalType": "uint256",
          "name": "percentage",
          "type": "uint256"
        }
      ],
      "name": "PercentageCalculated",
      "type": "event"
    },
    {
      "anonymous": false,
      "inputs": [
        {
          "indexed": false,
          "internalType": "address",
          "name": "caller",
          "type": "address"
        },
        {
          "indexed": false,
          "internalType": "address",
          "name": "coinbaseAddress",
          "type": "address"
        },
        {
          "indexed": false,
          "internalType": "uint256",
          "name": "blockNumber",
          "type": "uint256"
        },
        {
          "indexed": false,
          "internalType": "int256",
          "name": "blockGasLimit",
          "type": "int256"
        },
        {
          "indexed": false,
          "internalType": "uint256",
          "name": "blockReward",
          "type": "uint256"
        },
        {
          "indexed": false,
          "internalType": "uint256",
          "name": "date",
          "type": "uint256"
        }
      ],
      "name": "PoolRewardsSwept",
      "type": "event"
    },
    {
      "anonymous": false,
      "inputs": [
        {
          "indexed": false,
          "internalType": "uint256",
          "name": "poolTokensDue",
          "type": "uint256"
        }
      ],
      "name": "PoolTokensDueCalculated",
      "type": "event"
    },
    {
      "anonymous": false,
      "inputs": [
        {
          "indexed": false,
          "internalType": "address",
          "name": "caller",
          "type": "address"
        },
        {
          "indexed": false,
          "internalType": "uint256",
          "name": "currentEglReleased",
          "type": "uint256"
        },
        {
          "indexed": false,
          "internalType": "uint256",
          "name": "poolTokensDue",
          "type": "uint256"
        },
        {
          "indexed": false,
          "internalType": "uint256",
          "name": "poolTokens",
          "type": "uint256"
        },
        {
          "indexed": false,
          "internalType": "uint256",
          "name": "firstEgl",
          "type": "uint256"
        },
        {
          "indexed": false,
          "internalType": "uint256",
          "name": "lastEgl",
          "type": "uint256"
        },
        {
          "indexed": false,
          "internalType": "uint256",
          "name": "date",
          "type": "uint256"
        }
      ],
      "name": "PoolTokensWithdrawn",
      "type": "event"
    },
    {
      "anonymous": false,
      "inputs": [
        {
          "indexed": false,
          "internalType": "address",
          "name": "caller",
          "type": "address"
        },
        {
          "indexed": false,
          "internalType": "uint256",
          "name": "gasTarget",
          "type": "uint256"
        },
        {
          "indexed": false,
          "internalType": "uint256",
          "name": "eglAmount",
          "type": "uint256"
        },
        {
          "indexed": false,
          "internalType": "uint256",
          "name": "date",
          "type": "uint256"
        }
      ],
      "name": "ReVote",
      "type": "event"
    },
    {
      "anonymous": false,
      "inputs": [
        {
          "indexed": false,
          "internalType": "uint256",
          "name": "currentEgl",
          "type": "uint256"
        }
      ],
      "name": "ReleasedEglCalculated",
      "type": "event"
    },
    {
      "anonymous": false,
      "inputs": [
        {
          "indexed": false,
          "internalType": "uint256",
          "name": "currentEpoch",
          "type": "uint256"
        },
        {
          "indexed": false,
          "internalType": "uint256",
          "name": "timePassedPercentage",
          "type": "uint256"
        },
        {
          "indexed": false,
          "internalType": "uint256",
          "name": "currentEgl",
          "type": "uint256"
        },
        {
          "indexed": false,
          "internalType": "uint256",
          "name": "maxSupply",
          "type": "uint256"
        }
      ],
      "name": "ReleasedEglCalculated",
      "type": "event"
    },
    {
      "anonymous": false,
      "inputs": [
        {
          "indexed": false,
          "internalType": "address",
          "name": "seedAddress",
          "type": "address"
        },
        {
          "indexed": false,
          "internalType": "uint256",
          "name": "individualSeedAmount",
          "type": "uint256"
        },
        {
          "indexed": false,
          "internalType": "uint256",
          "name": "releaseDate",
          "type": "uint256"
        },
        {
          "indexed": false,
          "internalType": "uint256",
          "name": "date",
          "type": "uint256"
        }
      ],
      "name": "SeedAccountClaimed",
      "type": "event"
    },
    {
      "anonymous": false,
      "inputs": [
        {
          "indexed": false,
          "internalType": "address",
          "name": "caller",
          "type": "address"
        },
        {
          "indexed": false,
          "internalType": "uint256",
          "name": "amountContributed",
          "type": "uint256"
        },
        {
          "indexed": false,
          "internalType": "uint256",
          "name": "gasTarget",
          "type": "uint256"
        },
        {
          "indexed": false,
          "internalType": "uint256",
          "name": "lockDuration",
          "type": "uint256"
        },
        {
          "indexed": false,
          "internalType": "uint256",
          "name": "ethEglRatio",
          "type": "uint256"
        },
        {
          "indexed": false,
          "internalType": "uint256",
          "name": "ethBptRatio",
          "type": "uint256"
        },
        {
          "indexed": false,
          "internalType": "uint256",
          "name": "bonusEglsReceived",
          "type": "uint256"
        },
        {
          "indexed": false,
          "internalType": "uint256",
          "name": "poolTokensReceived",
          "type": "uint256"
        },
        {
          "indexed": false,
          "internalType": "uint256",
          "name": "date",
          "type": "uint256"
        }
      ],
      "name": "SupporterTokensClaimed",
      "type": "event"
    },
    {
      "anonymous": false,
      "inputs": [
        {
          "indexed": false,
          "internalType": "address",
          "name": "account",
          "type": "address"
        }
      ],
      "name": "Unpaused",
      "type": "event"
    },
    {
      "anonymous": false,
      "inputs": [
        {
          "indexed": false,
          "internalType": "address",
          "name": "caller",
          "type": "address"
        },
        {
          "indexed": false,
          "internalType": "uint16",
          "name": "currentEpoch",
          "type": "uint16"
        },
        {
          "indexed": false,
          "internalType": "uint256",
          "name": "gasTarget",
          "type": "uint256"
        },
        {
          "indexed": false,
          "internalType": "uint256",
          "name": "eglAmount",
          "type": "uint256"
        },
        {
          "indexed": false,
          "internalType": "uint8",
          "name": "lockupDuration",
          "type": "uint8"
        },
        {
          "indexed": false,
          "internalType": "uint256",
          "name": "releaseDate",
          "type": "uint256"
        },
        {
          "indexed": false,
          "internalType": "uint256",
          "name": "epochVoteWeightSum",
          "type": "uint256"
        },
        {
          "indexed": false,
          "internalType": "uint256",
          "name": "epochGasTargetSum",
          "type": "uint256"
        },
        {
          "indexed": false,
          "internalType": "uint256",
          "name": "epochVoterRewardSum",
          "type": "uint256"
        },
        {
          "indexed": false,
          "internalType": "uint256",
          "name": "epochTotalVotes",
          "type": "uint256"
        },
        {
          "indexed": false,
          "internalType": "uint256",
          "name": "date",
          "type": "uint256"
        }
      ],
      "name": "Vote",
      "type": "event"
    },
    {
      "anonymous": false,
      "inputs": [
        {
          "indexed": false,
          "internalType": "address",
          "name": "caller",
          "type": "address"
        },
        {
          "indexed": false,
          "internalType": "uint16",
          "name": "currentEpoch",
          "type": "uint16"
        },
        {
          "indexed": false,
          "internalType": "int256",
          "name": "desiredEgl",
          "type": "int256"
        },
        {
          "indexed": false,
          "internalType": "uint256",
          "name": "voteThreshold",
          "type": "uint256"
        },
        {
          "indexed": false,
          "internalType": "uint256",
          "name": "actualVotePercentage",
          "type": "uint256"
        },
        {
          "indexed": false,
          "internalType": "int256",
          "name": "baselineEgl",
          "type": "int256"
        },
        {
          "indexed": false,
          "internalType": "int256",
          "name": "initialEgl",
          "type": "int256"
        },
        {
          "indexed": false,
          "internalType": "uint256",
          "name": "timeSinceFirstEpoch",
          "type": "uint256"
        },
        {
          "indexed": false,
          "internalType": "uint256",
          "name": "gracePeriodSeconds",
          "type": "uint256"
        },
        {
          "indexed": false,
          "internalType": "uint256",
          "name": "date",
          "type": "uint256"
        }
      ],
      "name": "VoteThresholdFailed",
      "type": "event"
    },
    {
      "anonymous": false,
      "inputs": [
        {
          "indexed": false,
          "internalType": "address",
          "name": "caller",
          "type": "address"
        },
        {
          "indexed": false,
          "internalType": "uint16",
          "name": "currentEpoch",
          "type": "uint16"
        },
        {
          "indexed": false,
          "internalType": "int256",
          "name": "desiredEgl",
          "type": "int256"
        },
        {
          "indexed": false,
          "internalType": "uint256",
          "name": "voteThreshold",
          "type": "uint256"
        },
        {
          "indexed": false,
          "internalType": "uint256",
          "name": "actualVotePercentage",
          "type": "uint256"
        },
        {
          "indexed": false,
          "internalType": "int256",
          "name": "gasLimitSum",
          "type": "int256"
        },
        {
          "indexed": false,
          "internalType": "int256",
          "name": "voteCount",
          "type": "int256"
        },
        {
          "indexed": false,
          "internalType": "int256",
          "name": "baselineEgl",
          "type": "int256"
        },
        {
          "indexed": false,
          "internalType": "uint256",
          "name": "date",
          "type": "uint256"
        }
      ],
      "name": "VoteThresholdMet",
      "type": "event"
    },
    {
      "anonymous": false,
      "inputs": [
        {
          "indexed": false,
          "internalType": "address",
          "name": "voter",
          "type": "address"
        },
        {
          "indexed": false,
          "internalType": "uint16",
          "name": "currentEpoch",
          "type": "uint16"
        },
        {
          "indexed": false,
          "internalType": "uint256",
          "name": "voterReward",
          "type": "uint256"
        },
        {
          "indexed": false,
          "internalType": "uint256",
          "name": "epochVoterReward",
          "type": "uint256"
        },
        {
          "indexed": false,
          "internalType": "uint256",
          "name": "voteWeight",
          "type": "uint256"
        },
        {
          "indexed": false,
          "internalType": "uint256",
          "name": "rewardMultiplier",
          "type": "uint256"
        },
        {
          "indexed": false,
          "internalType": "uint256",
          "name": "weeksDiv",
          "type": "uint256"
        },
        {
          "indexed": false,
          "internalType": "uint256",
          "name": "epochVoterRewardSum",
          "type": "uint256"
        },
        {
          "indexed": false,
          "internalType": "uint256",
          "name": "date",
          "type": "uint256"
        }
      ],
      "name": "VoterRewardCalculated",
      "type": "event"
    },
    {
      "anonymous": false,
      "inputs": [
        {
          "indexed": false,
          "internalType": "address",
          "name": "caller",
          "type": "address"
        },
        {
          "indexed": false,
          "internalType": "uint16",
          "name": "currentEpoch",
          "type": "uint16"
        },
        {
          "indexed": false,
          "internalType": "int256",
          "name": "desiredEgl",
          "type": "int256"
        },
        {
          "indexed": false,
          "internalType": "int256",
          "name": "averageGasTarget",
          "type": "int256"
        },
        {
          "indexed": false,
          "internalType": "uint256",
          "name": "votingThreshold",
          "type": "uint256"
        },
        {
          "indexed": false,
          "internalType": "uint256",
          "name": "actualVotePercentage",
          "type": "uint256"
        },
        {
          "indexed": false,
          "internalType": "uint256",
          "name": "tokensInCirculation",
          "type": "uint256"
        },
        {
          "indexed": false,
          "internalType": "uint256",
          "name": "date",
          "type": "uint256"
        }
      ],
      "name": "VotesTallied",
      "type": "event"
    },
    {
      "anonymous": false,
      "inputs": [
        {
          "indexed": false,
          "internalType": "address",
          "name": "caller",
          "type": "address"
        },
        {
          "indexed": false,
          "internalType": "uint16",
          "name": "currentEpoch",
          "type": "uint16"
        },
        {
          "indexed": false,
          "internalType": "uint256",
          "name": "tokensLocked",
          "type": "uint256"
        },
        {
          "indexed": false,
          "internalType": "uint256",
          "name": "rewardTokens",
          "type": "uint256"
        },
        {
          "indexed": false,
          "internalType": "uint256",
          "name": "gasTarget",
          "type": "uint256"
        },
        {
          "indexed": false,
          "internalType": "uint256",
          "name": "epochVoterRewardSum",
          "type": "uint256"
        },
        {
          "indexed": false,
          "internalType": "uint256",
          "name": "epochTotalVotes",
          "type": "uint256"
        },
        {
          "indexed": false,
          "internalType": "uint256",
          "name": "epochVoteWeightSum",
          "type": "uint256"
        },
        {
          "indexed": false,
          "internalType": "uint256",
          "name": "epochGasTargetSum",
          "type": "uint256"
        },
        {
          "indexed": false,
          "internalType": "uint256",
          "name": "date",
          "type": "uint256"
        }
      ],
      "name": "Withdraw",
      "type": "event"
    },
    {
      "inputs": [
        {
          "internalType": "address",
          "name": "_seedAccount",
          "type": "address"
        },
        {
          "internalType": "uint256",
          "name": "_seedAmount",
          "type": "uint256"
        }
      ],
      "name": "addSeedAccount",
      "outputs": [],
      "stateMutability": "nonpayable",
      "type": "function"
    },
    {
      "inputs": [],
      "name": "baselineEgl",
      "outputs": [
        {
          "internalType": "int256",
          "name": "",
          "type": "int256"
        }
      ],
      "stateMutability": "view",
      "type": "function"
    },
    {
      "inputs": [
        {
          "internalType": "uint256",
          "name": "_gasTarget",
          "type": "uint256"
        },
        {
          "internalType": "uint8",
          "name": "_lockupDuration",
          "type": "uint8"
        }
      ],
      "name": "claimSeederEgls",
      "outputs": [],
      "stateMutability": "nonpayable",
      "type": "function"
    },
    {
      "inputs": [
        {
          "internalType": "uint256",
          "name": "_gasTarget",
          "type": "uint256"
        },
        {
          "internalType": "uint8",
          "name": "_lockupDuration",
          "type": "uint8"
        }
      ],
      "name": "claimSupporterEgls",
      "outputs": [],
      "stateMutability": "nonpayable",
      "type": "function"
    },
    {
      "inputs": [],
      "name": "currentEpoch",
      "outputs": [
        {
          "internalType": "uint16",
          "name": "",
          "type": "uint16"
        }
      ],
      "stateMutability": "view",
      "type": "function"
    },
    {
      "inputs": [],
      "name": "currentEpochStartDate",
      "outputs": [
        {
          "internalType": "uint256",
          "name": "",
          "type": "uint256"
        }
      ],
      "stateMutability": "view",
      "type": "function"
    },
    {
      "inputs": [],
      "name": "desiredEgl",
      "outputs": [
        {
          "internalType": "int256",
          "name": "",
          "type": "int256"
        }
      ],
      "stateMutability": "view",
      "type": "function"
    },
    {
      "inputs": [
        {
          "internalType": "uint256",
          "name": "",
          "type": "uint256"
        }
      ],
      "name": "gasTargetSum",
      "outputs": [
        {
          "internalType": "uint256",
          "name": "",
          "type": "uint256"
        }
      ],
      "stateMutability": "view",
      "type": "function"
    },
    {
      "inputs": [],
      "name": "initialEgl",
      "outputs": [
        {
          "internalType": "int256",
          "name": "",
          "type": "int256"
        }
      ],
      "stateMutability": "view",
      "type": "function"
    },
    {
      "inputs": [
        {
          "internalType": "address",
          "name": "_token",
          "type": "address"
        },
        {
          "internalType": "address",
          "name": "_poolToken",
          "type": "address"
        },
        {
          "internalType": "address",
          "name": "_genesis",
          "type": "address"
        },
        {
          "internalType": "uint256",
          "name": "_currentEpochStartDate",
          "type": "uint256"
        },
        {
          "internalType": "uint24",
          "name": "_votingPauseSeconds",
          "type": "uint24"
        },
        {
          "internalType": "uint32",
          "name": "_epochLength",
          "type": "uint32"
        },
        {
          "internalType": "address[]",
          "name": "_seedAccounts",
          "type": "address[]"
        },
        {
          "internalType": "uint256[]",
          "name": "_seedAmounts",
          "type": "uint256[]"
        },
        {
          "internalType": "address",
          "name": "_creatorRewardsAccount",
          "type": "address"
        }
      ],
      "name": "initialize",
      "outputs": [],
      "stateMutability": "nonpayable",
      "type": "function"
    },
    {
      "inputs": [],
      "name": "owner",
      "outputs": [
        {
          "internalType": "address",
          "name": "",
          "type": "address"
        }
      ],
      "stateMutability": "view",
      "type": "function"
    },
    {
      "inputs": [],
      "name": "paused",
      "outputs": [
        {
          "internalType": "bool",
          "name": "",
          "type": "bool"
        }
      ],
      "stateMutability": "view",
      "type": "function"
    },
    {
      "inputs": [
        {
          "internalType": "uint256",
          "name": "_gasTarget",
          "type": "uint256"
        },
        {
          "internalType": "uint256",
          "name": "_eglAmount",
          "type": "uint256"
        },
        {
          "internalType": "uint8",
          "name": "_lockupDuration",
          "type": "uint8"
        }
      ],
      "name": "reVote",
      "outputs": [],
      "stateMutability": "nonpayable",
      "type": "function"
    },
    {
      "inputs": [],
      "name": "renounceOwnership",
      "outputs": [],
      "stateMutability": "nonpayable",
      "type": "function"
    },
    {
      "inputs": [
        {
          "internalType": "address",
          "name": "",
          "type": "address"
        }
      ],
      "name": "seeders",
      "outputs": [
        {
          "internalType": "uint256",
          "name": "",
          "type": "uint256"
        }
      ],
      "stateMutability": "view",
      "type": "function"
    },
    {
      "inputs": [
        {
          "internalType": "address",
          "name": "",
          "type": "address"
        }
      ],
      "name": "supporters",
      "outputs": [
        {
          "internalType": "uint32",
          "name": "matches",
          "type": "uint32"
        },
        {
          "internalType": "uint256",
          "name": "poolTokens",
          "type": "uint256"
        },
        {
          "internalType": "uint256",
          "name": "firstEgl",
          "type": "uint256"
        },
        {
          "internalType": "uint256",
          "name": "lastEgl",
          "type": "uint256"
        }
      ],
      "stateMutability": "view",
      "type": "function"
    },
    {
      "inputs": [],
      "name": "sweepPoolRewards",
      "outputs": [],
      "stateMutability": "nonpayable",
      "type": "function"
    },
    {
      "inputs": [],
      "name": "tallyVotes",
      "outputs": [],
      "stateMutability": "nonpayable",
      "type": "function"
    },
    {
      "inputs": [],
      "name": "tallyVotesGasLimit",
      "outputs": [
        {
          "internalType": "int256",
          "name": "",
          "type": "int256"
        }
      ],
      "stateMutability": "view",
      "type": "function"
    },
    {
      "inputs": [],
      "name": "tokensInCirculation",
      "outputs": [
        {
          "internalType": "uint256",
          "name": "",
          "type": "uint256"
        }
      ],
      "stateMutability": "view",
      "type": "function"
    },
    {
      "inputs": [
        {
          "internalType": "address",
          "name": "newOwner",
          "type": "address"
        }
      ],
      "name": "transferOwnership",
      "outputs": [],
      "stateMutability": "nonpayable",
      "type": "function"
    },
    {
      "inputs": [
        {
          "internalType": "uint256",
          "name": "_gasTarget",
          "type": "uint256"
        },
        {
          "internalType": "uint256",
          "name": "_eglAmount",
          "type": "uint256"
        },
        {
          "internalType": "uint8",
          "name": "_lockupDuration",
          "type": "uint8"
        }
      ],
      "name": "vote",
      "outputs": [],
      "stateMutability": "nonpayable",
      "type": "function"
    },
    {
      "inputs": [
        {
          "internalType": "uint256",
          "name": "",
          "type": "uint256"
        }
      ],
      "name": "voteWeightsSum",
      "outputs": [
        {
          "internalType": "uint256",
          "name": "",
          "type": "uint256"
        }
      ],
      "stateMutability": "view",
      "type": "function"
    },
    {
      "inputs": [
        {
          "internalType": "uint256",
          "name": "",
          "type": "uint256"
        }
      ],
      "name": "voterRewardSums",
      "outputs": [
        {
          "internalType": "uint256",
          "name": "",
          "type": "uint256"
        }
      ],
      "stateMutability": "view",
      "type": "function"
    },
    {
      "inputs": [
        {
          "internalType": "address",
          "name": "",
          "type": "address"
        }
      ],
      "name": "voters",
      "outputs": [
        {
          "internalType": "uint8",
          "name": "lockupDuration",
          "type": "uint8"
        },
        {
          "internalType": "uint16",
          "name": "voteEpoch",
          "type": "uint16"
        },
        {
          "internalType": "uint256",
          "name": "releaseDate",
          "type": "uint256"
        },
        {
          "internalType": "uint256",
          "name": "tokensLocked",
          "type": "uint256"
        },
        {
          "internalType": "uint256",
          "name": "gasTarget",
          "type": "uint256"
        }
      ],
      "stateMutability": "view",
      "type": "function"
    },
    {
      "inputs": [
        {
          "internalType": "uint256",
          "name": "",
          "type": "uint256"
        }
      ],
      "name": "votesTotal",
      "outputs": [
        {
          "internalType": "uint256",
          "name": "",
          "type": "uint256"
        }
      ],
      "stateMutability": "view",
      "type": "function"
    },
    {
      "inputs": [],
      "name": "withdraw",
      "outputs": [],
      "stateMutability": "nonpayable",
      "type": "function"
    },
    {
      "inputs": [],
      "name": "withdrawPoolTokens",
      "outputs": [],
      "stateMutability": "nonpayable",
      "type": "function"
    },
    {
      "stateMutability": "payable",
      "type": "receive"
    },
    {
      "inputs": [
        {
          "internalType": "address",
          "name": "_voter",
          "type": "address"
        },
        {
          "internalType": "uint256",
          "name": "_gasTarget",
          "type": "uint256"
        },
        {
          "internalType": "uint256",
          "name": "_eglAmount",
          "type": "uint256"
        },
        {
          "internalType": "uint8",
          "name": "_lockupDuration",
          "type": "uint8"
        },
        {
          "internalType": "uint256",
          "name": "_releaseTime",
          "type": "uint256"
        }
      ],
      "name": "internalVote",
      "outputs": [],
      "stateMutability": "nonpayable",
      "type": "function"
    },
    {
      "inputs": [
        {
          "internalType": "address",
          "name": "_voter",
          "type": "address"
        }
      ],
      "name": "internalWithdraw",
      "outputs": [],
      "stateMutability": "nonpayable",
      "type": "function"
    },
    {
      "inputs": [
        {
          "internalType": "uint256",
          "name": "_timePassedSinceOrigin",
          "type": "uint256"
        }
      ],
      "name": "issueCreatorRewards",
      "outputs": [],
      "stateMutability": "nonpayable",
      "type": "function"
    },
    {
      "inputs": [
        {
          "internalType": "int256",
          "name": "_blockGasLimit",
          "type": "int256"
        },
        {
          "internalType": "int256",
          "name": "_desiredEgl",
          "type": "int256"
        },
        {
          "internalType": "int256",
          "name": "_tallyVoteGasLimit",
          "type": "int256"
        }
      ],
      "name": "calculateBlockReward",
      "outputs": [],
      "stateMutability": "nonpayable",
      "type": "function"
    },
    {
      "inputs": [
        {
          "internalType": "uint256",
          "name": "_timePassedSinceOrigin",
          "type": "uint256"
        },
        {
          "internalType": "uint256",
          "name": "_maxSupply",
          "type": "uint256"
        },
        {
          "internalType": "uint256",
          "name": "_timeLocked",
          "type": "uint256"
        }
      ],
      "name": "calculateReleasedEgl",
      "outputs": [],
      "stateMutability": "nonpayable",
      "type": "function"
    },
    {
      "inputs": [
        {
          "internalType": "uint256",
          "name": "_currentEgl",
          "type": "uint256"
        },
        {
          "internalType": "uint256",
          "name": "_firstEgl",
          "type": "uint256"
        },
        {
          "internalType": "uint256",
          "name": "_lastEgl",
          "type": "uint256"
        },
        {
          "internalType": "uint256",
          "name": "_totalPoolTokens",
          "type": "uint256"
        }
      ],
      "name": "calculateCurrentPoolTokensDue",
      "outputs": [],
      "stateMutability": "nonpayable",
      "type": "function"
    },
    {
      "inputs": [
        {
          "internalType": "uint256",
          "name": "_firstEgl",
          "type": "uint256"
        },
        {
          "internalType": "uint256",
          "name": "_lastEgl",
          "type": "uint256"
        }
      ],
      "name": "calculateBonusEglsDue",
      "outputs": [],
      "stateMutability": "nonpayable",
      "type": "function"
    },
    {
      "inputs": [
        {
          "internalType": "address",
          "name": "_voter",
          "type": "address"
        },
        {
          "internalType": "uint16",
          "name": "_currentEpoch",
          "type": "uint16"
        },
        {
          "internalType": "uint16",
          "name": "_voterEpoch",
          "type": "uint16"
        },
        {
          "internalType": "uint8",
          "name": "_lockupDuration",
          "type": "uint8"
        },
        {
          "internalType": "uint256",
          "name": "_voteWeight",
          "type": "uint256"
        }
      ],
      "name": "calculateVoterReward",
      "outputs": [],
      "stateMutability": "nonpayable",
      "type": "function"
    },
    {
      "inputs": [
        {
          "internalType": "uint256",
          "name": "_itemTotal",
          "type": "uint256"
        },
        {
          "internalType": "uint256",
          "name": "_tokensInCirculation",
          "type": "uint256"
        }
      ],
      "name": "calculatePercentageOfTokensInCirculation",
      "outputs": [],
      "stateMutability": "nonpayable",
      "type": "function"
    }
  ],
  "bytecode": "0x608060405234801561001057600080fd5b50614b29806100206000396000f3fe60806040526004361061026e5760003560e01c80637667180811610153578063a75cc400116100cb578063cf89489e1161007f578063f2fde38b11610064578063f2fde38b14610a8f578063f5a0d6c014610ac2578063fe9c1a2e14610ad7576102fa565b8063cf89489e14610a3e578063d700672214610a7a576102fa565b8063bbb2eab9116100b0578063bbb2eab91461085c578063c71fb96c14610895578063ceaf749e14610a14576102fa565b8063a75cc400146107ff578063b4f34de614610829576102fa565b80638da5cb5b1161012257806393818fc61161010757806393818fc61461073a5780639759634a14610770578063a3ec138d1461079a576102fa565b80638da5cb5b146106f457806390c023f114610725576102fa565b8063766718081461061457806378d3e9f31461064057806379a1745f146106735780638b04f79c146106c1576102fa565b8063575ede3a116101e657806367699457116101b55780637010969b1161019a5780637010969b146105ab578063715018a6146105d557806373f86647146105ea576102fa565b80636769945714610560578063684b1a0214610575576102fa565b8063575ede3a1461046e5780635c3728ad146104a75780635c975abb146104d7578063647c75e214610500576102fa565b80633716c17f1161023d5780633ccfd60b116102225780633ccfd60b146103f05780634a0eeb5f1461040557806355b1d8f014610435576102fa565b80633716c17f146103a8578063378a2178146103db576102fa565b806310188243146102ff578063112bbd1d1461032657806327aaa7b61461033d57806335fc9b8f14610352576102fa565b366102fa576040805133815234602082015281517f85177f287940f2f05425a4029951af0e047a7f9c4eaa9a6e6917bcd869f86695929181900390910190a16040805162461bcd60e51b815260206004820152600f60248201527f45474c3a4e4f5f5041594d454e54530000000000000000000000000000000000604482015290519081900360640190fd5b600080fd5b34801561030b57600080fd5b50610314610aec565b60408051918252519081900360200190f35b34801561033257600080fd5b5061033b610af2565b005b34801561034957600080fd5b50610314610d42565b34801561035e57600080fd5b5061033b600480360360a081101561037557600080fd5b506001600160a01b038135169061ffff602082013581169160408101359091169060ff6060820135169060800135610d48565b3480156103b457600080fd5b50610314600480360360208110156103cb57600080fd5b50356001600160a01b0316610d5d565b3480156103e757600080fd5b5061033b610d6f565b3480156103fc57600080fd5b5061033b61138a565b34801561041157600080fd5b5061033b6004803603604081101561042857600080fd5b5080359060200135611527565b34801561044157600080fd5b5061033b6004803603606081101561045857600080fd5b508035906020810135906040013560ff16611573565b34801561047a57600080fd5b5061033b6004803603604081101561049157600080fd5b506001600160a01b03813516906020013561194e565b3480156104b357600080fd5b5061033b600480360360408110156104ca57600080fd5b5080359060200135611cad565b3480156104e357600080fd5b506104ec611cf5565b604080519115158252519081900360200190f35b34801561050c57600080fd5b506105336004803603602081101561052357600080fd5b50356001600160a01b0316611cfe565b6040805163ffffffff90951685526020850193909352838301919091526060830152519081900360800190f35b34801561056c57600080fd5b50610314611d2c565b34801561058157600080fd5b5061033b6004803603606081101561059857600080fd5b5080359060208101359060400135611d32565b3480156105b757600080fd5b50610314600480360360208110156105ce57600080fd5b5035611d7c565b3480156105e157600080fd5b5061033b611d90565b3480156105f657600080fd5b506103146004803603602081101561060d57600080fd5b5035611e47565b34801561062057600080fd5b50610629611e54565b6040805161ffff9092168252519081900360200190f35b34801561064c57600080fd5b5061033b6004803603602081101561066357600080fd5b50356001600160a01b0316611e5e565b34801561067f57600080fd5b5061033b600480360360a081101561069657600080fd5b506001600160a01b038135169060208101359060408101359060ff6060820135169060800135611e67565b3480156106cd57600080fd5b5061033b600480360360408110156106e457600080fd5b508035906020013560ff16611e7b565b34801561070057600080fd5b50610709611fe4565b604080516001600160a01b039092168252519081900360200190f35b34801561073157600080fd5b50610314611ff3565b34801561074657600080fd5b5061033b6004803603606081101561075d57600080fd5b5080359060208101359060400135611ff9565b34801561077c57600080fd5b5061033b6004803603602081101561079357600080fd5b5035612004565b3480156107a657600080fd5b506107cd600480360360208110156107bd57600080fd5b50356001600160a01b0316612010565b6040805160ff909616865261ffff90941660208601528484019290925260608401526080830152519081900360a00190f35b34801561080b57600080fd5b506103146004803603602081101561082257600080fd5b5035612044565b34801561083557600080fd5b5061033b6004803603604081101561084c57600080fd5b508035906020013560ff16612051565b34801561086857600080fd5b5061033b6004803603606081101561087f57600080fd5b508035906020810135906040013560ff166124e6565b3480156108a157600080fd5b5061033b60048036036101208110156108b957600080fd5b6001600160a01b038235811692602081013582169260408201359092169160608201359162ffffff6080820135169163ffffffff60a083013516919081019060e0810160c082013564010000000081111561091357600080fd5b82018360208201111561092557600080fd5b8035906020019184602083028401116401000000008311171561094757600080fd5b919080806020026020016040519081016040528093929190818152602001838360200280828437600092019190915250929594936020810193503591505064010000000081111561099757600080fd5b8201836020820111156109a957600080fd5b803590602001918460208302840111640100000000831117156109cb57600080fd5b919080806020026020016040519081016040528093929190818152602001838360200280828437600092019190915250929550505090356001600160a01b031691506127f19050565b348015610a2057600080fd5b5061031460048036036020811015610a3757600080fd5b5035612e07565b348015610a4a57600080fd5b5061033b60048036036080811015610a6157600080fd5b5080359060208101359060408101359060600135612e14565b348015610a8657600080fd5b5061033b612e60565b348015610a9b57600080fd5b5061033b60048036036020811015610ab257600080fd5b50356001600160a01b03166132c9565b348015610ace57600080fd5b506103146133e1565b348015610ae357600080fd5b506103146133e7565b609a5481565b60655460ff1615610b3d576040805162461bcd60e51b815260206004820152601060248201526f14185d5cd8589b194e881c185d5cd95960821b604482015290519081900360640190fd5b60f5544311610b93576040805162461bcd60e51b815260206004820152601160248201527f45474c3a414c52454144595f5357455054000000000000000000000000000000604482015290519081900360640190fd5b4360f555609754609a544591600091610bad9184916133ed565b90508015610ce85760f754610bc8908263ffffffff6135c716565b60f755609d54610bde908263ffffffff61361216565b609d5560ed54604080516370a0823160e01b815230600482015290516001600160a01b039092169163a9059cbb914191610c6c9185916370a0823191602480820192602092909190829003018186803b158015610c3a57600080fd5b505afa158015610c4e573d6000803e3d6000fd5b505050506040513d6020811015610c6457600080fd5b50518561366c565b6040518363ffffffff1660e01b815260040180836001600160a01b03166001600160a01b0316815260200182815260200192505050602060405180830381600087803b158015610cbb57600080fd5b505af1158015610ccf573d6000803e3d6000fd5b505050506040513d6020811015610ce557600080fd5b50505b60f554604080513381524160208201528082019290925260608201849052608082018390524260a0830152517f0f6068cc0327366c9f8c4d052cf3e449a720815635c94fd32f6cf7b6af710e479181900360c00190a15050565b60985481565b610d558585858585613682565b505050505050565b60ec6020526000908152604090205481565b60655460ff1615610dba576040805162461bcd60e51b815260206004820152601060248201526f14185d5cd8589b194e881c185d5cd95960821b604482015290519081900360640190fd5b60f354609c54610dda9163ffffffff630100000090910481169061361216565b4211610e2d576040805162461bcd60e51b815260206004820152601260248201527f45474c3a564f54455f4e4f545f454e4445440000000000000000000000000000604482015290519081900360640190fd5b45609a556000610e4c670de0b6b3a7640000601e63ffffffff6137e216565b609b54909150603461ffff90911610610efb576000610ee2610ed5610e8f610e7c6034600163ffffffff6135c716565b609b5461ffff169063ffffffff6135c716565b610ec9610ea46034600263ffffffff6137e216565b610ebd670de0b6b3a7640000601463ffffffff6137e216565b9063ffffffff61383b16565b9063ffffffff6137e216565b839063ffffffff61361216565b9050610ef7816802b5e3af16b188000061366c565b9150505b60da54600090610f0c576000610f1b565b60da5460e254610f1b9161383b565b90506000610f2c60d282015461387d565b90508281106110bb57609a5460f154610f4a9163ffffffff6138b316565b60f15560f254610f6190600163ffffffff6138b316565b60f281905560f154610f789163ffffffff61391816565b60988190558212610fc257610fbd610fae620f4240610fa2609854866139d090919063ffffffff16565b9063ffffffff613a3516565b6098549063ffffffff6138b316565b610ff0565b610ff0610fe1620f4240610fa2856098546139d090919063ffffffff16565b6098549063ffffffff6139d016565b609755609a546110089061271063ffffffff6139d016565b6097541215801561102f5750609a546110299061271063ffffffff6138b316565b60975413155b1561103b57609a546097555b609b5460975460f15460f2546098546040805133815261ffff909616602087015285810194909452606085018890526080850186905260a085019290925260c084015260e083015242610100830152517f7f9ed4e6a05937b6f9fcaa91c2fe6f6ba0b0a7dc309b7e15367d08b8b5c044f5918190036101200190a16111ff565b60f3546110db9063ffffffff63010000009091048116906007906137e216565b60f4546110ef90429063ffffffff6135c716565b106111315761112d61111e60646111126005609a54613a4490919063ffffffff16565b9063ffffffff61391816565b609a549063ffffffff6139d016565b6097555b7fd4c520fe18c4d747998b5ff21f876ecb67cc070b489476dfe74fa89675684bb033609b60009054906101000a900461ffff16609754868560985460995461118460f454426135c790919063ffffffff16565b60f3546111a49063ffffffff63010000009091048116906006906137e216565b604080516001600160a01b03909a168a5261ffff90981660208a0152888801969096526060880194909452608087019290925260a086015260c085015260e08401526101008301524261012083015251908190036101400190a15b60005b60078160ff16101561128b5760da8160010160ff166008811061122157fe5b015460da8260ff166008811061123357fe5b015560e260ff60018301166008811061124857fe5b015460e28260ff166008811061125a57fe5b015560d260ff60018301166008811061126f57fe5b015460d28260ff166008811061128157fe5b0155600101611202565b50600060e181905560e981905560d981905560f181905560f255609b54600a61ffff909116108015906112c05750600060f854115b156112d557609b546112d59061ffff16613aed565b609b805461ffff8082166001011661ffff1990911617905560f354609c5461130d9163ffffffff630100000090910481169061361216565b609c55609b54609754609d546040805133815260001961ffff95861601909416602085015283810192909252606083018590526080830186905260a0830184905260c08301524260e0830152517f965de41675c54ca4ca3f1e8b230d2f5b089784683690a5215032665f966b5588918190036101000190a1505050565b60655460ff16156113d5576040805162461bcd60e51b815260206004820152601060248201526f14185d5cd8589b194e881c185d5cd95960821b604482015290519081900360640190fd5b33600090815260ea6020526040902060020154611429576040805162461bcd60e51b815260206004820152600d60248201526c1151d30e9393d517d593d51151609a1b604482015290519081900360640190fd5b33600090815260ea6020526040902060010154421161148f576040805162461bcd60e51b815260206004820152601460248201527f45474c3a4e4f545f52454c454153455f44415445000000000000000000000000604482015290519081900360640190fd5b60ed546001600160a01b031663a9059cbb336114aa81613cab565b6040518363ffffffff1660e01b815260040180836001600160a01b03166001600160a01b0316815260200182815260200192505050602060405180830381600087803b1580156114f957600080fd5b505af115801561150d573d6000803e3d6000fd5b505050506040513d602081101561152357600080fd5b5050565b609d81905560006115378361387d565b6040805182815290519192507f7e7e5f44ddc2776c4ccd52d44b8a7a4f55503c4ae54907bb06a31c38efe71ff8919081900360200190a1505050565b60655460ff16156115be576040805162461bcd60e51b815260206004820152601060248201526f14185d5cd8589b194e881c185d5cd95960821b604482015290519081900360640190fd5b33600090815260ea6020526040902060020154611612576040805162461bcd60e51b815260206004820152600d60248201526c1151d30e9393d517d593d51151609a1b604482015290519081900360640190fd5b811561189657670de0b6b3a7640000821015611675576040805162461bcd60e51b815260206004820152601060248201527f45474c3a414d4e545f544f4f5f4c4f5700000000000000000000000000000000604482015290519081900360640190fd5b60ed54604080516370a0823160e01b815233600482015290516001600160a01b03909216916370a0823191602480820192602092909190829003018186803b1580156116c057600080fd5b505afa1580156116d4573d6000803e3d6000fd5b505050506040513d60208110156116ea57600080fd5b5051821115611740576040805162461bcd60e51b815260206004820152601c60248201527f45474c3a494e53554646494349454e545f45474c5f42414c414e434500000000604482015290519081900360640190fd5b60ed5460408051636eb1769f60e11b8152336004820152306024820152905184926001600160a01b03169163dd62ed3e916044808301926020929190829003018186803b15801561179057600080fd5b505afa1580156117a4573d6000803e3d6000fd5b505050506040513d60208110156117ba57600080fd5b5051101561180f576040805162461bcd60e51b815260206004820152601a60248201527f45474c3a494e53554646494349454e545f414c4c4f57414e4345000000000000604482015290519081900360640190fd5b60ed54604080516323b872dd60e01b81523360048201523060248201526044810185905290516001600160a01b03909216916323b872dd916064808201926020929091908290030181600087803b15801561186957600080fd5b505af115801561187d573d6000803e3d6000fd5b505050506040513d602081101561189357600080fd5b50505b60f354609c546118b69163ffffffff630100000090910481169061361216565b4211156118c5576118c5610d6f565b33600081815260ea6020526040902060010154906118f3906118e690613cab565b849063ffffffff61361216565b92506119023385858585613f83565b604080513381526020810186905280820185905242606082015290517f7557e999fc50cf5217e7120750c6e75d826f9facea381db8a7cbe7a2350d061f9181900360800190a150505050565b61195661447d565b6033546001600160a01b039081169116146119b8576040805162461bcd60e51b815260206004820181905260248201527f4f776e61626c653a2063616c6c6572206973206e6f7420746865206f776e6572604482015290519081900360640190fd5b6001600160a01b038216600090815260ec602052604090205415611a23576040805162461bcd60e51b815260206004820152601260248201527f45474c3a414c52454144595f5345454445520000000000000000000000000000604482015290519081900360640190fd5b6001600160a01b038216600090815260ea602052604090206002015415611a91576040805162461bcd60e51b815260206004820152601460248201527f45474c3a414c52454144595f4841535f564f5445000000000000000000000000604482015290519081900360640190fd5b60ed54604080516370a0823160e01b81526001600160a01b038581166004830152915191909216916370a08231916024808301926020929190829003018186803b158015611ade57600080fd5b505afa158015611af2573d6000803e3d6000fd5b505050506040513d6020811015611b0857600080fd5b505115611b5c576040805162461bcd60e51b815260206004820152601460248201527f45474c3a414c52454144595f4841535f45474c53000000000000000000000000604482015290519081900360640190fd5b60f65460f454611b719163ffffffff61361216565b4210611bc4576040805162461bcd60e51b815260206004820152601660248201527f45474c3a534545445f504552494f445f50415353454400000000000000000000604482015290519081900360640190fd5b60ef5460408051630fb6a4a160e11b815233600482015290516000926001600160a01b031691631f6d4942916024808301926080929190829003018186803b158015611c0f57600080fd5b505afa158015611c23573d6000803e3d6000fd5b505050506040513d6080811015611c3957600080fd5b505190508015611c90576040805162461bcd60e51b815260206004820152601260248201527f45474c3a49535f434f4e5452494255544f520000000000000000000000000000604482015290519081900360640190fd5b506001600160a01b03909116600090815260ec6020526040902055565b6000611cb98383614481565b6040805182815290519192507fa15a35c9dd45af4fd008fbe269d5e5ed70b110228a45c2f074d793211f6cab13919081900360200190a1505050565b60655460ff1690565b60eb60205260009081526040902080546001820154600283015460039093015463ffffffff90921692909184565b609c5481565b6000611d3f8484846144dc565b6040805182815290519192507fc8522cae1859b93fdaa20a6b2b2fa9c9d4abe1d0ac660e25392e5c84e19386fc919081900360200190a150505050565b60da8160088110611d8957fe5b0154905081565b611d9861447d565b6033546001600160a01b03908116911614611dfa576040805162461bcd60e51b815260206004820181905260248201527f4f776e61626c653a2063616c6c6572206973206e6f7420746865206f776e6572604482015290519081900360640190fd5b6040805162461bcd60e51b815260206004820152601960248201527f45474c3a4e4f5f52454e4f554e43455f4f574e45525348495000000000000000604482015290519081900360640190fd5b609e8160348110611d8957fe5b609b5461ffff1681565b61152381613cab565b611e748585858585613f83565b5050505050565b60655460ff1615611ec6576040805162461bcd60e51b815260206004820152601060248201526f14185d5cd8589b194e881c185d5cd95960821b604482015290519081900360640190fd5b33600090815260ec6020526040902054611f27576040805162461bcd60e51b815260206004820152600e60248201527f45474c3a4e4f545f534545444552000000000000000000000000000000000000604482015290519081900360640190fd5b33600090815260ec602052604081208054919055609d54611f4e908263ffffffff61361216565b609d5560f45460f354600091611f8791611f7b9060349063ffffffff63010000009091048116906137e216565b9063ffffffff61361216565b604080513381526020810185905280820183905242606082015290519192507f5356d501c5681bc11ad4a79b7bdf2821e62fbf883e09cd63546edef197d10a12919081900360800190a1611fde3385848685613f83565b50505050565b6033546001600160a01b031690565b60975481565b611fde8383836133ed565b61200d81613aed565b50565b60ea60205260009081526040902080546001820154600283015460039093015460ff83169361010090930461ffff16929085565b60e28160088110611d8957fe5b60655460ff161561209c576040805162461bcd60e51b815260206004820152601060248201526f14185d5cd8589b194e881c185d5cd95960821b604482015290519081900360640190fd5b60ef60009054906101000a90046001600160a01b03166001600160a01b03166340b982536040518163ffffffff1660e01b815260040160206040518083038186803b1580156120ea57600080fd5b505afa1580156120fe573d6000803e3d6000fd5b505050506040513d602081101561211457600080fd5b505115801561219a575060ef60009054906101000a90046001600160a01b03166001600160a01b031663b51459fe6040518163ffffffff1660e01b815260040160206040518083038186803b15801561216c57600080fd5b505afa158015612180573d6000803e3d6000fd5b505050506040513d602081101561219657600080fd5b5051155b6121eb576040805162461bcd60e51b815260206004820152601260248201527f45474c3a47454e455349535f4c4f434b45440000000000000000000000000000604482015290519081900360640190fd5b33600090815260eb602052604090205463ffffffff1615612253576040805162461bcd60e51b815260206004820152601360248201527f45474c3a414c52454144595f434c41494d454400000000000000000000000000604482015290519081900360640190fd5b60ef5460408051630fb6a4a160e11b8152336004820152905160009283926001600160a01b0390911691631f6d494291602480820192608092909190829003018186803b1580156122a357600080fd5b505afa1580156122b7573d6000803e3d6000fd5b505050506040513d60808110156122cd57600080fd5b50805160209091015190925090508161232d576040805162461bcd60e51b815260206004820152601360248201527f45474c3a4e4f545f434f4e545249425554454400000000000000000000000000604482015290519081900360640190fd5b6000612350670de0b6b3a7640000610ebd60fc54866137e290919063ffffffff16565b90506000612375670de0b6b3a7640000610ebd60fd54876137e290919063ffffffff16565b9050600061239e670de0b6b3a7640000610ebd60fc54610ec989896135c790919063ffffffff16565b905060006123b2828563ffffffff61361216565b905060006123c08383614481565b33600090815260eb60205260409020805463ffffffff1916600190811782558101869055600281018590556003810184905560fa54919250906124039083613612565b60fa55609d54612419908363ffffffff61361216565b609d5560fc5460fd5460408051338152602081018c90528082018e905260ff8d166060820152608081019390935260a083019190915260c0820184905260e0820187905242610100830152517f27b23b2a7364e907ba19610e73d1a11ff47e714246d1192f15ccbffa74a8f7c0918190036101200190a16124da338b848c6124d56124c6603460f360039054906101000a900463ffffffff1663ffffffff166137e290919063ffffffff16565b609c549063ffffffff61361216565b613f83565b50505050505050505050565b60655460ff1615612531576040805162461bcd60e51b815260206004820152601060248201526f14185d5cd8589b194e881c185d5cd95960821b604482015290519081900360640190fd5b670de0b6b3a764000082101561258e576040805162461bcd60e51b815260206004820152601060248201527f45474c3a414d4e545f544f4f5f4c4f5700000000000000000000000000000000604482015290519081900360640190fd5b60ed54604080516370a0823160e01b815233600482015290516001600160a01b03909216916370a0823191602480820192602092909190829003018186803b1580156125d957600080fd5b505afa1580156125ed573d6000803e3d6000fd5b505050506040513d602081101561260357600080fd5b5051821115612659576040805162461bcd60e51b815260206004820152601c60248201527f45474c3a494e53554646494349454e545f45474c5f42414c414e434500000000604482015290519081900360640190fd5b60ed5460408051636eb1769f60e11b8152336004820152306024820152905184926001600160a01b03169163dd62ed3e916044808301926020929190829003018186803b1580156126a957600080fd5b505afa1580156126bd573d6000803e3d6000fd5b505050506040513d60208110156126d357600080fd5b50511015612728576040805162461bcd60e51b815260206004820152601a60248201527f45474c3a494e53554646494349454e545f414c4c4f57414e4345000000000000604482015290519081900360640190fd5b60f354609c546127489163ffffffff630100000090910481169061361216565b42111561275757612757610d6f565b60ed54604080516323b872dd60e01b81523360048201523060248201526044810185905290516001600160a01b03909216916323b872dd916064808201926020929091908290030181600087803b1580156127b157600080fd5b505af11580156127c5573d6000803e3d6000fd5b505050506040513d60208110156127db57600080fd5b506127ec9050338484846000613f83565b505050565b600054610100900460ff168061280a575061280a61461f565b80612818575060005460ff16155b6128535760405162461bcd60e51b815260040180806020018281038252602e815260200180614a39602e913960400191505060405180910390fd5b600054610100900460ff1615801561287e576000805460ff1961ff0019909116610100171660011790555b6001600160a01b038a166128d9576040805162461bcd60e51b815260206004820152601a60248201527f45474c3a494e56414c49445f45474c5f544f4b454e5f41444452000000000000604482015290519081900360640190fd5b6001600160a01b038916612934576040805162461bcd60e51b815260206004820152601960248201527f45474c3a494e56414c49445f42505f544f4b454e5f4144445200000000000000604482015290519081900360640190fd5b6001600160a01b03881661298f576040805162461bcd60e51b815260206004820152601860248201527f45474c3a494e56414c49445f47454e455349535f414444520000000000000000604482015290519081900360640190fd5b612997614625565b61299f6146c6565b6129a76147cc565b60ed80546001600160a01b03808d1673ffffffffffffffffffffffffffffffffffffffff199283161790925560ee80548c841690831617905560ef80548b841692169190911790819055604080517f4b472d4500000000000000000000000000000000000000000000000000000000815290516000939290921691634b472d4591600480820192602092909190829003018186803b158015612a4857600080fd5b505afa158015612a5c573d6000803e3d6000fd5b505050506040513d6020811015612a7257600080fd5b5051905080612ac8576040805162461bcd60e51b815260206004820152601660248201527f45474c3a4e4f5f47454e455349535f42414c414e434500000000000000000000604482015290519081900360640190fd5b60ee5460ef54604080517f8da5cb5b00000000000000000000000000000000000000000000000000000000815290516000936001600160a01b03908116936370a0823193911691638da5cb5b91600480820192602092909190829003018186803b158015612b3557600080fd5b505afa158015612b49573d6000803e3d6000fd5b505050506040513d6020811015612b5f57600080fd5b5051604080517fffffffff0000000000000000000000000000000000000000000000000000000060e085901b1681526001600160a01b039092166004830152516024808301926020929190829003018186803b158015612bbe57600080fd5b505afa158015612bd2573d6000803e3d6000fd5b505050506040513d6020811015612be857600080fd5b50519050612c1482610ebd6b026c62ad77dc602dae000000670de0b6b3a764000063ffffffff6137e216565b60fc55612c3382610ebd83670de0b6b3a764000063ffffffff6137e216565b60fd55612c4b63ffffffff80891690600a906137e216565b60f65560f4899055609c89905560f3805462ffffff191662ffffff8a161766ffffffff0000001916630100000063ffffffff8a160217905560f0805473ffffffffffffffffffffffffffffffffffffffff19166001600160a01b0386161790556b026c62ad77dc602dae000000609d81905545609a819055609881905560998190556097556b0409f9cbc7c4a04c2200000060f75560f855855115612d395760005b86518160ff161015612d3757612d2f878260ff1681518110612d0b57fe5b6020026020010151878360ff1681518110612d2257fe5b602002602001015161194e565b600101612ced565b505b60ed5460ef5460fc5460fd5460f65460f45460f354604080513381523060208201526001600160a01b03988916818301529790961660608801526080870189905260a087019490945260c086019290925260e085015261010084015262ffffff81166101208401526301000000900463ffffffff1661014083015242610160830152517f162f0f0749685a830e63f558485ce790587625c4206d0489cf7e42b44b4c785691610180908290030190a1505080156124da576000805461ff001916905550505050505050505050565b60d28160088110611d8957fe5b6000612e2285858585614877565b6040805182815290519192507f4559bb1fd8d38ac4225e2e69ac3391fa694f480b89635e5e4d729f3e89794112919081900360200190a15050505050565b60655460ff1615612eab576040805162461bcd60e51b815260206004820152601060248201526f14185d5cd8589b194e881c185d5cd95960821b604482015290519081900360640190fd5b33600090815260eb602052604090205463ffffffff16612f12576040805162461bcd60e51b815260206004820152601260248201527f45474c3a4e4f5f504f4f4c5f544f4b454e530000000000000000000000000000604482015290519081900360640190fd5b60f65460f454612f2990429063ffffffff6135c716565b11612f7b576040805162461bcd60e51b815260206004820152601560248201527f45474c3a414c4c5f544f4b454e535f4c4f434b45440000000000000000000000604482015290519081900360640190fd5b6000612faa612f9560f454426135c790919063ffffffff16565b6b026c62ad77dc602dae00000060f6546144dc565b33600090815260eb60205260409020600281015491925090821015613016576040805162461bcd60e51b815260206004820152601660248201527f45474c3a414444525f544f4b454e535f4c4f434b454400000000000000000000604482015290519081900360640190fd5b600081600301548310613154575060018101805460009182905533825260ea6020526040822080549192909161305e9061ffff6101008204169060ff1663ffffffff61361216565b609b5490915061ffff16811161307457426130b1565b60f354609b546130b1916130a491630100000090910463ffffffff90811691610ec991869161ffff16906135c716565b429063ffffffff61361216565b6001808401919091558401546002850154600386015460408051338152602081018a90528082018890526060810194909452608084019290925260a08301524260c0830152517f08c3711e2841c8ace4a6507d655277b6ea25bd017f0597be2b4365cd28e39f3b9181900360e00190a1505033600090815260eb60205260408120805463ffffffff191681556001810182905560028101829055600301556131f7565b61316c83836002015484600301548560010154614877565b6001830154909150613184908263ffffffff6135c716565b600183018190556002830154600384015460408051338152602081018890528082018690526060810194909452608084019290925260a08301524260c0830152517f08c3711e2841c8ace4a6507d655277b6ea25bd017f0597be2b4365cd28e39f3b9181900360e00190a1600282018390555b60ee54604080516370a0823160e01b815230600482015290516001600160a01b039092169163a9059cbb9133916132509185916370a0823191602480820192602092909190829003018186803b158015610c3a57600080fd5b6040518363ffffffff1660e01b815260040180836001600160a01b03166001600160a01b0316815260200182815260200192505050602060405180830381600087803b15801561329f57600080fd5b505af11580156132b3573d6000803e3d6000fd5b505050506040513d6020811015611e7457600080fd5b6132d161447d565b6033546001600160a01b03908116911614613333576040805162461bcd60e51b815260206004820181905260248201527f4f776e61626c653a2063616c6c6572206973206e6f7420746865206f776e6572604482015290519081900360640190fd5b6001600160a01b0381166133785760405162461bcd60e51b81526004018080602001828103825260268152602001806149f26026913960400191505060405180910390fd5b6033546040516001600160a01b038084169216907f8be0079c531659141344cd1fd0a4f28419497f9722a3daafe3b4186f6b6457e090600090a36033805473ffffffffffffffffffffffffffffffffffffffff19166001600160a01b0392909216919091179055565b609d5481565b60995481565b6000806000806133fd85876148bd565b9050600061340b86896148bd565b905060006134218861271063ffffffff6138b316565b905060006134378961271063ffffffff6139d016565b9050808a121580156134495750818a13155b1561346e57613467670de0b6b3a7640000606463ffffffff6137e216565b9550613507565b6000841380156134b3575087891380156134875750878a135b80156134935750818a13155b806134b3575087891280156134a75750878a125b80156134b35750808a12155b15613507576134d9604b610ec98661111287670de0b6b3a764000063ffffffff613a4416565b94506135046134f7670de0b6b3a7640000601963ffffffff6137e216565b869063ffffffff61361216565b95505b6135406064610ebd670de0b6b3a7640000610ebd613533624c4b4060f75461383b90919063ffffffff16565b8b9063ffffffff6137e216565b609b5460f7546040805143815261ffff909316602084015282810191909152606082018d9052608082018c905260a082018b905260c0820188905260e082018990526101008201839052519198507f0a6c8f54ddfdd3699de4aba00b3be787310337c69fabd5b346859d86aafa911091908190036101200190a15050505050509392505050565b600061360983836040518060400160405280601e81526020017f536166654d6174683a207375627472616374696f6e206f766572666c6f7700008152506148d4565b90505b92915050565b600082820183811015613609576040805162461bcd60e51b815260206004820152601b60248201527f536166654d6174683a206164646974696f6e206f766572666c6f770000000000604482015290519081900360640190fd5b600081831061367b5781613609565b5090919050565b6000806136b360346136a761ffff808a169082908a1660ff8a1663ffffffff61361216565b9063ffffffff61366c16565b9050845b818161ffff1610156137d757600061370d609e8361ffff16603481106136d957fe5b0154610ebd6136f3603461ffff871663ffffffff6135c716565b610ec989694cd5d9c0f8633ab6000063ffffffff6137e216565b905061371f848263ffffffff61361216565b93507f8e7cb6eb982fc3985d01b0511802c5a4c6d9bf419ed5adbe39eaa4da9750474b8989868489694cd5d9c0f8633ab60000613767603461ffff8b1663ffffffff6135c716565b609e8a61ffff166034811061377857fe5b0154604080516001600160a01b03909916895261ffff9097166020890152878701959095526060870193909352608086019190915260a085015260c084015260e08301524261010083015251908190036101200190a1506001016136b7565b505095945050505050565b6000826137f15750600061360c565b828202828482816137fe57fe5b04146136095760405162461bcd60e51b8152600401808060200182810382526021815260200180614a886021913960400191505060405180910390fd5b600061360983836040518060400160405280601a81526020017f536166654d6174683a206469766973696f6e206279207a65726f00000000000081525061496b565b600080609d541161388f57600061360c565b609d5461360c90610ebd6064610ec986670de0b6b3a764000063ffffffff6137e216565b60008282018183128015906138c85750838112155b806138dd57506000831280156138dd57508381125b6136095760405162461bcd60e51b8152600401808060200182810382526021815260200180614a186021913960400191505060405180910390fd5b60008161396c576040805162461bcd60e51b815260206004820181905260248201527f5369676e6564536166654d6174683a206469766973696f6e206279207a65726f604482015290519081900360640190fd5b816000191480156139805750600160ff1b83145b156139bc5760405162461bcd60e51b8152600401808060200182810382526021815260200180614a676021913960400191505060405180910390fd5b60008284816139c757fe5b05949350505050565b60008183038183128015906139e55750838113155b806139fa57506000831280156139fa57508381135b6136095760405162461bcd60e51b8152600401808060200182810382526024815260200180614ad06024913960400191505060405180910390fd5b600081831261367b5781613609565b600082613a535750600061360c565b82600019148015613a675750600160ff1b82145b15613aa35760405162461bcd60e51b8152600401808060200182810382526027815260200180614aa96027913960400191505060405180910390fd5b82820282848281613ab057fe5b05146136095760405162461bcd60e51b8152600401808060200182810382526027815260200180614aa96027913960400191505060405180910390fd5b60f354600090613b4690613b1390849063ffffffff63010000009091048116906137e216565b60f3546b026c62ad77dc602dae00000090613b4190600a9063ffffffff63010000009091048116906137e216565b6144dc565b90506000613b6560f8546136a760f954856135c790919063ffffffff16565b60ed5460f054604080517fa9059cbb0000000000000000000000000000000000000000000000000000000081526001600160a01b03928316600482015260248101859052905193945091169163a9059cbb916044808201926020929091908290030181600087803b158015613bd957600080fd5b505af1158015613bed573d6000803e3d6000fd5b505050506040513d6020811015613c0357600080fd5b505060f854613c18908263ffffffff6135c716565b60f855609d54613c2e908263ffffffff61361216565b609d5560f05460f95460f854609b54604080513381526001600160a01b0390951660208601528481018690526060850193909352608084019190915261ffff1660a08301524260c0830152517fb8eb1858344dfad27243fc861330eea15630cddc1d8c5c4eb9a72bb059aae54b9181900360e00190a15060f95550565b6001600160a01b038116600090815260ea60205260408120805460028201805460038401805462ffffff1985168655600186018790559286905585905561ffff61010084041692909160ff9091169085613d0b848463ffffffff6137e216565b609b54909150600090613d26908a9061ffff16888786613682565b90506000613d4161ffff881660ff871663ffffffff61361216565b609b5490915060009061ffff168211613d5b576000613d73565b609b54613d7390839061ffff1663ffffffff6135c716565b905060005b818160ff161015613e9457613da58560da8360ff1660088110613d9757fe5b01549063ffffffff6135c716565b60da8260ff1660088110613db557fe5b0155613dda613dca868863ffffffff6137e216565b60e28360ff1660088110613d9757fe5b60e28260ff1660088110613dea57fe5b0155609b54603490613e099061ffff1660ff841663ffffffff61361216565b1015613e6657609b54613e3c908690609e90613e329061ffff1660ff861663ffffffff61361216565b60348110613d9757fe5b609b54609e90613e599061ffff1660ff851663ffffffff61361216565b60348110613e6357fe5b01555b613e7a8860d28360ff1660088110613d9757fe5b60d28260ff1660088110613e8a57fe5b0155600101613d78565b50609d54613ea8908463ffffffff61361216565b609d55609b547fe0b45c9063ac79a1ba771cbe0d96ebb606253f393afdf9bd0bb9b2bc7eb16487908c9061ffff1689868960348410613ee8576000613eff565b609b54609e9061ffff1660348110613efc57fe5b01545b60d25460da5460e254604080516001600160a01b039a909a168a5261ffff9890981660208a0152888801969096526060880194909452608087019290925260a086015260c085015260e08401526101008301524261012083015251908190036101400190a1613f74878463ffffffff61361216565b9b9a5050505050505050505050565b6001600160a01b038516600090815260ea602052604090206002015415613ff1576040805162461bcd60e51b815260206004820152601160248201527f45474c3a414c52454144595f564f544544000000000000000000000000000000604482015290519081900360640190fd5b623d0900613fff85456149d0565b10614051576040805162461bcd60e51b815260206004820152601660248201527f45474c3a494e56414c49445f4741535f54415247455400000000000000000000604482015290519081900360640190fd5b60018260ff1610158015614069575060088260ff1611155b6140ba576040805162461bcd60e51b815260206004820152601260248201527f45474c3a494e56414c49445f4c4f434b55500000000000000000000000000000604482015290519081900360640190fd5b60f354609c546140da9163ffffffff630100000090910481169061361216565b421061412d576040805162461bcd60e51b815260206004820152601060248201527f45474c3a564f54455f544f4f5f46415200000000000000000000000000000000604482015290519081900360640190fd5b60f354609c546141649162ffffff8116916141589163ffffffff630100000090910481169061361216565b9063ffffffff6135c716565b42106141b7576040805162461bcd60e51b815260206004820152601260248201527f45474c3a564f54455f544f4f5f434c4f53450000000000000000000000000000604482015290519081900360640190fd5b60f1546141ca904563ffffffff6138b316565b60f15560f2546141e190600163ffffffff6138b316565b60f25560f35460009061421f908390614213906130a49060ff88169063ffffffff63010000009091048116906137e216565b9063ffffffff6149e116565b6001600160a01b038716600090815260ea60205260408120609b54815462ffff00191661010061ffff909216919091021760ff191660ff87169081178255600182018490556002820188905560038201899055929350916142819087906137e2565b905060005b8560ff168160ff1610156143a5576142b68260da8360ff16600881106142a857fe5b01549063ffffffff61361216565b60da8260ff16600881106142c657fe5b01556142eb6142db898463ffffffff6137e216565b60e28360ff16600881106142a857fe5b60e28260ff16600881106142fb57fe5b0155609b5460349061431a9061ffff1660ff841663ffffffff61361216565b101561437757609b5461434d908390609e906143439061ffff1660ff861663ffffffff61361216565b603481106142a857fe5b609b54609e9061436a9061ffff1660ff851663ffffffff61361216565b6034811061437457fe5b01555b61438b8760d28360ff16600881106142a857fe5b60d28260ff166008811061439b57fe5b0155600101614286565b50609b5460da5460e2547f58d3ad4d526c4b6a438a40b7d49daf638c30beaf79f1bea88df8dded09356181928b9261ffff909116918b918b918b918a91603487106143f1576000614408565b609b54609e9061ffff166034811061440557fe5b01545b60d260000154604080516001600160a01b03909b168b5261ffff90991660208b015289890197909752606089019590955260ff909316608088015260a087019190915260c086015260e08501526101008401526101208301524261014083015251908190036101600190a15050505050505050565b3390565b60006136096b020b73425d21f1268ad00000610ebd670de0b6b3a7640000610ec960046144b4898463ffffffff61383b16565b0a60046144cf89670de0b6b3a764000063ffffffff61383b16565b0a9063ffffffff6135c716565b60f3546000906144ff9063ffffffff63010000009091048116906034906137e216565b841061450c575081614618565b60f354600090614555906145399085906141589063ffffffff63010000009091048116906034906137e216565b610ebd670de0b6b3a7640000610ec9898863ffffffff6135c716565b90506145ae6c0c9f2c9cd04674edea40000000610ebd6305f5e100610ec961458b89670de0b6b3a764000063ffffffff61383b16565b60046145a1886305f5e10063ffffffff61383b16565b0a9063ffffffff6137e216565b609b549092507fd674ec717f393e2cff4f3c2e92d6d823c262c12261e038db6ea1d41e3a40267c9061ffff166145eb83606463ffffffff6137e216565b6040805161ffff9093168352602083019190915281810185905260608201879052519081900360800190a1505b9392505050565b303b1590565b600054610100900460ff168061463e575061463e61461f565b8061464c575060005460ff16155b6146875760405162461bcd60e51b815260040180806020018281038252602e815260200180614a39602e913960400191505060405180910390fd5b600054610100900460ff161580156146b2576000805460ff1961ff0019909116610100171660011790555b801561200d576000805461ff001916905550565b600054610100900460ff16806146df57506146df61461f565b806146ed575060005460ff16155b6147285760405162461bcd60e51b815260040180806020018281038252602e815260200180614a39602e913960400191505060405180910390fd5b600054610100900460ff16158015614753576000805460ff1961ff0019909116610100171660011790555b600061475d61447d565b6033805473ffffffffffffffffffffffffffffffffffffffff19166001600160a01b038316908117909155604051919250906000907f8be0079c531659141344cd1fd0a4f28419497f9722a3daafe3b4186f6b6457e0908290a350801561200d576000805461ff001916905550565b600054610100900460ff16806147e557506147e561461f565b806147f3575060005460ff16155b61482e5760405162461bcd60e51b815260040180806020018281038252602e815260200180614a39602e913960400191505060405180910390fd5b600054610100900460ff16158015614859576000805460ff1961ff0019909116610100171660011790555b6065805460ff19169055801561200d576000805461ff001916905550565b60008061488e85614158888763ffffffff61366c16565b90506148b36148a3858763ffffffff6135c716565b610ebd858463ffffffff6137e216565b9695505050505050565b60008183136148ce57828203613609565b50900390565b600081848411156149635760405162461bcd60e51b81526004018080602001828103825283818151815260200191508051906020019080838360005b83811015614928578181015183820152602001614910565b50505050905090810190601f1680156149555780820380516001836020036101000a031916815260200191505b509250505060405180910390fd5b505050900390565b600081836149ba5760405162461bcd60e51b8152602060048201818152835160248401528351909283926044909101919085019080838360008315614928578181015183820152602001614910565b5060008385816149c657fe5b0495945050505050565b60008183116148ce57828203613609565b60008183101561367b578161360956fe4f776e61626c653a206e6577206f776e657220697320746865207a65726f20616464726573735369676e6564536166654d6174683a206164646974696f6e206f766572666c6f77496e697469616c697a61626c653a20636f6e747261637420697320616c726561647920696e697469616c697a65645369676e6564536166654d6174683a206469766973696f6e206f766572666c6f77536166654d6174683a206d756c7469706c69636174696f6e206f766572666c6f775369676e6564536166654d6174683a206d756c7469706c69636174696f6e206f766572666c6f775369676e6564536166654d6174683a207375627472616374696f6e206f766572666c6f77a2646970667358221220aca6013cf344767de52f82c3fd4e4d9469eeb39ee34ace8d769bcb7fa12ddb5764736f6c63430006060033",
  "immutableReferences": {},
  "source": "pragma solidity 0.6.6;\n\nimport \"../EglContract.sol\";\n\ncontract TestableEglContract is EglContract {\n    event PercentageCalculated(uint percentage);\n    event ReleasedEglCalculated(uint currentEgl);\n    event PoolTokensDueCalculated(uint poolTokensDue);\n    event BonusEglsDueCalculated(uint bonusEglsDue);\n\n    function internalVote(\n        address _voter,\n        uint _gasTarget,\n        uint _eglAmount,\n        uint8 _lockupDuration,\n        uint _releaseTime\n    ) external {\n        _internalVote(\n            _voter,\n            _gasTarget,\n            _eglAmount,\n            _lockupDuration,\n            _releaseTime\n        );\n    }\n\n    function internalWithdraw(address _voter) external {\n        _internalWithdraw(_voter);\n    }\n\n    function issueCreatorRewards(uint _timePassedSinceOrigin) external {\n        _issueCreatorRewards(_timePassedSinceOrigin);\n    }\n\n    function calculateBlockReward(int _blockGasLimit, int _desiredEgl, int _tallyVoteGasLimit) external {\n        _calculateBlockReward(_blockGasLimit, _desiredEgl, _tallyVoteGasLimit);\n    }\n\n    function calculateReleasedEgl(uint _timePassedSinceOrigin, uint _maxSupply, uint _timeLocked) external {\n        uint releasedEgl = _calculateReleasedEgl(_timePassedSinceOrigin, _maxSupply, _timeLocked);\n        emit ReleasedEglCalculated(releasedEgl);\n    }\n    \n    function calculateCurrentPoolTokensDue(\n        uint _currentEgl, \n        uint _firstEgl, \n        uint _lastEgl, \n        uint _totalPoolTokens\n    ) external {\n        uint poolTokensDue = _calculateCurrentPoolTokensDue(_currentEgl, _firstEgl, _lastEgl, _totalPoolTokens);\n        emit PoolTokensDueCalculated(poolTokensDue);\n    }\n\n    function calculateBonusEglsDue(uint _firstEgl, uint _lastEgl) external {\n        uint bonusEglsDue = _calculateBonusEglsDue(_firstEgl, _lastEgl);\n        emit BonusEglsDueCalculated(bonusEglsDue);\n    }\n\n    function calculateVoterReward(\n        address _voter,\n        uint16 _currentEpoch,\n        uint16 _voterEpoch,\n        uint8 _lockupDuration,\n        uint _voteWeight\n    ) external {\n        _calculateVoterReward(_voter, _currentEpoch, _voterEpoch, _lockupDuration, _voteWeight);\n    }\n\n    function calculatePercentageOfTokensInCirculation(uint _itemTotal, uint _tokensInCirculation) external {\n        tokensInCirculation = _tokensInCirculation;\n        uint percentage = _calculatePercentageOfTokensInCirculation(_itemTotal);\n        emit PercentageCalculated(percentage);\n    }\n}",
  "sourcePath": "/Users/svancoller/Development/bloXroute/egl/contracts/helpers/TestableEglContract.sol",
  "compiler": {
    "name": "solc",
    "version": "0.6.6+commit.6c089d02.Emscripten.clang"
  },
  "schemaVersion": "3.2.5",
  "updatedAt": "2021-06-17T00:14:56.848Z",
  "devdoc": {
    "methods": {
      "addSeedAccount(address,uint256)": {
        "details": "Owner only function to add a seeder account with specified number of EGL's",
        "params": {
          "_seedAccount": "Wallet address of seeder",
          "_seedAmount": "Amount to seed"
        }
      },
      "claimSeederEgls(uint256,uint8)": {
        "details": "Function for seed accounts to claim their EGL's and enter initial vote with locked tokens",
        "params": {
          "_gasTarget": "desired gas target for initial vote when claiming tokens",
          "_lockupDuration": "duration to lock tokens for initial vote"
        }
      },
      "claimSupporterEgls(uint256,uint8)": {
        "details": "Allows EGL Genesis contributors to claim their \"bonus\" EGL's that get entered into initial vote",
        "params": {
          "_gasTarget": "desired gas target for initial vote when claiming tokens",
          "_lockupDuration": "duration to lock tokens for initial vote"
        }
      },
      "initialize(address,address,address,uint256,uint24,uint32,address[],uint256[],address)": {
        "details": "Initialized contract variables",
        "params": {
          "_creatorRewardsAccount": "Address that creator rewards get sent to",
          "_currentEpochStartDate": "Start date for the first epoch",
          "_epochLength": "The length of each epoch in seconds",
          "_genesis": "Address of the EGL Genesis contract",
          "_poolToken": "Address of the Balance Pool Token (BPT)",
          "_seedAccounts": "List of accounts to seed with EGL's",
          "_seedAmounts": "Amount of EGLS's to seeds accounts with",
          "_token": "Address of the EGL token     ",
          "_votingPauseSeconds": "Number of seconds to pause voting before votes are tallied"
        }
      },
      "owner()": {
        "details": "Returns the address of the current owner."
      },
      "paused()": {
        "details": "Returns true if the contract is paused, and false otherwise."
      },
      "reVote(uint256,uint256,uint8)": {
        "details": "Re-Vote to change parameters of an existing vote",
        "params": {
          "_eglAmount": "Amount of EGL's to vote with",
          "_gasTarget": "The desired gas limit",
          "_lockupDuration": "Duration to lock the EGL's"
        }
      },
      "renounceOwnership()": {
        "details": "Do not allow owner to renounce ownership, only transferOwnership"
      },
      "sweepPoolRewards()": {
        "details": "Send EGL reward to miner of the block. Reward caclulated based on how close the block gas limit is to the desired EGL. The closer it is, the higher the reward"
      },
      "tallyVotes()": {
        "details": "Tally Votes for the most recent epoch and calculate the new desired EGL amount"
      },
      "transferOwnership(address)": {
        "details": "Transfers ownership of the contract to a new account (`newOwner`). Can only be called by the current owner."
      },
      "vote(uint256,uint256,uint8)": {
        "details": "Vote for desired gas limit and upgrade",
        "params": {
          "_eglAmount": "Amount of EGL's to vote with",
          "_gasTarget": "The desired gas limit",
          "_lockupDuration": "Duration to lock the EGL's"
        }
      },
      "withdraw()": {
        "details": "Withdraw EGL's once they have matured"
      },
      "withdrawPoolTokens()": {
        "details": "Allows for the withdrawal of liquidity pool tokens once they have matured"
      }
    }
  },
  "userdoc": {
    "methods": {}
  }
}