{
  "contractName": "TestableEglContract",
  "abi": [
    {
      "anonymous": false,
      "inputs": [
        {
          "indexed": false,
          "internalType": "uint256",
          "name": "blockNumber",
          "type": "uint256"
        },
        {
          "indexed": false,
          "internalType": "uint16",
          "name": "currentEpoch",
          "type": "uint16"
        },
        {
          "indexed": false,
          "internalType": "uint256",
          "name": "remainingPoolReward",
          "type": "uint256"
        },
        {
          "indexed": false,
          "internalType": "int256",
          "name": "blockGasLimit",
          "type": "int256"
        },
        {
          "indexed": false,
          "internalType": "int256",
          "name": "desiredEgl",
          "type": "int256"
        },
        {
          "indexed": false,
          "internalType": "int256",
          "name": "tallyVotesGasLimit",
          "type": "int256"
        },
        {
          "indexed": false,
          "internalType": "uint256",
          "name": "proximityRewardPercent",
          "type": "uint256"
        },
        {
          "indexed": false,
          "internalType": "uint256",
          "name": "totalRewardPercent",
          "type": "uint256"
        },
        {
          "indexed": false,
          "internalType": "uint256",
          "name": "blockReward",
          "type": "uint256"
        },
        {
          "indexed": false,
          "internalType": "uint256",
          "name": "date",
          "type": "uint256"
        }
      ],
      "name": "BlockRewardCalculated",
      "type": "event"
    },
    {
      "anonymous": false,
      "inputs": [
        {
          "indexed": false,
          "internalType": "uint256",
          "name": "bonusEglsDue",
          "type": "uint256"
        }
      ],
      "name": "BonusEglsDueCalculated",
      "type": "event"
    },
    {
      "anonymous": false,
      "inputs": [
        {
          "indexed": false,
          "internalType": "address",
          "name": "caller",
          "type": "address"
        },
        {
          "indexed": false,
          "internalType": "address",
          "name": "creatorRewardAddress",
          "type": "address"
        },
        {
          "indexed": false,
          "internalType": "uint256",
          "name": "amountClaimed",
          "type": "uint256"
        },
        {
          "indexed": false,
          "internalType": "uint256",
          "name": "lastEpochReward",
          "type": "uint256"
        },
        {
          "indexed": false,
          "internalType": "uint256",
          "name": "remainingCreatorReward",
          "type": "uint256"
        },
        {
          "indexed": false,
          "internalType": "uint16",
          "name": "currentEpoch",
          "type": "uint16"
        },
        {
          "indexed": false,
          "internalType": "uint256",
          "name": "date",
          "type": "uint256"
        }
      ],
      "name": "CreatorRewardsClaimed",
      "type": "event"
    },
    {
      "anonymous": false,
      "inputs": [
        {
          "indexed": false,
          "internalType": "address",
          "name": "sender",
          "type": "address"
        },
        {
          "indexed": false,
          "internalType": "uint256",
          "name": "amount",
          "type": "uint256"
        }
      ],
      "name": "EthReceived",
      "type": "event"
    },
    {
      "anonymous": false,
      "inputs": [
        {
          "indexed": false,
          "internalType": "address",
          "name": "deployer",
          "type": "address"
        },
        {
          "indexed": false,
          "internalType": "address",
          "name": "eglContract",
          "type": "address"
        },
        {
          "indexed": false,
          "internalType": "address",
          "name": "eglToken",
          "type": "address"
        },
        {
          "indexed": false,
          "internalType": "address",
          "name": "genesisContract",
          "type": "address"
        },
        {
          "indexed": false,
          "internalType": "uint256",
          "name": "totalGenesisEth",
          "type": "uint256"
        },
        {
          "indexed": false,
          "internalType": "uint256",
          "name": "ethEglRatio",
          "type": "uint256"
        },
        {
          "indexed": false,
          "internalType": "uint256",
          "name": "ethBptRatio",
          "type": "uint256"
        },
        {
          "indexed": false,
          "internalType": "uint256",
          "name": "minLiquidityTokensLockup",
          "type": "uint256"
        },
        {
          "indexed": false,
          "internalType": "uint256",
          "name": "firstEpochStartDate",
          "type": "uint256"
        },
        {
          "indexed": false,
          "internalType": "uint256",
          "name": "votingPauseSeconds",
          "type": "uint256"
        },
        {
          "indexed": false,
          "internalType": "uint256",
          "name": "epochLength",
          "type": "uint256"
        },
        {
          "indexed": false,
          "internalType": "uint256",
          "name": "date",
          "type": "uint256"
        }
      ],
      "name": "Initialized",
      "type": "event"
    },
    {
      "anonymous": false,
      "inputs": [
        {
          "indexed": true,
          "internalType": "address",
          "name": "previousOwner",
          "type": "address"
        },
        {
          "indexed": true,
          "internalType": "address",
          "name": "newOwner",
          "type": "address"
        }
      ],
      "name": "OwnershipTransferred",
      "type": "event"
    },
    {
      "anonymous": false,
      "inputs": [
        {
          "indexed": false,
          "internalType": "address",
          "name": "account",
          "type": "address"
        }
      ],
      "name": "Paused",
      "type": "event"
    },
    {
      "anonymous": false,
      "inputs": [
        {
          "indexed": false,
          "internalType": "uint256",
          "name": "percentage",
          "type": "uint256"
        }
      ],
      "name": "PercentageCalculated",
      "type": "event"
    },
    {
      "anonymous": false,
      "inputs": [
        {
          "indexed": false,
          "internalType": "address",
          "name": "caller",
          "type": "address"
        },
        {
          "indexed": false,
          "internalType": "address",
          "name": "coinbaseAddress",
          "type": "address"
        },
        {
          "indexed": false,
          "internalType": "uint256",
          "name": "blockNumber",
          "type": "uint256"
        },
        {
          "indexed": false,
          "internalType": "int256",
          "name": "blockGasLimit",
          "type": "int256"
        },
        {
          "indexed": false,
          "internalType": "uint256",
          "name": "blockReward",
          "type": "uint256"
        },
        {
          "indexed": false,
          "internalType": "uint256",
          "name": "date",
          "type": "uint256"
        }
      ],
      "name": "PoolRewardsSwept",
      "type": "event"
    },
    {
      "anonymous": false,
      "inputs": [
        {
          "indexed": false,
          "internalType": "uint256",
          "name": "poolTokensDue",
          "type": "uint256"
        }
      ],
      "name": "PoolTokensDueCalculated",
      "type": "event"
    },
    {
      "anonymous": false,
      "inputs": [
        {
          "indexed": false,
          "internalType": "address",
          "name": "caller",
          "type": "address"
        },
        {
          "indexed": false,
          "internalType": "uint256",
          "name": "currentEglReleased",
          "type": "uint256"
        },
        {
          "indexed": false,
          "internalType": "uint256",
          "name": "poolTokensDue",
          "type": "uint256"
        },
        {
          "indexed": false,
          "internalType": "uint256",
          "name": "poolTokens",
          "type": "uint256"
        },
        {
          "indexed": false,
          "internalType": "uint256",
          "name": "firstEgl",
          "type": "uint256"
        },
        {
          "indexed": false,
          "internalType": "uint256",
          "name": "lastEgl",
          "type": "uint256"
        },
        {
          "indexed": false,
          "internalType": "uint256",
          "name": "date",
          "type": "uint256"
        }
      ],
      "name": "PoolTokensWithdrawn",
      "type": "event"
    },
    {
      "anonymous": false,
      "inputs": [
        {
          "indexed": false,
          "internalType": "address",
          "name": "caller",
          "type": "address"
        },
        {
          "indexed": false,
          "internalType": "uint256",
          "name": "gasTarget",
          "type": "uint256"
        },
        {
          "indexed": false,
          "internalType": "uint256",
          "name": "eglAmount",
          "type": "uint256"
        },
        {
          "indexed": false,
          "internalType": "uint256",
          "name": "date",
          "type": "uint256"
        }
      ],
      "name": "ReVote",
      "type": "event"
    },
    {
      "anonymous": false,
      "inputs": [
        {
          "indexed": false,
          "internalType": "uint256",
          "name": "currentEgl",
          "type": "uint256"
        }
      ],
      "name": "ReleasedEglCalculated",
      "type": "event"
    },
    {
      "anonymous": false,
      "inputs": [
        {
          "indexed": false,
          "internalType": "uint256",
          "name": "currentEpoch",
          "type": "uint256"
        },
        {
          "indexed": false,
          "internalType": "uint256",
          "name": "timePassedPercentage",
          "type": "uint256"
        },
        {
          "indexed": false,
          "internalType": "uint256",
          "name": "currentEgl",
          "type": "uint256"
        },
        {
          "indexed": false,
          "internalType": "uint256",
          "name": "maxSupply",
          "type": "uint256"
        },
        {
          "indexed": false,
          "internalType": "uint256",
          "name": "date",
          "type": "uint256"
        }
      ],
      "name": "ReleasedEglCalculated",
      "type": "event"
    },
    {
      "anonymous": false,
      "inputs": [
        {
          "indexed": false,
          "internalType": "address",
          "name": "seedAccount",
          "type": "address"
        },
        {
          "indexed": false,
          "internalType": "uint256",
          "name": "seedAmount",
          "type": "uint256"
        },
        {
          "indexed": false,
          "internalType": "uint256",
          "name": "remainingDaoBalance",
          "type": "uint256"
        },
        {
          "indexed": false,
          "internalType": "uint256",
          "name": "date",
          "type": "uint256"
        }
      ],
      "name": "SeedAccountAdded",
      "type": "event"
    },
    {
      "anonymous": false,
      "inputs": [
        {
          "indexed": false,
          "internalType": "address",
          "name": "seedAddress",
          "type": "address"
        },
        {
          "indexed": false,
          "internalType": "uint256",
          "name": "individualSeedAmount",
          "type": "uint256"
        },
        {
          "indexed": false,
          "internalType": "uint256",
          "name": "releaseDate",
          "type": "uint256"
        },
        {
          "indexed": false,
          "internalType": "uint256",
          "name": "date",
          "type": "uint256"
        }
      ],
      "name": "SeedAccountClaimed",
      "type": "event"
    },
    {
      "anonymous": false,
      "inputs": [
        {
          "indexed": false,
          "internalType": "address",
          "name": "caller",
          "type": "address"
        },
        {
          "indexed": false,
          "internalType": "uint256",
          "name": "amountContributed",
          "type": "uint256"
        },
        {
          "indexed": false,
          "internalType": "uint256",
          "name": "gasTarget",
          "type": "uint256"
        },
        {
          "indexed": false,
          "internalType": "uint256",
          "name": "lockDuration",
          "type": "uint256"
        },
        {
          "indexed": false,
          "internalType": "uint256",
          "name": "ethEglRatio",
          "type": "uint256"
        },
        {
          "indexed": false,
          "internalType": "uint256",
          "name": "ethBptRatio",
          "type": "uint256"
        },
        {
          "indexed": false,
          "internalType": "uint256",
          "name": "bonusEglsReceived",
          "type": "uint256"
        },
        {
          "indexed": false,
          "internalType": "uint256",
          "name": "poolTokensReceived",
          "type": "uint256"
        },
        {
          "indexed": false,
          "internalType": "uint256",
          "name": "date",
          "type": "uint256"
        }
      ],
      "name": "SupporterTokensClaimed",
      "type": "event"
    },
    {
      "anonymous": false,
      "inputs": [
        {
          "indexed": false,
          "internalType": "address",
          "name": "account",
          "type": "address"
        }
      ],
      "name": "Unpaused",
      "type": "event"
    },
    {
      "anonymous": false,
      "inputs": [
        {
          "indexed": false,
          "internalType": "address",
          "name": "caller",
          "type": "address"
        },
        {
          "indexed": false,
          "internalType": "uint16",
          "name": "currentEpoch",
          "type": "uint16"
        },
        {
          "indexed": false,
          "internalType": "uint256",
          "name": "gasTarget",
          "type": "uint256"
        },
        {
          "indexed": false,
          "internalType": "uint256",
          "name": "eglAmount",
          "type": "uint256"
        },
        {
          "indexed": false,
          "internalType": "uint8",
          "name": "lockupDuration",
          "type": "uint8"
        },
        {
          "indexed": false,
          "internalType": "uint256",
          "name": "releaseDate",
          "type": "uint256"
        },
        {
          "indexed": false,
          "internalType": "uint256",
          "name": "epochVoteWeightSum",
          "type": "uint256"
        },
        {
          "indexed": false,
          "internalType": "uint256",
          "name": "epochGasTargetSum",
          "type": "uint256"
        },
        {
          "indexed": false,
          "internalType": "uint256",
          "name": "epochVoterRewardSum",
          "type": "uint256"
        },
        {
          "indexed": false,
          "internalType": "uint256",
          "name": "epochTotalVotes",
          "type": "uint256"
        },
        {
          "indexed": false,
          "internalType": "uint256",
          "name": "date",
          "type": "uint256"
        }
      ],
      "name": "Vote",
      "type": "event"
    },
    {
      "anonymous": false,
      "inputs": [
        {
          "indexed": false,
          "internalType": "address",
          "name": "caller",
          "type": "address"
        },
        {
          "indexed": false,
          "internalType": "uint16",
          "name": "currentEpoch",
          "type": "uint16"
        },
        {
          "indexed": false,
          "internalType": "int256",
          "name": "desiredEgl",
          "type": "int256"
        },
        {
          "indexed": false,
          "internalType": "uint256",
          "name": "voteThreshold",
          "type": "uint256"
        },
        {
          "indexed": false,
          "internalType": "uint256",
          "name": "actualVotePercentage",
          "type": "uint256"
        },
        {
          "indexed": false,
          "internalType": "int256",
          "name": "baselineEgl",
          "type": "int256"
        },
        {
          "indexed": false,
          "internalType": "int256",
          "name": "initialEgl",
          "type": "int256"
        },
        {
          "indexed": false,
          "internalType": "uint256",
          "name": "timeSinceFirstEpoch",
          "type": "uint256"
        },
        {
          "indexed": false,
          "internalType": "uint256",
          "name": "gracePeriodSeconds",
          "type": "uint256"
        },
        {
          "indexed": false,
          "internalType": "uint256",
          "name": "date",
          "type": "uint256"
        }
      ],
      "name": "VoteThresholdFailed",
      "type": "event"
    },
    {
      "anonymous": false,
      "inputs": [
        {
          "indexed": false,
          "internalType": "address",
          "name": "caller",
          "type": "address"
        },
        {
          "indexed": false,
          "internalType": "uint16",
          "name": "currentEpoch",
          "type": "uint16"
        },
        {
          "indexed": false,
          "internalType": "int256",
          "name": "desiredEgl",
          "type": "int256"
        },
        {
          "indexed": false,
          "internalType": "uint256",
          "name": "voteThreshold",
          "type": "uint256"
        },
        {
          "indexed": false,
          "internalType": "uint256",
          "name": "actualVotePercentage",
          "type": "uint256"
        },
        {
          "indexed": false,
          "internalType": "int256",
          "name": "gasLimitSum",
          "type": "int256"
        },
        {
          "indexed": false,
          "internalType": "int256",
          "name": "voteCount",
          "type": "int256"
        },
        {
          "indexed": false,
          "internalType": "int256",
          "name": "baselineEgl",
          "type": "int256"
        },
        {
          "indexed": false,
          "internalType": "uint256",
          "name": "date",
          "type": "uint256"
        }
      ],
      "name": "VoteThresholdMet",
      "type": "event"
    },
    {
      "anonymous": false,
      "inputs": [
        {
          "indexed": false,
          "internalType": "address",
          "name": "voter",
          "type": "address"
        },
        {
          "indexed": false,
          "internalType": "uint16",
          "name": "currentEpoch",
          "type": "uint16"
        },
        {
          "indexed": false,
          "internalType": "uint256",
          "name": "voterReward",
          "type": "uint256"
        },
        {
          "indexed": false,
          "internalType": "uint256",
          "name": "epochVoterReward",
          "type": "uint256"
        },
        {
          "indexed": false,
          "internalType": "uint256",
          "name": "voteWeight",
          "type": "uint256"
        },
        {
          "indexed": false,
          "internalType": "uint256",
          "name": "rewardMultiplier",
          "type": "uint256"
        },
        {
          "indexed": false,
          "internalType": "uint256",
          "name": "weeksDiv",
          "type": "uint256"
        },
        {
          "indexed": false,
          "internalType": "uint256",
          "name": "epochVoterRewardSum",
          "type": "uint256"
        },
        {
          "indexed": false,
          "internalType": "uint256",
          "name": "date",
          "type": "uint256"
        }
      ],
      "name": "VoterRewardCalculated",
      "type": "event"
    },
    {
      "anonymous": false,
      "inputs": [
        {
          "indexed": false,
          "internalType": "address",
          "name": "caller",
          "type": "address"
        },
        {
          "indexed": false,
          "internalType": "uint16",
          "name": "currentEpoch",
          "type": "uint16"
        },
        {
          "indexed": false,
          "internalType": "int256",
          "name": "desiredEgl",
          "type": "int256"
        },
        {
          "indexed": false,
          "internalType": "int256",
          "name": "averageGasTarget",
          "type": "int256"
        },
        {
          "indexed": false,
          "internalType": "uint256",
          "name": "votingThreshold",
          "type": "uint256"
        },
        {
          "indexed": false,
          "internalType": "uint256",
          "name": "actualVotePercentage",
          "type": "uint256"
        },
        {
          "indexed": false,
          "internalType": "uint256",
          "name": "tokensInCirculation",
          "type": "uint256"
        },
        {
          "indexed": false,
          "internalType": "uint256",
          "name": "date",
          "type": "uint256"
        }
      ],
      "name": "VotesTallied",
      "type": "event"
    },
    {
      "anonymous": false,
      "inputs": [
        {
          "indexed": false,
          "internalType": "address",
          "name": "caller",
          "type": "address"
        },
        {
          "indexed": false,
          "internalType": "uint16",
          "name": "currentEpoch",
          "type": "uint16"
        },
        {
          "indexed": false,
          "internalType": "uint256",
          "name": "tokensLocked",
          "type": "uint256"
        },
        {
          "indexed": false,
          "internalType": "uint256",
          "name": "rewardTokens",
          "type": "uint256"
        },
        {
          "indexed": false,
          "internalType": "uint256",
          "name": "gasTarget",
          "type": "uint256"
        },
        {
          "indexed": false,
          "internalType": "uint256",
          "name": "epochVoterRewardSum",
          "type": "uint256"
        },
        {
          "indexed": false,
          "internalType": "uint256",
          "name": "epochTotalVotes",
          "type": "uint256"
        },
        {
          "indexed": false,
          "internalType": "uint256",
          "name": "epochVoteWeightSum",
          "type": "uint256"
        },
        {
          "indexed": false,
          "internalType": "uint256",
          "name": "epochGasTargetSum",
          "type": "uint256"
        },
        {
          "indexed": false,
          "internalType": "uint256",
          "name": "date",
          "type": "uint256"
        }
      ],
      "name": "Withdraw",
      "type": "event"
    },
    {
      "inputs": [
        {
          "internalType": "address",
          "name": "_seedAccount",
          "type": "address"
        },
        {
          "internalType": "uint256",
          "name": "_seedAmount",
          "type": "uint256"
        }
      ],
      "name": "addSeedAccount",
      "outputs": [],
      "stateMutability": "nonpayable",
      "type": "function"
    },
    {
      "inputs": [],
      "name": "baselineEgl",
      "outputs": [
        {
          "internalType": "int256",
          "name": "",
          "type": "int256"
        }
      ],
      "stateMutability": "view",
      "type": "function"
    },
    {
      "inputs": [
        {
          "internalType": "uint256",
          "name": "_gasTarget",
          "type": "uint256"
        },
        {
          "internalType": "uint8",
          "name": "_lockupDuration",
          "type": "uint8"
        }
      ],
      "name": "claimSeederEgls",
      "outputs": [],
      "stateMutability": "nonpayable",
      "type": "function"
    },
    {
      "inputs": [
        {
          "internalType": "uint256",
          "name": "_gasTarget",
          "type": "uint256"
        },
        {
          "internalType": "uint8",
          "name": "_lockupDuration",
          "type": "uint8"
        }
      ],
      "name": "claimSupporterEgls",
      "outputs": [],
      "stateMutability": "nonpayable",
      "type": "function"
    },
    {
      "inputs": [],
      "name": "creatorEglsTotal",
      "outputs": [
        {
          "internalType": "uint256",
          "name": "",
          "type": "uint256"
        }
      ],
      "stateMutability": "view",
      "type": "function"
    },
    {
      "inputs": [],
      "name": "currentEpoch",
      "outputs": [
        {
          "internalType": "uint16",
          "name": "",
          "type": "uint16"
        }
      ],
      "stateMutability": "view",
      "type": "function"
    },
    {
      "inputs": [],
      "name": "currentEpochStartDate",
      "outputs": [
        {
          "internalType": "uint256",
          "name": "",
          "type": "uint256"
        }
      ],
      "stateMutability": "view",
      "type": "function"
    },
    {
      "inputs": [],
      "name": "desiredEgl",
      "outputs": [
        {
          "internalType": "int256",
          "name": "",
          "type": "int256"
        }
      ],
      "stateMutability": "view",
      "type": "function"
    },
    {
      "inputs": [
        {
          "internalType": "uint256",
          "name": "",
          "type": "uint256"
        }
      ],
      "name": "gasTargetSum",
      "outputs": [
        {
          "internalType": "uint256",
          "name": "",
          "type": "uint256"
        }
      ],
      "stateMutability": "view",
      "type": "function"
    },
    {
      "inputs": [],
      "name": "initialEgl",
      "outputs": [
        {
          "internalType": "int256",
          "name": "",
          "type": "int256"
        }
      ],
      "stateMutability": "view",
      "type": "function"
    },
    {
      "inputs": [
        {
          "internalType": "address",
          "name": "_token",
          "type": "address"
        },
        {
          "internalType": "address",
          "name": "_poolToken",
          "type": "address"
        },
        {
          "internalType": "address",
          "name": "_genesis",
          "type": "address"
        },
        {
          "internalType": "uint256",
          "name": "_currentEpochStartDate",
          "type": "uint256"
        },
        {
          "internalType": "uint24",
          "name": "_votingPauseSeconds",
          "type": "uint24"
        },
        {
          "internalType": "uint32",
          "name": "_epochLength",
          "type": "uint32"
        },
        {
          "internalType": "address[]",
          "name": "_seedAccounts",
          "type": "address[]"
        },
        {
          "internalType": "uint256[]",
          "name": "_seedAmounts",
          "type": "uint256[]"
        },
        {
          "internalType": "address",
          "name": "_creatorRewardsAccount",
          "type": "address"
        }
      ],
      "name": "initialize",
      "outputs": [],
      "stateMutability": "nonpayable",
      "type": "function"
    },
    {
      "inputs": [],
      "name": "liquidityEglMatchingTotal",
      "outputs": [
        {
          "internalType": "uint256",
          "name": "",
          "type": "uint256"
        }
      ],
      "stateMutability": "view",
      "type": "function"
    },
    {
      "inputs": [],
      "name": "owner",
      "outputs": [
        {
          "internalType": "address",
          "name": "",
          "type": "address"
        }
      ],
      "stateMutability": "view",
      "type": "function"
    },
    {
      "inputs": [],
      "name": "paused",
      "outputs": [
        {
          "internalType": "bool",
          "name": "",
          "type": "bool"
        }
      ],
      "stateMutability": "view",
      "type": "function"
    },
    {
      "inputs": [
        {
          "internalType": "uint256",
          "name": "_gasTarget",
          "type": "uint256"
        },
        {
          "internalType": "uint256",
          "name": "_eglAmount",
          "type": "uint256"
        },
        {
          "internalType": "uint8",
          "name": "_lockupDuration",
          "type": "uint8"
        }
      ],
      "name": "reVote",
      "outputs": [],
      "stateMutability": "nonpayable",
      "type": "function"
    },
    {
      "inputs": [],
      "name": "renounceOwnership",
      "outputs": [],
      "stateMutability": "nonpayable",
      "type": "function"
    },
    {
      "inputs": [
        {
          "internalType": "address",
          "name": "",
          "type": "address"
        }
      ],
      "name": "seeders",
      "outputs": [
        {
          "internalType": "uint256",
          "name": "",
          "type": "uint256"
        }
      ],
      "stateMutability": "view",
      "type": "function"
    },
    {
      "inputs": [
        {
          "internalType": "address",
          "name": "",
          "type": "address"
        }
      ],
      "name": "supporters",
      "outputs": [
        {
          "internalType": "uint32",
          "name": "matches",
          "type": "uint32"
        },
        {
          "internalType": "uint256",
          "name": "poolTokens",
          "type": "uint256"
        },
        {
          "internalType": "uint256",
          "name": "firstEgl",
          "type": "uint256"
        },
        {
          "internalType": "uint256",
          "name": "lastEgl",
          "type": "uint256"
        }
      ],
      "stateMutability": "view",
      "type": "function"
    },
    {
      "inputs": [],
      "name": "sweepPoolRewards",
      "outputs": [],
      "stateMutability": "nonpayable",
      "type": "function"
    },
    {
      "inputs": [],
      "name": "tallyVotes",
      "outputs": [],
      "stateMutability": "nonpayable",
      "type": "function"
    },
    {
      "inputs": [],
      "name": "tallyVotesGasLimit",
      "outputs": [
        {
          "internalType": "int256",
          "name": "",
          "type": "int256"
        }
      ],
      "stateMutability": "view",
      "type": "function"
    },
    {
      "inputs": [],
      "name": "tokensInCirculation",
      "outputs": [
        {
          "internalType": "uint256",
          "name": "",
          "type": "uint256"
        }
      ],
      "stateMutability": "view",
      "type": "function"
    },
    {
      "inputs": [
        {
          "internalType": "address",
          "name": "newOwner",
          "type": "address"
        }
      ],
      "name": "transferOwnership",
      "outputs": [],
      "stateMutability": "nonpayable",
      "type": "function"
    },
    {
      "inputs": [
        {
          "internalType": "uint256",
          "name": "_gasTarget",
          "type": "uint256"
        },
        {
          "internalType": "uint256",
          "name": "_eglAmount",
          "type": "uint256"
        },
        {
          "internalType": "uint8",
          "name": "_lockupDuration",
          "type": "uint8"
        }
      ],
      "name": "vote",
      "outputs": [],
      "stateMutability": "nonpayable",
      "type": "function"
    },
    {
      "inputs": [
        {
          "internalType": "uint256",
          "name": "",
          "type": "uint256"
        }
      ],
      "name": "voteWeightsSum",
      "outputs": [
        {
          "internalType": "uint256",
          "name": "",
          "type": "uint256"
        }
      ],
      "stateMutability": "view",
      "type": "function"
    },
    {
      "inputs": [
        {
          "internalType": "uint256",
          "name": "",
          "type": "uint256"
        }
      ],
      "name": "voterRewardSums",
      "outputs": [
        {
          "internalType": "uint256",
          "name": "",
          "type": "uint256"
        }
      ],
      "stateMutability": "view",
      "type": "function"
    },
    {
      "inputs": [
        {
          "internalType": "address",
          "name": "",
          "type": "address"
        }
      ],
      "name": "voters",
      "outputs": [
        {
          "internalType": "uint8",
          "name": "lockupDuration",
          "type": "uint8"
        },
        {
          "internalType": "uint16",
          "name": "voteEpoch",
          "type": "uint16"
        },
        {
          "internalType": "uint256",
          "name": "releaseDate",
          "type": "uint256"
        },
        {
          "internalType": "uint256",
          "name": "tokensLocked",
          "type": "uint256"
        },
        {
          "internalType": "uint256",
          "name": "gasTarget",
          "type": "uint256"
        }
      ],
      "stateMutability": "view",
      "type": "function"
    },
    {
      "inputs": [
        {
          "internalType": "uint256",
          "name": "",
          "type": "uint256"
        }
      ],
      "name": "votesTotal",
      "outputs": [
        {
          "internalType": "uint256",
          "name": "",
          "type": "uint256"
        }
      ],
      "stateMutability": "view",
      "type": "function"
    },
    {
      "inputs": [],
      "name": "withdraw",
      "outputs": [],
      "stateMutability": "nonpayable",
      "type": "function"
    },
    {
      "inputs": [],
      "name": "withdrawPoolTokens",
      "outputs": [],
      "stateMutability": "nonpayable",
      "type": "function"
    },
    {
      "stateMutability": "payable",
      "type": "receive"
    },
    {
      "inputs": [
        {
          "internalType": "address",
          "name": "_voter",
          "type": "address"
        },
        {
          "internalType": "uint256",
          "name": "_gasTarget",
          "type": "uint256"
        },
        {
          "internalType": "uint256",
          "name": "_eglAmount",
          "type": "uint256"
        },
        {
          "internalType": "uint8",
          "name": "_lockupDuration",
          "type": "uint8"
        },
        {
          "internalType": "uint256",
          "name": "_releaseTime",
          "type": "uint256"
        }
      ],
      "name": "internalVote",
      "outputs": [],
      "stateMutability": "nonpayable",
      "type": "function"
    },
    {
      "inputs": [
        {
          "internalType": "address",
          "name": "_voter",
          "type": "address"
        }
      ],
      "name": "internalWithdraw",
      "outputs": [],
      "stateMutability": "nonpayable",
      "type": "function"
    },
    {
      "inputs": [
        {
          "internalType": "uint256",
          "name": "_timePassedSinceOrigin",
          "type": "uint256"
        }
      ],
      "name": "issueCreatorRewards",
      "outputs": [],
      "stateMutability": "nonpayable",
      "type": "function"
    },
    {
      "inputs": [
        {
          "internalType": "int256",
          "name": "_blockGasLimit",
          "type": "int256"
        },
        {
          "internalType": "int256",
          "name": "_desiredEgl",
          "type": "int256"
        },
        {
          "internalType": "int256",
          "name": "_tallyVoteGasLimit",
          "type": "int256"
        }
      ],
      "name": "calculateBlockReward",
      "outputs": [],
      "stateMutability": "nonpayable",
      "type": "function"
    },
    {
      "inputs": [
        {
          "internalType": "uint256",
          "name": "_timePassedSinceOrigin",
          "type": "uint256"
        },
        {
          "internalType": "uint256",
          "name": "_maxSupply",
          "type": "uint256"
        },
        {
          "internalType": "uint256",
          "name": "_timeLocked",
          "type": "uint256"
        }
      ],
      "name": "calculateReleasedEgl",
      "outputs": [],
      "stateMutability": "nonpayable",
      "type": "function"
    },
    {
      "inputs": [
        {
          "internalType": "uint256",
          "name": "_currentEgl",
          "type": "uint256"
        },
        {
          "internalType": "uint256",
          "name": "_firstEgl",
          "type": "uint256"
        },
        {
          "internalType": "uint256",
          "name": "_lastEgl",
          "type": "uint256"
        },
        {
          "internalType": "uint256",
          "name": "_totalPoolTokens",
          "type": "uint256"
        }
      ],
      "name": "calculateCurrentPoolTokensDue",
      "outputs": [],
      "stateMutability": "nonpayable",
      "type": "function"
    },
    {
      "inputs": [
        {
          "internalType": "uint256",
          "name": "_firstEgl",
          "type": "uint256"
        },
        {
          "internalType": "uint256",
          "name": "_lastEgl",
          "type": "uint256"
        }
      ],
      "name": "calculateBonusEglsDue",
      "outputs": [],
      "stateMutability": "nonpayable",
      "type": "function"
    },
    {
      "inputs": [
        {
          "internalType": "address",
          "name": "_voter",
          "type": "address"
        },
        {
          "internalType": "uint16",
          "name": "_currentEpoch",
          "type": "uint16"
        },
        {
          "internalType": "uint16",
          "name": "_voterEpoch",
          "type": "uint16"
        },
        {
          "internalType": "uint8",
          "name": "_lockupDuration",
          "type": "uint8"
        },
        {
          "internalType": "uint256",
          "name": "_voteWeight",
          "type": "uint256"
        }
      ],
      "name": "calculateVoterReward",
      "outputs": [],
      "stateMutability": "nonpayable",
      "type": "function"
    },
    {
      "inputs": [
        {
          "internalType": "uint256",
          "name": "_itemTotal",
          "type": "uint256"
        },
        {
          "internalType": "uint256",
          "name": "_tokensInCirculation",
          "type": "uint256"
        }
      ],
      "name": "calculatePercentageOfTokensInCirculation",
      "outputs": [],
      "stateMutability": "nonpayable",
      "type": "function"
    }
  ],
  "bytecode": "0x608060405234801561001057600080fd5b50614cd2806100206000396000f3fe6080604052600436106102a45760003560e01c8063766718081161016e578063b4f34de6116100cb578063d70067221161007f578063f2fde38b11610064578063f2fde38b14610aef578063f5a0d6c014610b22578063fe9c1a2e14610b3757610330565b8063d700672214610ac5578063eabfa9e514610ada57610330565b8063c71fb96c116100b0578063c71fb96c146108e0578063ceaf749e14610a5f578063cf89489e14610a8957610330565b8063b4f34de614610874578063bbb2eab9146108a757610330565b806390c023f1116101225780639759634a116101075780639759634a146107bb578063a3ec138d146107e5578063a75cc4001461084a57610330565b806390c023f11461077057806393818fc61461078557610330565b806379a1745f1161015357806379a1745f146106be5780638b04f79c1461070c5780638da5cb5b1461073f57610330565b8063766718081461065f57806378d3e9f31461068b57610330565b806355b1d8f01161021c57806367699457116101d05780637010969b116101b55780637010969b146105f6578063715018a61461062057806373f866471461063557610330565b806367699457146105ab578063684b1a02146105c057610330565b80635c3728ad116102015780635c3728ad146104f25780635c975abb14610522578063647c75e21461054b57610330565b806355b1d8f014610480578063575ede3a146104b957610330565b80633716c17f116102735780633ccfd60b116102585780633ccfd60b146104265780634a0eeb5f1461043b57806352ce41b41461046b57610330565b80633716c17f146103de578063378a21781461041157610330565b80631018824314610335578063112bbd1d1461035c57806327aaa7b61461037357806335fc9b8f1461038857610330565b36610330576040805133815234602082015281517f85177f287940f2f05425a4029951af0e047a7f9c4eaa9a6e6917bcd869f86695929181900390910190a16040805162461bcd60e51b815260206004820152600f60248201527f45474c3a4e4f5f5041594d454e54530000000000000000000000000000000000604482015290519081900360640190fd5b600080fd5b34801561034157600080fd5b5061034a610b4c565b60408051918252519081900360200190f35b34801561036857600080fd5b50610371610b52565b005b34801561037f57600080fd5b5061034a610da2565b34801561039457600080fd5b50610371600480360360a08110156103ab57600080fd5b506001600160a01b038135169061ffff602082013581169160408101359091169060ff6060820135169060800135610da8565b3480156103ea57600080fd5b5061034a6004803603602081101561040157600080fd5b50356001600160a01b0316610dbd565b34801561041d57600080fd5b50610371610dcf565b34801561043257600080fd5b506103716113e7565b34801561044757600080fd5b506103716004803603604081101561045e57600080fd5b5080359060200135611584565b34801561047757600080fd5b5061034a6115d0565b34801561048c57600080fd5b50610371600480360360608110156104a357600080fd5b508035906020810135906040013560ff166115d6565b3480156104c557600080fd5b50610371600480360360408110156104dc57600080fd5b506001600160a01b0381351690602001356119b1565b3480156104fe57600080fd5b506103716004803603604081101561051557600080fd5b5080359060200135611dcc565b34801561052e57600080fd5b50610537611e14565b604080519115158252519081900360200190f35b34801561055757600080fd5b5061057e6004803603602081101561056e57600080fd5b50356001600160a01b0316611e1d565b6040805163ffffffff90951685526020850193909352838301919091526060830152519081900360800190f35b3480156105b757600080fd5b5061034a611e4b565b3480156105cc57600080fd5b50610371600480360360608110156105e357600080fd5b5080359060208101359060400135611e51565b34801561060257600080fd5b5061034a6004803603602081101561061957600080fd5b5035611e9b565b34801561062c57600080fd5b50610371611eaf565b34801561064157600080fd5b5061034a6004803603602081101561065857600080fd5b5035611f66565b34801561066b57600080fd5b50610674611f73565b6040805161ffff9092168252519081900360200190f35b34801561069757600080fd5b50610371600480360360208110156106ae57600080fd5b50356001600160a01b0316611f7d565b3480156106ca57600080fd5b50610371600480360360a08110156106e157600080fd5b506001600160a01b038135169060208101359060408101359060ff6060820135169060800135611f86565b34801561071857600080fd5b506103716004803603604081101561072f57600080fd5b508035906020013560ff16611f9a565b34801561074b57600080fd5b50610754612103565b604080516001600160a01b039092168252519081900360200190f35b34801561077c57600080fd5b5061034a612112565b34801561079157600080fd5b50610371600480360360608110156107a857600080fd5b5080359060208101359060400135612118565b3480156107c757600080fd5b50610371600480360360208110156107de57600080fd5b5035612123565b3480156107f157600080fd5b506108186004803603602081101561080857600080fd5b50356001600160a01b031661212f565b6040805160ff909616865261ffff90941660208601528484019290925260608401526080830152519081900360a00190f35b34801561085657600080fd5b5061034a6004803603602081101561086d57600080fd5b5035612163565b34801561088057600080fd5b506103716004803603604081101561089757600080fd5b508035906020013560ff16612170565b3480156108b357600080fd5b50610371600480360360608110156108ca57600080fd5b508035906020810135906040013560ff1661260a565b3480156108ec57600080fd5b50610371600480360361012081101561090457600080fd5b6001600160a01b038235811692602081013582169260408201359092169160608201359162ffffff6080820135169163ffffffff60a083013516919081019060e0810160c082013564010000000081111561095e57600080fd5b82018360208201111561097057600080fd5b8035906020019184602083028401116401000000008311171561099257600080fd5b91908080602002602001604051908101604052809392919081815260200183836020028082843760009201919091525092959493602081019350359150506401000000008111156109e257600080fd5b8201836020820111156109f457600080fd5b80359060200191846020830284011164010000000083111715610a1657600080fd5b919080806020026020016040519081016040528093929190818152602001838360200280828437600092019190915250929550505090356001600160a01b031691506129159050565b348015610a6b57600080fd5b5061034a60048036036020811015610a8257600080fd5b5035612fb8565b348015610a9557600080fd5b5061037160048036036080811015610aac57600080fd5b5080359060208101359060408101359060600135612fc5565b348015610ad157600080fd5b50610371613011565b348015610ae657600080fd5b5061034a613470565b348015610afb57600080fd5b5061037160048036036020811015610b1257600080fd5b50356001600160a01b0316613476565b348015610b2e57600080fd5b5061034a61358e565b348015610b4357600080fd5b5061034a613594565b609a5481565b60655460ff1615610b9d576040805162461bcd60e51b815260206004820152601060248201526f14185d5cd8589b194e881c185d5cd95960821b604482015290519081900360640190fd5b60f8544311610bf3576040805162461bcd60e51b815260206004820152601160248201527f45474c3a414c52454144595f5357455054000000000000000000000000000000604482015290519081900360640190fd5b4360f855609754609a544591600091610c0d91849161359a565b90508015610d485760fb54610c28908263ffffffff61377b16565b60fb55609f54610c3e908263ffffffff6137c616565b609f5560ef54604080516370a0823160e01b815230600482015290516001600160a01b039092169163a9059cbb914191610ccc9185916370a0823191602480820192602092909190829003018186803b158015610c9a57600080fd5b505afa158015610cae573d6000803e3d6000fd5b505050506040513d6020811015610cc457600080fd5b505185613820565b6040518363ffffffff1660e01b815260040180836001600160a01b03166001600160a01b0316815260200182815260200192505050602060405180830381600087803b158015610d1b57600080fd5b505af1158015610d2f573d6000803e3d6000fd5b505050506040513d6020811015610d4557600080fd5b50505b60f854604080513381524160208201528082019290925260608201849052608082018390524260a0830152517f0f6068cc0327366c9f8c4d052cf3e449a720815635c94fd32f6cf7b6af710e479181900360c00190a15050565b60985481565b610db58585858585613836565b505050505050565b60ee6020526000908152604090205481565b60655460ff1615610e1a576040805162461bcd60e51b815260206004820152601060248201526f14185d5cd8589b194e881c185d5cd95960821b604482015290519081900360640190fd5b60f654609e54610e3a9163ffffffff63010000009091048116906137c616565b4211610e8d576040805162461bcd60e51b815260206004820152601260248201527f45474c3a564f54455f4e4f545f454e4445440000000000000000000000000000604482015290519081900360640190fd5b45609a556000610eac670de0b6b3a7640000601e63ffffffff61399016565b609d54909150603461ffff90911610610f5b576000610f42610f35610eef610edc6034600163ffffffff61377b16565b609d5461ffff169063ffffffff61377b16565b610f29610f046034600263ffffffff61399016565b610f1d670de0b6b3a7640000601463ffffffff61399016565b9063ffffffff6139e916565b9063ffffffff61399016565b839063ffffffff6137c616565b9050610f57816802b5e3af16b1880000613820565b9150505b60dc54600090610f6c576000610f7b565b60dc5460e454610f7b916139e9565b90506000610f8c60d4820154613a2b565b905082811061111957609a5460f354610faa9163ffffffff613a6116565b60f35560f454610fc190600163ffffffff613a6116565b60f481905560f354610fd89163ffffffff613ac616565b609881905582126110215761101c61100d60f55461100160985486613b7e90919063ffffffff16565b9063ffffffff613be316565b6098549063ffffffff613a6116565b61104e565b61104e61103f60f55461100185609854613b7e90919063ffffffff16565b6098549063ffffffff613b7e16565b609755609a546110669061271063ffffffff613b7e16565b6097541215801561108d5750609a546110879061271063ffffffff613a6116565b60975413155b1561109957609a546097555b609d5460975460f35460f4546098546040805133815261ffff909616602087015285810194909452606085018890526080850186905260a085019290925260c084015260e083015242610100830152517f7f9ed4e6a05937b6f9fcaa91c2fe6f6ba0b0a7dc309b7e15367d08b8b5c044f5918190036101200190a161125d565b60f6546111399063ffffffff630100000090910481169060079061399016565b60f75461114d90429063ffffffff61377b16565b1061118f5761118b61117c60646111706005609a54613bf290919063ffffffff16565b9063ffffffff613ac616565b609a549063ffffffff613b7e16565b6097555b7fd4c520fe18c4d747998b5ff21f876ecb67cc070b489476dfe74fa89675684bb033609d60009054906101000a900461ffff1660975486856098546099546111e260f7544261377b90919063ffffffff16565b60f6546112029063ffffffff630100000090910481169060069061399016565b604080516001600160a01b03909a168a5261ffff90981660208a0152888801969096526060880194909452608087019290925260a086015260c085015260e08401526101008301524261012083015251908190036101400190a15b60005b60078160ff1610156112e95760dc8160010160ff166008811061127f57fe5b015460dc8260ff166008811061129157fe5b015560e460ff6001830116600881106112a657fe5b015460e48260ff16600881106112b857fe5b015560d460ff6001830116600881106112cd57fe5b015460d48260ff16600881106112df57fe5b0155600101611260565b50600060e381905560eb81905560db81905560f381905560f45560fa54609d5461ffff161080159061131d5750600060fc54115b1561133257609d546113329061ffff16613c9b565b609d805461ffff8082166001011661ffff1990911617905560f654609e5461136a9163ffffffff63010000009091048116906137c616565b609e55609d54609754609f546040805133815260001961ffff95861601909416602085015283810192909252606083018590526080830186905260a0830184905260c08301524260e0830152517f965de41675c54ca4ca3f1e8b230d2f5b089784683690a5215032665f966b5588918190036101000190a1505050565b60655460ff1615611432576040805162461bcd60e51b815260206004820152601060248201526f14185d5cd8589b194e881c185d5cd95960821b604482015290519081900360640190fd5b33600090815260ec6020526040902060020154611486576040805162461bcd60e51b815260206004820152600d60248201526c1151d30e9393d517d593d51151609a1b604482015290519081900360640190fd5b33600090815260ec602052604090206001015442116114ec576040805162461bcd60e51b815260206004820152601460248201527f45474c3a4e4f545f52454c454153455f44415445000000000000000000000000604482015290519081900360640190fd5b60ef546001600160a01b031663a9059cbb3361150781613e4e565b6040518363ffffffff1660e01b815260040180836001600160a01b03166001600160a01b0316815260200182815260200192505050602060405180830381600087803b15801561155657600080fd5b505af115801561156a573d6000803e3d6000fd5b505050506040513d602081101561158057600080fd5b5050565b609f819055600061159483613a2b565b6040805182815290519192507f7e7e5f44ddc2776c4ccd52d44b8a7a4f55503c4ae54907bb06a31c38efe71ff8919081900360200190a1505050565b609c5481565b60655460ff1615611621576040805162461bcd60e51b815260206004820152601060248201526f14185d5cd8589b194e881c185d5cd95960821b604482015290519081900360640190fd5b33600090815260ec6020526040902060020154611675576040805162461bcd60e51b815260206004820152600d60248201526c1151d30e9393d517d593d51151609a1b604482015290519081900360640190fd5b81156118f957670de0b6b3a76400008210156116d8576040805162461bcd60e51b815260206004820152601060248201527f45474c3a414d4e545f544f4f5f4c4f5700000000000000000000000000000000604482015290519081900360640190fd5b60ef54604080516370a0823160e01b815233600482015290516001600160a01b03909216916370a0823191602480820192602092909190829003018186803b15801561172357600080fd5b505afa158015611737573d6000803e3d6000fd5b505050506040513d602081101561174d57600080fd5b50518211156117a3576040805162461bcd60e51b815260206004820152601c60248201527f45474c3a494e53554646494349454e545f45474c5f42414c414e434500000000604482015290519081900360640190fd5b60ef5460408051636eb1769f60e11b8152336004820152306024820152905184926001600160a01b03169163dd62ed3e916044808301926020929190829003018186803b1580156117f357600080fd5b505afa158015611807573d6000803e3d6000fd5b505050506040513d602081101561181d57600080fd5b50511015611872576040805162461bcd60e51b815260206004820152601a60248201527f45474c3a494e53554646494349454e545f414c4c4f57414e4345000000000000604482015290519081900360640190fd5b60ef54604080516323b872dd60e01b81523360048201523060248201526044810185905290516001600160a01b03909216916323b872dd916064808201926020929091908290030181600087803b1580156118cc57600080fd5b505af11580156118e0573d6000803e3d6000fd5b505050506040513d60208110156118f657600080fd5b50505b60f654609e546119199163ffffffff63010000009091048116906137c616565b42111561192857611928610dcf565b33600081815260ec6020526040902060010154906119569061194990613e4e565b849063ffffffff6137c616565b92506119653385858585614126565b604080513381526020810186905280820185905242606082015290517f7557e999fc50cf5217e7120750c6e75d826f9facea381db8a7cbe7a2350d061f9181900360800190a150505050565b6119b9614620565b6033546001600160a01b03908116911614611a1b576040805162461bcd60e51b815260206004820181905260248201527f4f776e61626c653a2063616c6c6572206973206e6f7420746865206f776e6572604482015290519081900360640190fd5b60fd54811115611a72576040805162461bcd60e51b815260206004820152601c60248201527f45474c3a494e53554646494349454e545f44414f5f42414c414e434500000000604482015290519081900360640190fd5b6001600160a01b038216600090815260ee602052604090205415611add576040805162461bcd60e51b815260206004820152601260248201527f45474c3a414c52454144595f5345454445520000000000000000000000000000604482015290519081900360640190fd5b6001600160a01b038216600090815260ec602052604090206002015415611b4b576040805162461bcd60e51b815260206004820152601460248201527f45474c3a414c52454144595f4841535f564f5445000000000000000000000000604482015290519081900360640190fd5b60ef54604080516370a0823160e01b81526001600160a01b038581166004830152915191909216916370a08231916024808301926020929190829003018186803b158015611b9857600080fd5b505afa158015611bac573d6000803e3d6000fd5b505050506040513d6020811015611bc257600080fd5b505115611c16576040805162461bcd60e51b815260206004820152601460248201527f45474c3a414c52454144595f4841535f45474c53000000000000000000000000604482015290519081900360640190fd5b60f95460f754611c2b9163ffffffff6137c616565b4210611c7e576040805162461bcd60e51b815260206004820152601660248201527f45474c3a534545445f504552494f445f50415353454400000000000000000000604482015290519081900360640190fd5b60f15460408051630fb6a4a160e11b815233600482015290516000926001600160a01b031691631f6d4942916024808301926080929190829003018186803b158015611cc957600080fd5b505afa158015611cdd573d6000803e3d6000fd5b505050506040513d6080811015611cf357600080fd5b505190508015611d4a576040805162461bcd60e51b815260206004820152601260248201527f45474c3a49535f434f4e5452494255544f520000000000000000000000000000604482015290519081900360640190fd5b60fd54611d5d908363ffffffff61377b16565b60fd9081556001600160a01b038416600081815260ee6020908152604091829020869055925481519283529282018590528181019290925242606082015290517f9b861f4745a65efa4f8e7442d37a07edf7decd32b164b4af64ab50370a7bd28d9181900360800190a1505050565b6000611dd88383614624565b6040805182815290519192507fa15a35c9dd45af4fd008fbe269d5e5ed70b110228a45c2f074d793211f6cab13919081900360200190a1505050565b60655460ff1690565b60ed60205260009081526040902080546001820154600283015460039093015463ffffffff90921692909184565b609e5481565b6000611e5e84848461467f565b6040805182815290519192507fc8522cae1859b93fdaa20a6b2b2fa9c9d4abe1d0ac660e25392e5c84e19386fc919081900360200190a150505050565b60dc8160088110611ea857fe5b0154905081565b611eb7614620565b6033546001600160a01b03908116911614611f19576040805162461bcd60e51b815260206004820181905260248201527f4f776e61626c653a2063616c6c6572206973206e6f7420746865206f776e6572604482015290519081900360640190fd5b6040805162461bcd60e51b815260206004820152601960248201527f45474c3a4e4f5f52454e4f554e43455f4f574e45525348495000000000000000604482015290519081900360640190fd5b60a08160348110611ea857fe5b609d5461ffff1681565b61158081613e4e565b611f938585858585614126565b5050505050565b60655460ff1615611fe5576040805162461bcd60e51b815260206004820152601060248201526f14185d5cd8589b194e881c185d5cd95960821b604482015290519081900360640190fd5b33600090815260ee6020526040902054612046576040805162461bcd60e51b815260206004820152600e60248201527f45474c3a4e4f545f534545444552000000000000000000000000000000000000604482015290519081900360640190fd5b33600090815260ee602052604081208054919055609f5461206d908263ffffffff6137c616565b609f5560f75460f6546000916120a69161209a9060349063ffffffff630100000090910481169061399016565b9063ffffffff6137c616565b604080513381526020810185905280820183905242606082015290519192507f5356d501c5681bc11ad4a79b7bdf2821e62fbf883e09cd63546edef197d10a12919081900360800190a16120fd3385848685614126565b50505050565b6033546001600160a01b031690565b60975481565b6120fd83838361359a565b61212c81613c9b565b50565b60ec60205260009081526040902080546001820154600283015460039093015460ff83169361010090930461ffff16929085565b60e48160088110611ea857fe5b60655460ff16156121bb576040805162461bcd60e51b815260206004820152601060248201526f14185d5cd8589b194e881c185d5cd95960821b604482015290519081900360640190fd5b60f160009054906101000a90046001600160a01b03166001600160a01b03166340b982536040518163ffffffff1660e01b815260040160206040518083038186803b15801561220957600080fd5b505afa15801561221d573d6000803e3d6000fd5b505050506040513d602081101561223357600080fd5b50511580156122b9575060f160009054906101000a90046001600160a01b03166001600160a01b031663b51459fe6040518163ffffffff1660e01b815260040160206040518083038186803b15801561228b57600080fd5b505afa15801561229f573d6000803e3d6000fd5b505050506040513d60208110156122b557600080fd5b5051155b61230a576040805162461bcd60e51b815260206004820152601260248201527f45474c3a47454e455349535f4c4f434b45440000000000000000000000000000604482015290519081900360640190fd5b33600090815260ed602052604090205463ffffffff1615612372576040805162461bcd60e51b815260206004820152601360248201527f45474c3a414c52454144595f434c41494d454400000000000000000000000000604482015290519081900360640190fd5b60f15460408051630fb6a4a160e11b8152336004820152905160009283926001600160a01b0390911691631f6d494291602480820192608092909190829003018186803b1580156123c257600080fd5b505afa1580156123d6573d6000803e3d6000fd5b505050506040513d60808110156123ec57600080fd5b50805160209091015190925090508161244c576040805162461bcd60e51b815260206004820152601360248201527f45474c3a4e4f545f434f4e545249425554454400000000000000000000000000604482015290519081900360640190fd5b6000612470670de0b6b3a7640000610f1d610101548661399090919063ffffffff16565b90506000612496670de0b6b3a7640000610f1d610102548761399090919063ffffffff16565b905060006124c0670de0b6b3a7640000610f1d61010154610f29898961377b90919063ffffffff16565b905060006124d4828563ffffffff6137c616565b905060006124e28383614624565b33600090815260ed60205260409020805463ffffffff1916600190811782558101869055600281018590556003810184905560ff549192509061252590836137c6565b60ff55609f5461253b908363ffffffff6137c616565b609f55610101546101025460408051338152602081018c90528082018e905260ff8d166060820152608081019390935260a083019190915260c0820184905260e0820187905242610100830152517f27b23b2a7364e907ba19610e73d1a11ff47e714246d1192f15ccbffa74a8f7c0918190036101200190a16125fe338b848c6125f96125ea603460f660039054906101000a900463ffffffff1663ffffffff1661399090919063ffffffff16565b609e549063ffffffff6137c616565b614126565b50505050505050505050565b60655460ff1615612655576040805162461bcd60e51b815260206004820152601060248201526f14185d5cd8589b194e881c185d5cd95960821b604482015290519081900360640190fd5b670de0b6b3a76400008210156126b2576040805162461bcd60e51b815260206004820152601060248201527f45474c3a414d4e545f544f4f5f4c4f5700000000000000000000000000000000604482015290519081900360640190fd5b60ef54604080516370a0823160e01b815233600482015290516001600160a01b03909216916370a0823191602480820192602092909190829003018186803b1580156126fd57600080fd5b505afa158015612711573d6000803e3d6000fd5b505050506040513d602081101561272757600080fd5b505182111561277d576040805162461bcd60e51b815260206004820152601c60248201527f45474c3a494e53554646494349454e545f45474c5f42414c414e434500000000604482015290519081900360640190fd5b60ef5460408051636eb1769f60e11b8152336004820152306024820152905184926001600160a01b03169163dd62ed3e916044808301926020929190829003018186803b1580156127cd57600080fd5b505afa1580156127e1573d6000803e3d6000fd5b505050506040513d60208110156127f757600080fd5b5051101561284c576040805162461bcd60e51b815260206004820152601a60248201527f45474c3a494e53554646494349454e545f414c4c4f57414e4345000000000000604482015290519081900360640190fd5b60f654609e5461286c9163ffffffff63010000009091048116906137c616565b42111561287b5761287b610dcf565b60ef54604080516323b872dd60e01b81523360048201523060248201526044810185905290516001600160a01b03909216916323b872dd916064808201926020929091908290030181600087803b1580156128d557600080fd5b505af11580156128e9573d6000803e3d6000fd5b505050506040513d60208110156128ff57600080fd5b506129109050338484846000614126565b505050565b600054610100900460ff168061292e575061292e6147c8565b8061293c575060005460ff16155b6129775760405162461bcd60e51b815260040180806020018281038252602e815260200180614be2602e913960400191505060405180910390fd5b600054610100900460ff161580156129a2576000805460ff1961ff0019909116610100171660011790555b6001600160a01b038a166129fd576040805162461bcd60e51b815260206004820152601a60248201527f45474c3a494e56414c49445f45474c5f544f4b454e5f41444452000000000000604482015290519081900360640190fd5b6001600160a01b038916612a58576040805162461bcd60e51b815260206004820152601960248201527f45474c3a494e56414c49445f42505f544f4b454e5f4144445200000000000000604482015290519081900360640190fd5b6001600160a01b038816612ab3576040805162461bcd60e51b815260206004820152601860248201527f45474c3a494e56414c49445f47454e455349535f414444520000000000000000604482015290519081900360640190fd5b612abb6147ce565b612ac361486f565b612acb614975565b60ef80546001600160a01b03808d1673ffffffffffffffffffffffffffffffffffffffff199283161790925560f080548c841690831617905560f180548b8416921691909117908190556b026c62ad77dc602dae000000609b81905560fc819055609c556b0409f9cbc7c4a04c2200000060fb556acecb8f27f4200f3a00000060fd55694cd5d9c0f8633ab6000061010355604080517f4b472d4500000000000000000000000000000000000000000000000000000000815290516000939290921691634b472d4591600480820192602092909190829003018186803b158015612bb457600080fd5b505afa158015612bc8573d6000803e3d6000fd5b505050506040513d6020811015612bde57600080fd5b5051905080612c34576040805162461bcd60e51b815260206004820152601660248201527f45474c3a4e4f5f47454e455349535f42414c414e434500000000000000000000604482015290519081900360640190fd5b60f05460f154604080517f8da5cb5b00000000000000000000000000000000000000000000000000000000815290516000936001600160a01b03908116936370a0823193911691638da5cb5b91600480820192602092909190829003018186803b158015612ca157600080fd5b505afa158015612cb5573d6000803e3d6000fd5b505050506040513d6020811015612ccb57600080fd5b5051604080517fffffffff0000000000000000000000000000000000000000000000000000000060e085901b1681526001600160a01b039092166004830152516024808301926020929190829003018186803b158015612d2a57600080fd5b505afa158015612d3e573d6000803e3d6000fd5b505050506040513d6020811015612d5457600080fd5b5051905080612daa576040805162461bcd60e51b815260206004820152601260248201527f45474c3a4e4f5f4250545f42414c414e43450000000000000000000000000000604482015290519081900360640190fd5b612dcb82610f1d670de0b6b3a7640000609c5461399090919063ffffffff16565b61010155612deb82610f1d83670de0b6b3a764000063ffffffff61399016565b61010255600a60fa819055612e0a9063ffffffff808a16919061399016565b60f95560f7899055609e89905560f6805462ffffff191662ffffff8a161766ffffffff0000001916630100000063ffffffff8a160217905560f2805473ffffffffffffffffffffffffffffffffffffffff19166001600160a01b038616179055609c54609f5545609a81905560988190556099819055609755623d090061010455620f424060f555855115612ee85760005b86518160ff161015612ee657612ede878260ff1681518110612eba57fe5b6020026020010151878360ff1681518110612ed157fe5b60200260200101516119b1565b600101612e9c565b505b60ef5460f154610101546101025460f95460f75460f654604080513381523060208201526001600160a01b03988916818301529790961660608801526080870189905260a087019490945260c086019290925260e085015261010084015262ffffff81166101208401526301000000900463ffffffff1661014083015242610160830152517f162f0f0749685a830e63f558485ce790587625c4206d0489cf7e42b44b4c785691610180908290030190a1505080156125fe576000805461ff001916905550505050505050505050565b60d48160088110611ea857fe5b6000612fd385858585614a20565b6040805182815290519192507f4559bb1fd8d38ac4225e2e69ac3391fa694f480b89635e5e4d729f3e89794112919081900360200190a15050505050565b60655460ff161561305c576040805162461bcd60e51b815260206004820152601060248201526f14185d5cd8589b194e881c185d5cd95960821b604482015290519081900360640190fd5b33600090815260ed602052604090205463ffffffff166130c3576040805162461bcd60e51b815260206004820152601260248201527f45474c3a4e4f5f504f4f4c5f544f4b454e530000000000000000000000000000604482015290519081900360640190fd5b60f95460f7546130da90429063ffffffff61377b16565b1161312c576040805162461bcd60e51b815260206004820152601560248201527f45474c3a414c4c5f544f4b454e535f4c4f434b45440000000000000000000000604482015290519081900360640190fd5b600061315161314660f7544261377b90919063ffffffff16565b609c5460f95461467f565b33600090815260ed602052604090206002810154919250908210156131bd576040805162461bcd60e51b815260206004820152601660248201527f45474c3a414444525f544f4b454e535f4c4f434b454400000000000000000000604482015290519081900360640190fd5b6000816003015483106132fb575060018101805460009182905533825260ec602052604082208054919290916132059061ffff6101008204169060ff1663ffffffff6137c616565b609d5490915061ffff16811161321b5742613258565b60f654609d546132589161324b91630100000090910463ffffffff90811691610f2991869161ffff169061377b16565b429063ffffffff6137c616565b6001808401919091558401546002850154600386015460408051338152602081018a90528082018890526060810194909452608084019290925260a08301524260c0830152517f08c3711e2841c8ace4a6507d655277b6ea25bd017f0597be2b4365cd28e39f3b9181900360e00190a1505033600090815260ed60205260408120805463ffffffff1916815560018101829055600281018290556003015561339e565b61331383836002015484600301548560010154614a20565b600183015490915061332b908263ffffffff61377b16565b600183018190556002830154600384015460408051338152602081018890528082018690526060810194909452608084019290925260a08301524260c0830152517f08c3711e2841c8ace4a6507d655277b6ea25bd017f0597be2b4365cd28e39f3b9181900360e00190a1600282018390555b60f054604080516370a0823160e01b815230600482015290516001600160a01b039092169163a9059cbb9133916133f79185916370a0823191602480820192602092909190829003018186803b158015610c9a57600080fd5b6040518363ffffffff1660e01b815260040180836001600160a01b03166001600160a01b0316815260200182815260200192505050602060405180830381600087803b15801561344657600080fd5b505af115801561345a573d6000803e3d6000fd5b505050506040513d6020811015611f9357600080fd5b609b5481565b61347e614620565b6033546001600160a01b039081169116146134e0576040805162461bcd60e51b815260206004820181905260248201527f4f776e61626c653a2063616c6c6572206973206e6f7420746865206f776e6572604482015290519081900360640190fd5b6001600160a01b0381166135255760405162461bcd60e51b8152600401808060200182810382526026815260200180614b9b6026913960400191505060405180910390fd5b6033546040516001600160a01b038084169216907f8be0079c531659141344cd1fd0a4f28419497f9722a3daafe3b4186f6b6457e090600090a36033805473ffffffffffffffffffffffffffffffffffffffff19166001600160a01b0392909216919091179055565b609f5481565b60995481565b6000806000806135aa8587614a66565b905060006135b88689614a66565b905060006135ce8861271063ffffffff613a6116565b905060006135e48961271063ffffffff613b7e16565b9050808a121580156135f65750818a13155b1561361b57613614670de0b6b3a7640000606463ffffffff61399016565b95506136b4565b600084138015613660575087891380156136345750878a135b80156136405750818a13155b80613660575087891280156136545750878a125b80156136605750808a12155b156136b457613686604b610f298661117087670de0b6b3a764000063ffffffff613bf216565b94506136b16136a4670de0b6b3a7640000601963ffffffff61399016565b869063ffffffff6137c616565b95505b6136ed6064610f1d670de0b6b3a7640000610f1d6136e0624c4b4060fb546139e990919063ffffffff16565b8b9063ffffffff61399016565b609d5460fb546040805143815261ffff909316602084015282810191909152606082018d9052608082018c905260a082018b905260c0820188905260e08201899052610100820183905242610120830152519198507f7b567a10ebda9fc8530b066718cc2fa3c6fd42d5df71f9f8bc176ff6673972c391908190036101400190a15050505050509392505050565b60006137bd83836040518060400160405280601e81526020017f536166654d6174683a207375627472616374696f6e206f766572666c6f770000815250614a7d565b90505b92915050565b6000828201838110156137bd576040805162461bcd60e51b815260206004820152601b60248201527f536166654d6174683a206164646974696f6e206f766572666c6f770000000000604482015290519081900360640190fd5b600081831061382f57816137bd565b5090919050565b600080613867603461385b61ffff808a169082908a1660ff8a1663ffffffff6137c616565b9063ffffffff61382016565b9050845b818161ffff1610156139855760006138bc60a08361ffff166034811061388d57fe5b0154610f1d6138a7603461ffff871663ffffffff61377b16565b61010354610f29908a9063ffffffff61399016565b90506138ce848263ffffffff6137c616565b93507f8e7cb6eb982fc3985d01b0511802c5a4c6d9bf419ed5adbe39eaa4da9750474b8989868489610103546139158961ffff16603460ff1661377b90919063ffffffff16565b60a08a61ffff166034811061392657fe5b0154604080516001600160a01b03909916895261ffff9097166020890152878701959095526060870193909352608086019190915260a085015260c084015260e08301524261010083015251908190036101200190a15060010161386b565b505095945050505050565b60008261399f575060006137c0565b828202828482816139ac57fe5b04146137bd5760405162461bcd60e51b8152600401808060200182810382526021815260200180614c316021913960400191505060405180910390fd5b60006137bd83836040518060400160405280601a81526020017f536166654d6174683a206469766973696f6e206279207a65726f000000000000815250614b14565b600080609f5411613a3d5760006137c0565b609f546137c090610f1d6064610f2986670de0b6b3a764000063ffffffff61399016565b6000828201818312801590613a765750838112155b80613a8b5750600083128015613a8b57508381125b6137bd5760405162461bcd60e51b8152600401808060200182810382526021815260200180614bc16021913960400191505060405180910390fd5b600081613b1a576040805162461bcd60e51b815260206004820181905260248201527f5369676e6564536166654d6174683a206469766973696f6e206279207a65726f604482015290519081900360640190fd5b81600019148015613b2e5750600160ff1b83145b15613b6a5760405162461bcd60e51b8152600401808060200182810382526021815260200180614c106021913960400191505060405180910390fd5b6000828481613b7557fe5b05949350505050565b6000818303818312801590613b935750838113155b80613ba85750600083128015613ba857508381135b6137bd5760405162461bcd60e51b8152600401808060200182810382526024815260200180614c796024913960400191505060405180910390fd5b600081831261382f57816137bd565b600082613c01575060006137c0565b82600019148015613c155750600160ff1b82145b15613c515760405162461bcd60e51b8152600401808060200182810382526027815260200180614c526027913960400191505060405180910390fd5b82820282848281613c5e57fe5b05146137bd5760405162461bcd60e51b8152600401808060200182810382526027815260200180614c526027913960400191505060405180910390fd5b60f654600090613ce990613cc190849063ffffffff630100000090910481169061399016565b609b5460f65460fa54613ce49163ffffffff630100000090910481169061399016565b61467f565b90506000613d0860fc5461385b60fe548561377b90919063ffffffff16565b60ef5460f254604080517fa9059cbb0000000000000000000000000000000000000000000000000000000081526001600160a01b03928316600482015260248101859052905193945091169163a9059cbb916044808201926020929091908290030181600087803b158015613d7c57600080fd5b505af1158015613d90573d6000803e3d6000fd5b505050506040513d6020811015613da657600080fd5b505060fc54613dbb908263ffffffff61377b16565b60fc55609f54613dd1908263ffffffff6137c616565b609f5560f25460fe5460fc54609d54604080513381526001600160a01b0390951660208601528481018690526060850193909352608084019190915261ffff1660a08301524260c0830152517fb8eb1858344dfad27243fc861330eea15630cddc1d8c5c4eb9a72bb059aae54b9181900360e00190a15060fe5550565b6001600160a01b038116600090815260ec60205260408120805460028201805460038401805462ffffff1985168655600186018790559286905585905561ffff61010084041692909160ff9091169085613eae848463ffffffff61399016565b609d54909150600090613ec9908a9061ffff16888786613836565b90506000613ee461ffff881660ff871663ffffffff6137c616565b609d5490915060009061ffff168211613efe576000613f16565b609d54613f1690839061ffff1663ffffffff61377b16565b905060005b818160ff16101561403757613f488560dc8360ff1660088110613f3a57fe5b01549063ffffffff61377b16565b60dc8260ff1660088110613f5857fe5b0155613f7d613f6d868863ffffffff61399016565b60e48360ff1660088110613f3a57fe5b60e48260ff1660088110613f8d57fe5b0155609d54603490613fac9061ffff1660ff841663ffffffff6137c616565b101561400957609d54613fdf90869060a090613fd59061ffff1660ff861663ffffffff6137c616565b60348110613f3a57fe5b609d5460a090613ffc9061ffff1660ff851663ffffffff6137c616565b6034811061400657fe5b01555b61401d8860d48360ff1660088110613f3a57fe5b60d48260ff166008811061402d57fe5b0155600101613f1b565b50609f5461404b908463ffffffff6137c616565b609f55609d547fe0b45c9063ac79a1ba771cbe0d96ebb606253f393afdf9bd0bb9b2bc7eb16487908c9061ffff168986896034841061408b5760006140a2565b609d5460a09061ffff166034811061409f57fe5b01545b60d45460dc5460e454604080516001600160a01b039a909a168a5261ffff9890981660208a0152888801969096526060880194909452608087019290925260a086015260c085015260e08401526101008301524261012083015251908190036101400190a1614117878463ffffffff6137c616565b9b9a5050505050505050505050565b6001600160a01b038516600090815260ec602052604090206002015415614194576040805162461bcd60e51b815260206004820152601160248201527f45474c3a414c52454144595f564f544544000000000000000000000000000000604482015290519081900360640190fd5b610104546141a28545614b79565b106141f4576040805162461bcd60e51b815260206004820152601660248201527f45474c3a494e56414c49445f4741535f54415247455400000000000000000000604482015290519081900360640190fd5b60018260ff161015801561420c575060088260ff1611155b61425d576040805162461bcd60e51b815260206004820152601260248201527f45474c3a494e56414c49445f4c4f434b55500000000000000000000000000000604482015290519081900360640190fd5b60f654609e5461427d9163ffffffff63010000009091048116906137c616565b42106142d0576040805162461bcd60e51b815260206004820152601060248201527f45474c3a564f54455f544f4f5f46415200000000000000000000000000000000604482015290519081900360640190fd5b60f654609e546143079162ffffff8116916142fb9163ffffffff63010000009091048116906137c616565b9063ffffffff61377b16565b421061435a576040805162461bcd60e51b815260206004820152601260248201527f45474c3a564f54455f544f4f5f434c4f53450000000000000000000000000000604482015290519081900360640190fd5b60f35461436d904563ffffffff613a6116565b60f35560f45461438490600163ffffffff613a6116565b60f45560f6546000906143c29083906143b69061324b9060ff88169063ffffffff630100000090910481169061399016565b9063ffffffff614b8a16565b6001600160a01b038716600090815260ec60205260408120609d54815462ffff00191661010061ffff909216919091021760ff191660ff8716908117825560018201849055600282018890556003820189905592935091614424908790613990565b905060005b8560ff168160ff161015614548576144598260dc8360ff166008811061444b57fe5b01549063ffffffff6137c616565b60dc8260ff166008811061446957fe5b015561448e61447e898463ffffffff61399016565b60e48360ff166008811061444b57fe5b60e48260ff166008811061449e57fe5b0155609d546034906144bd9061ffff1660ff841663ffffffff6137c616565b101561451a57609d546144f090839060a0906144e69061ffff1660ff861663ffffffff6137c616565b6034811061444b57fe5b609d5460a09061450d9061ffff1660ff851663ffffffff6137c616565b6034811061451757fe5b01555b61452e8760d48360ff166008811061444b57fe5b60d48260ff166008811061453e57fe5b0155600101614429565b50609d5460dc5460e4547f58d3ad4d526c4b6a438a40b7d49daf638c30beaf79f1bea88df8dded09356181928b9261ffff909116918b918b918b918a91603487106145945760006145ab565b609d5460a09061ffff16603481106145a857fe5b01545b60d460000154604080516001600160a01b03909b168b5261ffff90991660208b015289890197909752606089019590955260ff909316608088015260a087019190915260c086015260e08501526101008401526101208301524261014083015251908190036101600190a15050505050505050565b3390565b60006137bd6b020b73425d21f1268ad00000610f1d670de0b6b3a7640000610f296004614657898463ffffffff6139e916565b0a600461467289670de0b6b3a764000063ffffffff6139e916565b0a9063ffffffff61377b16565b60f6546000906146a29063ffffffff630100000090910481169060349061399016565b84106146af5750816147c1565b60f6546000906146f8906146dc9085906142fb9063ffffffff630100000090910481169060349061399016565b610f1d670de0b6b3a7640000610f29898863ffffffff61377b16565b90506147516c0c9f2c9cd04674edea40000000610f1d6305f5e100610f2961472e89670de0b6b3a764000063ffffffff6139e916565b6004614744886305f5e10063ffffffff6139e916565b0a9063ffffffff61399016565b609d549092507f770b910b51630d8769509d706f38ae95b1e0254d0d4eacafbcc95fe7da6d8b2e9061ffff1661478e83606463ffffffff61399016565b6040805161ffff9093168352602083019190915281810185905260608201879052426080830152519081900360a00190a1505b9392505050565b303b1590565b600054610100900460ff16806147e757506147e76147c8565b806147f5575060005460ff16155b6148305760405162461bcd60e51b815260040180806020018281038252602e815260200180614be2602e913960400191505060405180910390fd5b600054610100900460ff1615801561485b576000805460ff1961ff0019909116610100171660011790555b801561212c576000805461ff001916905550565b600054610100900460ff168061488857506148886147c8565b80614896575060005460ff16155b6148d15760405162461bcd60e51b815260040180806020018281038252602e815260200180614be2602e913960400191505060405180910390fd5b600054610100900460ff161580156148fc576000805460ff1961ff0019909116610100171660011790555b6000614906614620565b6033805473ffffffffffffffffffffffffffffffffffffffff19166001600160a01b038316908117909155604051919250906000907f8be0079c531659141344cd1fd0a4f28419497f9722a3daafe3b4186f6b6457e0908290a350801561212c576000805461ff001916905550565b600054610100900460ff168061498e575061498e6147c8565b8061499c575060005460ff16155b6149d75760405162461bcd60e51b815260040180806020018281038252602e815260200180614be2602e913960400191505060405180910390fd5b600054610100900460ff16158015614a02576000805460ff1961ff0019909116610100171660011790555b6065805460ff19169055801561212c576000805461ff001916905550565b600080614a37856142fb888763ffffffff61382016565b9050614a5c614a4c858763ffffffff61377b16565b610f1d858463ffffffff61399016565b9695505050505050565b6000818313614a77578282036137bd565b50900390565b60008184841115614b0c5760405162461bcd60e51b81526004018080602001828103825283818151815260200191508051906020019080838360005b83811015614ad1578181015183820152602001614ab9565b50505050905090810190601f168015614afe5780820380516001836020036101000a031916815260200191505b509250505060405180910390fd5b505050900390565b60008183614b635760405162461bcd60e51b8152602060048201818152835160248401528351909283926044909101919085019080838360008315614ad1578181015183820152602001614ab9565b506000838581614b6f57fe5b0495945050505050565b6000818311614a77578282036137bd565b60008183101561382f57816137bd56fe4f776e61626c653a206e6577206f776e657220697320746865207a65726f20616464726573735369676e6564536166654d6174683a206164646974696f6e206f766572666c6f77496e697469616c697a61626c653a20636f6e747261637420697320616c726561647920696e697469616c697a65645369676e6564536166654d6174683a206469766973696f6e206f766572666c6f77536166654d6174683a206d756c7469706c69636174696f6e206f766572666c6f775369676e6564536166654d6174683a206d756c7469706c69636174696f6e206f766572666c6f775369676e6564536166654d6174683a207375627472616374696f6e206f766572666c6f77a264697066735822122059117bff7a599969dabfdaccc10a2014613d41532469856197c473a14106225e64736f6c63430006060033",
  "immutableReferences": {},
  "source": "pragma solidity 0.6.6;\n\nimport \"../EglContract.sol\";\n\ncontract TestableEglContract is EglContract {\n    event PercentageCalculated(uint percentage);\n    event ReleasedEglCalculated(uint currentEgl);\n    event PoolTokensDueCalculated(uint poolTokensDue);\n    event BonusEglsDueCalculated(uint bonusEglsDue);\n\n    function internalVote(\n        address _voter,\n        uint _gasTarget,\n        uint _eglAmount,\n        uint8 _lockupDuration,\n        uint _releaseTime\n    ) external {\n        _internalVote(\n            _voter,\n            _gasTarget,\n            _eglAmount,\n            _lockupDuration,\n            _releaseTime\n        );\n    }\n\n    function internalWithdraw(address _voter) external {\n        _internalWithdraw(_voter);\n    }\n\n    function issueCreatorRewards(uint _timePassedSinceOrigin) external {\n        _issueCreatorRewards(_timePassedSinceOrigin);\n    }\n\n    function calculateBlockReward(int _blockGasLimit, int _desiredEgl, int _tallyVoteGasLimit) external {\n        _calculateBlockReward(_blockGasLimit, _desiredEgl, _tallyVoteGasLimit);\n    }\n\n    function calculateReleasedEgl(uint _timePassedSinceOrigin, uint _maxSupply, uint _timeLocked) external {\n        uint releasedEgl = _calculateReleasedEgl(_timePassedSinceOrigin, _maxSupply, _timeLocked);\n        emit ReleasedEglCalculated(releasedEgl);\n    }\n    \n    function calculateCurrentPoolTokensDue(\n        uint _currentEgl, \n        uint _firstEgl, \n        uint _lastEgl, \n        uint _totalPoolTokens\n    ) external {\n        uint poolTokensDue = _calculateCurrentPoolTokensDue(_currentEgl, _firstEgl, _lastEgl, _totalPoolTokens);\n        emit PoolTokensDueCalculated(poolTokensDue);\n    }\n\n    function calculateBonusEglsDue(uint _firstEgl, uint _lastEgl) external {\n        uint bonusEglsDue = _calculateBonusEglsDue(_firstEgl, _lastEgl);\n        emit BonusEglsDueCalculated(bonusEglsDue);\n    }\n\n    function calculateVoterReward(\n        address _voter,\n        uint16 _currentEpoch,\n        uint16 _voterEpoch,\n        uint8 _lockupDuration,\n        uint _voteWeight\n    ) external {\n        _calculateVoterReward(_voter, _currentEpoch, _voterEpoch, _lockupDuration, _voteWeight);\n    }\n\n    function calculatePercentageOfTokensInCirculation(uint _itemTotal, uint _tokensInCirculation) external {\n        tokensInCirculation = _tokensInCirculation;\n        uint percentage = _calculatePercentageOfTokensInCirculation(_itemTotal);\n        emit PercentageCalculated(percentage);\n    }\n}",
  "sourcePath": "/Users/svancoller/Development/bloXroute/egl/contracts/helpers/TestableEglContract.sol",
  "compiler": {
    "name": "solc",
    "version": "0.6.6+commit.6c089d02.Emscripten.clang"
  },
  "schemaVersion": "3.2.5",
  "updatedAt": "2021-06-18T05:44:41.062Z",
  "devdoc": {
    "methods": {
      "addSeedAccount(address,uint256)": {
        "details": "Owner only function to add a seeder account with specified number of EGL's",
        "params": {
          "_seedAccount": "Wallet address of seeder",
          "_seedAmount": "Amount to seed"
        }
      },
      "claimSeederEgls(uint256,uint8)": {
        "details": "Function for seed accounts to claim their EGL's and enter initial vote with locked tokens",
        "params": {
          "_gasTarget": "desired gas target for initial vote when claiming tokens",
          "_lockupDuration": "duration to lock tokens for initial vote"
        }
      },
      "claimSupporterEgls(uint256,uint8)": {
        "details": "Allows EGL Genesis contributors to claim their \"bonus\" EGL's that get entered into initial vote",
        "params": {
          "_gasTarget": "desired gas target for initial vote when claiming tokens",
          "_lockupDuration": "duration to lock tokens for initial vote"
        }
      },
      "initialize(address,address,address,uint256,uint24,uint32,address[],uint256[],address)": {
        "details": "Initialized contract variables",
        "params": {
          "_creatorRewardsAccount": "Address that creator rewards get sent to",
          "_currentEpochStartDate": "Start date for the first epoch",
          "_epochLength": "The length of each epoch in seconds",
          "_genesis": "Address of the EGL Genesis contract",
          "_poolToken": "Address of the Balance Pool Token (BPT)",
          "_seedAccounts": "List of accounts to seed with EGL's",
          "_seedAmounts": "Amount of EGLS's to seeds accounts with",
          "_token": "Address of the EGL token     ",
          "_votingPauseSeconds": "Number of seconds to pause voting before votes are tallied"
        }
      },
      "owner()": {
        "details": "Returns the address of the current owner."
      },
      "paused()": {
        "details": "Returns true if the contract is paused, and false otherwise."
      },
      "reVote(uint256,uint256,uint8)": {
        "details": "Re-Vote to change parameters of an existing vote",
        "params": {
          "_eglAmount": "Amount of EGL's to vote with",
          "_gasTarget": "The desired gas limit",
          "_lockupDuration": "Duration to lock the EGL's"
        }
      },
      "renounceOwnership()": {
        "details": "Do not allow owner to renounce ownership, only transferOwnership"
      },
      "sweepPoolRewards()": {
        "details": "Send EGL reward to miner of the block. Reward caclulated based on how close the block gas limit is to the desired EGL. The closer it is, the higher the reward"
      },
      "tallyVotes()": {
        "details": "Tally Votes for the most recent epoch and calculate the new desired EGL amount"
      },
      "transferOwnership(address)": {
        "details": "Transfers ownership of the contract to a new account (`newOwner`). Can only be called by the current owner."
      },
      "vote(uint256,uint256,uint8)": {
        "details": "Vote for desired gas limit and upgrade",
        "params": {
          "_eglAmount": "Amount of EGL's to vote with",
          "_gasTarget": "The desired gas limit",
          "_lockupDuration": "Duration to lock the EGL's"
        }
      },
      "withdraw()": {
        "details": "Withdraw EGL's once they have matured"
      },
      "withdrawPoolTokens()": {
        "details": "Allows for the withdrawal of liquidity pool tokens once they have matured"
      }
    }
  },
  "userdoc": {
    "methods": {}
  }
}